{
	"data": {
		"bytecode": {
			"linkReferences": {},
			"object": "60806040523480156200001157600080fd5b506203f48060078190555060006040518060e00160405280600081526020013373ffffffffffffffffffffffffffffffffffffffff1681526020016040518060400160405280600581526020017f6f776e6572000000000000000000000000000000000000000000000000000000815250815260200160405180602001604052806000815250815260200160405180602001604052806000815250815260200142815260200160026004811115620000ce57620000cd620003e7565b5b815250905060048190806001815401808255809150506001900390600052602060002090600702016000909190919091506000820151816000015560208201518160010160006101000a81548173ffffffffffffffffffffffffffffffffffffffff021916908373ffffffffffffffffffffffffffffffffffffffff16021790555060408201518160020190805190602001906200016e92919062000301565b5060608201518160030190805190602001906200018d92919062000301565b506080820151816004019080519060200190620001ac92919062000301565b5060a0820151816005015560c08201518160060160006101000a81548160ff02191690836004811115620001e557620001e4620003e7565b5b02179055505050506203f480600b81905550610bb8600c819055506203f480601081905550600d6040518060c00160405280600081526020016001815260200160018152602001428152602001428152602001600260038111156200024f576200024e620003e7565b5b8152509080600181540180825580915050600190039060005260206000209060060201600090919091909150600082015181600001556020820151816001015560408201518160020155606082015181600301556080820151816004015560a08201518160050160006101000a81548160ff02191690836003811115620002db57620002da620003e7565b5b021790555050506000600e60008081526020019081526020016000208190555062000445565b8280546200030f90620003b1565b90600052602060002090601f0160209004810192826200033357600085556200037f565b82601f106200034e57805160ff19168380011785556200037f565b828001600101855582156200037f579182015b828111156200037e57825182559160200191906001019062000361565b5b5090506200038e919062000392565b5090565b5b80821115620003ad57600081600090555060010162000393565b5090565b60006002820490506001821680620003ca57607f821691505b60208210811415620003e157620003e062000416565b5b50919050565b7f4e487b7100000000000000000000000000000000000000000000000000000000600052602160045260246000fd5b7f4e487b7100000000000000000000000000000000000000000000000000000000600052602260045260246000fd5b61585280620004556000396000f3fe608060405234801561001057600080fd5b50600436106101da5760003560e01c8063965cfb5c11610104578063d388fb7c116100a2578063e939567911610071578063e93956791461060e578063ebe8c6fa1461063e578063f2a6fc461461065a578063fb84a1d814610678576101da565b8063d388fb7c14610560578063d41b47d314610590578063d6fcbe6c146105ae578063e484018a146105de576101da565b8063b3c6e789116100de578063b3c6e789146104c4578063baeee9ed146104f4578063c65d10c014610510578063d27eaa931461052f576101da565b8063965cfb5c1461043f578063b03ef5aa14610475578063b2f5f56d146104a6576101da565b806338dc2de51161017c57806366e15fa61161014b57806366e15fa61461037057806369512a07146103a057806378555cf8146103d557806381b2664a1461040f576101da565b806338dc2de5146102fa5780633fc62a26146103185780634012ec96146103345780635ff9ed8714610352576101da565b8063315fbd89116101b8578063315fbd891461025e57806335010d781461027c578063362f13671461029a57806337b8ec5f146102ca576101da565b80630b12c493146101df5780631059ead11461020f5780632ccdab8a1461022b575b600080fd5b6101f960048036038101906101f491906146c0565b6106ad565b6040516102069190614dec565b60405180910390f35b610229600480360381019061022491906146c0565b610752565b005b610245600480360381019061024091906146c0565b6108a5565b6040516102559493929190614ce7565b60405180910390f35b610266610aa2565b6040516102739190614caa565b60405180910390f35b610284610b59565b6040516102919190614e8e565b60405180910390f35b6102b460048036038101906102af91906146ed565b610ba2565b6040516102c19190614ccc565b60405180910390f35b6102e460048036038101906102df919061454c565b610cc8565b6040516102f19190614e8e565b60405180910390f35b610302610df9565b60405161030f9190614e8e565b60405180910390f35b610332600480360381019061032d91906146c0565b610e03565b005b61033c610ec6565b6040516103499190614caa565b60405180910390f35b61035a610f65565b6040516103679190614caa565b60405180910390f35b61038a600480360381019061038591906145df565b611168565b6040516103979190614e8e565b60405180910390f35b6103ba60048036038101906103b591906146c0565b611396565b6040516103cc96959493929190614c34565b60405180910390f35b6103ef60048036038101906103ea91906146c0565b61166c565b6040516104069b9a99989796959493929190614d2c565b60405180910390f35b610429600480360381019061042491906146c0565b611977565b6040516104369190614e8e565b60405180910390f35b610459600480360381019061045491906146c0565b611a64565b60405161046c9796959493929190614ea9565b60405180910390f35b61048f600480360381019061048a9190614464565b611dcd565b60405161049d929190614f2d565b60405180910390f35b6104ae611f34565b6040516104bb9190614caa565b60405180910390f35b6104de60048036038101906104d99190614464565b612073565b6040516104eb9190614ccc565b60405180910390f35b61050e60048036038101906105099190614491565b6120fd565b005b610518612399565b604051610526929190614f2d565b60405180910390f35b610549600480360381019061054491906146c0565b6124c0565b604051610557929190614f2d565b60405180910390f35b61057a600480360381019061057591906146c0565b61278a565b6040516105879190614dec565b60405180910390f35b6105986128e0565b6040516105a59190614caa565b60405180910390f35b6105c860048036038101906105c391906146c0565b612ae3565b6040516105d59190614ccc565b60405180910390f35b6105f860048036038101906105f3919061458c565b612b9e565b6040516106059190614e8e565b60405180910390f35b610628600480360381019061062391906146c0565b612cf1565b6040516106359190614dec565b60405180910390f35b6106586004803603810190610653919061472d565b612e61565b005b610662612f0d565b60405161066f9190614caa565b60405180910390f35b610692600480360381019061068d91906146c0565b612fac565b6040516106a496959493929190614f56565b60405180910390f35b6060600060405180604001604052806040518060400160405280600581526020017f706167617200000000000000000000000000000000000000000000000000000081525081526020016040518060400160405280600781526020017f72656365626572000000000000000000000000000000000000000000000000008152508152509050808360028110610745576107446154c2565b5b6020020151915050919050565b600080610771600f6000858152602001908152602001600020546108a5565b5050915091506000600381111561078b5761078a615464565b5b600d848154811061079f5761079e6154c2565b5b906000526020600020906006020160050160009054906101000a900460ff1660038111156107d0576107cf615464565b5b1480156107e1575060011515821515145b156108a057600115158115151415610850576002600d8481548110610809576108086154c2565b5b906000526020600020906006020160050160006101000a81548160ff0219169083600381111561083c5761083b615464565b5b021790555061084a8361312b565b5061089f565b6003600d8481548110610866576108656154c2565b5b906000526020600020906006020160050160006101000a81548160ff0219169083600381111561089957610898615464565b5b02179055505b5b505050565b6000806000806000935060009250600091506000905060006003600087815260200190815260200160002080548060200260200160405190810160405280929190818152602001828054801561091a57602002820191906000526020600020905b815481526020019060010190808311610906575b5050505050905060005b8151811015610a3957600115156002838381518110610946576109456154c2565b5b60200260200101518154811061095f5761095e6154c2565b5b906000526020600020906003020160000160149054906101000a900460ff16151514156109d857600282828151811061099b5761099a6154c2565b5b6020026020010151815481106109b4576109b36154c2565b5b906000526020600020906003020160010154846109d191906150cc565b9350610a26565b60028282815181106109ed576109ec6154c2565b5b602002602001015181548110610a0657610a056154c2565b5b90600052602060002090600302016001015483610a2391906150cc565b92505b8080610a319061538c565b915050610924565b504260018781548110610a4f57610a4e6154c2565b5b9060005260206000209060060201600401541080610a6e575061138883115b80610a7a575061138882115b15610a8457600194505b81831115610a955760019350610a9a565b600093505b509193509193565b60606000600d8054905067ffffffffffffffff811115610ac557610ac46154f1565b5b604051908082528060200260200182016040528015610af35781602001602082028036833780820191505090505b5090506000805b600d80549050811015610b505780838381518110610b1b57610b1a6154c2565b5b602002602001018181525050600e60008381526020019081526020016000205491508080610b489061538c565b915050610afa565b50819250505090565b600080610b64612399565b9150506000610b71610df9565b905081816064610b819190615153565b610b8b9190615122565b9250600c54831015610b9d57600c5492505b505090565b60008060036000858152602001908152602001600020805480602002602001604051908101604052809291908181526020018280548015610c0257602002820191906000526020600020905b815481526020019060010190808311610bee575b5050505050905060005b8151811015610cc0578373ffffffffffffffffffffffffffffffffffffffff166002838381518110610c4157610c406154c2565b5b602002602001015181548110610c5a57610c596154c2565b5b906000526020600020906003020160000160009054906101000a900473ffffffffffffffffffffffffffffffffffffffff1673ffffffffffffffffffffffffffffffffffffffff161415610cad57600192505b8080610cb89061538c565b915050610c0c565b505092915050565b600080610cd484613273565b9150506000915060005b600d80549050811015610df15781600d8281548110610d0057610cff6154c2565b5b906000526020600020906006020160000154148015610d75575060026003811115610d2e57610d2d615464565b5b600d8281548110610d4257610d416154c2565b5b906000526020600020906006020160050160009054906101000a900460ff166003811115610d7357610d72615464565b5b145b8015610da5575083600d8281548110610d9157610d906154c2565b5b906000526020600020906006020160040154105b15610dde57600d8181548110610dbe57610dbd6154c2565b5b90600052602060002090600602016002015483610ddb91906150cc565b92505b8080610de99061538c565b915050610cde565b505092915050565b6000600a54905090565b600080610e2260066000858152602001908152602001600020546108a5565b50509150915060006004811115610e3c57610e3b615464565b5b60048481548110610e5057610e4f6154c2565b5b906000526020600020906007020160060160009054906101000a900460ff166004811115610e8157610e80615464565b5b148015610e92575060011515821515145b15610ec157600115158115151415610eb457610eaf83600261332a565b610ec0565b610ebf83600361332a565b5b5b505050565b6060600060088054905067ffffffffffffffff811115610ee957610ee86154f1565b5b604051908082528060200260200182016040528015610f175781602001602082028036833780820191505090505b50905060005b600880549050811015610f5d5780828281518110610f3e57610f3d6154c2565b5b6020026020010181815250508080610f559061538c565b915050610f1d565b508091505090565b6060600080606060005b60048054905081101561102f5760006004811115610f9057610f8f615464565b5b60048281548110610fa457610fa36154c2565b5b906000526020600020906007020160060160009054906101000a900460ff166004811115610fd557610fd4615464565b5b141561101c576000610ff960066000848152602001908152602001600020546108a5565b505050905060011515811515141561101a5783806110169061538c565b9450505b505b80806110279061538c565b915050610f6f565b508167ffffffffffffffff81111561104a576110496154f1565b5b6040519080825280602002602001820160405280156110785781602001602082028036833780820191505090505b50905060005b60048054905081101561115e576000600481111561109f5761109e615464565b5b600482815481106110b3576110b26154c2565b5b906000526020600020906007020160060160009054906101000a900460ff1660048111156110e4576110e3615464565b5b141561114b57600061110860066000848152602001908152602001600020546108a5565b5050509050600115158115151415611149578183868151811061112e5761112d6154c2565b5b60200260200101818152505084806111459061538c565b9550505b505b80806111569061538c565b91505061107e565b5080935050505090565b60008061117433613273565b91505060006040518061016001604052806002600481111561119957611198615464565b5b81526020018a60018111156111b1576111b0615464565b5b8152602001838152602001600081526020018981526020018881526020018781526020018681526020018581526020016000815260200142815250905060088190806001815401808255809150506001900390600052602060002090600a020160009091909190915060008201518160000160006101000a81548160ff0219169083600481111561124557611244615464565b5b021790555060208201518160000160016101000a81548160ff0219169083600181111561127557611274615464565b5b0217905550604082015181600101556060820151816002015560808201518160030190805190602001906112aa929190614239565b5060a08201518160040190805190602001906112c7929190614239565b5060c0820151816005015560e08201518160060190805190602001906112ee929190614239565b506101008201518160070155610120820151816008015561014082015181600901555050600160088054905061132491906151ad565b925061132f8361341a565b6000600181111561134357611342615464565b5b89600181111561135657611355615464565b5b14156113755785600a5461136a91906151ad565b600a8190555061138a565b85600a5461138391906150cc565b600a819055505b50509695505050505050565b600060608060606000806000600188815481106113b6576113b56154c2565b5b90600052602060002090600602016040518060c00160405290816000820160009054906101000a900473ffffffffffffffffffffffffffffffffffffffff1673ffffffffffffffffffffffffffffffffffffffff1673ffffffffffffffffffffffffffffffffffffffff16815260200160018201805461143590615329565b80601f016020809104026020016040519081016040528092919081815260200182805461146190615329565b80156114ae5780601f10611483576101008083540402835291602001916114ae565b820191906000526020600020905b81548152906001019060200180831161149157829003601f168201915b505050505081526020016002820180546114c790615329565b80601f01602080910402602001604051908101604052809291908181526020018280546114f390615329565b80156115405780601f1061151557610100808354040283529160200191611540565b820191906000526020600020905b81548152906001019060200180831161152357829003601f168201915b5050505050815260200160038201805480602002602001604051908101604052809291908181526020016000905b8282101561161a57838290600052602060002001805461158d90615329565b80601f01602080910402602001604051908101604052809291908181526020018280546115b990615329565b80156116065780601f106115db57610100808354040283529160200191611606565b820191906000526020600020905b8154815290600101906020018083116115e957829003601f168201915b50505050508152602001906001019061156e565b505050508152602001600482015481526020016005820154815250509050806000015181602001518260400151836060015184608001518560a001519650965096509650965096505091939550919395565b6000806000806060806000606060008060008060088d81548110611693576116926154c2565b5b90600052602060002090600a0201604051806101600160405290816000820160009054906101000a900460ff1660048111156116d2576116d1615464565b5b60048111156116e4576116e3615464565b5b81526020016000820160019054906101000a900460ff16600181111561170d5761170c615464565b5b600181111561171f5761171e615464565b5b8152602001600182015481526020016002820154815260200160038201805461174790615329565b80601f016020809104026020016040519081016040528092919081815260200182805461177390615329565b80156117c05780601f10611795576101008083540402835291602001916117c0565b820191906000526020600020905b8154815290600101906020018083116117a357829003601f168201915b505050505081526020016004820180546117d990615329565b80601f016020809104026020016040519081016040528092919081815260200182805461180590615329565b80156118525780601f1061182757610100808354040283529160200191611852565b820191906000526020600020905b81548152906001019060200180831161183557829003601f168201915b505050505081526020016005820154815260200160068201805461187590615329565b80601f01602080910402602001604051908101604052809291908181526020018280546118a190615329565b80156118ee5780601f106118c3576101008083540402835291602001916118ee565b820191906000526020600020905b8154815290600101906020018083116118d157829003601f168201915b5050505050815260200160078201548152602001600882015481526020016009820154815250509050806000015181602001518260400151836060015184608001518560a001518660c001518760e001518861010001518961012001518a61014001519b509b509b509b509b509b509b509b509b509b509b505091939597999b90929496989a50565b6000805b600d80549050811015611a5e576002600381111561199c5761199b615464565b5b600d82815481106119b0576119af6154c2565b5b906000526020600020906006020160050160009054906101000a900460ff1660038111156119e1576119e0615464565b5b148015611a12575082600d82815481106119fe576119fd6154c2565b5b906000526020600020906006020160040154105b15611a4b57600d8181548110611a2b57611a2a6154c2565b5b90600052602060002090600602016002015482611a4891906150cc565b91505b8080611a569061538c565b91505061197b565b50919050565b6000806060806060600080600060048981548110611a8557611a846154c2565b5b90600052602060002090600702016040518060e0016040529081600082015481526020016001820160009054906101000a900473ffffffffffffffffffffffffffffffffffffffff1673ffffffffffffffffffffffffffffffffffffffff1673ffffffffffffffffffffffffffffffffffffffff168152602001600282018054611b0e90615329565b80601f0160208091040260200160405190810160405280929190818152602001828054611b3a90615329565b8015611b875780601f10611b5c57610100808354040283529160200191611b87565b820191906000526020600020905b815481529060010190602001808311611b6a57829003601f168201915b50505050508152602001600382018054611ba090615329565b80601f0160208091040260200160405190810160405280929190818152602001828054611bcc90615329565b8015611c195780601f10611bee57610100808354040283529160200191611c19565b820191906000526020600020905b815481529060010190602001808311611bfc57829003601f168201915b50505050508152602001600482018054611c3290615329565b80601f0160208091040260200160405190810160405280929190818152602001828054611c5e90615329565b8015611cab5780601f10611c8057610100808354040283529160200191611cab565b820191906000526020600020905b815481529060010190602001808311611c8e57829003601f168201915b50505050508152602001600582015481526020016006820160009054906101000a900460ff166004811115611ce357611ce2615464565b5b6004811115611cf557611cf4615464565b5b81525050905060006004811115611d0f57611d0e615464565b5b8160c001516004811115611d2657611d25615464565b5b1415611d90576000611d4a600660008c8152602001908152602001600020546108a5565b5050509050600115158115151415611d8e5760018260c001906004811115611d7557611d74615464565b5b90816004811115611d8957611d88615464565b5b815250505b505b806000015181602001518260400151836060015184608001518560a001518660c00151975097509750975097509750975050919395979092949650565b6000806000611ddb84613273565b915050600092506000915060005b600d80549050811015611f2d5781600d8281548110611e0b57611e0a6154c2565b5b906000526020600020906006020160000154148015611e80575060026003811115611e3957611e38615464565b5b600d8281548110611e4d57611e4c6154c2565b5b906000526020600020906006020160050160009054906101000a900460ff166003811115611e7e57611e7d615464565b5b145b15611f1a57600d8181548110611e9957611e986154c2565b5b90600052602060002090600602016002015484611eb691906150cc565b935042600d8281548110611ecd57611ecc6154c2565b5b9060005260206000209060060201600301541015611f1957600d8181548110611ef957611ef86154c2565b5b90600052602060002090600602016002015483611f1691906150cc565b92505b5b8080611f259061538c565b915050611de9565b5050915091565b60606000806060600042905060005b600180549050811015611f9e578160018281548110611f6557611f646154c2565b5b90600052602060002090600602016004015410611f8b578380611f879061538c565b9450505b8080611f969061538c565b915050611f43565b508267ffffffffffffffff811115611fb957611fb86154f1565b5b604051908082528060200260200182016040528015611fe75781602001602082028036833780820191505090505b50915060005b60018054905081101561206857816001828154811061200f5761200e6154c2565b5b90600052602060002090600602016004015410612055578083868151811061203a576120396154c2565b5b60200260200101818152505084806120519061538c565b9550505b80806120609061538c565b915050611fed565b508194505050505090565b6000808061208084613273565b915091506001151582151514156120f657600260048111156120a5576120a4615464565b5b600482815481106120b9576120b86154c2565b5b906000526020600020906007020160060160009054906101000a900460ff1660048111156120ea576120e9615464565b5b14156120f557600192505b5b5050919050565b6001151561210a33612073565b15151461214c576040517f08c379a000000000000000000000000000000000000000000000000000000000815260040161214390614e0e565b60405180910390fd5b600061215733613273565b91505060006040518060e001604052808381526020018773ffffffffffffffffffffffffffffffffffffffff168152602001868152602001858152602001848152602001428152602001600060048111156121b5576121b4615464565b5b815250905060048190806001815401808255809150506001900390600052602060002090600702016000909190919091506000820151816000015560208201518160010160006101000a81548173ffffffffffffffffffffffffffffffffffffffff021916908373ffffffffffffffffffffffffffffffffffffffff1602179055506040820151816002019080519060200190612253929190614239565b506060820151816003019080519060200190612270929190614239565b50608082015181600401908051906020019061228d929190614239565b5060a0820151816005015560c08201518160060160006101000a81548160ff021916908360048111156122c3576122c2615464565b5b02179055505050600060016004805490506122de91906151ad565b90506005600082815260200190815260200160002060405180604001604052808460c00151600481111561231557612314615464565b5b81526020018460a00151815250908060018154018082558091505060019003906000526020600020906002020160009091909190915060008201518160000160006101000a81548160ff0219169083600481111561237657612375615464565b5b021790555060208201518160010155505061239081613849565b50505050505050565b600080600091506000905060005b600d805490508110156124bb57600260038111156123c8576123c7615464565b5b600d82815481106123dc576123db6154c2565b5b906000526020600020906006020160050160009054906101000a900460ff16600381111561240d5761240c615464565b5b14156124a857600d8181548110612427576124266154c2565b5b9060005260206000209060060201600201548361244491906150cc565b925042600d828154811061245b5761245a6154c2565b5b90600052602060002090600602016003015410156124a757600d8181548110612487576124866154c2565b5b906000526020600020906006020160020154826124a491906150cc565b91505b5b80806124b39061538c565b9150506123a7565b509091565b60008060006124ce33613273565b91505060008060006124de610b59565b905060006124ea610df9565b90506000828260646124fc9190615153565b6125069190615122565b905060008098505b60008211801561251d57508989105b801561253c57506000600e600088815260200190815260200160002054115b1561275b57859450600e600087815260200190815260200160002054955086600d878154811061256f5761256e6154c2565b5b906000526020600020906006020160000154141561272257888a61259391906151ad565b9050808210156125a1578190505b80600d87815481106125b6576125b56154c2565b5b90600052602060002090600602016002015411156126495780600d87815481106125e3576125e26154c2565b5b9060005260206000209060060201600201546125ff91906151ad565b600d8781548110612613576126126154c2565b5b906000526020600020906006020160020181905550808961263491906150cc565b9850808261264291906151ad565b915061271d565b600d868154811061265d5761265c6154c2565b5b9060005260206000209060060201600201548961267a91906150cc565b9850600d86815481106126905761268f6154c2565b5b906000526020600020906006020160020154826126ad91906151ad565b91506000600d87815481106126c5576126c46154c2565b5b906000526020600020906006020160020181905550600e600087815260200190815260200160002054600e600087815260200190815260200160002081905550600e6000878152602001908152602001600020600090555b612756565b600d8681548110612736576127356154c2565b5b9060005260206000209060060201600201548261275391906151ad565b91505b61250e565b6064848a6127699190615153565b6127739190615122565b975061277e88613c8e565b50505050505050915091565b606060006040518060a001604052806040518060400160405280600881526020017f726563757361646f00000000000000000000000000000000000000000000000081525081526020016040518060400160405280600681526020017f61636569746f000000000000000000000000000000000000000000000000000081525081526020016040518060400160405280600f81526020017f70656e64656e7465566f746163616f000000000000000000000000000000000081525081526020016040518060400160405280600981526020017f63616e63656c61646f000000000000000000000000000000000000000000000081525081526020016040518060400160405280600981526020017f65666574697661646f000000000000000000000000000000000000000000000081525081525090508083600581106128d3576128d26154c2565b5b6020020151915050919050565b6060600080606060005b6008805490508110156129aa576002600481111561290b5761290a615464565b5b6008828154811061291f5761291e6154c2565b5b90600052602060002090600a020160000160009054906101000a900460ff1660048111156129505761294f615464565b5b141561299757600061297460096000848152602001908152602001600020546108a5565b50505090506001151581151514156129955783806129919061538c565b9450505b505b80806129a29061538c565b9150506128ea565b508167ffffffffffffffff8111156129c5576129c46154f1565b5b6040519080825280602002602001820160405280156129f35781602001602082028036833780820191505090505b50905060005b600880549050811015612ad95760026004811115612a1a57612a19615464565b5b60088281548110612a2e57612a2d6154c2565b5b90600052602060002090600a020160000160009054906101000a900460ff166004811115612a5f57612a5e615464565b5b1415612ac6576000612a8360096000848152602001908152602001600020546108a5565b5050509050600115158115151415612ac45781838681518110612aa957612aa86154c2565b5b6020026020010181815250508480612ac09061538c565b9550505b505b8080612ad19061538c565b9150506129f9565b5080935050505090565b600080612aef33613273565b915050600460088481548110612b0857612b076154c2565b5b90600052602060002090600a020160000160006101000a81548160ff02191690836004811115612b3b57612b3a615464565b5b02179055508060088481548110612b5557612b546154c2565b5b90600052602060002090600a0201600201819055504260088481548110612b7f57612b7e6154c2565b5b90600052602060002090600a0201600801819055506001915050919050565b600060011515612bad85612073565b151514612bef576040517f08c379a0000000000000000000000000000000000000000000000000000000008152600401612be690614e6e565b60405180910390fd5b6000612bfa85613273565b915050600d6040518060c0016040528083815260200186815260200186815260200185815260200142815260200160006003811115612c3c57612c3b615464565b5b8152509080600181540180825580915050600190039060005260206000209060060201600090919091909150600082015181600001556020820151816001015560408201518160020155606082015181600301556080820151816004015560a08201518160050160006101000a81548160ff02191690836003811115612cc557612cc4615464565b5b021790555050506001600d80549050612cde91906151ad565b9150612ce982613d1a565b509392505050565b60606000821415612d39576040518060400160405280600181526020017f30000000000000000000000000000000000000000000000000000000000000008152509050612e5c565b600082905060005b60008214612d6b578080612d549061538c565b915050600a82612d649190615122565b9150612d41565b60008167ffffffffffffffff811115612d8757612d866154f1565b5b6040519080825280601f01601f191660200182016040528015612db95781602001600182028036833780820191505090505b5090506000600183612dcb91906151ad565b90505b60008614612e5457600a86612de391906153d5565b6030612def91906150cc565b60f81b828280612dfe906152ff565b935081518110612e1157612e106154c2565b5b60200101907effffffffffffffffffffffffffffffffffffffffffffffffffffffffffffff1916908160001a905350600a86612e4d9190615122565b9550612dce565b819450505050505b919050565b60011515612e6e33612073565b151514612eb0576040517f08c379a0000000000000000000000000000000000000000000000000000000008152600401612ea790614e4e565b60405180910390fd5b6000612ebb83611396565b955050505050506000612ecd82611977565b90506000612edb3384610cc8565b905060008282612710612eee9190615153565b612ef89190615122565b9050612f05868287613f73565b505050505050565b6060600060048054905067ffffffffffffffff811115612f3057612f2f6154f1565b5b604051908082528060200260200182016040528015612f5e5781602001602082028036833780820191505090505b50905060005b600480549050811015612fa45780828281518110612f8557612f846154c2565b5b6020026020010181815250508080612f9c9061538c565b915050612f64565b508091505090565b6000806000806000806000600d8881548110612fcb57612fca6154c2565b5b90600052602060002090600602016040518060c001604052908160008201548152602001600182015481526020016002820154815260200160038201548152602001600482015481526020016005820160009054906101000a900460ff16600381111561303b5761303a615464565b5b600381111561304d5761304c615464565b5b8152505090506000600381111561306757613066615464565b5b8160a00151600381111561307e5761307d615464565b5b14156130e85760006130a2600f60008b8152602001908152602001600020546108a5565b50505090506001151581151514156130e65760018260a0019060038111156130cd576130cc615464565b5b908160038111156130e1576130e0615464565b5b815250505b505b806000015196508681602001519650868260400151965086836060015196508684608001519650868560a001519650965096509650965096505091939550919395565b600080600090506000600e6000838152602001908152602001600020549050600192505b60011561326b5782806131619061538c565b935050600d8481548110613178576131776154c2565b5b906000526020600020906006020160030154600d838154811061319e5761319d6154c2565b5b9060005260206000209060060201600301541080156132065750600d84815481106131cc576131cb6154c2565b5b906000526020600020906006020160030154600d82815481106131f2576131f16154c2565b5b906000526020600020906006020160030154115b806132115750600081145b1561324d5783600e60008481526020019081526020016000208190555080600e600086815260200190815260200160002081905550505061326e565b809150600e600083815260200190815260200160002054905061314f565b50505b919050565b6000806000915060005b600480549050811015613323578373ffffffffffffffffffffffffffffffffffffffff16600482815481106132b5576132b46154c2565b5b906000526020600020906007020160010160009054906101000a900473ffffffffffffffffffffffffffffffffffffffff1673ffffffffffffffffffffffffffffffffffffffff161415613310576001925080915050613325565b808061331b9061538c565b91505061327d565b505b915091565b806004838154811061333f5761333e6154c2565b5b906000526020600020906007020160060160006101000a81548160ff0219169083600481111561337257613371615464565b5b02179055506005600083815260200190815260200160002060405180604001604052808360048111156133a8576133a7615464565b5b815260200142815250908060018154018082558091505060019003906000526020600020906002020160009091909190915060008201518160000160006101000a81548160ff0219169083600481111561340557613404615464565b5b02179055506020820151816001015550505050565b6000600882815481106134305761342f6154c2565b5b90600052602060002090600a0201604051806101600160405290816000820160009054906101000a900460ff16600481111561346f5761346e615464565b5b600481111561348157613480615464565b5b81526020016000820160019054906101000a900460ff1660018111156134aa576134a9615464565b5b60018111156134bc576134bb615464565b5b815260200160018201548152602001600282015481526020016003820180546134e490615329565b80601f016020809104026020016040519081016040528092919081815260200182805461351090615329565b801561355d5780601f106135325761010080835404028352916020019161355d565b820191906000526020600020905b81548152906001019060200180831161354057829003601f168201915b5050505050815260200160048201805461357690615329565b80601f01602080910402602001604051908101604052809291908181526020018280546135a290615329565b80156135ef5780601f106135c4576101008083540402835291602001916135ef565b820191906000526020600020905b8154815290600101906020018083116135d257829003601f168201915b505050505081526020016005820154815260200160068201805461361290615329565b80601f016020809104026020016040519081016040528092919081815260200182805461363e90615329565b801561368b5780601f106136605761010080835404028352916020019161368b565b820191906000526020600020905b81548152906001019060200180831161366e57829003601f168201915b5050505050815260200160078201548152602001600882015481526020016009820154815250509050600081608001516040516020016136cb9190614bf0565b604051602081830303815290604052905060008260a001516040516020016136f39190614c12565b60405160208183030381529060405290506000600267ffffffffffffffff811115613721576137206154f1565b5b60405190808252806020026020018201604052801561375457816020015b606081526020019060019003908161373f5790505b5090506040518060400160405280600781526020017f62616e6b696e6700000000000000000000000000000000000000000000000000815250816000815181106137a1576137a06154c2565b5b60200260200101819052506040518060400160405280601681526020017f6d6f76696d656e746163616f46696e616e636569726100000000000000000000815250816001815181106137f6576137f56154c2565b5b60200260200101819052506000600b5485610140015161381691906150cc565b90506000613826858585856140fa565b905080600960008981526020019081526020016000208190555050505050505050565b60006004828154811061385f5761385e6154c2565b5b90600052602060002090600702016040518060e0016040529081600082015481526020016001820160009054906101000a900473ffffffffffffffffffffffffffffffffffffffff1673ffffffffffffffffffffffffffffffffffffffff1673ffffffffffffffffffffffffffffffffffffffff1681526020016002820180546138e890615329565b80601f016020809104026020016040519081016040528092919081815260200182805461391490615329565b80156139615780601f1061393657610100808354040283529160200191613961565b820191906000526020600020905b81548152906001019060200180831161394457829003601f168201915b5050505050815260200160038201805461397a90615329565b80601f01602080910402602001604051908101604052809291908181526020018280546139a690615329565b80156139f35780601f106139c8576101008083540402835291602001916139f3565b820191906000526020600020905b8154815290600101906020018083116139d657829003601f168201915b50505050508152602001600482018054613a0c90615329565b80601f0160208091040260200160405190810160405280929190818152602001828054613a3890615329565b8015613a855780601f10613a5a57610100808354040283529160200191613a85565b820191906000526020600020905b815481529060010190602001808311613a6857829003601f168201915b50505050508152602001600582015481526020016006820160009054906101000a900460ff166004811115613abd57613abc615464565b5b6004811115613acf57613ace615464565b5b815250509050600081604001516004836000015181548110613af457613af36154c2565b5b9060005260206000209060070201600201604051602001613b16929190614b64565b604051602081830303815290604052905060606000600267ffffffffffffffff811115613b4657613b456154f1565b5b604051908082528060200260200182016040528015613b7957816020015b6060815260200190600190039081613b645790505b5090506040518060400160405280600781526020017f706172746e65720000000000000000000000000000000000000000000000000081525081600081518110613bc657613bc56154c2565b5b60200260200101819052506040518060400160405280600881526020017f616464536f63696f00000000000000000000000000000000000000000000000081525081600181518110613c1b57613c1a6154c2565b5b6020026020010181905250600060075460048781548110613c3f57613c3e6154c2565b5b906000526020600020906007020160050154613c5b91906150cc565b90506000613c6b858585856140fa565b905080600660008981526020019081526020016000208190555050505050505050565b613d1660006040518060400160405280601381526020017f4c69717569646163616f20646520546f6b656e0000000000000000000000000081525060405180602001604052806000815250846040518060400160405280600581526020017f636f6e746100000000000000000000000000000000000000000000000000000081525042611168565b5050565b6000600d8281548110613d3057613d2f6154c2565b5b90600052602060002090600602016040518060c001604052908160008201548152602001600182015481526020016002820154815260200160038201548152602001600482015481526020016005820160009054906101000a900460ff166003811115613da057613d9f615464565b5b6003811115613db257613db1615464565b5b8152505090506000613dc78260000151611a64565b50505050925050506000613dda33613273565b9150506000613de882611a64565b50505050925050506000613dff8560200151612cf1565b90506000818584604051602001613e1893929190614b9e565b604051602081830303815290604052905060606000600267ffffffffffffffff811115613e4857613e476154f1565b5b604051908082528060200260200182016040528015613e7b57816020015b6060815260200190600190039081613e665790505b5090506040518060400160405280600581526020017f746f6b656e00000000000000000000000000000000000000000000000000000081525081600081518110613ec857613ec76154c2565b5b60200260200101819052506040518060400160405280600881526020017f616464546f6b656e00000000000000000000000000000000000000000000000081525081600181518110613f1d57613f1c6154c2565b5b602002602001018190525060006010548960800151613f3c91906150cc565b90506000613f4c858585856140fa565b905080600f60008d8152602001908152602001600020819055505050505050505050505050565b60001515613f818433610ba2565b151514613fc3576040517f08c379a0000000000000000000000000000000000000000000000000000000008152600401613fba90614e2e565b60405180910390fd5b600260405180608001604052803373ffffffffffffffffffffffffffffffffffffffff168152602001831515815260200184815260200142815250908060018154018082558091505060019003906000526020600020906003020160009091909190915060008201518160000160006101000a81548173ffffffffffffffffffffffffffffffffffffffff021916908373ffffffffffffffffffffffffffffffffffffffff16021790555060208201518160000160146101000a81548160ff02191690831515021790555060408201518160010155606082015181600201555050600060016002805490506140b891906151ad565b90506003600085815260200190815260200160002081908060018154018082558091505060019003906000526020600020016000909190919091505550505050565b600060016040518060c001604052803373ffffffffffffffffffffffffffffffffffffffff16815260200187815260200186815260200185815260200184815260200142815250908060018154018082558091505060019003906000526020600020906006020160009091909190915060008201518160000160006101000a81548173ffffffffffffffffffffffffffffffffffffffff021916908373ffffffffffffffffffffffffffffffffffffffff16021790555060208201518160010190805190602001906141cd929190614239565b5060408201518160020190805190602001906141ea929190614239565b5060608201518160030190805190602001906142079291906142bf565b506080820151816004015560a0820151816005015550506001808054905061422f91906151ad565b9050949350505050565b82805461424590615329565b90600052602060002090601f01602090048101928261426757600085556142ae565b82601f1061428057805160ff19168380011785556142ae565b828001600101855582156142ae579182015b828111156142ad578251825591602001919060010190614292565b5b5090506142bb919061431f565b5090565b82805482825590600052602060002090810192821561430e579160200282015b8281111561430d5782518290805190602001906142fd929190614239565b50916020019190600101906142df565b5b50905061431b919061433c565b5090565b5b80821115614338576000816000905550600101614320565b5090565b5b8082111561435c57600081816143539190614360565b5060010161433d565b5090565b50805461436c90615329565b6000825580601f1061437e575061439d565b601f01602090049060005260206000209081019061439c919061431f565b5b50565b60006143b36143ae84614fdc565b614fb7565b9050828152602081018484840111156143cf576143ce615525565b5b6143da8482856152bd565b509392505050565b6000813590506143f1816157c7565b92915050565b600081359050614406816157de565b92915050565b60008135905061441b816157f5565b92915050565b600082601f83011261443657614435615520565b5b81356144468482602086016143a0565b91505092915050565b60008135905061445e81615805565b92915050565b60006020828403121561447a5761447961552f565b5b6000614488848285016143e2565b91505092915050565b600080600080608085870312156144ab576144aa61552f565b5b60006144b9878288016143e2565b945050602085013567ffffffffffffffff8111156144da576144d961552a565b5b6144e687828801614421565b935050604085013567ffffffffffffffff8111156145075761450661552a565b5b61451387828801614421565b925050606085013567ffffffffffffffff8111156145345761453361552a565b5b61454087828801614421565b91505092959194509250565b600080604083850312156145635761456261552f565b5b6000614571858286016143e2565b92505060206145828582860161444f565b9150509250929050565b6000806000606084860312156145a5576145a461552f565b5b60006145b3868287016143e2565b93505060206145c48682870161444f565b92505060406145d58682870161444f565b9150509250925092565b60008060008060008060c087890312156145fc576145fb61552f565b5b600061460a89828a0161440c565b965050602087013567ffffffffffffffff81111561462b5761462a61552a565b5b61463789828a01614421565b955050604087013567ffffffffffffffff8111156146585761465761552a565b5b61466489828a01614421565b945050606061467589828a0161444f565b935050608087013567ffffffffffffffff8111156146965761469561552a565b5b6146a289828a01614421565b92505060a06146b389828a0161444f565b9150509295509295509295565b6000602082840312156146d6576146d561552f565b5b60006146e48482850161444f565b91505092915050565b600080604083850312156147045761470361552f565b5b60006147128582860161444f565b9250506020614723858286016143e2565b9150509250929050565b600080604083850312156147445761474361552f565b5b60006147528582860161444f565b9250506020614763858286016143f7565b9150509250929050565b600061477983836148c6565b905092915050565b600061478d8383614b46565b60208301905092915050565b6147a2816151e1565b82525050565b60006147b382615042565b6147bd818561507d565b9350836020820285016147cf8561500d565b8060005b8581101561480b57848403895281516147ec858261476d565b94506147f783615063565b925060208a019950506001810190506147d3565b50829750879550505050505092915050565b60006148288261504d565b614832818561508e565b935061483d8361501d565b8060005b8381101561486e5781516148558882614781565b975061486083615070565b925050600181019050614841565b5085935050505092915050565b614884816151f3565b82525050565b61489381615275565b82525050565b6148a281615287565b82525050565b6148b181615299565b82525050565b6148c0816152ab565b82525050565b60006148d182615058565b6148db818561509f565b93506148eb8185602086016152cc565b6148f481615534565b840191505092915050565b600061490a82615058565b61491481856150b0565b93506149248185602086016152cc565b61492d81615534565b840191505092915050565b600061494382615058565b61494d81856150c1565b935061495d8185602086016152cc565b80840191505092915050565b6000815461497681615329565b61498081866150c1565b9450600182166000811461499b57600181146149ac576149df565b60ff198316865281860193506149df565b6149b58561502d565b60005b838110156149d7578154818901526001820191506020810190506149b8565b838801955050505b50505092915050565b60006149f56009836150c1565b9150614a0082615545565b600982019050919050565b6000614a18600c836150c1565b9150614a238261556e565b600c82019050919050565b6000614a3b6032836150b0565b9150614a4682615597565b604082019050919050565b6000614a5e600b836150c1565b9150614a69826155e6565b600b82019050919050565b6000614a816009836150b0565b9150614a8c8261560f565b602082019050919050565b6000614aa46021836150b0565b9150614aaf82615638565b604082019050919050565b6000614ac76023836150b0565b9150614ad282615687565b604082019050919050565b6000614aea6021836150c1565b9150614af5826156d6565b602182019050919050565b6000614b0d6019836150c1565b9150614b1882615725565b601982019050919050565b6000614b30600b836150c1565b9150614b3b8261574e565b600b82019050919050565b614b4f8161526b565b82525050565b614b5e8161526b565b82525050565b6000614b6f82614a0b565b9150614b7b8285614938565b9150614b8682614a51565b9150614b928284614969565b91508190509392505050565b6000614ba982614add565b9150614bb58286614938565b9150614bc0826149e8565b9150614bcc8285614938565b9150614bd782614a51565b9150614be38284614938565b9150819050949350505050565b6000614bfb82614b00565b9150614c078284614938565b915081905092915050565b6000614c1d82614b23565b9150614c298284614938565b915081905092915050565b600060c082019050614c496000830189614799565b8181036020830152614c5b81886148ff565b90508181036040830152614c6f81876148ff565b90508181036060830152614c8381866147a8565b9050614c926080830185614b55565b614c9f60a0830184614b55565b979650505050505050565b60006020820190508181036000830152614cc4818461481d565b905092915050565b6000602082019050614ce1600083018461487b565b92915050565b6000608082019050614cfc600083018761487b565b614d09602083018661487b565b614d166040830185614b55565b614d236060830184614b55565b95945050505050565b600061016082019050614d42600083018e614899565b614d4f602083018d6148b7565b614d5c604083018c614b55565b614d69606083018b614b55565b8181036080830152614d7b818a6148ff565b905081810360a0830152614d8f81896148ff565b9050614d9e60c0830188614b55565b81810360e0830152614db081876148ff565b9050614dc0610100830186614b55565b614dce610120830185614b55565b614ddc610140830184614b55565b9c9b505050505050505050505050565b60006020820190508181036000830152614e0681846148ff565b905092915050565b60006020820190508181036000830152614e2781614a2e565b9050919050565b60006020820190508181036000830152614e4781614a74565b9050919050565b60006020820190508181036000830152614e6781614a97565b9050919050565b60006020820190508181036000830152614e8781614aba565b9050919050565b6000602082019050614ea36000830184614b55565b92915050565b600060e082019050614ebe600083018a614b55565b614ecb6020830189614799565b8181036040830152614edd81886148ff565b90508181036060830152614ef181876148ff565b90508181036080830152614f0581866148ff565b9050614f1460a0830185614b55565b614f2160c08301846148a8565b98975050505050505050565b6000604082019050614f426000830185614b55565b614f4f6020830184614b55565b9392505050565b600060c082019050614f6b6000830189614b55565b614f786020830188614b55565b614f856040830187614b55565b614f926060830186614b55565b614f9f6080830185614b55565b614fac60a083018461488a565b979650505050505050565b6000614fc1614fd2565b9050614fcd828261535b565b919050565b6000604051905090565b600067ffffffffffffffff821115614ff757614ff66154f1565b5b61500082615534565b9050602081019050919050565b6000819050602082019050919050565b6000819050602082019050919050565b60008190508160005260206000209050919050565b600081519050919050565b600081519050919050565b600081519050919050565b6000602082019050919050565b6000602082019050919050565b600082825260208201905092915050565b600082825260208201905092915050565b600082825260208201905092915050565b600082825260208201905092915050565b600081905092915050565b60006150d78261526b565b91506150e28361526b565b9250827fffffffffffffffffffffffffffffffffffffffffffffffffffffffffffffffff0382111561511757615116615406565b5b828201905092915050565b600061512d8261526b565b91506151388361526b565b92508261514857615147615435565b5b828204905092915050565b600061515e8261526b565b91506151698361526b565b9250817fffffffffffffffffffffffffffffffffffffffffffffffffffffffffffffffff04831182151516156151a2576151a1615406565b5b828202905092915050565b60006151b88261526b565b91506151c38361526b565b9250828210156151d6576151d5615406565b5b828203905092915050565b60006151ec8261524b565b9050919050565b60008115159050919050565b600081905061520d82615777565b919050565b60008190506152208261578b565b919050565b60008190506152338261579f565b919050565b6000819050615246826157b3565b919050565b600073ffffffffffffffffffffffffffffffffffffffff82169050919050565b6000819050919050565b6000615280826151ff565b9050919050565b600061529282615212565b9050919050565b60006152a482615225565b9050919050565b60006152b682615238565b9050919050565b82818337600083830152505050565b60005b838110156152ea5780820151818401526020810190506152cf565b838111156152f9576000848401525b50505050565b600061530a8261526b565b9150600082141561531e5761531d615406565b5b600182039050919050565b6000600282049050600182168061534157607f821691505b6020821081141561535557615354615493565b5b50919050565b61536482615534565b810181811067ffffffffffffffff82111715615383576153826154f1565b5b80604052505050565b60006153978261526b565b91507fffffffffffffffffffffffffffffffffffffffffffffffffffffffffffffffff8214156153ca576153c9615406565b5b600182019050919050565b60006153e08261526b565b91506153eb8361526b565b9250826153fb576153fa615435565b5b828206905092915050565b7f4e487b7100000000000000000000000000000000000000000000000000000000600052601160045260246000fd5b7f4e487b7100000000000000000000000000000000000000000000000000000000600052601260045260246000fd5b7f4e487b7100000000000000000000000000000000000000000000000000000000600052602160045260246000fd5b7f4e487b7100000000000000000000000000000000000000000000000000000000600052602260045260246000fd5b7f4e487b7100000000000000000000000000000000000000000000000000000000600052603260045260246000fd5b7f4e487b7100000000000000000000000000000000000000000000000000000000600052604160045260246000fd5b600080fd5b600080fd5b600080fd5b600080fd5b6000601f19601f8301169050919050565b7f3f3f3f2070617261200000000000000000000000000000000000000000000000600082015250565b7f496e636c7573616f20646f200000000000000000000000000000000000000000600082015250565b7f4170656e617320736f63696f7320617469766f7320706f64656d20616469636960008201527f6f6e6172206e6f766f7320736f63696f73210000000000000000000000000000602082015250565b7f20666569746120706f7220000000000000000000000000000000000000000000600082015250565b7f4a6120766f746f75210000000000000000000000000000000000000000000000600082015250565b7f4170656e617320736f63696f7320617469766f7320706f64656d20766f74617260008201527f2100000000000000000000000000000000000000000000000000000000000000602082015250565b7f4170656e617320736f63696f7320706f64656d207265636562657220746f6b6560008201527f6e73210000000000000000000000000000000000000000000000000000000000602082015250565b7f496e636c7573616f20646520636f6e747261746f20646520546f6b656e20646560008201527f2000000000000000000000000000000000000000000000000000000000000000602082015250565b7f4d6f76696d656e746163616f2066696e616e63656972613a2000000000000000600082015250565b7f44657363726963616f3a20000000000000000000000000000000000000000000600082015250565b6004811061578857615787615464565b5b50565b6005811061579c5761579b615464565b5b50565b600581106157b0576157af615464565b5b50565b600281106157c4576157c3615464565b5b50565b6157d0816151e1565b81146157db57600080fd5b50565b6157e7816151f3565b81146157f257600080fd5b50565b6002811061580257600080fd5b50565b61580e8161526b565b811461581957600080fd5b5056fea264697066735822122061be0fd203d260a4ff7060f80ae515beeed647b7e48d474fa35d14c2c5619b0664736f6c63430008070033",
			"opcodes": "PUSH1 0x80 PUSH1 0x40 MSTORE CALLVALUE DUP1 ISZERO PUSH3 0x11 JUMPI PUSH1 0x0 DUP1 REVERT JUMPDEST POP PUSH3 0x3F480 PUSH1 0x7 DUP2 SWAP1 SSTORE POP PUSH1 0x0 PUSH1 0x40 MLOAD DUP1 PUSH1 0xE0 ADD PUSH1 0x40 MSTORE DUP1 PUSH1 0x0 DUP2 MSTORE PUSH1 0x20 ADD CALLER PUSH20 0xFFFFFFFFFFFFFFFFFFFFFFFFFFFFFFFFFFFFFFFF AND DUP2 MSTORE PUSH1 0x20 ADD PUSH1 0x40 MLOAD DUP1 PUSH1 0x40 ADD PUSH1 0x40 MSTORE DUP1 PUSH1 0x5 DUP2 MSTORE PUSH1 0x20 ADD PUSH32 0x6F776E6572000000000000000000000000000000000000000000000000000000 DUP2 MSTORE POP DUP2 MSTORE PUSH1 0x20 ADD PUSH1 0x40 MLOAD DUP1 PUSH1 0x20 ADD PUSH1 0x40 MSTORE DUP1 PUSH1 0x0 DUP2 MSTORE POP DUP2 MSTORE PUSH1 0x20 ADD PUSH1 0x40 MLOAD DUP1 PUSH1 0x20 ADD PUSH1 0x40 MSTORE DUP1 PUSH1 0x0 DUP2 MSTORE POP DUP2 MSTORE PUSH1 0x20 ADD TIMESTAMP DUP2 MSTORE PUSH1 0x20 ADD PUSH1 0x2 PUSH1 0x4 DUP2 GT ISZERO PUSH3 0xCE JUMPI PUSH3 0xCD PUSH3 0x3E7 JUMP JUMPDEST JUMPDEST DUP2 MSTORE POP SWAP1 POP PUSH1 0x4 DUP2 SWAP1 DUP1 PUSH1 0x1 DUP2 SLOAD ADD DUP1 DUP3 SSTORE DUP1 SWAP2 POP POP PUSH1 0x1 SWAP1 SUB SWAP1 PUSH1 0x0 MSTORE PUSH1 0x20 PUSH1 0x0 KECCAK256 SWAP1 PUSH1 0x7 MUL ADD PUSH1 0x0 SWAP1 SWAP2 SWAP1 SWAP2 SWAP1 SWAP2 POP PUSH1 0x0 DUP3 ADD MLOAD DUP2 PUSH1 0x0 ADD SSTORE PUSH1 0x20 DUP3 ADD MLOAD DUP2 PUSH1 0x1 ADD PUSH1 0x0 PUSH2 0x100 EXP DUP2 SLOAD DUP2 PUSH20 0xFFFFFFFFFFFFFFFFFFFFFFFFFFFFFFFFFFFFFFFF MUL NOT AND SWAP1 DUP4 PUSH20 0xFFFFFFFFFFFFFFFFFFFFFFFFFFFFFFFFFFFFFFFF AND MUL OR SWAP1 SSTORE POP PUSH1 0x40 DUP3 ADD MLOAD DUP2 PUSH1 0x2 ADD SWAP1 DUP1 MLOAD SWAP1 PUSH1 0x20 ADD SWAP1 PUSH3 0x16E SWAP3 SWAP2 SWAP1 PUSH3 0x301 JUMP JUMPDEST POP PUSH1 0x60 DUP3 ADD MLOAD DUP2 PUSH1 0x3 ADD SWAP1 DUP1 MLOAD SWAP1 PUSH1 0x20 ADD SWAP1 PUSH3 0x18D SWAP3 SWAP2 SWAP1 PUSH3 0x301 JUMP JUMPDEST POP PUSH1 0x80 DUP3 ADD MLOAD DUP2 PUSH1 0x4 ADD SWAP1 DUP1 MLOAD SWAP1 PUSH1 0x20 ADD SWAP1 PUSH3 0x1AC SWAP3 SWAP2 SWAP1 PUSH3 0x301 JUMP JUMPDEST POP PUSH1 0xA0 DUP3 ADD MLOAD DUP2 PUSH1 0x5 ADD SSTORE PUSH1 0xC0 DUP3 ADD MLOAD DUP2 PUSH1 0x6 ADD PUSH1 0x0 PUSH2 0x100 EXP DUP2 SLOAD DUP2 PUSH1 0xFF MUL NOT AND SWAP1 DUP4 PUSH1 0x4 DUP2 GT ISZERO PUSH3 0x1E5 JUMPI PUSH3 0x1E4 PUSH3 0x3E7 JUMP JUMPDEST JUMPDEST MUL OR SWAP1 SSTORE POP POP POP POP PUSH3 0x3F480 PUSH1 0xB DUP2 SWAP1 SSTORE POP PUSH2 0xBB8 PUSH1 0xC DUP2 SWAP1 SSTORE POP PUSH3 0x3F480 PUSH1 0x10 DUP2 SWAP1 SSTORE POP PUSH1 0xD PUSH1 0x40 MLOAD DUP1 PUSH1 0xC0 ADD PUSH1 0x40 MSTORE DUP1 PUSH1 0x0 DUP2 MSTORE PUSH1 0x20 ADD PUSH1 0x1 DUP2 MSTORE PUSH1 0x20 ADD PUSH1 0x1 DUP2 MSTORE PUSH1 0x20 ADD TIMESTAMP DUP2 MSTORE PUSH1 0x20 ADD TIMESTAMP DUP2 MSTORE PUSH1 0x20 ADD PUSH1 0x2 PUSH1 0x3 DUP2 GT ISZERO PUSH3 0x24F JUMPI PUSH3 0x24E PUSH3 0x3E7 JUMP JUMPDEST JUMPDEST DUP2 MSTORE POP SWAP1 DUP1 PUSH1 0x1 DUP2 SLOAD ADD DUP1 DUP3 SSTORE DUP1 SWAP2 POP POP PUSH1 0x1 SWAP1 SUB SWAP1 PUSH1 0x0 MSTORE PUSH1 0x20 PUSH1 0x0 KECCAK256 SWAP1 PUSH1 0x6 MUL ADD PUSH1 0x0 SWAP1 SWAP2 SWAP1 SWAP2 SWAP1 SWAP2 POP PUSH1 0x0 DUP3 ADD MLOAD DUP2 PUSH1 0x0 ADD SSTORE PUSH1 0x20 DUP3 ADD MLOAD DUP2 PUSH1 0x1 ADD SSTORE PUSH1 0x40 DUP3 ADD MLOAD DUP2 PUSH1 0x2 ADD SSTORE PUSH1 0x60 DUP3 ADD MLOAD DUP2 PUSH1 0x3 ADD SSTORE PUSH1 0x80 DUP3 ADD MLOAD DUP2 PUSH1 0x4 ADD SSTORE PUSH1 0xA0 DUP3 ADD MLOAD DUP2 PUSH1 0x5 ADD PUSH1 0x0 PUSH2 0x100 EXP DUP2 SLOAD DUP2 PUSH1 0xFF MUL NOT AND SWAP1 DUP4 PUSH1 0x3 DUP2 GT ISZERO PUSH3 0x2DB JUMPI PUSH3 0x2DA PUSH3 0x3E7 JUMP JUMPDEST JUMPDEST MUL OR SWAP1 SSTORE POP POP POP PUSH1 0x0 PUSH1 0xE PUSH1 0x0 DUP1 DUP2 MSTORE PUSH1 0x20 ADD SWAP1 DUP2 MSTORE PUSH1 0x20 ADD PUSH1 0x0 KECCAK256 DUP2 SWAP1 SSTORE POP PUSH3 0x445 JUMP JUMPDEST DUP3 DUP1 SLOAD PUSH3 0x30F SWAP1 PUSH3 0x3B1 JUMP JUMPDEST SWAP1 PUSH1 0x0 MSTORE PUSH1 0x20 PUSH1 0x0 KECCAK256 SWAP1 PUSH1 0x1F ADD PUSH1 0x20 SWAP1 DIV DUP2 ADD SWAP3 DUP3 PUSH3 0x333 JUMPI PUSH1 0x0 DUP6 SSTORE PUSH3 0x37F JUMP JUMPDEST DUP3 PUSH1 0x1F LT PUSH3 0x34E JUMPI DUP1 MLOAD PUSH1 0xFF NOT AND DUP4 DUP1 ADD OR DUP6 SSTORE PUSH3 0x37F JUMP JUMPDEST DUP3 DUP1 ADD PUSH1 0x1 ADD DUP6 SSTORE DUP3 ISZERO PUSH3 0x37F JUMPI SWAP2 DUP3 ADD JUMPDEST DUP3 DUP2 GT ISZERO PUSH3 0x37E JUMPI DUP3 MLOAD DUP3 SSTORE SWAP2 PUSH1 0x20 ADD SWAP2 SWAP1 PUSH1 0x1 ADD SWAP1 PUSH3 0x361 JUMP JUMPDEST JUMPDEST POP SWAP1 POP PUSH3 0x38E SWAP2 SWAP1 PUSH3 0x392 JUMP JUMPDEST POP SWAP1 JUMP JUMPDEST JUMPDEST DUP1 DUP3 GT ISZERO PUSH3 0x3AD JUMPI PUSH1 0x0 DUP2 PUSH1 0x0 SWAP1 SSTORE POP PUSH1 0x1 ADD PUSH3 0x393 JUMP JUMPDEST POP SWAP1 JUMP JUMPDEST PUSH1 0x0 PUSH1 0x2 DUP3 DIV SWAP1 POP PUSH1 0x1 DUP3 AND DUP1 PUSH3 0x3CA JUMPI PUSH1 0x7F DUP3 AND SWAP2 POP JUMPDEST PUSH1 0x20 DUP3 LT DUP2 EQ ISZERO PUSH3 0x3E1 JUMPI PUSH3 0x3E0 PUSH3 0x416 JUMP JUMPDEST JUMPDEST POP SWAP2 SWAP1 POP JUMP JUMPDEST PUSH32 0x4E487B7100000000000000000000000000000000000000000000000000000000 PUSH1 0x0 MSTORE PUSH1 0x21 PUSH1 0x4 MSTORE PUSH1 0x24 PUSH1 0x0 REVERT JUMPDEST PUSH32 0x4E487B7100000000000000000000000000000000000000000000000000000000 PUSH1 0x0 MSTORE PUSH1 0x22 PUSH1 0x4 MSTORE PUSH1 0x24 PUSH1 0x0 REVERT JUMPDEST PUSH2 0x5852 DUP1 PUSH3 0x455 PUSH1 0x0 CODECOPY PUSH1 0x0 RETURN INVALID PUSH1 0x80 PUSH1 0x40 MSTORE CALLVALUE DUP1 ISZERO PUSH2 0x10 JUMPI PUSH1 0x0 DUP1 REVERT JUMPDEST POP PUSH1 0x4 CALLDATASIZE LT PUSH2 0x1DA JUMPI PUSH1 0x0 CALLDATALOAD PUSH1 0xE0 SHR DUP1 PUSH4 0x965CFB5C GT PUSH2 0x104 JUMPI DUP1 PUSH4 0xD388FB7C GT PUSH2 0xA2 JUMPI DUP1 PUSH4 0xE9395679 GT PUSH2 0x71 JUMPI DUP1 PUSH4 0xE9395679 EQ PUSH2 0x60E JUMPI DUP1 PUSH4 0xEBE8C6FA EQ PUSH2 0x63E JUMPI DUP1 PUSH4 0xF2A6FC46 EQ PUSH2 0x65A JUMPI DUP1 PUSH4 0xFB84A1D8 EQ PUSH2 0x678 JUMPI PUSH2 0x1DA JUMP JUMPDEST DUP1 PUSH4 0xD388FB7C EQ PUSH2 0x560 JUMPI DUP1 PUSH4 0xD41B47D3 EQ PUSH2 0x590 JUMPI DUP1 PUSH4 0xD6FCBE6C EQ PUSH2 0x5AE JUMPI DUP1 PUSH4 0xE484018A EQ PUSH2 0x5DE JUMPI PUSH2 0x1DA JUMP JUMPDEST DUP1 PUSH4 0xB3C6E789 GT PUSH2 0xDE JUMPI DUP1 PUSH4 0xB3C6E789 EQ PUSH2 0x4C4 JUMPI DUP1 PUSH4 0xBAEEE9ED EQ PUSH2 0x4F4 JUMPI DUP1 PUSH4 0xC65D10C0 EQ PUSH2 0x510 JUMPI DUP1 PUSH4 0xD27EAA93 EQ PUSH2 0x52F JUMPI PUSH2 0x1DA JUMP JUMPDEST DUP1 PUSH4 0x965CFB5C EQ PUSH2 0x43F JUMPI DUP1 PUSH4 0xB03EF5AA EQ PUSH2 0x475 JUMPI DUP1 PUSH4 0xB2F5F56D EQ PUSH2 0x4A6 JUMPI PUSH2 0x1DA JUMP JUMPDEST DUP1 PUSH4 0x38DC2DE5 GT PUSH2 0x17C JUMPI DUP1 PUSH4 0x66E15FA6 GT PUSH2 0x14B JUMPI DUP1 PUSH4 0x66E15FA6 EQ PUSH2 0x370 JUMPI DUP1 PUSH4 0x69512A07 EQ PUSH2 0x3A0 JUMPI DUP1 PUSH4 0x78555CF8 EQ PUSH2 0x3D5 JUMPI DUP1 PUSH4 0x81B2664A EQ PUSH2 0x40F JUMPI PUSH2 0x1DA JUMP JUMPDEST DUP1 PUSH4 0x38DC2DE5 EQ PUSH2 0x2FA JUMPI DUP1 PUSH4 0x3FC62A26 EQ PUSH2 0x318 JUMPI DUP1 PUSH4 0x4012EC96 EQ PUSH2 0x334 JUMPI DUP1 PUSH4 0x5FF9ED87 EQ PUSH2 0x352 JUMPI PUSH2 0x1DA JUMP JUMPDEST DUP1 PUSH4 0x315FBD89 GT PUSH2 0x1B8 JUMPI DUP1 PUSH4 0x315FBD89 EQ PUSH2 0x25E JUMPI DUP1 PUSH4 0x35010D78 EQ PUSH2 0x27C JUMPI DUP1 PUSH4 0x362F1367 EQ PUSH2 0x29A JUMPI DUP1 PUSH4 0x37B8EC5F EQ PUSH2 0x2CA JUMPI PUSH2 0x1DA JUMP JUMPDEST DUP1 PUSH4 0xB12C493 EQ PUSH2 0x1DF JUMPI DUP1 PUSH4 0x1059EAD1 EQ PUSH2 0x20F JUMPI DUP1 PUSH4 0x2CCDAB8A EQ PUSH2 0x22B JUMPI JUMPDEST PUSH1 0x0 DUP1 REVERT JUMPDEST PUSH2 0x1F9 PUSH1 0x4 DUP1 CALLDATASIZE SUB DUP2 ADD SWAP1 PUSH2 0x1F4 SWAP2 SWAP1 PUSH2 0x46C0 JUMP JUMPDEST PUSH2 0x6AD JUMP JUMPDEST PUSH1 0x40 MLOAD PUSH2 0x206 SWAP2 SWAP1 PUSH2 0x4DEC JUMP JUMPDEST PUSH1 0x40 MLOAD DUP1 SWAP2 SUB SWAP1 RETURN JUMPDEST PUSH2 0x229 PUSH1 0x4 DUP1 CALLDATASIZE SUB DUP2 ADD SWAP1 PUSH2 0x224 SWAP2 SWAP1 PUSH2 0x46C0 JUMP JUMPDEST PUSH2 0x752 JUMP JUMPDEST STOP JUMPDEST PUSH2 0x245 PUSH1 0x4 DUP1 CALLDATASIZE SUB DUP2 ADD SWAP1 PUSH2 0x240 SWAP2 SWAP1 PUSH2 0x46C0 JUMP JUMPDEST PUSH2 0x8A5 JUMP JUMPDEST PUSH1 0x40 MLOAD PUSH2 0x255 SWAP5 SWAP4 SWAP3 SWAP2 SWAP1 PUSH2 0x4CE7 JUMP JUMPDEST PUSH1 0x40 MLOAD DUP1 SWAP2 SUB SWAP1 RETURN JUMPDEST PUSH2 0x266 PUSH2 0xAA2 JUMP JUMPDEST PUSH1 0x40 MLOAD PUSH2 0x273 SWAP2 SWAP1 PUSH2 0x4CAA JUMP JUMPDEST PUSH1 0x40 MLOAD DUP1 SWAP2 SUB SWAP1 RETURN JUMPDEST PUSH2 0x284 PUSH2 0xB59 JUMP JUMPDEST PUSH1 0x40 MLOAD PUSH2 0x291 SWAP2 SWAP1 PUSH2 0x4E8E JUMP JUMPDEST PUSH1 0x40 MLOAD DUP1 SWAP2 SUB SWAP1 RETURN JUMPDEST PUSH2 0x2B4 PUSH1 0x4 DUP1 CALLDATASIZE SUB DUP2 ADD SWAP1 PUSH2 0x2AF SWAP2 SWAP1 PUSH2 0x46ED JUMP JUMPDEST PUSH2 0xBA2 JUMP JUMPDEST PUSH1 0x40 MLOAD PUSH2 0x2C1 SWAP2 SWAP1 PUSH2 0x4CCC JUMP JUMPDEST PUSH1 0x40 MLOAD DUP1 SWAP2 SUB SWAP1 RETURN JUMPDEST PUSH2 0x2E4 PUSH1 0x4 DUP1 CALLDATASIZE SUB DUP2 ADD SWAP1 PUSH2 0x2DF SWAP2 SWAP1 PUSH2 0x454C JUMP JUMPDEST PUSH2 0xCC8 JUMP JUMPDEST PUSH1 0x40 MLOAD PUSH2 0x2F1 SWAP2 SWAP1 PUSH2 0x4E8E JUMP JUMPDEST PUSH1 0x40 MLOAD DUP1 SWAP2 SUB SWAP1 RETURN JUMPDEST PUSH2 0x302 PUSH2 0xDF9 JUMP JUMPDEST PUSH1 0x40 MLOAD PUSH2 0x30F SWAP2 SWAP1 PUSH2 0x4E8E JUMP JUMPDEST PUSH1 0x40 MLOAD DUP1 SWAP2 SUB SWAP1 RETURN JUMPDEST PUSH2 0x332 PUSH1 0x4 DUP1 CALLDATASIZE SUB DUP2 ADD SWAP1 PUSH2 0x32D SWAP2 SWAP1 PUSH2 0x46C0 JUMP JUMPDEST PUSH2 0xE03 JUMP JUMPDEST STOP JUMPDEST PUSH2 0x33C PUSH2 0xEC6 JUMP JUMPDEST PUSH1 0x40 MLOAD PUSH2 0x349 SWAP2 SWAP1 PUSH2 0x4CAA JUMP JUMPDEST PUSH1 0x40 MLOAD DUP1 SWAP2 SUB SWAP1 RETURN JUMPDEST PUSH2 0x35A PUSH2 0xF65 JUMP JUMPDEST PUSH1 0x40 MLOAD PUSH2 0x367 SWAP2 SWAP1 PUSH2 0x4CAA JUMP JUMPDEST PUSH1 0x40 MLOAD DUP1 SWAP2 SUB SWAP1 RETURN JUMPDEST PUSH2 0x38A PUSH1 0x4 DUP1 CALLDATASIZE SUB DUP2 ADD SWAP1 PUSH2 0x385 SWAP2 SWAP1 PUSH2 0x45DF JUMP JUMPDEST PUSH2 0x1168 JUMP JUMPDEST PUSH1 0x40 MLOAD PUSH2 0x397 SWAP2 SWAP1 PUSH2 0x4E8E JUMP JUMPDEST PUSH1 0x40 MLOAD DUP1 SWAP2 SUB SWAP1 RETURN JUMPDEST PUSH2 0x3BA PUSH1 0x4 DUP1 CALLDATASIZE SUB DUP2 ADD SWAP1 PUSH2 0x3B5 SWAP2 SWAP1 PUSH2 0x46C0 JUMP JUMPDEST PUSH2 0x1396 JUMP JUMPDEST PUSH1 0x40 MLOAD PUSH2 0x3CC SWAP7 SWAP6 SWAP5 SWAP4 SWAP3 SWAP2 SWAP1 PUSH2 0x4C34 JUMP JUMPDEST PUSH1 0x40 MLOAD DUP1 SWAP2 SUB SWAP1 RETURN JUMPDEST PUSH2 0x3EF PUSH1 0x4 DUP1 CALLDATASIZE SUB DUP2 ADD SWAP1 PUSH2 0x3EA SWAP2 SWAP1 PUSH2 0x46C0 JUMP JUMPDEST PUSH2 0x166C JUMP JUMPDEST PUSH1 0x40 MLOAD PUSH2 0x406 SWAP12 SWAP11 SWAP10 SWAP9 SWAP8 SWAP7 SWAP6 SWAP5 SWAP4 SWAP3 SWAP2 SWAP1 PUSH2 0x4D2C JUMP JUMPDEST PUSH1 0x40 MLOAD DUP1 SWAP2 SUB SWAP1 RETURN JUMPDEST PUSH2 0x429 PUSH1 0x4 DUP1 CALLDATASIZE SUB DUP2 ADD SWAP1 PUSH2 0x424 SWAP2 SWAP1 PUSH2 0x46C0 JUMP JUMPDEST PUSH2 0x1977 JUMP JUMPDEST PUSH1 0x40 MLOAD PUSH2 0x436 SWAP2 SWAP1 PUSH2 0x4E8E JUMP JUMPDEST PUSH1 0x40 MLOAD DUP1 SWAP2 SUB SWAP1 RETURN JUMPDEST PUSH2 0x459 PUSH1 0x4 DUP1 CALLDATASIZE SUB DUP2 ADD SWAP1 PUSH2 0x454 SWAP2 SWAP1 PUSH2 0x46C0 JUMP JUMPDEST PUSH2 0x1A64 JUMP JUMPDEST PUSH1 0x40 MLOAD PUSH2 0x46C SWAP8 SWAP7 SWAP6 SWAP5 SWAP4 SWAP3 SWAP2 SWAP1 PUSH2 0x4EA9 JUMP JUMPDEST PUSH1 0x40 MLOAD DUP1 SWAP2 SUB SWAP1 RETURN JUMPDEST PUSH2 0x48F PUSH1 0x4 DUP1 CALLDATASIZE SUB DUP2 ADD SWAP1 PUSH2 0x48A SWAP2 SWAP1 PUSH2 0x4464 JUMP JUMPDEST PUSH2 0x1DCD JUMP JUMPDEST PUSH1 0x40 MLOAD PUSH2 0x49D SWAP3 SWAP2 SWAP1 PUSH2 0x4F2D JUMP JUMPDEST PUSH1 0x40 MLOAD DUP1 SWAP2 SUB SWAP1 RETURN JUMPDEST PUSH2 0x4AE PUSH2 0x1F34 JUMP JUMPDEST PUSH1 0x40 MLOAD PUSH2 0x4BB SWAP2 SWAP1 PUSH2 0x4CAA JUMP JUMPDEST PUSH1 0x40 MLOAD DUP1 SWAP2 SUB SWAP1 RETURN JUMPDEST PUSH2 0x4DE PUSH1 0x4 DUP1 CALLDATASIZE SUB DUP2 ADD SWAP1 PUSH2 0x4D9 SWAP2 SWAP1 PUSH2 0x4464 JUMP JUMPDEST PUSH2 0x2073 JUMP JUMPDEST PUSH1 0x40 MLOAD PUSH2 0x4EB SWAP2 SWAP1 PUSH2 0x4CCC JUMP JUMPDEST PUSH1 0x40 MLOAD DUP1 SWAP2 SUB SWAP1 RETURN JUMPDEST PUSH2 0x50E PUSH1 0x4 DUP1 CALLDATASIZE SUB DUP2 ADD SWAP1 PUSH2 0x509 SWAP2 SWAP1 PUSH2 0x4491 JUMP JUMPDEST PUSH2 0x20FD JUMP JUMPDEST STOP JUMPDEST PUSH2 0x518 PUSH2 0x2399 JUMP JUMPDEST PUSH1 0x40 MLOAD PUSH2 0x526 SWAP3 SWAP2 SWAP1 PUSH2 0x4F2D JUMP JUMPDEST PUSH1 0x40 MLOAD DUP1 SWAP2 SUB SWAP1 RETURN JUMPDEST PUSH2 0x549 PUSH1 0x4 DUP1 CALLDATASIZE SUB DUP2 ADD SWAP1 PUSH2 0x544 SWAP2 SWAP1 PUSH2 0x46C0 JUMP JUMPDEST PUSH2 0x24C0 JUMP JUMPDEST PUSH1 0x40 MLOAD PUSH2 0x557 SWAP3 SWAP2 SWAP1 PUSH2 0x4F2D JUMP JUMPDEST PUSH1 0x40 MLOAD DUP1 SWAP2 SUB SWAP1 RETURN JUMPDEST PUSH2 0x57A PUSH1 0x4 DUP1 CALLDATASIZE SUB DUP2 ADD SWAP1 PUSH2 0x575 SWAP2 SWAP1 PUSH2 0x46C0 JUMP JUMPDEST PUSH2 0x278A JUMP JUMPDEST PUSH1 0x40 MLOAD PUSH2 0x587 SWAP2 SWAP1 PUSH2 0x4DEC JUMP JUMPDEST PUSH1 0x40 MLOAD DUP1 SWAP2 SUB SWAP1 RETURN JUMPDEST PUSH2 0x598 PUSH2 0x28E0 JUMP JUMPDEST PUSH1 0x40 MLOAD PUSH2 0x5A5 SWAP2 SWAP1 PUSH2 0x4CAA JUMP JUMPDEST PUSH1 0x40 MLOAD DUP1 SWAP2 SUB SWAP1 RETURN JUMPDEST PUSH2 0x5C8 PUSH1 0x4 DUP1 CALLDATASIZE SUB DUP2 ADD SWAP1 PUSH2 0x5C3 SWAP2 SWAP1 PUSH2 0x46C0 JUMP JUMPDEST PUSH2 0x2AE3 JUMP JUMPDEST PUSH1 0x40 MLOAD PUSH2 0x5D5 SWAP2 SWAP1 PUSH2 0x4CCC JUMP JUMPDEST PUSH1 0x40 MLOAD DUP1 SWAP2 SUB SWAP1 RETURN JUMPDEST PUSH2 0x5F8 PUSH1 0x4 DUP1 CALLDATASIZE SUB DUP2 ADD SWAP1 PUSH2 0x5F3 SWAP2 SWAP1 PUSH2 0x458C JUMP JUMPDEST PUSH2 0x2B9E JUMP JUMPDEST PUSH1 0x40 MLOAD PUSH2 0x605 SWAP2 SWAP1 PUSH2 0x4E8E JUMP JUMPDEST PUSH1 0x40 MLOAD DUP1 SWAP2 SUB SWAP1 RETURN JUMPDEST PUSH2 0x628 PUSH1 0x4 DUP1 CALLDATASIZE SUB DUP2 ADD SWAP1 PUSH2 0x623 SWAP2 SWAP1 PUSH2 0x46C0 JUMP JUMPDEST PUSH2 0x2CF1 JUMP JUMPDEST PUSH1 0x40 MLOAD PUSH2 0x635 SWAP2 SWAP1 PUSH2 0x4DEC JUMP JUMPDEST PUSH1 0x40 MLOAD DUP1 SWAP2 SUB SWAP1 RETURN JUMPDEST PUSH2 0x658 PUSH1 0x4 DUP1 CALLDATASIZE SUB DUP2 ADD SWAP1 PUSH2 0x653 SWAP2 SWAP1 PUSH2 0x472D JUMP JUMPDEST PUSH2 0x2E61 JUMP JUMPDEST STOP JUMPDEST PUSH2 0x662 PUSH2 0x2F0D JUMP JUMPDEST PUSH1 0x40 MLOAD PUSH2 0x66F SWAP2 SWAP1 PUSH2 0x4CAA JUMP JUMPDEST PUSH1 0x40 MLOAD DUP1 SWAP2 SUB SWAP1 RETURN JUMPDEST PUSH2 0x692 PUSH1 0x4 DUP1 CALLDATASIZE SUB DUP2 ADD SWAP1 PUSH2 0x68D SWAP2 SWAP1 PUSH2 0x46C0 JUMP JUMPDEST PUSH2 0x2FAC JUMP JUMPDEST PUSH1 0x40 MLOAD PUSH2 0x6A4 SWAP7 SWAP6 SWAP5 SWAP4 SWAP3 SWAP2 SWAP1 PUSH2 0x4F56 JUMP JUMPDEST PUSH1 0x40 MLOAD DUP1 SWAP2 SUB SWAP1 RETURN JUMPDEST PUSH1 0x60 PUSH1 0x0 PUSH1 0x40 MLOAD DUP1 PUSH1 0x40 ADD PUSH1 0x40 MSTORE DUP1 PUSH1 0x40 MLOAD DUP1 PUSH1 0x40 ADD PUSH1 0x40 MSTORE DUP1 PUSH1 0x5 DUP2 MSTORE PUSH1 0x20 ADD PUSH32 0x7061676172000000000000000000000000000000000000000000000000000000 DUP2 MSTORE POP DUP2 MSTORE PUSH1 0x20 ADD PUSH1 0x40 MLOAD DUP1 PUSH1 0x40 ADD PUSH1 0x40 MSTORE DUP1 PUSH1 0x7 DUP2 MSTORE PUSH1 0x20 ADD PUSH32 0x7265636562657200000000000000000000000000000000000000000000000000 DUP2 MSTORE POP DUP2 MSTORE POP SWAP1 POP DUP1 DUP4 PUSH1 0x2 DUP2 LT PUSH2 0x745 JUMPI PUSH2 0x744 PUSH2 0x54C2 JUMP JUMPDEST JUMPDEST PUSH1 0x20 MUL ADD MLOAD SWAP2 POP POP SWAP2 SWAP1 POP JUMP JUMPDEST PUSH1 0x0 DUP1 PUSH2 0x771 PUSH1 0xF PUSH1 0x0 DUP6 DUP2 MSTORE PUSH1 0x20 ADD SWAP1 DUP2 MSTORE PUSH1 0x20 ADD PUSH1 0x0 KECCAK256 SLOAD PUSH2 0x8A5 JUMP JUMPDEST POP POP SWAP2 POP SWAP2 POP PUSH1 0x0 PUSH1 0x3 DUP2 GT ISZERO PUSH2 0x78B JUMPI PUSH2 0x78A PUSH2 0x5464 JUMP JUMPDEST JUMPDEST PUSH1 0xD DUP5 DUP2 SLOAD DUP2 LT PUSH2 0x79F JUMPI PUSH2 0x79E PUSH2 0x54C2 JUMP JUMPDEST JUMPDEST SWAP1 PUSH1 0x0 MSTORE PUSH1 0x20 PUSH1 0x0 KECCAK256 SWAP1 PUSH1 0x6 MUL ADD PUSH1 0x5 ADD PUSH1 0x0 SWAP1 SLOAD SWAP1 PUSH2 0x100 EXP SWAP1 DIV PUSH1 0xFF AND PUSH1 0x3 DUP2 GT ISZERO PUSH2 0x7D0 JUMPI PUSH2 0x7CF PUSH2 0x5464 JUMP JUMPDEST JUMPDEST EQ DUP1 ISZERO PUSH2 0x7E1 JUMPI POP PUSH1 0x1 ISZERO ISZERO DUP3 ISZERO ISZERO EQ JUMPDEST ISZERO PUSH2 0x8A0 JUMPI PUSH1 0x1 ISZERO ISZERO DUP2 ISZERO ISZERO EQ ISZERO PUSH2 0x850 JUMPI PUSH1 0x2 PUSH1 0xD DUP5 DUP2 SLOAD DUP2 LT PUSH2 0x809 JUMPI PUSH2 0x808 PUSH2 0x54C2 JUMP JUMPDEST JUMPDEST SWAP1 PUSH1 0x0 MSTORE PUSH1 0x20 PUSH1 0x0 KECCAK256 SWAP1 PUSH1 0x6 MUL ADD PUSH1 0x5 ADD PUSH1 0x0 PUSH2 0x100 EXP DUP2 SLOAD DUP2 PUSH1 0xFF MUL NOT AND SWAP1 DUP4 PUSH1 0x3 DUP2 GT ISZERO PUSH2 0x83C JUMPI PUSH2 0x83B PUSH2 0x5464 JUMP JUMPDEST JUMPDEST MUL OR SWAP1 SSTORE POP PUSH2 0x84A DUP4 PUSH2 0x312B JUMP JUMPDEST POP PUSH2 0x89F JUMP JUMPDEST PUSH1 0x3 PUSH1 0xD DUP5 DUP2 SLOAD DUP2 LT PUSH2 0x866 JUMPI PUSH2 0x865 PUSH2 0x54C2 JUMP JUMPDEST JUMPDEST SWAP1 PUSH1 0x0 MSTORE PUSH1 0x20 PUSH1 0x0 KECCAK256 SWAP1 PUSH1 0x6 MUL ADD PUSH1 0x5 ADD PUSH1 0x0 PUSH2 0x100 EXP DUP2 SLOAD DUP2 PUSH1 0xFF MUL NOT AND SWAP1 DUP4 PUSH1 0x3 DUP2 GT ISZERO PUSH2 0x899 JUMPI PUSH2 0x898 PUSH2 0x5464 JUMP JUMPDEST JUMPDEST MUL OR SWAP1 SSTORE POP JUMPDEST JUMPDEST POP POP POP JUMP JUMPDEST PUSH1 0x0 DUP1 PUSH1 0x0 DUP1 PUSH1 0x0 SWAP4 POP PUSH1 0x0 SWAP3 POP PUSH1 0x0 SWAP2 POP PUSH1 0x0 SWAP1 POP PUSH1 0x0 PUSH1 0x3 PUSH1 0x0 DUP8 DUP2 MSTORE PUSH1 0x20 ADD SWAP1 DUP2 MSTORE PUSH1 0x20 ADD PUSH1 0x0 KECCAK256 DUP1 SLOAD DUP1 PUSH1 0x20 MUL PUSH1 0x20 ADD PUSH1 0x40 MLOAD SWAP1 DUP2 ADD PUSH1 0x40 MSTORE DUP1 SWAP3 SWAP2 SWAP1 DUP2 DUP2 MSTORE PUSH1 0x20 ADD DUP3 DUP1 SLOAD DUP1 ISZERO PUSH2 0x91A JUMPI PUSH1 0x20 MUL DUP3 ADD SWAP2 SWAP1 PUSH1 0x0 MSTORE PUSH1 0x20 PUSH1 0x0 KECCAK256 SWAP1 JUMPDEST DUP2 SLOAD DUP2 MSTORE PUSH1 0x20 ADD SWAP1 PUSH1 0x1 ADD SWAP1 DUP1 DUP4 GT PUSH2 0x906 JUMPI JUMPDEST POP POP POP POP POP SWAP1 POP PUSH1 0x0 JUMPDEST DUP2 MLOAD DUP2 LT ISZERO PUSH2 0xA39 JUMPI PUSH1 0x1 ISZERO ISZERO PUSH1 0x2 DUP4 DUP4 DUP2 MLOAD DUP2 LT PUSH2 0x946 JUMPI PUSH2 0x945 PUSH2 0x54C2 JUMP JUMPDEST JUMPDEST PUSH1 0x20 MUL PUSH1 0x20 ADD ADD MLOAD DUP2 SLOAD DUP2 LT PUSH2 0x95F JUMPI PUSH2 0x95E PUSH2 0x54C2 JUMP JUMPDEST JUMPDEST SWAP1 PUSH1 0x0 MSTORE PUSH1 0x20 PUSH1 0x0 KECCAK256 SWAP1 PUSH1 0x3 MUL ADD PUSH1 0x0 ADD PUSH1 0x14 SWAP1 SLOAD SWAP1 PUSH2 0x100 EXP SWAP1 DIV PUSH1 0xFF AND ISZERO ISZERO EQ ISZERO PUSH2 0x9D8 JUMPI PUSH1 0x2 DUP3 DUP3 DUP2 MLOAD DUP2 LT PUSH2 0x99B JUMPI PUSH2 0x99A PUSH2 0x54C2 JUMP JUMPDEST JUMPDEST PUSH1 0x20 MUL PUSH1 0x20 ADD ADD MLOAD DUP2 SLOAD DUP2 LT PUSH2 0x9B4 JUMPI PUSH2 0x9B3 PUSH2 0x54C2 JUMP JUMPDEST JUMPDEST SWAP1 PUSH1 0x0 MSTORE PUSH1 0x20 PUSH1 0x0 KECCAK256 SWAP1 PUSH1 0x3 MUL ADD PUSH1 0x1 ADD SLOAD DUP5 PUSH2 0x9D1 SWAP2 SWAP1 PUSH2 0x50CC JUMP JUMPDEST SWAP4 POP PUSH2 0xA26 JUMP JUMPDEST PUSH1 0x2 DUP3 DUP3 DUP2 MLOAD DUP2 LT PUSH2 0x9ED JUMPI PUSH2 0x9EC PUSH2 0x54C2 JUMP JUMPDEST JUMPDEST PUSH1 0x20 MUL PUSH1 0x20 ADD ADD MLOAD DUP2 SLOAD DUP2 LT PUSH2 0xA06 JUMPI PUSH2 0xA05 PUSH2 0x54C2 JUMP JUMPDEST JUMPDEST SWAP1 PUSH1 0x0 MSTORE PUSH1 0x20 PUSH1 0x0 KECCAK256 SWAP1 PUSH1 0x3 MUL ADD PUSH1 0x1 ADD SLOAD DUP4 PUSH2 0xA23 SWAP2 SWAP1 PUSH2 0x50CC JUMP JUMPDEST SWAP3 POP JUMPDEST DUP1 DUP1 PUSH2 0xA31 SWAP1 PUSH2 0x538C JUMP JUMPDEST SWAP2 POP POP PUSH2 0x924 JUMP JUMPDEST POP TIMESTAMP PUSH1 0x1 DUP8 DUP2 SLOAD DUP2 LT PUSH2 0xA4F JUMPI PUSH2 0xA4E PUSH2 0x54C2 JUMP JUMPDEST JUMPDEST SWAP1 PUSH1 0x0 MSTORE PUSH1 0x20 PUSH1 0x0 KECCAK256 SWAP1 PUSH1 0x6 MUL ADD PUSH1 0x4 ADD SLOAD LT DUP1 PUSH2 0xA6E JUMPI POP PUSH2 0x1388 DUP4 GT JUMPDEST DUP1 PUSH2 0xA7A JUMPI POP PUSH2 0x1388 DUP3 GT JUMPDEST ISZERO PUSH2 0xA84 JUMPI PUSH1 0x1 SWAP5 POP JUMPDEST DUP2 DUP4 GT ISZERO PUSH2 0xA95 JUMPI PUSH1 0x1 SWAP4 POP PUSH2 0xA9A JUMP JUMPDEST PUSH1 0x0 SWAP4 POP JUMPDEST POP SWAP2 SWAP4 POP SWAP2 SWAP4 JUMP JUMPDEST PUSH1 0x60 PUSH1 0x0 PUSH1 0xD DUP1 SLOAD SWAP1 POP PUSH8 0xFFFFFFFFFFFFFFFF DUP2 GT ISZERO PUSH2 0xAC5 JUMPI PUSH2 0xAC4 PUSH2 0x54F1 JUMP JUMPDEST JUMPDEST PUSH1 0x40 MLOAD SWAP1 DUP1 DUP3 MSTORE DUP1 PUSH1 0x20 MUL PUSH1 0x20 ADD DUP3 ADD PUSH1 0x40 MSTORE DUP1 ISZERO PUSH2 0xAF3 JUMPI DUP2 PUSH1 0x20 ADD PUSH1 0x20 DUP3 MUL DUP1 CALLDATASIZE DUP4 CALLDATACOPY DUP1 DUP3 ADD SWAP2 POP POP SWAP1 POP JUMPDEST POP SWAP1 POP PUSH1 0x0 DUP1 JUMPDEST PUSH1 0xD DUP1 SLOAD SWAP1 POP DUP2 LT ISZERO PUSH2 0xB50 JUMPI DUP1 DUP4 DUP4 DUP2 MLOAD DUP2 LT PUSH2 0xB1B JUMPI PUSH2 0xB1A PUSH2 0x54C2 JUMP JUMPDEST JUMPDEST PUSH1 0x20 MUL PUSH1 0x20 ADD ADD DUP2 DUP2 MSTORE POP POP PUSH1 0xE PUSH1 0x0 DUP4 DUP2 MSTORE PUSH1 0x20 ADD SWAP1 DUP2 MSTORE PUSH1 0x20 ADD PUSH1 0x0 KECCAK256 SLOAD SWAP2 POP DUP1 DUP1 PUSH2 0xB48 SWAP1 PUSH2 0x538C JUMP JUMPDEST SWAP2 POP POP PUSH2 0xAFA JUMP JUMPDEST POP DUP2 SWAP3 POP POP POP SWAP1 JUMP JUMPDEST PUSH1 0x0 DUP1 PUSH2 0xB64 PUSH2 0x2399 JUMP JUMPDEST SWAP2 POP POP PUSH1 0x0 PUSH2 0xB71 PUSH2 0xDF9 JUMP JUMPDEST SWAP1 POP DUP2 DUP2 PUSH1 0x64 PUSH2 0xB81 SWAP2 SWAP1 PUSH2 0x5153 JUMP JUMPDEST PUSH2 0xB8B SWAP2 SWAP1 PUSH2 0x5122 JUMP JUMPDEST SWAP3 POP PUSH1 0xC SLOAD DUP4 LT ISZERO PUSH2 0xB9D JUMPI PUSH1 0xC SLOAD SWAP3 POP JUMPDEST POP POP SWAP1 JUMP JUMPDEST PUSH1 0x0 DUP1 PUSH1 0x3 PUSH1 0x0 DUP6 DUP2 MSTORE PUSH1 0x20 ADD SWAP1 DUP2 MSTORE PUSH1 0x20 ADD PUSH1 0x0 KECCAK256 DUP1 SLOAD DUP1 PUSH1 0x20 MUL PUSH1 0x20 ADD PUSH1 0x40 MLOAD SWAP1 DUP2 ADD PUSH1 0x40 MSTORE DUP1 SWAP3 SWAP2 SWAP1 DUP2 DUP2 MSTORE PUSH1 0x20 ADD DUP3 DUP1 SLOAD DUP1 ISZERO PUSH2 0xC02 JUMPI PUSH1 0x20 MUL DUP3 ADD SWAP2 SWAP1 PUSH1 0x0 MSTORE PUSH1 0x20 PUSH1 0x0 KECCAK256 SWAP1 JUMPDEST DUP2 SLOAD DUP2 MSTORE PUSH1 0x20 ADD SWAP1 PUSH1 0x1 ADD SWAP1 DUP1 DUP4 GT PUSH2 0xBEE JUMPI JUMPDEST POP POP POP POP POP SWAP1 POP PUSH1 0x0 JUMPDEST DUP2 MLOAD DUP2 LT ISZERO PUSH2 0xCC0 JUMPI DUP4 PUSH20 0xFFFFFFFFFFFFFFFFFFFFFFFFFFFFFFFFFFFFFFFF AND PUSH1 0x2 DUP4 DUP4 DUP2 MLOAD DUP2 LT PUSH2 0xC41 JUMPI PUSH2 0xC40 PUSH2 0x54C2 JUMP JUMPDEST JUMPDEST PUSH1 0x20 MUL PUSH1 0x20 ADD ADD MLOAD DUP2 SLOAD DUP2 LT PUSH2 0xC5A JUMPI PUSH2 0xC59 PUSH2 0x54C2 JUMP JUMPDEST JUMPDEST SWAP1 PUSH1 0x0 MSTORE PUSH1 0x20 PUSH1 0x0 KECCAK256 SWAP1 PUSH1 0x3 MUL ADD PUSH1 0x0 ADD PUSH1 0x0 SWAP1 SLOAD SWAP1 PUSH2 0x100 EXP SWAP1 DIV PUSH20 0xFFFFFFFFFFFFFFFFFFFFFFFFFFFFFFFFFFFFFFFF AND PUSH20 0xFFFFFFFFFFFFFFFFFFFFFFFFFFFFFFFFFFFFFFFF AND EQ ISZERO PUSH2 0xCAD JUMPI PUSH1 0x1 SWAP3 POP JUMPDEST DUP1 DUP1 PUSH2 0xCB8 SWAP1 PUSH2 0x538C JUMP JUMPDEST SWAP2 POP POP PUSH2 0xC0C JUMP JUMPDEST POP POP SWAP3 SWAP2 POP POP JUMP JUMPDEST PUSH1 0x0 DUP1 PUSH2 0xCD4 DUP5 PUSH2 0x3273 JUMP JUMPDEST SWAP2 POP POP PUSH1 0x0 SWAP2 POP PUSH1 0x0 JUMPDEST PUSH1 0xD DUP1 SLOAD SWAP1 POP DUP2 LT ISZERO PUSH2 0xDF1 JUMPI DUP2 PUSH1 0xD DUP3 DUP2 SLOAD DUP2 LT PUSH2 0xD00 JUMPI PUSH2 0xCFF PUSH2 0x54C2 JUMP JUMPDEST JUMPDEST SWAP1 PUSH1 0x0 MSTORE PUSH1 0x20 PUSH1 0x0 KECCAK256 SWAP1 PUSH1 0x6 MUL ADD PUSH1 0x0 ADD SLOAD EQ DUP1 ISZERO PUSH2 0xD75 JUMPI POP PUSH1 0x2 PUSH1 0x3 DUP2 GT ISZERO PUSH2 0xD2E JUMPI PUSH2 0xD2D PUSH2 0x5464 JUMP JUMPDEST JUMPDEST PUSH1 0xD DUP3 DUP2 SLOAD DUP2 LT PUSH2 0xD42 JUMPI PUSH2 0xD41 PUSH2 0x54C2 JUMP JUMPDEST JUMPDEST SWAP1 PUSH1 0x0 MSTORE PUSH1 0x20 PUSH1 0x0 KECCAK256 SWAP1 PUSH1 0x6 MUL ADD PUSH1 0x5 ADD PUSH1 0x0 SWAP1 SLOAD SWAP1 PUSH2 0x100 EXP SWAP1 DIV PUSH1 0xFF AND PUSH1 0x3 DUP2 GT ISZERO PUSH2 0xD73 JUMPI PUSH2 0xD72 PUSH2 0x5464 JUMP JUMPDEST JUMPDEST EQ JUMPDEST DUP1 ISZERO PUSH2 0xDA5 JUMPI POP DUP4 PUSH1 0xD DUP3 DUP2 SLOAD DUP2 LT PUSH2 0xD91 JUMPI PUSH2 0xD90 PUSH2 0x54C2 JUMP JUMPDEST JUMPDEST SWAP1 PUSH1 0x0 MSTORE PUSH1 0x20 PUSH1 0x0 KECCAK256 SWAP1 PUSH1 0x6 MUL ADD PUSH1 0x4 ADD SLOAD LT JUMPDEST ISZERO PUSH2 0xDDE JUMPI PUSH1 0xD DUP2 DUP2 SLOAD DUP2 LT PUSH2 0xDBE JUMPI PUSH2 0xDBD PUSH2 0x54C2 JUMP JUMPDEST JUMPDEST SWAP1 PUSH1 0x0 MSTORE PUSH1 0x20 PUSH1 0x0 KECCAK256 SWAP1 PUSH1 0x6 MUL ADD PUSH1 0x2 ADD SLOAD DUP4 PUSH2 0xDDB SWAP2 SWAP1 PUSH2 0x50CC JUMP JUMPDEST SWAP3 POP JUMPDEST DUP1 DUP1 PUSH2 0xDE9 SWAP1 PUSH2 0x538C JUMP JUMPDEST SWAP2 POP POP PUSH2 0xCDE JUMP JUMPDEST POP POP SWAP3 SWAP2 POP POP JUMP JUMPDEST PUSH1 0x0 PUSH1 0xA SLOAD SWAP1 POP SWAP1 JUMP JUMPDEST PUSH1 0x0 DUP1 PUSH2 0xE22 PUSH1 0x6 PUSH1 0x0 DUP6 DUP2 MSTORE PUSH1 0x20 ADD SWAP1 DUP2 MSTORE PUSH1 0x20 ADD PUSH1 0x0 KECCAK256 SLOAD PUSH2 0x8A5 JUMP JUMPDEST POP POP SWAP2 POP SWAP2 POP PUSH1 0x0 PUSH1 0x4 DUP2 GT ISZERO PUSH2 0xE3C JUMPI PUSH2 0xE3B PUSH2 0x5464 JUMP JUMPDEST JUMPDEST PUSH1 0x4 DUP5 DUP2 SLOAD DUP2 LT PUSH2 0xE50 JUMPI PUSH2 0xE4F PUSH2 0x54C2 JUMP JUMPDEST JUMPDEST SWAP1 PUSH1 0x0 MSTORE PUSH1 0x20 PUSH1 0x0 KECCAK256 SWAP1 PUSH1 0x7 MUL ADD PUSH1 0x6 ADD PUSH1 0x0 SWAP1 SLOAD SWAP1 PUSH2 0x100 EXP SWAP1 DIV PUSH1 0xFF AND PUSH1 0x4 DUP2 GT ISZERO PUSH2 0xE81 JUMPI PUSH2 0xE80 PUSH2 0x5464 JUMP JUMPDEST JUMPDEST EQ DUP1 ISZERO PUSH2 0xE92 JUMPI POP PUSH1 0x1 ISZERO ISZERO DUP3 ISZERO ISZERO EQ JUMPDEST ISZERO PUSH2 0xEC1 JUMPI PUSH1 0x1 ISZERO ISZERO DUP2 ISZERO ISZERO EQ ISZERO PUSH2 0xEB4 JUMPI PUSH2 0xEAF DUP4 PUSH1 0x2 PUSH2 0x332A JUMP JUMPDEST PUSH2 0xEC0 JUMP JUMPDEST PUSH2 0xEBF DUP4 PUSH1 0x3 PUSH2 0x332A JUMP JUMPDEST JUMPDEST JUMPDEST POP POP POP JUMP JUMPDEST PUSH1 0x60 PUSH1 0x0 PUSH1 0x8 DUP1 SLOAD SWAP1 POP PUSH8 0xFFFFFFFFFFFFFFFF DUP2 GT ISZERO PUSH2 0xEE9 JUMPI PUSH2 0xEE8 PUSH2 0x54F1 JUMP JUMPDEST JUMPDEST PUSH1 0x40 MLOAD SWAP1 DUP1 DUP3 MSTORE DUP1 PUSH1 0x20 MUL PUSH1 0x20 ADD DUP3 ADD PUSH1 0x40 MSTORE DUP1 ISZERO PUSH2 0xF17 JUMPI DUP2 PUSH1 0x20 ADD PUSH1 0x20 DUP3 MUL DUP1 CALLDATASIZE DUP4 CALLDATACOPY DUP1 DUP3 ADD SWAP2 POP POP SWAP1 POP JUMPDEST POP SWAP1 POP PUSH1 0x0 JUMPDEST PUSH1 0x8 DUP1 SLOAD SWAP1 POP DUP2 LT ISZERO PUSH2 0xF5D JUMPI DUP1 DUP3 DUP3 DUP2 MLOAD DUP2 LT PUSH2 0xF3E JUMPI PUSH2 0xF3D PUSH2 0x54C2 JUMP JUMPDEST JUMPDEST PUSH1 0x20 MUL PUSH1 0x20 ADD ADD DUP2 DUP2 MSTORE POP POP DUP1 DUP1 PUSH2 0xF55 SWAP1 PUSH2 0x538C JUMP JUMPDEST SWAP2 POP POP PUSH2 0xF1D JUMP JUMPDEST POP DUP1 SWAP2 POP POP SWAP1 JUMP JUMPDEST PUSH1 0x60 PUSH1 0x0 DUP1 PUSH1 0x60 PUSH1 0x0 JUMPDEST PUSH1 0x4 DUP1 SLOAD SWAP1 POP DUP2 LT ISZERO PUSH2 0x102F JUMPI PUSH1 0x0 PUSH1 0x4 DUP2 GT ISZERO PUSH2 0xF90 JUMPI PUSH2 0xF8F PUSH2 0x5464 JUMP JUMPDEST JUMPDEST PUSH1 0x4 DUP3 DUP2 SLOAD DUP2 LT PUSH2 0xFA4 JUMPI PUSH2 0xFA3 PUSH2 0x54C2 JUMP JUMPDEST JUMPDEST SWAP1 PUSH1 0x0 MSTORE PUSH1 0x20 PUSH1 0x0 KECCAK256 SWAP1 PUSH1 0x7 MUL ADD PUSH1 0x6 ADD PUSH1 0x0 SWAP1 SLOAD SWAP1 PUSH2 0x100 EXP SWAP1 DIV PUSH1 0xFF AND PUSH1 0x4 DUP2 GT ISZERO PUSH2 0xFD5 JUMPI PUSH2 0xFD4 PUSH2 0x5464 JUMP JUMPDEST JUMPDEST EQ ISZERO PUSH2 0x101C JUMPI PUSH1 0x0 PUSH2 0xFF9 PUSH1 0x6 PUSH1 0x0 DUP5 DUP2 MSTORE PUSH1 0x20 ADD SWAP1 DUP2 MSTORE PUSH1 0x20 ADD PUSH1 0x0 KECCAK256 SLOAD PUSH2 0x8A5 JUMP JUMPDEST POP POP POP SWAP1 POP PUSH1 0x1 ISZERO ISZERO DUP2 ISZERO ISZERO EQ ISZERO PUSH2 0x101A JUMPI DUP4 DUP1 PUSH2 0x1016 SWAP1 PUSH2 0x538C JUMP JUMPDEST SWAP5 POP POP JUMPDEST POP JUMPDEST DUP1 DUP1 PUSH2 0x1027 SWAP1 PUSH2 0x538C JUMP JUMPDEST SWAP2 POP POP PUSH2 0xF6F JUMP JUMPDEST POP DUP2 PUSH8 0xFFFFFFFFFFFFFFFF DUP2 GT ISZERO PUSH2 0x104A JUMPI PUSH2 0x1049 PUSH2 0x54F1 JUMP JUMPDEST JUMPDEST PUSH1 0x40 MLOAD SWAP1 DUP1 DUP3 MSTORE DUP1 PUSH1 0x20 MUL PUSH1 0x20 ADD DUP3 ADD PUSH1 0x40 MSTORE DUP1 ISZERO PUSH2 0x1078 JUMPI DUP2 PUSH1 0x20 ADD PUSH1 0x20 DUP3 MUL DUP1 CALLDATASIZE DUP4 CALLDATACOPY DUP1 DUP3 ADD SWAP2 POP POP SWAP1 POP JUMPDEST POP SWAP1 POP PUSH1 0x0 JUMPDEST PUSH1 0x4 DUP1 SLOAD SWAP1 POP DUP2 LT ISZERO PUSH2 0x115E JUMPI PUSH1 0x0 PUSH1 0x4 DUP2 GT ISZERO PUSH2 0x109F JUMPI PUSH2 0x109E PUSH2 0x5464 JUMP JUMPDEST JUMPDEST PUSH1 0x4 DUP3 DUP2 SLOAD DUP2 LT PUSH2 0x10B3 JUMPI PUSH2 0x10B2 PUSH2 0x54C2 JUMP JUMPDEST JUMPDEST SWAP1 PUSH1 0x0 MSTORE PUSH1 0x20 PUSH1 0x0 KECCAK256 SWAP1 PUSH1 0x7 MUL ADD PUSH1 0x6 ADD PUSH1 0x0 SWAP1 SLOAD SWAP1 PUSH2 0x100 EXP SWAP1 DIV PUSH1 0xFF AND PUSH1 0x4 DUP2 GT ISZERO PUSH2 0x10E4 JUMPI PUSH2 0x10E3 PUSH2 0x5464 JUMP JUMPDEST JUMPDEST EQ ISZERO PUSH2 0x114B JUMPI PUSH1 0x0 PUSH2 0x1108 PUSH1 0x6 PUSH1 0x0 DUP5 DUP2 MSTORE PUSH1 0x20 ADD SWAP1 DUP2 MSTORE PUSH1 0x20 ADD PUSH1 0x0 KECCAK256 SLOAD PUSH2 0x8A5 JUMP JUMPDEST POP POP POP SWAP1 POP PUSH1 0x1 ISZERO ISZERO DUP2 ISZERO ISZERO EQ ISZERO PUSH2 0x1149 JUMPI DUP2 DUP4 DUP7 DUP2 MLOAD DUP2 LT PUSH2 0x112E JUMPI PUSH2 0x112D PUSH2 0x54C2 JUMP JUMPDEST JUMPDEST PUSH1 0x20 MUL PUSH1 0x20 ADD ADD DUP2 DUP2 MSTORE POP POP DUP5 DUP1 PUSH2 0x1145 SWAP1 PUSH2 0x538C JUMP JUMPDEST SWAP6 POP POP JUMPDEST POP JUMPDEST DUP1 DUP1 PUSH2 0x1156 SWAP1 PUSH2 0x538C JUMP JUMPDEST SWAP2 POP POP PUSH2 0x107E JUMP JUMPDEST POP DUP1 SWAP4 POP POP POP POP SWAP1 JUMP JUMPDEST PUSH1 0x0 DUP1 PUSH2 0x1174 CALLER PUSH2 0x3273 JUMP JUMPDEST SWAP2 POP POP PUSH1 0x0 PUSH1 0x40 MLOAD DUP1 PUSH2 0x160 ADD PUSH1 0x40 MSTORE DUP1 PUSH1 0x2 PUSH1 0x4 DUP2 GT ISZERO PUSH2 0x1199 JUMPI PUSH2 0x1198 PUSH2 0x5464 JUMP JUMPDEST JUMPDEST DUP2 MSTORE PUSH1 0x20 ADD DUP11 PUSH1 0x1 DUP2 GT ISZERO PUSH2 0x11B1 JUMPI PUSH2 0x11B0 PUSH2 0x5464 JUMP JUMPDEST JUMPDEST DUP2 MSTORE PUSH1 0x20 ADD DUP4 DUP2 MSTORE PUSH1 0x20 ADD PUSH1 0x0 DUP2 MSTORE PUSH1 0x20 ADD DUP10 DUP2 MSTORE PUSH1 0x20 ADD DUP9 DUP2 MSTORE PUSH1 0x20 ADD DUP8 DUP2 MSTORE PUSH1 0x20 ADD DUP7 DUP2 MSTORE PUSH1 0x20 ADD DUP6 DUP2 MSTORE PUSH1 0x20 ADD PUSH1 0x0 DUP2 MSTORE PUSH1 0x20 ADD TIMESTAMP DUP2 MSTORE POP SWAP1 POP PUSH1 0x8 DUP2 SWAP1 DUP1 PUSH1 0x1 DUP2 SLOAD ADD DUP1 DUP3 SSTORE DUP1 SWAP2 POP POP PUSH1 0x1 SWAP1 SUB SWAP1 PUSH1 0x0 MSTORE PUSH1 0x20 PUSH1 0x0 KECCAK256 SWAP1 PUSH1 0xA MUL ADD PUSH1 0x0 SWAP1 SWAP2 SWAP1 SWAP2 SWAP1 SWAP2 POP PUSH1 0x0 DUP3 ADD MLOAD DUP2 PUSH1 0x0 ADD PUSH1 0x0 PUSH2 0x100 EXP DUP2 SLOAD DUP2 PUSH1 0xFF MUL NOT AND SWAP1 DUP4 PUSH1 0x4 DUP2 GT ISZERO PUSH2 0x1245 JUMPI PUSH2 0x1244 PUSH2 0x5464 JUMP JUMPDEST JUMPDEST MUL OR SWAP1 SSTORE POP PUSH1 0x20 DUP3 ADD MLOAD DUP2 PUSH1 0x0 ADD PUSH1 0x1 PUSH2 0x100 EXP DUP2 SLOAD DUP2 PUSH1 0xFF MUL NOT AND SWAP1 DUP4 PUSH1 0x1 DUP2 GT ISZERO PUSH2 0x1275 JUMPI PUSH2 0x1274 PUSH2 0x5464 JUMP JUMPDEST JUMPDEST MUL OR SWAP1 SSTORE POP PUSH1 0x40 DUP3 ADD MLOAD DUP2 PUSH1 0x1 ADD SSTORE PUSH1 0x60 DUP3 ADD MLOAD DUP2 PUSH1 0x2 ADD SSTORE PUSH1 0x80 DUP3 ADD MLOAD DUP2 PUSH1 0x3 ADD SWAP1 DUP1 MLOAD SWAP1 PUSH1 0x20 ADD SWAP1 PUSH2 0x12AA SWAP3 SWAP2 SWAP1 PUSH2 0x4239 JUMP JUMPDEST POP PUSH1 0xA0 DUP3 ADD MLOAD DUP2 PUSH1 0x4 ADD SWAP1 DUP1 MLOAD SWAP1 PUSH1 0x20 ADD SWAP1 PUSH2 0x12C7 SWAP3 SWAP2 SWAP1 PUSH2 0x4239 JUMP JUMPDEST POP PUSH1 0xC0 DUP3 ADD MLOAD DUP2 PUSH1 0x5 ADD SSTORE PUSH1 0xE0 DUP3 ADD MLOAD DUP2 PUSH1 0x6 ADD SWAP1 DUP1 MLOAD SWAP1 PUSH1 0x20 ADD SWAP1 PUSH2 0x12EE SWAP3 SWAP2 SWAP1 PUSH2 0x4239 JUMP JUMPDEST POP PUSH2 0x100 DUP3 ADD MLOAD DUP2 PUSH1 0x7 ADD SSTORE PUSH2 0x120 DUP3 ADD MLOAD DUP2 PUSH1 0x8 ADD SSTORE PUSH2 0x140 DUP3 ADD MLOAD DUP2 PUSH1 0x9 ADD SSTORE POP POP PUSH1 0x1 PUSH1 0x8 DUP1 SLOAD SWAP1 POP PUSH2 0x1324 SWAP2 SWAP1 PUSH2 0x51AD JUMP JUMPDEST SWAP3 POP PUSH2 0x132F DUP4 PUSH2 0x341A JUMP JUMPDEST PUSH1 0x0 PUSH1 0x1 DUP2 GT ISZERO PUSH2 0x1343 JUMPI PUSH2 0x1342 PUSH2 0x5464 JUMP JUMPDEST JUMPDEST DUP10 PUSH1 0x1 DUP2 GT ISZERO PUSH2 0x1356 JUMPI PUSH2 0x1355 PUSH2 0x5464 JUMP JUMPDEST JUMPDEST EQ ISZERO PUSH2 0x1375 JUMPI DUP6 PUSH1 0xA SLOAD PUSH2 0x136A SWAP2 SWAP1 PUSH2 0x51AD JUMP JUMPDEST PUSH1 0xA DUP2 SWAP1 SSTORE POP PUSH2 0x138A JUMP JUMPDEST DUP6 PUSH1 0xA SLOAD PUSH2 0x1383 SWAP2 SWAP1 PUSH2 0x50CC JUMP JUMPDEST PUSH1 0xA DUP2 SWAP1 SSTORE POP JUMPDEST POP POP SWAP7 SWAP6 POP POP POP POP POP POP JUMP JUMPDEST PUSH1 0x0 PUSH1 0x60 DUP1 PUSH1 0x60 PUSH1 0x0 DUP1 PUSH1 0x0 PUSH1 0x1 DUP9 DUP2 SLOAD DUP2 LT PUSH2 0x13B6 JUMPI PUSH2 0x13B5 PUSH2 0x54C2 JUMP JUMPDEST JUMPDEST SWAP1 PUSH1 0x0 MSTORE PUSH1 0x20 PUSH1 0x0 KECCAK256 SWAP1 PUSH1 0x6 MUL ADD PUSH1 0x40 MLOAD DUP1 PUSH1 0xC0 ADD PUSH1 0x40 MSTORE SWAP1 DUP2 PUSH1 0x0 DUP3 ADD PUSH1 0x0 SWAP1 SLOAD SWAP1 PUSH2 0x100 EXP SWAP1 DIV PUSH20 0xFFFFFFFFFFFFFFFFFFFFFFFFFFFFFFFFFFFFFFFF AND PUSH20 0xFFFFFFFFFFFFFFFFFFFFFFFFFFFFFFFFFFFFFFFF AND PUSH20 0xFFFFFFFFFFFFFFFFFFFFFFFFFFFFFFFFFFFFFFFF AND DUP2 MSTORE PUSH1 0x20 ADD PUSH1 0x1 DUP3 ADD DUP1 SLOAD PUSH2 0x1435 SWAP1 PUSH2 0x5329 JUMP JUMPDEST DUP1 PUSH1 0x1F ADD PUSH1 0x20 DUP1 SWAP2 DIV MUL PUSH1 0x20 ADD PUSH1 0x40 MLOAD SWAP1 DUP2 ADD PUSH1 0x40 MSTORE DUP1 SWAP3 SWAP2 SWAP1 DUP2 DUP2 MSTORE PUSH1 0x20 ADD DUP3 DUP1 SLOAD PUSH2 0x1461 SWAP1 PUSH2 0x5329 JUMP JUMPDEST DUP1 ISZERO PUSH2 0x14AE JUMPI DUP1 PUSH1 0x1F LT PUSH2 0x1483 JUMPI PUSH2 0x100 DUP1 DUP4 SLOAD DIV MUL DUP4 MSTORE SWAP2 PUSH1 0x20 ADD SWAP2 PUSH2 0x14AE JUMP JUMPDEST DUP3 ADD SWAP2 SWAP1 PUSH1 0x0 MSTORE PUSH1 0x20 PUSH1 0x0 KECCAK256 SWAP1 JUMPDEST DUP2 SLOAD DUP2 MSTORE SWAP1 PUSH1 0x1 ADD SWAP1 PUSH1 0x20 ADD DUP1 DUP4 GT PUSH2 0x1491 JUMPI DUP3 SWAP1 SUB PUSH1 0x1F AND DUP3 ADD SWAP2 JUMPDEST POP POP POP POP POP DUP2 MSTORE PUSH1 0x20 ADD PUSH1 0x2 DUP3 ADD DUP1 SLOAD PUSH2 0x14C7 SWAP1 PUSH2 0x5329 JUMP JUMPDEST DUP1 PUSH1 0x1F ADD PUSH1 0x20 DUP1 SWAP2 DIV MUL PUSH1 0x20 ADD PUSH1 0x40 MLOAD SWAP1 DUP2 ADD PUSH1 0x40 MSTORE DUP1 SWAP3 SWAP2 SWAP1 DUP2 DUP2 MSTORE PUSH1 0x20 ADD DUP3 DUP1 SLOAD PUSH2 0x14F3 SWAP1 PUSH2 0x5329 JUMP JUMPDEST DUP1 ISZERO PUSH2 0x1540 JUMPI DUP1 PUSH1 0x1F LT PUSH2 0x1515 JUMPI PUSH2 0x100 DUP1 DUP4 SLOAD DIV MUL DUP4 MSTORE SWAP2 PUSH1 0x20 ADD SWAP2 PUSH2 0x1540 JUMP JUMPDEST DUP3 ADD SWAP2 SWAP1 PUSH1 0x0 MSTORE PUSH1 0x20 PUSH1 0x0 KECCAK256 SWAP1 JUMPDEST DUP2 SLOAD DUP2 MSTORE SWAP1 PUSH1 0x1 ADD SWAP1 PUSH1 0x20 ADD DUP1 DUP4 GT PUSH2 0x1523 JUMPI DUP3 SWAP1 SUB PUSH1 0x1F AND DUP3 ADD SWAP2 JUMPDEST POP POP POP POP POP DUP2 MSTORE PUSH1 0x20 ADD PUSH1 0x3 DUP3 ADD DUP1 SLOAD DUP1 PUSH1 0x20 MUL PUSH1 0x20 ADD PUSH1 0x40 MLOAD SWAP1 DUP2 ADD PUSH1 0x40 MSTORE DUP1 SWAP3 SWAP2 SWAP1 DUP2 DUP2 MSTORE PUSH1 0x20 ADD PUSH1 0x0 SWAP1 JUMPDEST DUP3 DUP3 LT ISZERO PUSH2 0x161A JUMPI DUP4 DUP3 SWAP1 PUSH1 0x0 MSTORE PUSH1 0x20 PUSH1 0x0 KECCAK256 ADD DUP1 SLOAD PUSH2 0x158D SWAP1 PUSH2 0x5329 JUMP JUMPDEST DUP1 PUSH1 0x1F ADD PUSH1 0x20 DUP1 SWAP2 DIV MUL PUSH1 0x20 ADD PUSH1 0x40 MLOAD SWAP1 DUP2 ADD PUSH1 0x40 MSTORE DUP1 SWAP3 SWAP2 SWAP1 DUP2 DUP2 MSTORE PUSH1 0x20 ADD DUP3 DUP1 SLOAD PUSH2 0x15B9 SWAP1 PUSH2 0x5329 JUMP JUMPDEST DUP1 ISZERO PUSH2 0x1606 JUMPI DUP1 PUSH1 0x1F LT PUSH2 0x15DB JUMPI PUSH2 0x100 DUP1 DUP4 SLOAD DIV MUL DUP4 MSTORE SWAP2 PUSH1 0x20 ADD SWAP2 PUSH2 0x1606 JUMP JUMPDEST DUP3 ADD SWAP2 SWAP1 PUSH1 0x0 MSTORE PUSH1 0x20 PUSH1 0x0 KECCAK256 SWAP1 JUMPDEST DUP2 SLOAD DUP2 MSTORE SWAP1 PUSH1 0x1 ADD SWAP1 PUSH1 0x20 ADD DUP1 DUP4 GT PUSH2 0x15E9 JUMPI DUP3 SWAP1 SUB PUSH1 0x1F AND DUP3 ADD SWAP2 JUMPDEST POP POP POP POP POP DUP2 MSTORE PUSH1 0x20 ADD SWAP1 PUSH1 0x1 ADD SWAP1 PUSH2 0x156E JUMP JUMPDEST POP POP POP POP DUP2 MSTORE PUSH1 0x20 ADD PUSH1 0x4 DUP3 ADD SLOAD DUP2 MSTORE PUSH1 0x20 ADD PUSH1 0x5 DUP3 ADD SLOAD DUP2 MSTORE POP POP SWAP1 POP DUP1 PUSH1 0x0 ADD MLOAD DUP2 PUSH1 0x20 ADD MLOAD DUP3 PUSH1 0x40 ADD MLOAD DUP4 PUSH1 0x60 ADD MLOAD DUP5 PUSH1 0x80 ADD MLOAD DUP6 PUSH1 0xA0 ADD MLOAD SWAP7 POP SWAP7 POP SWAP7 POP SWAP7 POP SWAP7 POP SWAP7 POP POP SWAP2 SWAP4 SWAP6 POP SWAP2 SWAP4 SWAP6 JUMP JUMPDEST PUSH1 0x0 DUP1 PUSH1 0x0 DUP1 PUSH1 0x60 DUP1 PUSH1 0x0 PUSH1 0x60 PUSH1 0x0 DUP1 PUSH1 0x0 DUP1 PUSH1 0x8 DUP14 DUP2 SLOAD DUP2 LT PUSH2 0x1693 JUMPI PUSH2 0x1692 PUSH2 0x54C2 JUMP JUMPDEST JUMPDEST SWAP1 PUSH1 0x0 MSTORE PUSH1 0x20 PUSH1 0x0 KECCAK256 SWAP1 PUSH1 0xA MUL ADD PUSH1 0x40 MLOAD DUP1 PUSH2 0x160 ADD PUSH1 0x40 MSTORE SWAP1 DUP2 PUSH1 0x0 DUP3 ADD PUSH1 0x0 SWAP1 SLOAD SWAP1 PUSH2 0x100 EXP SWAP1 DIV PUSH1 0xFF AND PUSH1 0x4 DUP2 GT ISZERO PUSH2 0x16D2 JUMPI PUSH2 0x16D1 PUSH2 0x5464 JUMP JUMPDEST JUMPDEST PUSH1 0x4 DUP2 GT ISZERO PUSH2 0x16E4 JUMPI PUSH2 0x16E3 PUSH2 0x5464 JUMP JUMPDEST JUMPDEST DUP2 MSTORE PUSH1 0x20 ADD PUSH1 0x0 DUP3 ADD PUSH1 0x1 SWAP1 SLOAD SWAP1 PUSH2 0x100 EXP SWAP1 DIV PUSH1 0xFF AND PUSH1 0x1 DUP2 GT ISZERO PUSH2 0x170D JUMPI PUSH2 0x170C PUSH2 0x5464 JUMP JUMPDEST JUMPDEST PUSH1 0x1 DUP2 GT ISZERO PUSH2 0x171F JUMPI PUSH2 0x171E PUSH2 0x5464 JUMP JUMPDEST JUMPDEST DUP2 MSTORE PUSH1 0x20 ADD PUSH1 0x1 DUP3 ADD SLOAD DUP2 MSTORE PUSH1 0x20 ADD PUSH1 0x2 DUP3 ADD SLOAD DUP2 MSTORE PUSH1 0x20 ADD PUSH1 0x3 DUP3 ADD DUP1 SLOAD PUSH2 0x1747 SWAP1 PUSH2 0x5329 JUMP JUMPDEST DUP1 PUSH1 0x1F ADD PUSH1 0x20 DUP1 SWAP2 DIV MUL PUSH1 0x20 ADD PUSH1 0x40 MLOAD SWAP1 DUP2 ADD PUSH1 0x40 MSTORE DUP1 SWAP3 SWAP2 SWAP1 DUP2 DUP2 MSTORE PUSH1 0x20 ADD DUP3 DUP1 SLOAD PUSH2 0x1773 SWAP1 PUSH2 0x5329 JUMP JUMPDEST DUP1 ISZERO PUSH2 0x17C0 JUMPI DUP1 PUSH1 0x1F LT PUSH2 0x1795 JUMPI PUSH2 0x100 DUP1 DUP4 SLOAD DIV MUL DUP4 MSTORE SWAP2 PUSH1 0x20 ADD SWAP2 PUSH2 0x17C0 JUMP JUMPDEST DUP3 ADD SWAP2 SWAP1 PUSH1 0x0 MSTORE PUSH1 0x20 PUSH1 0x0 KECCAK256 SWAP1 JUMPDEST DUP2 SLOAD DUP2 MSTORE SWAP1 PUSH1 0x1 ADD SWAP1 PUSH1 0x20 ADD DUP1 DUP4 GT PUSH2 0x17A3 JUMPI DUP3 SWAP1 SUB PUSH1 0x1F AND DUP3 ADD SWAP2 JUMPDEST POP POP POP POP POP DUP2 MSTORE PUSH1 0x20 ADD PUSH1 0x4 DUP3 ADD DUP1 SLOAD PUSH2 0x17D9 SWAP1 PUSH2 0x5329 JUMP JUMPDEST DUP1 PUSH1 0x1F ADD PUSH1 0x20 DUP1 SWAP2 DIV MUL PUSH1 0x20 ADD PUSH1 0x40 MLOAD SWAP1 DUP2 ADD PUSH1 0x40 MSTORE DUP1 SWAP3 SWAP2 SWAP1 DUP2 DUP2 MSTORE PUSH1 0x20 ADD DUP3 DUP1 SLOAD PUSH2 0x1805 SWAP1 PUSH2 0x5329 JUMP JUMPDEST DUP1 ISZERO PUSH2 0x1852 JUMPI DUP1 PUSH1 0x1F LT PUSH2 0x1827 JUMPI PUSH2 0x100 DUP1 DUP4 SLOAD DIV MUL DUP4 MSTORE SWAP2 PUSH1 0x20 ADD SWAP2 PUSH2 0x1852 JUMP JUMPDEST DUP3 ADD SWAP2 SWAP1 PUSH1 0x0 MSTORE PUSH1 0x20 PUSH1 0x0 KECCAK256 SWAP1 JUMPDEST DUP2 SLOAD DUP2 MSTORE SWAP1 PUSH1 0x1 ADD SWAP1 PUSH1 0x20 ADD DUP1 DUP4 GT PUSH2 0x1835 JUMPI DUP3 SWAP1 SUB PUSH1 0x1F AND DUP3 ADD SWAP2 JUMPDEST POP POP POP POP POP DUP2 MSTORE PUSH1 0x20 ADD PUSH1 0x5 DUP3 ADD SLOAD DUP2 MSTORE PUSH1 0x20 ADD PUSH1 0x6 DUP3 ADD DUP1 SLOAD PUSH2 0x1875 SWAP1 PUSH2 0x5329 JUMP JUMPDEST DUP1 PUSH1 0x1F ADD PUSH1 0x20 DUP1 SWAP2 DIV MUL PUSH1 0x20 ADD PUSH1 0x40 MLOAD SWAP1 DUP2 ADD PUSH1 0x40 MSTORE DUP1 SWAP3 SWAP2 SWAP1 DUP2 DUP2 MSTORE PUSH1 0x20 ADD DUP3 DUP1 SLOAD PUSH2 0x18A1 SWAP1 PUSH2 0x5329 JUMP JUMPDEST DUP1 ISZERO PUSH2 0x18EE JUMPI DUP1 PUSH1 0x1F LT PUSH2 0x18C3 JUMPI PUSH2 0x100 DUP1 DUP4 SLOAD DIV MUL DUP4 MSTORE SWAP2 PUSH1 0x20 ADD SWAP2 PUSH2 0x18EE JUMP JUMPDEST DUP3 ADD SWAP2 SWAP1 PUSH1 0x0 MSTORE PUSH1 0x20 PUSH1 0x0 KECCAK256 SWAP1 JUMPDEST DUP2 SLOAD DUP2 MSTORE SWAP1 PUSH1 0x1 ADD SWAP1 PUSH1 0x20 ADD DUP1 DUP4 GT PUSH2 0x18D1 JUMPI DUP3 SWAP1 SUB PUSH1 0x1F AND DUP3 ADD SWAP2 JUMPDEST POP POP POP POP POP DUP2 MSTORE PUSH1 0x20 ADD PUSH1 0x7 DUP3 ADD SLOAD DUP2 MSTORE PUSH1 0x20 ADD PUSH1 0x8 DUP3 ADD SLOAD DUP2 MSTORE PUSH1 0x20 ADD PUSH1 0x9 DUP3 ADD SLOAD DUP2 MSTORE POP POP SWAP1 POP DUP1 PUSH1 0x0 ADD MLOAD DUP2 PUSH1 0x20 ADD MLOAD DUP3 PUSH1 0x40 ADD MLOAD DUP4 PUSH1 0x60 ADD MLOAD DUP5 PUSH1 0x80 ADD MLOAD DUP6 PUSH1 0xA0 ADD MLOAD DUP7 PUSH1 0xC0 ADD MLOAD DUP8 PUSH1 0xE0 ADD MLOAD DUP9 PUSH2 0x100 ADD MLOAD DUP10 PUSH2 0x120 ADD MLOAD DUP11 PUSH2 0x140 ADD MLOAD SWAP12 POP SWAP12 POP SWAP12 POP SWAP12 POP SWAP12 POP SWAP12 POP SWAP12 POP SWAP12 POP SWAP12 POP SWAP12 POP SWAP12 POP POP SWAP2 SWAP4 SWAP6 SWAP8 SWAP10 SWAP12 SWAP1 SWAP3 SWAP5 SWAP7 SWAP9 SWAP11 POP JUMP JUMPDEST PUSH1 0x0 DUP1 JUMPDEST PUSH1 0xD DUP1 SLOAD SWAP1 POP DUP2 LT ISZERO PUSH2 0x1A5E JUMPI PUSH1 0x2 PUSH1 0x3 DUP2 GT ISZERO PUSH2 0x199C JUMPI PUSH2 0x199B PUSH2 0x5464 JUMP JUMPDEST JUMPDEST PUSH1 0xD DUP3 DUP2 SLOAD DUP2 LT PUSH2 0x19B0 JUMPI PUSH2 0x19AF PUSH2 0x54C2 JUMP JUMPDEST JUMPDEST SWAP1 PUSH1 0x0 MSTORE PUSH1 0x20 PUSH1 0x0 KECCAK256 SWAP1 PUSH1 0x6 MUL ADD PUSH1 0x5 ADD PUSH1 0x0 SWAP1 SLOAD SWAP1 PUSH2 0x100 EXP SWAP1 DIV PUSH1 0xFF AND PUSH1 0x3 DUP2 GT ISZERO PUSH2 0x19E1 JUMPI PUSH2 0x19E0 PUSH2 0x5464 JUMP JUMPDEST JUMPDEST EQ DUP1 ISZERO PUSH2 0x1A12 JUMPI POP DUP3 PUSH1 0xD DUP3 DUP2 SLOAD DUP2 LT PUSH2 0x19FE JUMPI PUSH2 0x19FD PUSH2 0x54C2 JUMP JUMPDEST JUMPDEST SWAP1 PUSH1 0x0 MSTORE PUSH1 0x20 PUSH1 0x0 KECCAK256 SWAP1 PUSH1 0x6 MUL ADD PUSH1 0x4 ADD SLOAD LT JUMPDEST ISZERO PUSH2 0x1A4B JUMPI PUSH1 0xD DUP2 DUP2 SLOAD DUP2 LT PUSH2 0x1A2B JUMPI PUSH2 0x1A2A PUSH2 0x54C2 JUMP JUMPDEST JUMPDEST SWAP1 PUSH1 0x0 MSTORE PUSH1 0x20 PUSH1 0x0 KECCAK256 SWAP1 PUSH1 0x6 MUL ADD PUSH1 0x2 ADD SLOAD DUP3 PUSH2 0x1A48 SWAP2 SWAP1 PUSH2 0x50CC JUMP JUMPDEST SWAP2 POP JUMPDEST DUP1 DUP1 PUSH2 0x1A56 SWAP1 PUSH2 0x538C JUMP JUMPDEST SWAP2 POP POP PUSH2 0x197B JUMP JUMPDEST POP SWAP2 SWAP1 POP JUMP JUMPDEST PUSH1 0x0 DUP1 PUSH1 0x60 DUP1 PUSH1 0x60 PUSH1 0x0 DUP1 PUSH1 0x0 PUSH1 0x4 DUP10 DUP2 SLOAD DUP2 LT PUSH2 0x1A85 JUMPI PUSH2 0x1A84 PUSH2 0x54C2 JUMP JUMPDEST JUMPDEST SWAP1 PUSH1 0x0 MSTORE PUSH1 0x20 PUSH1 0x0 KECCAK256 SWAP1 PUSH1 0x7 MUL ADD PUSH1 0x40 MLOAD DUP1 PUSH1 0xE0 ADD PUSH1 0x40 MSTORE SWAP1 DUP2 PUSH1 0x0 DUP3 ADD SLOAD DUP2 MSTORE PUSH1 0x20 ADD PUSH1 0x1 DUP3 ADD PUSH1 0x0 SWAP1 SLOAD SWAP1 PUSH2 0x100 EXP SWAP1 DIV PUSH20 0xFFFFFFFFFFFFFFFFFFFFFFFFFFFFFFFFFFFFFFFF AND PUSH20 0xFFFFFFFFFFFFFFFFFFFFFFFFFFFFFFFFFFFFFFFF AND PUSH20 0xFFFFFFFFFFFFFFFFFFFFFFFFFFFFFFFFFFFFFFFF AND DUP2 MSTORE PUSH1 0x20 ADD PUSH1 0x2 DUP3 ADD DUP1 SLOAD PUSH2 0x1B0E SWAP1 PUSH2 0x5329 JUMP JUMPDEST DUP1 PUSH1 0x1F ADD PUSH1 0x20 DUP1 SWAP2 DIV MUL PUSH1 0x20 ADD PUSH1 0x40 MLOAD SWAP1 DUP2 ADD PUSH1 0x40 MSTORE DUP1 SWAP3 SWAP2 SWAP1 DUP2 DUP2 MSTORE PUSH1 0x20 ADD DUP3 DUP1 SLOAD PUSH2 0x1B3A SWAP1 PUSH2 0x5329 JUMP JUMPDEST DUP1 ISZERO PUSH2 0x1B87 JUMPI DUP1 PUSH1 0x1F LT PUSH2 0x1B5C JUMPI PUSH2 0x100 DUP1 DUP4 SLOAD DIV MUL DUP4 MSTORE SWAP2 PUSH1 0x20 ADD SWAP2 PUSH2 0x1B87 JUMP JUMPDEST DUP3 ADD SWAP2 SWAP1 PUSH1 0x0 MSTORE PUSH1 0x20 PUSH1 0x0 KECCAK256 SWAP1 JUMPDEST DUP2 SLOAD DUP2 MSTORE SWAP1 PUSH1 0x1 ADD SWAP1 PUSH1 0x20 ADD DUP1 DUP4 GT PUSH2 0x1B6A JUMPI DUP3 SWAP1 SUB PUSH1 0x1F AND DUP3 ADD SWAP2 JUMPDEST POP POP POP POP POP DUP2 MSTORE PUSH1 0x20 ADD PUSH1 0x3 DUP3 ADD DUP1 SLOAD PUSH2 0x1BA0 SWAP1 PUSH2 0x5329 JUMP JUMPDEST DUP1 PUSH1 0x1F ADD PUSH1 0x20 DUP1 SWAP2 DIV MUL PUSH1 0x20 ADD PUSH1 0x40 MLOAD SWAP1 DUP2 ADD PUSH1 0x40 MSTORE DUP1 SWAP3 SWAP2 SWAP1 DUP2 DUP2 MSTORE PUSH1 0x20 ADD DUP3 DUP1 SLOAD PUSH2 0x1BCC SWAP1 PUSH2 0x5329 JUMP JUMPDEST DUP1 ISZERO PUSH2 0x1C19 JUMPI DUP1 PUSH1 0x1F LT PUSH2 0x1BEE JUMPI PUSH2 0x100 DUP1 DUP4 SLOAD DIV MUL DUP4 MSTORE SWAP2 PUSH1 0x20 ADD SWAP2 PUSH2 0x1C19 JUMP JUMPDEST DUP3 ADD SWAP2 SWAP1 PUSH1 0x0 MSTORE PUSH1 0x20 PUSH1 0x0 KECCAK256 SWAP1 JUMPDEST DUP2 SLOAD DUP2 MSTORE SWAP1 PUSH1 0x1 ADD SWAP1 PUSH1 0x20 ADD DUP1 DUP4 GT PUSH2 0x1BFC JUMPI DUP3 SWAP1 SUB PUSH1 0x1F AND DUP3 ADD SWAP2 JUMPDEST POP POP POP POP POP DUP2 MSTORE PUSH1 0x20 ADD PUSH1 0x4 DUP3 ADD DUP1 SLOAD PUSH2 0x1C32 SWAP1 PUSH2 0x5329 JUMP JUMPDEST DUP1 PUSH1 0x1F ADD PUSH1 0x20 DUP1 SWAP2 DIV MUL PUSH1 0x20 ADD PUSH1 0x40 MLOAD SWAP1 DUP2 ADD PUSH1 0x40 MSTORE DUP1 SWAP3 SWAP2 SWAP1 DUP2 DUP2 MSTORE PUSH1 0x20 ADD DUP3 DUP1 SLOAD PUSH2 0x1C5E SWAP1 PUSH2 0x5329 JUMP JUMPDEST DUP1 ISZERO PUSH2 0x1CAB JUMPI DUP1 PUSH1 0x1F LT PUSH2 0x1C80 JUMPI PUSH2 0x100 DUP1 DUP4 SLOAD DIV MUL DUP4 MSTORE SWAP2 PUSH1 0x20 ADD SWAP2 PUSH2 0x1CAB JUMP JUMPDEST DUP3 ADD SWAP2 SWAP1 PUSH1 0x0 MSTORE PUSH1 0x20 PUSH1 0x0 KECCAK256 SWAP1 JUMPDEST DUP2 SLOAD DUP2 MSTORE SWAP1 PUSH1 0x1 ADD SWAP1 PUSH1 0x20 ADD DUP1 DUP4 GT PUSH2 0x1C8E JUMPI DUP3 SWAP1 SUB PUSH1 0x1F AND DUP3 ADD SWAP2 JUMPDEST POP POP POP POP POP DUP2 MSTORE PUSH1 0x20 ADD PUSH1 0x5 DUP3 ADD SLOAD DUP2 MSTORE PUSH1 0x20 ADD PUSH1 0x6 DUP3 ADD PUSH1 0x0 SWAP1 SLOAD SWAP1 PUSH2 0x100 EXP SWAP1 DIV PUSH1 0xFF AND PUSH1 0x4 DUP2 GT ISZERO PUSH2 0x1CE3 JUMPI PUSH2 0x1CE2 PUSH2 0x5464 JUMP JUMPDEST JUMPDEST PUSH1 0x4 DUP2 GT ISZERO PUSH2 0x1CF5 JUMPI PUSH2 0x1CF4 PUSH2 0x5464 JUMP JUMPDEST JUMPDEST DUP2 MSTORE POP POP SWAP1 POP PUSH1 0x0 PUSH1 0x4 DUP2 GT ISZERO PUSH2 0x1D0F JUMPI PUSH2 0x1D0E PUSH2 0x5464 JUMP JUMPDEST JUMPDEST DUP2 PUSH1 0xC0 ADD MLOAD PUSH1 0x4 DUP2 GT ISZERO PUSH2 0x1D26 JUMPI PUSH2 0x1D25 PUSH2 0x5464 JUMP JUMPDEST JUMPDEST EQ ISZERO PUSH2 0x1D90 JUMPI PUSH1 0x0 PUSH2 0x1D4A PUSH1 0x6 PUSH1 0x0 DUP13 DUP2 MSTORE PUSH1 0x20 ADD SWAP1 DUP2 MSTORE PUSH1 0x20 ADD PUSH1 0x0 KECCAK256 SLOAD PUSH2 0x8A5 JUMP JUMPDEST POP POP POP SWAP1 POP PUSH1 0x1 ISZERO ISZERO DUP2 ISZERO ISZERO EQ ISZERO PUSH2 0x1D8E JUMPI PUSH1 0x1 DUP3 PUSH1 0xC0 ADD SWAP1 PUSH1 0x4 DUP2 GT ISZERO PUSH2 0x1D75 JUMPI PUSH2 0x1D74 PUSH2 0x5464 JUMP JUMPDEST JUMPDEST SWAP1 DUP2 PUSH1 0x4 DUP2 GT ISZERO PUSH2 0x1D89 JUMPI PUSH2 0x1D88 PUSH2 0x5464 JUMP JUMPDEST JUMPDEST DUP2 MSTORE POP POP JUMPDEST POP JUMPDEST DUP1 PUSH1 0x0 ADD MLOAD DUP2 PUSH1 0x20 ADD MLOAD DUP3 PUSH1 0x40 ADD MLOAD DUP4 PUSH1 0x60 ADD MLOAD DUP5 PUSH1 0x80 ADD MLOAD DUP6 PUSH1 0xA0 ADD MLOAD DUP7 PUSH1 0xC0 ADD MLOAD SWAP8 POP SWAP8 POP SWAP8 POP SWAP8 POP SWAP8 POP SWAP8 POP SWAP8 POP POP SWAP2 SWAP4 SWAP6 SWAP8 SWAP1 SWAP3 SWAP5 SWAP7 POP JUMP JUMPDEST PUSH1 0x0 DUP1 PUSH1 0x0 PUSH2 0x1DDB DUP5 PUSH2 0x3273 JUMP JUMPDEST SWAP2 POP POP PUSH1 0x0 SWAP3 POP PUSH1 0x0 SWAP2 POP PUSH1 0x0 JUMPDEST PUSH1 0xD DUP1 SLOAD SWAP1 POP DUP2 LT ISZERO PUSH2 0x1F2D JUMPI DUP2 PUSH1 0xD DUP3 DUP2 SLOAD DUP2 LT PUSH2 0x1E0B JUMPI PUSH2 0x1E0A PUSH2 0x54C2 JUMP JUMPDEST JUMPDEST SWAP1 PUSH1 0x0 MSTORE PUSH1 0x20 PUSH1 0x0 KECCAK256 SWAP1 PUSH1 0x6 MUL ADD PUSH1 0x0 ADD SLOAD EQ DUP1 ISZERO PUSH2 0x1E80 JUMPI POP PUSH1 0x2 PUSH1 0x3 DUP2 GT ISZERO PUSH2 0x1E39 JUMPI PUSH2 0x1E38 PUSH2 0x5464 JUMP JUMPDEST JUMPDEST PUSH1 0xD DUP3 DUP2 SLOAD DUP2 LT PUSH2 0x1E4D JUMPI PUSH2 0x1E4C PUSH2 0x54C2 JUMP JUMPDEST JUMPDEST SWAP1 PUSH1 0x0 MSTORE PUSH1 0x20 PUSH1 0x0 KECCAK256 SWAP1 PUSH1 0x6 MUL ADD PUSH1 0x5 ADD PUSH1 0x0 SWAP1 SLOAD SWAP1 PUSH2 0x100 EXP SWAP1 DIV PUSH1 0xFF AND PUSH1 0x3 DUP2 GT ISZERO PUSH2 0x1E7E JUMPI PUSH2 0x1E7D PUSH2 0x5464 JUMP JUMPDEST JUMPDEST EQ JUMPDEST ISZERO PUSH2 0x1F1A JUMPI PUSH1 0xD DUP2 DUP2 SLOAD DUP2 LT PUSH2 0x1E99 JUMPI PUSH2 0x1E98 PUSH2 0x54C2 JUMP JUMPDEST JUMPDEST SWAP1 PUSH1 0x0 MSTORE PUSH1 0x20 PUSH1 0x0 KECCAK256 SWAP1 PUSH1 0x6 MUL ADD PUSH1 0x2 ADD SLOAD DUP5 PUSH2 0x1EB6 SWAP2 SWAP1 PUSH2 0x50CC JUMP JUMPDEST SWAP4 POP TIMESTAMP PUSH1 0xD DUP3 DUP2 SLOAD DUP2 LT PUSH2 0x1ECD JUMPI PUSH2 0x1ECC PUSH2 0x54C2 JUMP JUMPDEST JUMPDEST SWAP1 PUSH1 0x0 MSTORE PUSH1 0x20 PUSH1 0x0 KECCAK256 SWAP1 PUSH1 0x6 MUL ADD PUSH1 0x3 ADD SLOAD LT ISZERO PUSH2 0x1F19 JUMPI PUSH1 0xD DUP2 DUP2 SLOAD DUP2 LT PUSH2 0x1EF9 JUMPI PUSH2 0x1EF8 PUSH2 0x54C2 JUMP JUMPDEST JUMPDEST SWAP1 PUSH1 0x0 MSTORE PUSH1 0x20 PUSH1 0x0 KECCAK256 SWAP1 PUSH1 0x6 MUL ADD PUSH1 0x2 ADD SLOAD DUP4 PUSH2 0x1F16 SWAP2 SWAP1 PUSH2 0x50CC JUMP JUMPDEST SWAP3 POP JUMPDEST JUMPDEST DUP1 DUP1 PUSH2 0x1F25 SWAP1 PUSH2 0x538C JUMP JUMPDEST SWAP2 POP POP PUSH2 0x1DE9 JUMP JUMPDEST POP POP SWAP2 POP SWAP2 JUMP JUMPDEST PUSH1 0x60 PUSH1 0x0 DUP1 PUSH1 0x60 PUSH1 0x0 TIMESTAMP SWAP1 POP PUSH1 0x0 JUMPDEST PUSH1 0x1 DUP1 SLOAD SWAP1 POP DUP2 LT ISZERO PUSH2 0x1F9E JUMPI DUP2 PUSH1 0x1 DUP3 DUP2 SLOAD DUP2 LT PUSH2 0x1F65 JUMPI PUSH2 0x1F64 PUSH2 0x54C2 JUMP JUMPDEST JUMPDEST SWAP1 PUSH1 0x0 MSTORE PUSH1 0x20 PUSH1 0x0 KECCAK256 SWAP1 PUSH1 0x6 MUL ADD PUSH1 0x4 ADD SLOAD LT PUSH2 0x1F8B JUMPI DUP4 DUP1 PUSH2 0x1F87 SWAP1 PUSH2 0x538C JUMP JUMPDEST SWAP5 POP POP JUMPDEST DUP1 DUP1 PUSH2 0x1F96 SWAP1 PUSH2 0x538C JUMP JUMPDEST SWAP2 POP POP PUSH2 0x1F43 JUMP JUMPDEST POP DUP3 PUSH8 0xFFFFFFFFFFFFFFFF DUP2 GT ISZERO PUSH2 0x1FB9 JUMPI PUSH2 0x1FB8 PUSH2 0x54F1 JUMP JUMPDEST JUMPDEST PUSH1 0x40 MLOAD SWAP1 DUP1 DUP3 MSTORE DUP1 PUSH1 0x20 MUL PUSH1 0x20 ADD DUP3 ADD PUSH1 0x40 MSTORE DUP1 ISZERO PUSH2 0x1FE7 JUMPI DUP2 PUSH1 0x20 ADD PUSH1 0x20 DUP3 MUL DUP1 CALLDATASIZE DUP4 CALLDATACOPY DUP1 DUP3 ADD SWAP2 POP POP SWAP1 POP JUMPDEST POP SWAP2 POP PUSH1 0x0 JUMPDEST PUSH1 0x1 DUP1 SLOAD SWAP1 POP DUP2 LT ISZERO PUSH2 0x2068 JUMPI DUP2 PUSH1 0x1 DUP3 DUP2 SLOAD DUP2 LT PUSH2 0x200F JUMPI PUSH2 0x200E PUSH2 0x54C2 JUMP JUMPDEST JUMPDEST SWAP1 PUSH1 0x0 MSTORE PUSH1 0x20 PUSH1 0x0 KECCAK256 SWAP1 PUSH1 0x6 MUL ADD PUSH1 0x4 ADD SLOAD LT PUSH2 0x2055 JUMPI DUP1 DUP4 DUP7 DUP2 MLOAD DUP2 LT PUSH2 0x203A JUMPI PUSH2 0x2039 PUSH2 0x54C2 JUMP JUMPDEST JUMPDEST PUSH1 0x20 MUL PUSH1 0x20 ADD ADD DUP2 DUP2 MSTORE POP POP DUP5 DUP1 PUSH2 0x2051 SWAP1 PUSH2 0x538C JUMP JUMPDEST SWAP6 POP POP JUMPDEST DUP1 DUP1 PUSH2 0x2060 SWAP1 PUSH2 0x538C JUMP JUMPDEST SWAP2 POP POP PUSH2 0x1FED JUMP JUMPDEST POP DUP2 SWAP5 POP POP POP POP POP SWAP1 JUMP JUMPDEST PUSH1 0x0 DUP1 DUP1 PUSH2 0x2080 DUP5 PUSH2 0x3273 JUMP JUMPDEST SWAP2 POP SWAP2 POP PUSH1 0x1 ISZERO ISZERO DUP3 ISZERO ISZERO EQ ISZERO PUSH2 0x20F6 JUMPI PUSH1 0x2 PUSH1 0x4 DUP2 GT ISZERO PUSH2 0x20A5 JUMPI PUSH2 0x20A4 PUSH2 0x5464 JUMP JUMPDEST JUMPDEST PUSH1 0x4 DUP3 DUP2 SLOAD DUP2 LT PUSH2 0x20B9 JUMPI PUSH2 0x20B8 PUSH2 0x54C2 JUMP JUMPDEST JUMPDEST SWAP1 PUSH1 0x0 MSTORE PUSH1 0x20 PUSH1 0x0 KECCAK256 SWAP1 PUSH1 0x7 MUL ADD PUSH1 0x6 ADD PUSH1 0x0 SWAP1 SLOAD SWAP1 PUSH2 0x100 EXP SWAP1 DIV PUSH1 0xFF AND PUSH1 0x4 DUP2 GT ISZERO PUSH2 0x20EA JUMPI PUSH2 0x20E9 PUSH2 0x5464 JUMP JUMPDEST JUMPDEST EQ ISZERO PUSH2 0x20F5 JUMPI PUSH1 0x1 SWAP3 POP JUMPDEST JUMPDEST POP POP SWAP2 SWAP1 POP JUMP JUMPDEST PUSH1 0x1 ISZERO ISZERO PUSH2 0x210A CALLER PUSH2 0x2073 JUMP JUMPDEST ISZERO ISZERO EQ PUSH2 0x214C JUMPI PUSH1 0x40 MLOAD PUSH32 0x8C379A000000000000000000000000000000000000000000000000000000000 DUP2 MSTORE PUSH1 0x4 ADD PUSH2 0x2143 SWAP1 PUSH2 0x4E0E JUMP JUMPDEST PUSH1 0x40 MLOAD DUP1 SWAP2 SUB SWAP1 REVERT JUMPDEST PUSH1 0x0 PUSH2 0x2157 CALLER PUSH2 0x3273 JUMP JUMPDEST SWAP2 POP POP PUSH1 0x0 PUSH1 0x40 MLOAD DUP1 PUSH1 0xE0 ADD PUSH1 0x40 MSTORE DUP1 DUP4 DUP2 MSTORE PUSH1 0x20 ADD DUP8 PUSH20 0xFFFFFFFFFFFFFFFFFFFFFFFFFFFFFFFFFFFFFFFF AND DUP2 MSTORE PUSH1 0x20 ADD DUP7 DUP2 MSTORE PUSH1 0x20 ADD DUP6 DUP2 MSTORE PUSH1 0x20 ADD DUP5 DUP2 MSTORE PUSH1 0x20 ADD TIMESTAMP DUP2 MSTORE PUSH1 0x20 ADD PUSH1 0x0 PUSH1 0x4 DUP2 GT ISZERO PUSH2 0x21B5 JUMPI PUSH2 0x21B4 PUSH2 0x5464 JUMP JUMPDEST JUMPDEST DUP2 MSTORE POP SWAP1 POP PUSH1 0x4 DUP2 SWAP1 DUP1 PUSH1 0x1 DUP2 SLOAD ADD DUP1 DUP3 SSTORE DUP1 SWAP2 POP POP PUSH1 0x1 SWAP1 SUB SWAP1 PUSH1 0x0 MSTORE PUSH1 0x20 PUSH1 0x0 KECCAK256 SWAP1 PUSH1 0x7 MUL ADD PUSH1 0x0 SWAP1 SWAP2 SWAP1 SWAP2 SWAP1 SWAP2 POP PUSH1 0x0 DUP3 ADD MLOAD DUP2 PUSH1 0x0 ADD SSTORE PUSH1 0x20 DUP3 ADD MLOAD DUP2 PUSH1 0x1 ADD PUSH1 0x0 PUSH2 0x100 EXP DUP2 SLOAD DUP2 PUSH20 0xFFFFFFFFFFFFFFFFFFFFFFFFFFFFFFFFFFFFFFFF MUL NOT AND SWAP1 DUP4 PUSH20 0xFFFFFFFFFFFFFFFFFFFFFFFFFFFFFFFFFFFFFFFF AND MUL OR SWAP1 SSTORE POP PUSH1 0x40 DUP3 ADD MLOAD DUP2 PUSH1 0x2 ADD SWAP1 DUP1 MLOAD SWAP1 PUSH1 0x20 ADD SWAP1 PUSH2 0x2253 SWAP3 SWAP2 SWAP1 PUSH2 0x4239 JUMP JUMPDEST POP PUSH1 0x60 DUP3 ADD MLOAD DUP2 PUSH1 0x3 ADD SWAP1 DUP1 MLOAD SWAP1 PUSH1 0x20 ADD SWAP1 PUSH2 0x2270 SWAP3 SWAP2 SWAP1 PUSH2 0x4239 JUMP JUMPDEST POP PUSH1 0x80 DUP3 ADD MLOAD DUP2 PUSH1 0x4 ADD SWAP1 DUP1 MLOAD SWAP1 PUSH1 0x20 ADD SWAP1 PUSH2 0x228D SWAP3 SWAP2 SWAP1 PUSH2 0x4239 JUMP JUMPDEST POP PUSH1 0xA0 DUP3 ADD MLOAD DUP2 PUSH1 0x5 ADD SSTORE PUSH1 0xC0 DUP3 ADD MLOAD DUP2 PUSH1 0x6 ADD PUSH1 0x0 PUSH2 0x100 EXP DUP2 SLOAD DUP2 PUSH1 0xFF MUL NOT AND SWAP1 DUP4 PUSH1 0x4 DUP2 GT ISZERO PUSH2 0x22C3 JUMPI PUSH2 0x22C2 PUSH2 0x5464 JUMP JUMPDEST JUMPDEST MUL OR SWAP1 SSTORE POP POP POP PUSH1 0x0 PUSH1 0x1 PUSH1 0x4 DUP1 SLOAD SWAP1 POP PUSH2 0x22DE SWAP2 SWAP1 PUSH2 0x51AD JUMP JUMPDEST SWAP1 POP PUSH1 0x5 PUSH1 0x0 DUP3 DUP2 MSTORE PUSH1 0x20 ADD SWAP1 DUP2 MSTORE PUSH1 0x20 ADD PUSH1 0x0 KECCAK256 PUSH1 0x40 MLOAD DUP1 PUSH1 0x40 ADD PUSH1 0x40 MSTORE DUP1 DUP5 PUSH1 0xC0 ADD MLOAD PUSH1 0x4 DUP2 GT ISZERO PUSH2 0x2315 JUMPI PUSH2 0x2314 PUSH2 0x5464 JUMP JUMPDEST JUMPDEST DUP2 MSTORE PUSH1 0x20 ADD DUP5 PUSH1 0xA0 ADD MLOAD DUP2 MSTORE POP SWAP1 DUP1 PUSH1 0x1 DUP2 SLOAD ADD DUP1 DUP3 SSTORE DUP1 SWAP2 POP POP PUSH1 0x1 SWAP1 SUB SWAP1 PUSH1 0x0 MSTORE PUSH1 0x20 PUSH1 0x0 KECCAK256 SWAP1 PUSH1 0x2 MUL ADD PUSH1 0x0 SWAP1 SWAP2 SWAP1 SWAP2 SWAP1 SWAP2 POP PUSH1 0x0 DUP3 ADD MLOAD DUP2 PUSH1 0x0 ADD PUSH1 0x0 PUSH2 0x100 EXP DUP2 SLOAD DUP2 PUSH1 0xFF MUL NOT AND SWAP1 DUP4 PUSH1 0x4 DUP2 GT ISZERO PUSH2 0x2376 JUMPI PUSH2 0x2375 PUSH2 0x5464 JUMP JUMPDEST JUMPDEST MUL OR SWAP1 SSTORE POP PUSH1 0x20 DUP3 ADD MLOAD DUP2 PUSH1 0x1 ADD SSTORE POP POP PUSH2 0x2390 DUP2 PUSH2 0x3849 JUMP JUMPDEST POP POP POP POP POP POP POP JUMP JUMPDEST PUSH1 0x0 DUP1 PUSH1 0x0 SWAP2 POP PUSH1 0x0 SWAP1 POP PUSH1 0x0 JUMPDEST PUSH1 0xD DUP1 SLOAD SWAP1 POP DUP2 LT ISZERO PUSH2 0x24BB JUMPI PUSH1 0x2 PUSH1 0x3 DUP2 GT ISZERO PUSH2 0x23C8 JUMPI PUSH2 0x23C7 PUSH2 0x5464 JUMP JUMPDEST JUMPDEST PUSH1 0xD DUP3 DUP2 SLOAD DUP2 LT PUSH2 0x23DC JUMPI PUSH2 0x23DB PUSH2 0x54C2 JUMP JUMPDEST JUMPDEST SWAP1 PUSH1 0x0 MSTORE PUSH1 0x20 PUSH1 0x0 KECCAK256 SWAP1 PUSH1 0x6 MUL ADD PUSH1 0x5 ADD PUSH1 0x0 SWAP1 SLOAD SWAP1 PUSH2 0x100 EXP SWAP1 DIV PUSH1 0xFF AND PUSH1 0x3 DUP2 GT ISZERO PUSH2 0x240D JUMPI PUSH2 0x240C PUSH2 0x5464 JUMP JUMPDEST JUMPDEST EQ ISZERO PUSH2 0x24A8 JUMPI PUSH1 0xD DUP2 DUP2 SLOAD DUP2 LT PUSH2 0x2427 JUMPI PUSH2 0x2426 PUSH2 0x54C2 JUMP JUMPDEST JUMPDEST SWAP1 PUSH1 0x0 MSTORE PUSH1 0x20 PUSH1 0x0 KECCAK256 SWAP1 PUSH1 0x6 MUL ADD PUSH1 0x2 ADD SLOAD DUP4 PUSH2 0x2444 SWAP2 SWAP1 PUSH2 0x50CC JUMP JUMPDEST SWAP3 POP TIMESTAMP PUSH1 0xD DUP3 DUP2 SLOAD DUP2 LT PUSH2 0x245B JUMPI PUSH2 0x245A PUSH2 0x54C2 JUMP JUMPDEST JUMPDEST SWAP1 PUSH1 0x0 MSTORE PUSH1 0x20 PUSH1 0x0 KECCAK256 SWAP1 PUSH1 0x6 MUL ADD PUSH1 0x3 ADD SLOAD LT ISZERO PUSH2 0x24A7 JUMPI PUSH1 0xD DUP2 DUP2 SLOAD DUP2 LT PUSH2 0x2487 JUMPI PUSH2 0x2486 PUSH2 0x54C2 JUMP JUMPDEST JUMPDEST SWAP1 PUSH1 0x0 MSTORE PUSH1 0x20 PUSH1 0x0 KECCAK256 SWAP1 PUSH1 0x6 MUL ADD PUSH1 0x2 ADD SLOAD DUP3 PUSH2 0x24A4 SWAP2 SWAP1 PUSH2 0x50CC JUMP JUMPDEST SWAP2 POP JUMPDEST JUMPDEST DUP1 DUP1 PUSH2 0x24B3 SWAP1 PUSH2 0x538C JUMP JUMPDEST SWAP2 POP POP PUSH2 0x23A7 JUMP JUMPDEST POP SWAP1 SWAP2 JUMP JUMPDEST PUSH1 0x0 DUP1 PUSH1 0x0 PUSH2 0x24CE CALLER PUSH2 0x3273 JUMP JUMPDEST SWAP2 POP POP PUSH1 0x0 DUP1 PUSH1 0x0 PUSH2 0x24DE PUSH2 0xB59 JUMP JUMPDEST SWAP1 POP PUSH1 0x0 PUSH2 0x24EA PUSH2 0xDF9 JUMP JUMPDEST SWAP1 POP PUSH1 0x0 DUP3 DUP3 PUSH1 0x64 PUSH2 0x24FC SWAP2 SWAP1 PUSH2 0x5153 JUMP JUMPDEST PUSH2 0x2506 SWAP2 SWAP1 PUSH2 0x5122 JUMP JUMPDEST SWAP1 POP PUSH1 0x0 DUP1 SWAP9 POP JUMPDEST PUSH1 0x0 DUP3 GT DUP1 ISZERO PUSH2 0x251D JUMPI POP DUP10 DUP10 LT JUMPDEST DUP1 ISZERO PUSH2 0x253C JUMPI POP PUSH1 0x0 PUSH1 0xE PUSH1 0x0 DUP9 DUP2 MSTORE PUSH1 0x20 ADD SWAP1 DUP2 MSTORE PUSH1 0x20 ADD PUSH1 0x0 KECCAK256 SLOAD GT JUMPDEST ISZERO PUSH2 0x275B JUMPI DUP6 SWAP5 POP PUSH1 0xE PUSH1 0x0 DUP8 DUP2 MSTORE PUSH1 0x20 ADD SWAP1 DUP2 MSTORE PUSH1 0x20 ADD PUSH1 0x0 KECCAK256 SLOAD SWAP6 POP DUP7 PUSH1 0xD DUP8 DUP2 SLOAD DUP2 LT PUSH2 0x256F JUMPI PUSH2 0x256E PUSH2 0x54C2 JUMP JUMPDEST JUMPDEST SWAP1 PUSH1 0x0 MSTORE PUSH1 0x20 PUSH1 0x0 KECCAK256 SWAP1 PUSH1 0x6 MUL ADD PUSH1 0x0 ADD SLOAD EQ ISZERO PUSH2 0x2722 JUMPI DUP9 DUP11 PUSH2 0x2593 SWAP2 SWAP1 PUSH2 0x51AD JUMP JUMPDEST SWAP1 POP DUP1 DUP3 LT ISZERO PUSH2 0x25A1 JUMPI DUP2 SWAP1 POP JUMPDEST DUP1 PUSH1 0xD DUP8 DUP2 SLOAD DUP2 LT PUSH2 0x25B6 JUMPI PUSH2 0x25B5 PUSH2 0x54C2 JUMP JUMPDEST JUMPDEST SWAP1 PUSH1 0x0 MSTORE PUSH1 0x20 PUSH1 0x0 KECCAK256 SWAP1 PUSH1 0x6 MUL ADD PUSH1 0x2 ADD SLOAD GT ISZERO PUSH2 0x2649 JUMPI DUP1 PUSH1 0xD DUP8 DUP2 SLOAD DUP2 LT PUSH2 0x25E3 JUMPI PUSH2 0x25E2 PUSH2 0x54C2 JUMP JUMPDEST JUMPDEST SWAP1 PUSH1 0x0 MSTORE PUSH1 0x20 PUSH1 0x0 KECCAK256 SWAP1 PUSH1 0x6 MUL ADD PUSH1 0x2 ADD SLOAD PUSH2 0x25FF SWAP2 SWAP1 PUSH2 0x51AD JUMP JUMPDEST PUSH1 0xD DUP8 DUP2 SLOAD DUP2 LT PUSH2 0x2613 JUMPI PUSH2 0x2612 PUSH2 0x54C2 JUMP JUMPDEST JUMPDEST SWAP1 PUSH1 0x0 MSTORE PUSH1 0x20 PUSH1 0x0 KECCAK256 SWAP1 PUSH1 0x6 MUL ADD PUSH1 0x2 ADD DUP2 SWAP1 SSTORE POP DUP1 DUP10 PUSH2 0x2634 SWAP2 SWAP1 PUSH2 0x50CC JUMP JUMPDEST SWAP9 POP DUP1 DUP3 PUSH2 0x2642 SWAP2 SWAP1 PUSH2 0x51AD JUMP JUMPDEST SWAP2 POP PUSH2 0x271D JUMP JUMPDEST PUSH1 0xD DUP7 DUP2 SLOAD DUP2 LT PUSH2 0x265D JUMPI PUSH2 0x265C PUSH2 0x54C2 JUMP JUMPDEST JUMPDEST SWAP1 PUSH1 0x0 MSTORE PUSH1 0x20 PUSH1 0x0 KECCAK256 SWAP1 PUSH1 0x6 MUL ADD PUSH1 0x2 ADD SLOAD DUP10 PUSH2 0x267A SWAP2 SWAP1 PUSH2 0x50CC JUMP JUMPDEST SWAP9 POP PUSH1 0xD DUP7 DUP2 SLOAD DUP2 LT PUSH2 0x2690 JUMPI PUSH2 0x268F PUSH2 0x54C2 JUMP JUMPDEST JUMPDEST SWAP1 PUSH1 0x0 MSTORE PUSH1 0x20 PUSH1 0x0 KECCAK256 SWAP1 PUSH1 0x6 MUL ADD PUSH1 0x2 ADD SLOAD DUP3 PUSH2 0x26AD SWAP2 SWAP1 PUSH2 0x51AD JUMP JUMPDEST SWAP2 POP PUSH1 0x0 PUSH1 0xD DUP8 DUP2 SLOAD DUP2 LT PUSH2 0x26C5 JUMPI PUSH2 0x26C4 PUSH2 0x54C2 JUMP JUMPDEST JUMPDEST SWAP1 PUSH1 0x0 MSTORE PUSH1 0x20 PUSH1 0x0 KECCAK256 SWAP1 PUSH1 0x6 MUL ADD PUSH1 0x2 ADD DUP2 SWAP1 SSTORE POP PUSH1 0xE PUSH1 0x0 DUP8 DUP2 MSTORE PUSH1 0x20 ADD SWAP1 DUP2 MSTORE PUSH1 0x20 ADD PUSH1 0x0 KECCAK256 SLOAD PUSH1 0xE PUSH1 0x0 DUP8 DUP2 MSTORE PUSH1 0x20 ADD SWAP1 DUP2 MSTORE PUSH1 0x20 ADD PUSH1 0x0 KECCAK256 DUP2 SWAP1 SSTORE POP PUSH1 0xE PUSH1 0x0 DUP8 DUP2 MSTORE PUSH1 0x20 ADD SWAP1 DUP2 MSTORE PUSH1 0x20 ADD PUSH1 0x0 KECCAK256 PUSH1 0x0 SWAP1 SSTORE JUMPDEST PUSH2 0x2756 JUMP JUMPDEST PUSH1 0xD DUP7 DUP2 SLOAD DUP2 LT PUSH2 0x2736 JUMPI PUSH2 0x2735 PUSH2 0x54C2 JUMP JUMPDEST JUMPDEST SWAP1 PUSH1 0x0 MSTORE PUSH1 0x20 PUSH1 0x0 KECCAK256 SWAP1 PUSH1 0x6 MUL ADD PUSH1 0x2 ADD SLOAD DUP3 PUSH2 0x2753 SWAP2 SWAP1 PUSH2 0x51AD JUMP JUMPDEST SWAP2 POP JUMPDEST PUSH2 0x250E JUMP JUMPDEST PUSH1 0x64 DUP5 DUP11 PUSH2 0x2769 SWAP2 SWAP1 PUSH2 0x5153 JUMP JUMPDEST PUSH2 0x2773 SWAP2 SWAP1 PUSH2 0x5122 JUMP JUMPDEST SWAP8 POP PUSH2 0x277E DUP9 PUSH2 0x3C8E JUMP JUMPDEST POP POP POP POP POP POP POP SWAP2 POP SWAP2 JUMP JUMPDEST PUSH1 0x60 PUSH1 0x0 PUSH1 0x40 MLOAD DUP1 PUSH1 0xA0 ADD PUSH1 0x40 MSTORE DUP1 PUSH1 0x40 MLOAD DUP1 PUSH1 0x40 ADD PUSH1 0x40 MSTORE DUP1 PUSH1 0x8 DUP2 MSTORE PUSH1 0x20 ADD PUSH32 0x726563757361646F000000000000000000000000000000000000000000000000 DUP2 MSTORE POP DUP2 MSTORE PUSH1 0x20 ADD PUSH1 0x40 MLOAD DUP1 PUSH1 0x40 ADD PUSH1 0x40 MSTORE DUP1 PUSH1 0x6 DUP2 MSTORE PUSH1 0x20 ADD PUSH32 0x61636569746F0000000000000000000000000000000000000000000000000000 DUP2 MSTORE POP DUP2 MSTORE PUSH1 0x20 ADD PUSH1 0x40 MLOAD DUP1 PUSH1 0x40 ADD PUSH1 0x40 MSTORE DUP1 PUSH1 0xF DUP2 MSTORE PUSH1 0x20 ADD PUSH32 0x70656E64656E7465566F746163616F0000000000000000000000000000000000 DUP2 MSTORE POP DUP2 MSTORE PUSH1 0x20 ADD PUSH1 0x40 MLOAD DUP1 PUSH1 0x40 ADD PUSH1 0x40 MSTORE DUP1 PUSH1 0x9 DUP2 MSTORE PUSH1 0x20 ADD PUSH32 0x63616E63656C61646F0000000000000000000000000000000000000000000000 DUP2 MSTORE POP DUP2 MSTORE PUSH1 0x20 ADD PUSH1 0x40 MLOAD DUP1 PUSH1 0x40 ADD PUSH1 0x40 MSTORE DUP1 PUSH1 0x9 DUP2 MSTORE PUSH1 0x20 ADD PUSH32 0x65666574697661646F0000000000000000000000000000000000000000000000 DUP2 MSTORE POP DUP2 MSTORE POP SWAP1 POP DUP1 DUP4 PUSH1 0x5 DUP2 LT PUSH2 0x28D3 JUMPI PUSH2 0x28D2 PUSH2 0x54C2 JUMP JUMPDEST JUMPDEST PUSH1 0x20 MUL ADD MLOAD SWAP2 POP POP SWAP2 SWAP1 POP JUMP JUMPDEST PUSH1 0x60 PUSH1 0x0 DUP1 PUSH1 0x60 PUSH1 0x0 JUMPDEST PUSH1 0x8 DUP1 SLOAD SWAP1 POP DUP2 LT ISZERO PUSH2 0x29AA JUMPI PUSH1 0x2 PUSH1 0x4 DUP2 GT ISZERO PUSH2 0x290B JUMPI PUSH2 0x290A PUSH2 0x5464 JUMP JUMPDEST JUMPDEST PUSH1 0x8 DUP3 DUP2 SLOAD DUP2 LT PUSH2 0x291F JUMPI PUSH2 0x291E PUSH2 0x54C2 JUMP JUMPDEST JUMPDEST SWAP1 PUSH1 0x0 MSTORE PUSH1 0x20 PUSH1 0x0 KECCAK256 SWAP1 PUSH1 0xA MUL ADD PUSH1 0x0 ADD PUSH1 0x0 SWAP1 SLOAD SWAP1 PUSH2 0x100 EXP SWAP1 DIV PUSH1 0xFF AND PUSH1 0x4 DUP2 GT ISZERO PUSH2 0x2950 JUMPI PUSH2 0x294F PUSH2 0x5464 JUMP JUMPDEST JUMPDEST EQ ISZERO PUSH2 0x2997 JUMPI PUSH1 0x0 PUSH2 0x2974 PUSH1 0x9 PUSH1 0x0 DUP5 DUP2 MSTORE PUSH1 0x20 ADD SWAP1 DUP2 MSTORE PUSH1 0x20 ADD PUSH1 0x0 KECCAK256 SLOAD PUSH2 0x8A5 JUMP JUMPDEST POP POP POP SWAP1 POP PUSH1 0x1 ISZERO ISZERO DUP2 ISZERO ISZERO EQ ISZERO PUSH2 0x2995 JUMPI DUP4 DUP1 PUSH2 0x2991 SWAP1 PUSH2 0x538C JUMP JUMPDEST SWAP5 POP POP JUMPDEST POP JUMPDEST DUP1 DUP1 PUSH2 0x29A2 SWAP1 PUSH2 0x538C JUMP JUMPDEST SWAP2 POP POP PUSH2 0x28EA JUMP JUMPDEST POP DUP2 PUSH8 0xFFFFFFFFFFFFFFFF DUP2 GT ISZERO PUSH2 0x29C5 JUMPI PUSH2 0x29C4 PUSH2 0x54F1 JUMP JUMPDEST JUMPDEST PUSH1 0x40 MLOAD SWAP1 DUP1 DUP3 MSTORE DUP1 PUSH1 0x20 MUL PUSH1 0x20 ADD DUP3 ADD PUSH1 0x40 MSTORE DUP1 ISZERO PUSH2 0x29F3 JUMPI DUP2 PUSH1 0x20 ADD PUSH1 0x20 DUP3 MUL DUP1 CALLDATASIZE DUP4 CALLDATACOPY DUP1 DUP3 ADD SWAP2 POP POP SWAP1 POP JUMPDEST POP SWAP1 POP PUSH1 0x0 JUMPDEST PUSH1 0x8 DUP1 SLOAD SWAP1 POP DUP2 LT ISZERO PUSH2 0x2AD9 JUMPI PUSH1 0x2 PUSH1 0x4 DUP2 GT ISZERO PUSH2 0x2A1A JUMPI PUSH2 0x2A19 PUSH2 0x5464 JUMP JUMPDEST JUMPDEST PUSH1 0x8 DUP3 DUP2 SLOAD DUP2 LT PUSH2 0x2A2E JUMPI PUSH2 0x2A2D PUSH2 0x54C2 JUMP JUMPDEST JUMPDEST SWAP1 PUSH1 0x0 MSTORE PUSH1 0x20 PUSH1 0x0 KECCAK256 SWAP1 PUSH1 0xA MUL ADD PUSH1 0x0 ADD PUSH1 0x0 SWAP1 SLOAD SWAP1 PUSH2 0x100 EXP SWAP1 DIV PUSH1 0xFF AND PUSH1 0x4 DUP2 GT ISZERO PUSH2 0x2A5F JUMPI PUSH2 0x2A5E PUSH2 0x5464 JUMP JUMPDEST JUMPDEST EQ ISZERO PUSH2 0x2AC6 JUMPI PUSH1 0x0 PUSH2 0x2A83 PUSH1 0x9 PUSH1 0x0 DUP5 DUP2 MSTORE PUSH1 0x20 ADD SWAP1 DUP2 MSTORE PUSH1 0x20 ADD PUSH1 0x0 KECCAK256 SLOAD PUSH2 0x8A5 JUMP JUMPDEST POP POP POP SWAP1 POP PUSH1 0x1 ISZERO ISZERO DUP2 ISZERO ISZERO EQ ISZERO PUSH2 0x2AC4 JUMPI DUP2 DUP4 DUP7 DUP2 MLOAD DUP2 LT PUSH2 0x2AA9 JUMPI PUSH2 0x2AA8 PUSH2 0x54C2 JUMP JUMPDEST JUMPDEST PUSH1 0x20 MUL PUSH1 0x20 ADD ADD DUP2 DUP2 MSTORE POP POP DUP5 DUP1 PUSH2 0x2AC0 SWAP1 PUSH2 0x538C JUMP JUMPDEST SWAP6 POP POP JUMPDEST POP JUMPDEST DUP1 DUP1 PUSH2 0x2AD1 SWAP1 PUSH2 0x538C JUMP JUMPDEST SWAP2 POP POP PUSH2 0x29F9 JUMP JUMPDEST POP DUP1 SWAP4 POP POP POP POP SWAP1 JUMP JUMPDEST PUSH1 0x0 DUP1 PUSH2 0x2AEF CALLER PUSH2 0x3273 JUMP JUMPDEST SWAP2 POP POP PUSH1 0x4 PUSH1 0x8 DUP5 DUP2 SLOAD DUP2 LT PUSH2 0x2B08 JUMPI PUSH2 0x2B07 PUSH2 0x54C2 JUMP JUMPDEST JUMPDEST SWAP1 PUSH1 0x0 MSTORE PUSH1 0x20 PUSH1 0x0 KECCAK256 SWAP1 PUSH1 0xA MUL ADD PUSH1 0x0 ADD PUSH1 0x0 PUSH2 0x100 EXP DUP2 SLOAD DUP2 PUSH1 0xFF MUL NOT AND SWAP1 DUP4 PUSH1 0x4 DUP2 GT ISZERO PUSH2 0x2B3B JUMPI PUSH2 0x2B3A PUSH2 0x5464 JUMP JUMPDEST JUMPDEST MUL OR SWAP1 SSTORE POP DUP1 PUSH1 0x8 DUP5 DUP2 SLOAD DUP2 LT PUSH2 0x2B55 JUMPI PUSH2 0x2B54 PUSH2 0x54C2 JUMP JUMPDEST JUMPDEST SWAP1 PUSH1 0x0 MSTORE PUSH1 0x20 PUSH1 0x0 KECCAK256 SWAP1 PUSH1 0xA MUL ADD PUSH1 0x2 ADD DUP2 SWAP1 SSTORE POP TIMESTAMP PUSH1 0x8 DUP5 DUP2 SLOAD DUP2 LT PUSH2 0x2B7F JUMPI PUSH2 0x2B7E PUSH2 0x54C2 JUMP JUMPDEST JUMPDEST SWAP1 PUSH1 0x0 MSTORE PUSH1 0x20 PUSH1 0x0 KECCAK256 SWAP1 PUSH1 0xA MUL ADD PUSH1 0x8 ADD DUP2 SWAP1 SSTORE POP PUSH1 0x1 SWAP2 POP POP SWAP2 SWAP1 POP JUMP JUMPDEST PUSH1 0x0 PUSH1 0x1 ISZERO ISZERO PUSH2 0x2BAD DUP6 PUSH2 0x2073 JUMP JUMPDEST ISZERO ISZERO EQ PUSH2 0x2BEF JUMPI PUSH1 0x40 MLOAD PUSH32 0x8C379A000000000000000000000000000000000000000000000000000000000 DUP2 MSTORE PUSH1 0x4 ADD PUSH2 0x2BE6 SWAP1 PUSH2 0x4E6E JUMP JUMPDEST PUSH1 0x40 MLOAD DUP1 SWAP2 SUB SWAP1 REVERT JUMPDEST PUSH1 0x0 PUSH2 0x2BFA DUP6 PUSH2 0x3273 JUMP JUMPDEST SWAP2 POP POP PUSH1 0xD PUSH1 0x40 MLOAD DUP1 PUSH1 0xC0 ADD PUSH1 0x40 MSTORE DUP1 DUP4 DUP2 MSTORE PUSH1 0x20 ADD DUP7 DUP2 MSTORE PUSH1 0x20 ADD DUP7 DUP2 MSTORE PUSH1 0x20 ADD DUP6 DUP2 MSTORE PUSH1 0x20 ADD TIMESTAMP DUP2 MSTORE PUSH1 0x20 ADD PUSH1 0x0 PUSH1 0x3 DUP2 GT ISZERO PUSH2 0x2C3C JUMPI PUSH2 0x2C3B PUSH2 0x5464 JUMP JUMPDEST JUMPDEST DUP2 MSTORE POP SWAP1 DUP1 PUSH1 0x1 DUP2 SLOAD ADD DUP1 DUP3 SSTORE DUP1 SWAP2 POP POP PUSH1 0x1 SWAP1 SUB SWAP1 PUSH1 0x0 MSTORE PUSH1 0x20 PUSH1 0x0 KECCAK256 SWAP1 PUSH1 0x6 MUL ADD PUSH1 0x0 SWAP1 SWAP2 SWAP1 SWAP2 SWAP1 SWAP2 POP PUSH1 0x0 DUP3 ADD MLOAD DUP2 PUSH1 0x0 ADD SSTORE PUSH1 0x20 DUP3 ADD MLOAD DUP2 PUSH1 0x1 ADD SSTORE PUSH1 0x40 DUP3 ADD MLOAD DUP2 PUSH1 0x2 ADD SSTORE PUSH1 0x60 DUP3 ADD MLOAD DUP2 PUSH1 0x3 ADD SSTORE PUSH1 0x80 DUP3 ADD MLOAD DUP2 PUSH1 0x4 ADD SSTORE PUSH1 0xA0 DUP3 ADD MLOAD DUP2 PUSH1 0x5 ADD PUSH1 0x0 PUSH2 0x100 EXP DUP2 SLOAD DUP2 PUSH1 0xFF MUL NOT AND SWAP1 DUP4 PUSH1 0x3 DUP2 GT ISZERO PUSH2 0x2CC5 JUMPI PUSH2 0x2CC4 PUSH2 0x5464 JUMP JUMPDEST JUMPDEST MUL OR SWAP1 SSTORE POP POP POP PUSH1 0x1 PUSH1 0xD DUP1 SLOAD SWAP1 POP PUSH2 0x2CDE SWAP2 SWAP1 PUSH2 0x51AD JUMP JUMPDEST SWAP2 POP PUSH2 0x2CE9 DUP3 PUSH2 0x3D1A JUMP JUMPDEST POP SWAP4 SWAP3 POP POP POP JUMP JUMPDEST PUSH1 0x60 PUSH1 0x0 DUP3 EQ ISZERO PUSH2 0x2D39 JUMPI PUSH1 0x40 MLOAD DUP1 PUSH1 0x40 ADD PUSH1 0x40 MSTORE DUP1 PUSH1 0x1 DUP2 MSTORE PUSH1 0x20 ADD PUSH32 0x3000000000000000000000000000000000000000000000000000000000000000 DUP2 MSTORE POP SWAP1 POP PUSH2 0x2E5C JUMP JUMPDEST PUSH1 0x0 DUP3 SWAP1 POP PUSH1 0x0 JUMPDEST PUSH1 0x0 DUP3 EQ PUSH2 0x2D6B JUMPI DUP1 DUP1 PUSH2 0x2D54 SWAP1 PUSH2 0x538C JUMP JUMPDEST SWAP2 POP POP PUSH1 0xA DUP3 PUSH2 0x2D64 SWAP2 SWAP1 PUSH2 0x5122 JUMP JUMPDEST SWAP2 POP PUSH2 0x2D41 JUMP JUMPDEST PUSH1 0x0 DUP2 PUSH8 0xFFFFFFFFFFFFFFFF DUP2 GT ISZERO PUSH2 0x2D87 JUMPI PUSH2 0x2D86 PUSH2 0x54F1 JUMP JUMPDEST JUMPDEST PUSH1 0x40 MLOAD SWAP1 DUP1 DUP3 MSTORE DUP1 PUSH1 0x1F ADD PUSH1 0x1F NOT AND PUSH1 0x20 ADD DUP3 ADD PUSH1 0x40 MSTORE DUP1 ISZERO PUSH2 0x2DB9 JUMPI DUP2 PUSH1 0x20 ADD PUSH1 0x1 DUP3 MUL DUP1 CALLDATASIZE DUP4 CALLDATACOPY DUP1 DUP3 ADD SWAP2 POP POP SWAP1 POP JUMPDEST POP SWAP1 POP PUSH1 0x0 PUSH1 0x1 DUP4 PUSH2 0x2DCB SWAP2 SWAP1 PUSH2 0x51AD JUMP JUMPDEST SWAP1 POP JUMPDEST PUSH1 0x0 DUP7 EQ PUSH2 0x2E54 JUMPI PUSH1 0xA DUP7 PUSH2 0x2DE3 SWAP2 SWAP1 PUSH2 0x53D5 JUMP JUMPDEST PUSH1 0x30 PUSH2 0x2DEF SWAP2 SWAP1 PUSH2 0x50CC JUMP JUMPDEST PUSH1 0xF8 SHL DUP3 DUP3 DUP1 PUSH2 0x2DFE SWAP1 PUSH2 0x52FF JUMP JUMPDEST SWAP4 POP DUP2 MLOAD DUP2 LT PUSH2 0x2E11 JUMPI PUSH2 0x2E10 PUSH2 0x54C2 JUMP JUMPDEST JUMPDEST PUSH1 0x20 ADD ADD SWAP1 PUSH31 0xFFFFFFFFFFFFFFFFFFFFFFFFFFFFFFFFFFFFFFFFFFFFFFFFFFFFFFFFFFFFFF NOT AND SWAP1 DUP2 PUSH1 0x0 BYTE SWAP1 MSTORE8 POP PUSH1 0xA DUP7 PUSH2 0x2E4D SWAP2 SWAP1 PUSH2 0x5122 JUMP JUMPDEST SWAP6 POP PUSH2 0x2DCE JUMP JUMPDEST DUP2 SWAP5 POP POP POP POP POP JUMPDEST SWAP2 SWAP1 POP JUMP JUMPDEST PUSH1 0x1 ISZERO ISZERO PUSH2 0x2E6E CALLER PUSH2 0x2073 JUMP JUMPDEST ISZERO ISZERO EQ PUSH2 0x2EB0 JUMPI PUSH1 0x40 MLOAD PUSH32 0x8C379A000000000000000000000000000000000000000000000000000000000 DUP2 MSTORE PUSH1 0x4 ADD PUSH2 0x2EA7 SWAP1 PUSH2 0x4E4E JUMP JUMPDEST PUSH1 0x40 MLOAD DUP1 SWAP2 SUB SWAP1 REVERT JUMPDEST PUSH1 0x0 PUSH2 0x2EBB DUP4 PUSH2 0x1396 JUMP JUMPDEST SWAP6 POP POP POP POP POP POP PUSH1 0x0 PUSH2 0x2ECD DUP3 PUSH2 0x1977 JUMP JUMPDEST SWAP1 POP PUSH1 0x0 PUSH2 0x2EDB CALLER DUP5 PUSH2 0xCC8 JUMP JUMPDEST SWAP1 POP PUSH1 0x0 DUP3 DUP3 PUSH2 0x2710 PUSH2 0x2EEE SWAP2 SWAP1 PUSH2 0x5153 JUMP JUMPDEST PUSH2 0x2EF8 SWAP2 SWAP1 PUSH2 0x5122 JUMP JUMPDEST SWAP1 POP PUSH2 0x2F05 DUP7 DUP3 DUP8 PUSH2 0x3F73 JUMP JUMPDEST POP POP POP POP POP POP JUMP JUMPDEST PUSH1 0x60 PUSH1 0x0 PUSH1 0x4 DUP1 SLOAD SWAP1 POP PUSH8 0xFFFFFFFFFFFFFFFF DUP2 GT ISZERO PUSH2 0x2F30 JUMPI PUSH2 0x2F2F PUSH2 0x54F1 JUMP JUMPDEST JUMPDEST PUSH1 0x40 MLOAD SWAP1 DUP1 DUP3 MSTORE DUP1 PUSH1 0x20 MUL PUSH1 0x20 ADD DUP3 ADD PUSH1 0x40 MSTORE DUP1 ISZERO PUSH2 0x2F5E JUMPI DUP2 PUSH1 0x20 ADD PUSH1 0x20 DUP3 MUL DUP1 CALLDATASIZE DUP4 CALLDATACOPY DUP1 DUP3 ADD SWAP2 POP POP SWAP1 POP JUMPDEST POP SWAP1 POP PUSH1 0x0 JUMPDEST PUSH1 0x4 DUP1 SLOAD SWAP1 POP DUP2 LT ISZERO PUSH2 0x2FA4 JUMPI DUP1 DUP3 DUP3 DUP2 MLOAD DUP2 LT PUSH2 0x2F85 JUMPI PUSH2 0x2F84 PUSH2 0x54C2 JUMP JUMPDEST JUMPDEST PUSH1 0x20 MUL PUSH1 0x20 ADD ADD DUP2 DUP2 MSTORE POP POP DUP1 DUP1 PUSH2 0x2F9C SWAP1 PUSH2 0x538C JUMP JUMPDEST SWAP2 POP POP PUSH2 0x2F64 JUMP JUMPDEST POP DUP1 SWAP2 POP POP SWAP1 JUMP JUMPDEST PUSH1 0x0 DUP1 PUSH1 0x0 DUP1 PUSH1 0x0 DUP1 PUSH1 0x0 PUSH1 0xD DUP9 DUP2 SLOAD DUP2 LT PUSH2 0x2FCB JUMPI PUSH2 0x2FCA PUSH2 0x54C2 JUMP JUMPDEST JUMPDEST SWAP1 PUSH1 0x0 MSTORE PUSH1 0x20 PUSH1 0x0 KECCAK256 SWAP1 PUSH1 0x6 MUL ADD PUSH1 0x40 MLOAD DUP1 PUSH1 0xC0 ADD PUSH1 0x40 MSTORE SWAP1 DUP2 PUSH1 0x0 DUP3 ADD SLOAD DUP2 MSTORE PUSH1 0x20 ADD PUSH1 0x1 DUP3 ADD SLOAD DUP2 MSTORE PUSH1 0x20 ADD PUSH1 0x2 DUP3 ADD SLOAD DUP2 MSTORE PUSH1 0x20 ADD PUSH1 0x3 DUP3 ADD SLOAD DUP2 MSTORE PUSH1 0x20 ADD PUSH1 0x4 DUP3 ADD SLOAD DUP2 MSTORE PUSH1 0x20 ADD PUSH1 0x5 DUP3 ADD PUSH1 0x0 SWAP1 SLOAD SWAP1 PUSH2 0x100 EXP SWAP1 DIV PUSH1 0xFF AND PUSH1 0x3 DUP2 GT ISZERO PUSH2 0x303B JUMPI PUSH2 0x303A PUSH2 0x5464 JUMP JUMPDEST JUMPDEST PUSH1 0x3 DUP2 GT ISZERO PUSH2 0x304D JUMPI PUSH2 0x304C PUSH2 0x5464 JUMP JUMPDEST JUMPDEST DUP2 MSTORE POP POP SWAP1 POP PUSH1 0x0 PUSH1 0x3 DUP2 GT ISZERO PUSH2 0x3067 JUMPI PUSH2 0x3066 PUSH2 0x5464 JUMP JUMPDEST JUMPDEST DUP2 PUSH1 0xA0 ADD MLOAD PUSH1 0x3 DUP2 GT ISZERO PUSH2 0x307E JUMPI PUSH2 0x307D PUSH2 0x5464 JUMP JUMPDEST JUMPDEST EQ ISZERO PUSH2 0x30E8 JUMPI PUSH1 0x0 PUSH2 0x30A2 PUSH1 0xF PUSH1 0x0 DUP12 DUP2 MSTORE PUSH1 0x20 ADD SWAP1 DUP2 MSTORE PUSH1 0x20 ADD PUSH1 0x0 KECCAK256 SLOAD PUSH2 0x8A5 JUMP JUMPDEST POP POP POP SWAP1 POP PUSH1 0x1 ISZERO ISZERO DUP2 ISZERO ISZERO EQ ISZERO PUSH2 0x30E6 JUMPI PUSH1 0x1 DUP3 PUSH1 0xA0 ADD SWAP1 PUSH1 0x3 DUP2 GT ISZERO PUSH2 0x30CD JUMPI PUSH2 0x30CC PUSH2 0x5464 JUMP JUMPDEST JUMPDEST SWAP1 DUP2 PUSH1 0x3 DUP2 GT ISZERO PUSH2 0x30E1 JUMPI PUSH2 0x30E0 PUSH2 0x5464 JUMP JUMPDEST JUMPDEST DUP2 MSTORE POP POP JUMPDEST POP JUMPDEST DUP1 PUSH1 0x0 ADD MLOAD SWAP7 POP DUP7 DUP2 PUSH1 0x20 ADD MLOAD SWAP7 POP DUP7 DUP3 PUSH1 0x40 ADD MLOAD SWAP7 POP DUP7 DUP4 PUSH1 0x60 ADD MLOAD SWAP7 POP DUP7 DUP5 PUSH1 0x80 ADD MLOAD SWAP7 POP DUP7 DUP6 PUSH1 0xA0 ADD MLOAD SWAP7 POP SWAP7 POP SWAP7 POP SWAP7 POP SWAP7 POP SWAP7 POP POP SWAP2 SWAP4 SWAP6 POP SWAP2 SWAP4 SWAP6 JUMP JUMPDEST PUSH1 0x0 DUP1 PUSH1 0x0 SWAP1 POP PUSH1 0x0 PUSH1 0xE PUSH1 0x0 DUP4 DUP2 MSTORE PUSH1 0x20 ADD SWAP1 DUP2 MSTORE PUSH1 0x20 ADD PUSH1 0x0 KECCAK256 SLOAD SWAP1 POP PUSH1 0x1 SWAP3 POP JUMPDEST PUSH1 0x1 ISZERO PUSH2 0x326B JUMPI DUP3 DUP1 PUSH2 0x3161 SWAP1 PUSH2 0x538C JUMP JUMPDEST SWAP4 POP POP PUSH1 0xD DUP5 DUP2 SLOAD DUP2 LT PUSH2 0x3178 JUMPI PUSH2 0x3177 PUSH2 0x54C2 JUMP JUMPDEST JUMPDEST SWAP1 PUSH1 0x0 MSTORE PUSH1 0x20 PUSH1 0x0 KECCAK256 SWAP1 PUSH1 0x6 MUL ADD PUSH1 0x3 ADD SLOAD PUSH1 0xD DUP4 DUP2 SLOAD DUP2 LT PUSH2 0x319E JUMPI PUSH2 0x319D PUSH2 0x54C2 JUMP JUMPDEST JUMPDEST SWAP1 PUSH1 0x0 MSTORE PUSH1 0x20 PUSH1 0x0 KECCAK256 SWAP1 PUSH1 0x6 MUL ADD PUSH1 0x3 ADD SLOAD LT DUP1 ISZERO PUSH2 0x3206 JUMPI POP PUSH1 0xD DUP5 DUP2 SLOAD DUP2 LT PUSH2 0x31CC JUMPI PUSH2 0x31CB PUSH2 0x54C2 JUMP JUMPDEST JUMPDEST SWAP1 PUSH1 0x0 MSTORE PUSH1 0x20 PUSH1 0x0 KECCAK256 SWAP1 PUSH1 0x6 MUL ADD PUSH1 0x3 ADD SLOAD PUSH1 0xD DUP3 DUP2 SLOAD DUP2 LT PUSH2 0x31F2 JUMPI PUSH2 0x31F1 PUSH2 0x54C2 JUMP JUMPDEST JUMPDEST SWAP1 PUSH1 0x0 MSTORE PUSH1 0x20 PUSH1 0x0 KECCAK256 SWAP1 PUSH1 0x6 MUL ADD PUSH1 0x3 ADD SLOAD GT JUMPDEST DUP1 PUSH2 0x3211 JUMPI POP PUSH1 0x0 DUP2 EQ JUMPDEST ISZERO PUSH2 0x324D JUMPI DUP4 PUSH1 0xE PUSH1 0x0 DUP5 DUP2 MSTORE PUSH1 0x20 ADD SWAP1 DUP2 MSTORE PUSH1 0x20 ADD PUSH1 0x0 KECCAK256 DUP2 SWAP1 SSTORE POP DUP1 PUSH1 0xE PUSH1 0x0 DUP7 DUP2 MSTORE PUSH1 0x20 ADD SWAP1 DUP2 MSTORE PUSH1 0x20 ADD PUSH1 0x0 KECCAK256 DUP2 SWAP1 SSTORE POP POP POP PUSH2 0x326E JUMP JUMPDEST DUP1 SWAP2 POP PUSH1 0xE PUSH1 0x0 DUP4 DUP2 MSTORE PUSH1 0x20 ADD SWAP1 DUP2 MSTORE PUSH1 0x20 ADD PUSH1 0x0 KECCAK256 SLOAD SWAP1 POP PUSH2 0x314F JUMP JUMPDEST POP POP JUMPDEST SWAP2 SWAP1 POP JUMP JUMPDEST PUSH1 0x0 DUP1 PUSH1 0x0 SWAP2 POP PUSH1 0x0 JUMPDEST PUSH1 0x4 DUP1 SLOAD SWAP1 POP DUP2 LT ISZERO PUSH2 0x3323 JUMPI DUP4 PUSH20 0xFFFFFFFFFFFFFFFFFFFFFFFFFFFFFFFFFFFFFFFF AND PUSH1 0x4 DUP3 DUP2 SLOAD DUP2 LT PUSH2 0x32B5 JUMPI PUSH2 0x32B4 PUSH2 0x54C2 JUMP JUMPDEST JUMPDEST SWAP1 PUSH1 0x0 MSTORE PUSH1 0x20 PUSH1 0x0 KECCAK256 SWAP1 PUSH1 0x7 MUL ADD PUSH1 0x1 ADD PUSH1 0x0 SWAP1 SLOAD SWAP1 PUSH2 0x100 EXP SWAP1 DIV PUSH20 0xFFFFFFFFFFFFFFFFFFFFFFFFFFFFFFFFFFFFFFFF AND PUSH20 0xFFFFFFFFFFFFFFFFFFFFFFFFFFFFFFFFFFFFFFFF AND EQ ISZERO PUSH2 0x3310 JUMPI PUSH1 0x1 SWAP3 POP DUP1 SWAP2 POP POP PUSH2 0x3325 JUMP JUMPDEST DUP1 DUP1 PUSH2 0x331B SWAP1 PUSH2 0x538C JUMP JUMPDEST SWAP2 POP POP PUSH2 0x327D JUMP JUMPDEST POP JUMPDEST SWAP2 POP SWAP2 JUMP JUMPDEST DUP1 PUSH1 0x4 DUP4 DUP2 SLOAD DUP2 LT PUSH2 0x333F JUMPI PUSH2 0x333E PUSH2 0x54C2 JUMP JUMPDEST JUMPDEST SWAP1 PUSH1 0x0 MSTORE PUSH1 0x20 PUSH1 0x0 KECCAK256 SWAP1 PUSH1 0x7 MUL ADD PUSH1 0x6 ADD PUSH1 0x0 PUSH2 0x100 EXP DUP2 SLOAD DUP2 PUSH1 0xFF MUL NOT AND SWAP1 DUP4 PUSH1 0x4 DUP2 GT ISZERO PUSH2 0x3372 JUMPI PUSH2 0x3371 PUSH2 0x5464 JUMP JUMPDEST JUMPDEST MUL OR SWAP1 SSTORE POP PUSH1 0x5 PUSH1 0x0 DUP4 DUP2 MSTORE PUSH1 0x20 ADD SWAP1 DUP2 MSTORE PUSH1 0x20 ADD PUSH1 0x0 KECCAK256 PUSH1 0x40 MLOAD DUP1 PUSH1 0x40 ADD PUSH1 0x40 MSTORE DUP1 DUP4 PUSH1 0x4 DUP2 GT ISZERO PUSH2 0x33A8 JUMPI PUSH2 0x33A7 PUSH2 0x5464 JUMP JUMPDEST JUMPDEST DUP2 MSTORE PUSH1 0x20 ADD TIMESTAMP DUP2 MSTORE POP SWAP1 DUP1 PUSH1 0x1 DUP2 SLOAD ADD DUP1 DUP3 SSTORE DUP1 SWAP2 POP POP PUSH1 0x1 SWAP1 SUB SWAP1 PUSH1 0x0 MSTORE PUSH1 0x20 PUSH1 0x0 KECCAK256 SWAP1 PUSH1 0x2 MUL ADD PUSH1 0x0 SWAP1 SWAP2 SWAP1 SWAP2 SWAP1 SWAP2 POP PUSH1 0x0 DUP3 ADD MLOAD DUP2 PUSH1 0x0 ADD PUSH1 0x0 PUSH2 0x100 EXP DUP2 SLOAD DUP2 PUSH1 0xFF MUL NOT AND SWAP1 DUP4 PUSH1 0x4 DUP2 GT ISZERO PUSH2 0x3405 JUMPI PUSH2 0x3404 PUSH2 0x5464 JUMP JUMPDEST JUMPDEST MUL OR SWAP1 SSTORE POP PUSH1 0x20 DUP3 ADD MLOAD DUP2 PUSH1 0x1 ADD SSTORE POP POP POP POP JUMP JUMPDEST PUSH1 0x0 PUSH1 0x8 DUP3 DUP2 SLOAD DUP2 LT PUSH2 0x3430 JUMPI PUSH2 0x342F PUSH2 0x54C2 JUMP JUMPDEST JUMPDEST SWAP1 PUSH1 0x0 MSTORE PUSH1 0x20 PUSH1 0x0 KECCAK256 SWAP1 PUSH1 0xA MUL ADD PUSH1 0x40 MLOAD DUP1 PUSH2 0x160 ADD PUSH1 0x40 MSTORE SWAP1 DUP2 PUSH1 0x0 DUP3 ADD PUSH1 0x0 SWAP1 SLOAD SWAP1 PUSH2 0x100 EXP SWAP1 DIV PUSH1 0xFF AND PUSH1 0x4 DUP2 GT ISZERO PUSH2 0x346F JUMPI PUSH2 0x346E PUSH2 0x5464 JUMP JUMPDEST JUMPDEST PUSH1 0x4 DUP2 GT ISZERO PUSH2 0x3481 JUMPI PUSH2 0x3480 PUSH2 0x5464 JUMP JUMPDEST JUMPDEST DUP2 MSTORE PUSH1 0x20 ADD PUSH1 0x0 DUP3 ADD PUSH1 0x1 SWAP1 SLOAD SWAP1 PUSH2 0x100 EXP SWAP1 DIV PUSH1 0xFF AND PUSH1 0x1 DUP2 GT ISZERO PUSH2 0x34AA JUMPI PUSH2 0x34A9 PUSH2 0x5464 JUMP JUMPDEST JUMPDEST PUSH1 0x1 DUP2 GT ISZERO PUSH2 0x34BC JUMPI PUSH2 0x34BB PUSH2 0x5464 JUMP JUMPDEST JUMPDEST DUP2 MSTORE PUSH1 0x20 ADD PUSH1 0x1 DUP3 ADD SLOAD DUP2 MSTORE PUSH1 0x20 ADD PUSH1 0x2 DUP3 ADD SLOAD DUP2 MSTORE PUSH1 0x20 ADD PUSH1 0x3 DUP3 ADD DUP1 SLOAD PUSH2 0x34E4 SWAP1 PUSH2 0x5329 JUMP JUMPDEST DUP1 PUSH1 0x1F ADD PUSH1 0x20 DUP1 SWAP2 DIV MUL PUSH1 0x20 ADD PUSH1 0x40 MLOAD SWAP1 DUP2 ADD PUSH1 0x40 MSTORE DUP1 SWAP3 SWAP2 SWAP1 DUP2 DUP2 MSTORE PUSH1 0x20 ADD DUP3 DUP1 SLOAD PUSH2 0x3510 SWAP1 PUSH2 0x5329 JUMP JUMPDEST DUP1 ISZERO PUSH2 0x355D JUMPI DUP1 PUSH1 0x1F LT PUSH2 0x3532 JUMPI PUSH2 0x100 DUP1 DUP4 SLOAD DIV MUL DUP4 MSTORE SWAP2 PUSH1 0x20 ADD SWAP2 PUSH2 0x355D JUMP JUMPDEST DUP3 ADD SWAP2 SWAP1 PUSH1 0x0 MSTORE PUSH1 0x20 PUSH1 0x0 KECCAK256 SWAP1 JUMPDEST DUP2 SLOAD DUP2 MSTORE SWAP1 PUSH1 0x1 ADD SWAP1 PUSH1 0x20 ADD DUP1 DUP4 GT PUSH2 0x3540 JUMPI DUP3 SWAP1 SUB PUSH1 0x1F AND DUP3 ADD SWAP2 JUMPDEST POP POP POP POP POP DUP2 MSTORE PUSH1 0x20 ADD PUSH1 0x4 DUP3 ADD DUP1 SLOAD PUSH2 0x3576 SWAP1 PUSH2 0x5329 JUMP JUMPDEST DUP1 PUSH1 0x1F ADD PUSH1 0x20 DUP1 SWAP2 DIV MUL PUSH1 0x20 ADD PUSH1 0x40 MLOAD SWAP1 DUP2 ADD PUSH1 0x40 MSTORE DUP1 SWAP3 SWAP2 SWAP1 DUP2 DUP2 MSTORE PUSH1 0x20 ADD DUP3 DUP1 SLOAD PUSH2 0x35A2 SWAP1 PUSH2 0x5329 JUMP JUMPDEST DUP1 ISZERO PUSH2 0x35EF JUMPI DUP1 PUSH1 0x1F LT PUSH2 0x35C4 JUMPI PUSH2 0x100 DUP1 DUP4 SLOAD DIV MUL DUP4 MSTORE SWAP2 PUSH1 0x20 ADD SWAP2 PUSH2 0x35EF JUMP JUMPDEST DUP3 ADD SWAP2 SWAP1 PUSH1 0x0 MSTORE PUSH1 0x20 PUSH1 0x0 KECCAK256 SWAP1 JUMPDEST DUP2 SLOAD DUP2 MSTORE SWAP1 PUSH1 0x1 ADD SWAP1 PUSH1 0x20 ADD DUP1 DUP4 GT PUSH2 0x35D2 JUMPI DUP3 SWAP1 SUB PUSH1 0x1F AND DUP3 ADD SWAP2 JUMPDEST POP POP POP POP POP DUP2 MSTORE PUSH1 0x20 ADD PUSH1 0x5 DUP3 ADD SLOAD DUP2 MSTORE PUSH1 0x20 ADD PUSH1 0x6 DUP3 ADD DUP1 SLOAD PUSH2 0x3612 SWAP1 PUSH2 0x5329 JUMP JUMPDEST DUP1 PUSH1 0x1F ADD PUSH1 0x20 DUP1 SWAP2 DIV MUL PUSH1 0x20 ADD PUSH1 0x40 MLOAD SWAP1 DUP2 ADD PUSH1 0x40 MSTORE DUP1 SWAP3 SWAP2 SWAP1 DUP2 DUP2 MSTORE PUSH1 0x20 ADD DUP3 DUP1 SLOAD PUSH2 0x363E SWAP1 PUSH2 0x5329 JUMP JUMPDEST DUP1 ISZERO PUSH2 0x368B JUMPI DUP1 PUSH1 0x1F LT PUSH2 0x3660 JUMPI PUSH2 0x100 DUP1 DUP4 SLOAD DIV MUL DUP4 MSTORE SWAP2 PUSH1 0x20 ADD SWAP2 PUSH2 0x368B JUMP JUMPDEST DUP3 ADD SWAP2 SWAP1 PUSH1 0x0 MSTORE PUSH1 0x20 PUSH1 0x0 KECCAK256 SWAP1 JUMPDEST DUP2 SLOAD DUP2 MSTORE SWAP1 PUSH1 0x1 ADD SWAP1 PUSH1 0x20 ADD DUP1 DUP4 GT PUSH2 0x366E JUMPI DUP3 SWAP1 SUB PUSH1 0x1F AND DUP3 ADD SWAP2 JUMPDEST POP POP POP POP POP DUP2 MSTORE PUSH1 0x20 ADD PUSH1 0x7 DUP3 ADD SLOAD DUP2 MSTORE PUSH1 0x20 ADD PUSH1 0x8 DUP3 ADD SLOAD DUP2 MSTORE PUSH1 0x20 ADD PUSH1 0x9 DUP3 ADD SLOAD DUP2 MSTORE POP POP SWAP1 POP PUSH1 0x0 DUP2 PUSH1 0x80 ADD MLOAD PUSH1 0x40 MLOAD PUSH1 0x20 ADD PUSH2 0x36CB SWAP2 SWAP1 PUSH2 0x4BF0 JUMP JUMPDEST PUSH1 0x40 MLOAD PUSH1 0x20 DUP2 DUP4 SUB SUB DUP2 MSTORE SWAP1 PUSH1 0x40 MSTORE SWAP1 POP PUSH1 0x0 DUP3 PUSH1 0xA0 ADD MLOAD PUSH1 0x40 MLOAD PUSH1 0x20 ADD PUSH2 0x36F3 SWAP2 SWAP1 PUSH2 0x4C12 JUMP JUMPDEST PUSH1 0x40 MLOAD PUSH1 0x20 DUP2 DUP4 SUB SUB DUP2 MSTORE SWAP1 PUSH1 0x40 MSTORE SWAP1 POP PUSH1 0x0 PUSH1 0x2 PUSH8 0xFFFFFFFFFFFFFFFF DUP2 GT ISZERO PUSH2 0x3721 JUMPI PUSH2 0x3720 PUSH2 0x54F1 JUMP JUMPDEST JUMPDEST PUSH1 0x40 MLOAD SWAP1 DUP1 DUP3 MSTORE DUP1 PUSH1 0x20 MUL PUSH1 0x20 ADD DUP3 ADD PUSH1 0x40 MSTORE DUP1 ISZERO PUSH2 0x3754 JUMPI DUP2 PUSH1 0x20 ADD JUMPDEST PUSH1 0x60 DUP2 MSTORE PUSH1 0x20 ADD SWAP1 PUSH1 0x1 SWAP1 SUB SWAP1 DUP2 PUSH2 0x373F JUMPI SWAP1 POP JUMPDEST POP SWAP1 POP PUSH1 0x40 MLOAD DUP1 PUSH1 0x40 ADD PUSH1 0x40 MSTORE DUP1 PUSH1 0x7 DUP2 MSTORE PUSH1 0x20 ADD PUSH32 0x62616E6B696E6700000000000000000000000000000000000000000000000000 DUP2 MSTORE POP DUP2 PUSH1 0x0 DUP2 MLOAD DUP2 LT PUSH2 0x37A1 JUMPI PUSH2 0x37A0 PUSH2 0x54C2 JUMP JUMPDEST JUMPDEST PUSH1 0x20 MUL PUSH1 0x20 ADD ADD DUP2 SWAP1 MSTORE POP PUSH1 0x40 MLOAD DUP1 PUSH1 0x40 ADD PUSH1 0x40 MSTORE DUP1 PUSH1 0x16 DUP2 MSTORE PUSH1 0x20 ADD PUSH32 0x6D6F76696D656E746163616F46696E616E636569726100000000000000000000 DUP2 MSTORE POP DUP2 PUSH1 0x1 DUP2 MLOAD DUP2 LT PUSH2 0x37F6 JUMPI PUSH2 0x37F5 PUSH2 0x54C2 JUMP JUMPDEST JUMPDEST PUSH1 0x20 MUL PUSH1 0x20 ADD ADD DUP2 SWAP1 MSTORE POP PUSH1 0x0 PUSH1 0xB SLOAD DUP6 PUSH2 0x140 ADD MLOAD PUSH2 0x3816 SWAP2 SWAP1 PUSH2 0x50CC JUMP JUMPDEST SWAP1 POP PUSH1 0x0 PUSH2 0x3826 DUP6 DUP6 DUP6 DUP6 PUSH2 0x40FA JUMP JUMPDEST SWAP1 POP DUP1 PUSH1 0x9 PUSH1 0x0 DUP10 DUP2 MSTORE PUSH1 0x20 ADD SWAP1 DUP2 MSTORE PUSH1 0x20 ADD PUSH1 0x0 KECCAK256 DUP2 SWAP1 SSTORE POP POP POP POP POP POP POP POP JUMP JUMPDEST PUSH1 0x0 PUSH1 0x4 DUP3 DUP2 SLOAD DUP2 LT PUSH2 0x385F JUMPI PUSH2 0x385E PUSH2 0x54C2 JUMP JUMPDEST JUMPDEST SWAP1 PUSH1 0x0 MSTORE PUSH1 0x20 PUSH1 0x0 KECCAK256 SWAP1 PUSH1 0x7 MUL ADD PUSH1 0x40 MLOAD DUP1 PUSH1 0xE0 ADD PUSH1 0x40 MSTORE SWAP1 DUP2 PUSH1 0x0 DUP3 ADD SLOAD DUP2 MSTORE PUSH1 0x20 ADD PUSH1 0x1 DUP3 ADD PUSH1 0x0 SWAP1 SLOAD SWAP1 PUSH2 0x100 EXP SWAP1 DIV PUSH20 0xFFFFFFFFFFFFFFFFFFFFFFFFFFFFFFFFFFFFFFFF AND PUSH20 0xFFFFFFFFFFFFFFFFFFFFFFFFFFFFFFFFFFFFFFFF AND PUSH20 0xFFFFFFFFFFFFFFFFFFFFFFFFFFFFFFFFFFFFFFFF AND DUP2 MSTORE PUSH1 0x20 ADD PUSH1 0x2 DUP3 ADD DUP1 SLOAD PUSH2 0x38E8 SWAP1 PUSH2 0x5329 JUMP JUMPDEST DUP1 PUSH1 0x1F ADD PUSH1 0x20 DUP1 SWAP2 DIV MUL PUSH1 0x20 ADD PUSH1 0x40 MLOAD SWAP1 DUP2 ADD PUSH1 0x40 MSTORE DUP1 SWAP3 SWAP2 SWAP1 DUP2 DUP2 MSTORE PUSH1 0x20 ADD DUP3 DUP1 SLOAD PUSH2 0x3914 SWAP1 PUSH2 0x5329 JUMP JUMPDEST DUP1 ISZERO PUSH2 0x3961 JUMPI DUP1 PUSH1 0x1F LT PUSH2 0x3936 JUMPI PUSH2 0x100 DUP1 DUP4 SLOAD DIV MUL DUP4 MSTORE SWAP2 PUSH1 0x20 ADD SWAP2 PUSH2 0x3961 JUMP JUMPDEST DUP3 ADD SWAP2 SWAP1 PUSH1 0x0 MSTORE PUSH1 0x20 PUSH1 0x0 KECCAK256 SWAP1 JUMPDEST DUP2 SLOAD DUP2 MSTORE SWAP1 PUSH1 0x1 ADD SWAP1 PUSH1 0x20 ADD DUP1 DUP4 GT PUSH2 0x3944 JUMPI DUP3 SWAP1 SUB PUSH1 0x1F AND DUP3 ADD SWAP2 JUMPDEST POP POP POP POP POP DUP2 MSTORE PUSH1 0x20 ADD PUSH1 0x3 DUP3 ADD DUP1 SLOAD PUSH2 0x397A SWAP1 PUSH2 0x5329 JUMP JUMPDEST DUP1 PUSH1 0x1F ADD PUSH1 0x20 DUP1 SWAP2 DIV MUL PUSH1 0x20 ADD PUSH1 0x40 MLOAD SWAP1 DUP2 ADD PUSH1 0x40 MSTORE DUP1 SWAP3 SWAP2 SWAP1 DUP2 DUP2 MSTORE PUSH1 0x20 ADD DUP3 DUP1 SLOAD PUSH2 0x39A6 SWAP1 PUSH2 0x5329 JUMP JUMPDEST DUP1 ISZERO PUSH2 0x39F3 JUMPI DUP1 PUSH1 0x1F LT PUSH2 0x39C8 JUMPI PUSH2 0x100 DUP1 DUP4 SLOAD DIV MUL DUP4 MSTORE SWAP2 PUSH1 0x20 ADD SWAP2 PUSH2 0x39F3 JUMP JUMPDEST DUP3 ADD SWAP2 SWAP1 PUSH1 0x0 MSTORE PUSH1 0x20 PUSH1 0x0 KECCAK256 SWAP1 JUMPDEST DUP2 SLOAD DUP2 MSTORE SWAP1 PUSH1 0x1 ADD SWAP1 PUSH1 0x20 ADD DUP1 DUP4 GT PUSH2 0x39D6 JUMPI DUP3 SWAP1 SUB PUSH1 0x1F AND DUP3 ADD SWAP2 JUMPDEST POP POP POP POP POP DUP2 MSTORE PUSH1 0x20 ADD PUSH1 0x4 DUP3 ADD DUP1 SLOAD PUSH2 0x3A0C SWAP1 PUSH2 0x5329 JUMP JUMPDEST DUP1 PUSH1 0x1F ADD PUSH1 0x20 DUP1 SWAP2 DIV MUL PUSH1 0x20 ADD PUSH1 0x40 MLOAD SWAP1 DUP2 ADD PUSH1 0x40 MSTORE DUP1 SWAP3 SWAP2 SWAP1 DUP2 DUP2 MSTORE PUSH1 0x20 ADD DUP3 DUP1 SLOAD PUSH2 0x3A38 SWAP1 PUSH2 0x5329 JUMP JUMPDEST DUP1 ISZERO PUSH2 0x3A85 JUMPI DUP1 PUSH1 0x1F LT PUSH2 0x3A5A JUMPI PUSH2 0x100 DUP1 DUP4 SLOAD DIV MUL DUP4 MSTORE SWAP2 PUSH1 0x20 ADD SWAP2 PUSH2 0x3A85 JUMP JUMPDEST DUP3 ADD SWAP2 SWAP1 PUSH1 0x0 MSTORE PUSH1 0x20 PUSH1 0x0 KECCAK256 SWAP1 JUMPDEST DUP2 SLOAD DUP2 MSTORE SWAP1 PUSH1 0x1 ADD SWAP1 PUSH1 0x20 ADD DUP1 DUP4 GT PUSH2 0x3A68 JUMPI DUP3 SWAP1 SUB PUSH1 0x1F AND DUP3 ADD SWAP2 JUMPDEST POP POP POP POP POP DUP2 MSTORE PUSH1 0x20 ADD PUSH1 0x5 DUP3 ADD SLOAD DUP2 MSTORE PUSH1 0x20 ADD PUSH1 0x6 DUP3 ADD PUSH1 0x0 SWAP1 SLOAD SWAP1 PUSH2 0x100 EXP SWAP1 DIV PUSH1 0xFF AND PUSH1 0x4 DUP2 GT ISZERO PUSH2 0x3ABD JUMPI PUSH2 0x3ABC PUSH2 0x5464 JUMP JUMPDEST JUMPDEST PUSH1 0x4 DUP2 GT ISZERO PUSH2 0x3ACF JUMPI PUSH2 0x3ACE PUSH2 0x5464 JUMP JUMPDEST JUMPDEST DUP2 MSTORE POP POP SWAP1 POP PUSH1 0x0 DUP2 PUSH1 0x40 ADD MLOAD PUSH1 0x4 DUP4 PUSH1 0x0 ADD MLOAD DUP2 SLOAD DUP2 LT PUSH2 0x3AF4 JUMPI PUSH2 0x3AF3 PUSH2 0x54C2 JUMP JUMPDEST JUMPDEST SWAP1 PUSH1 0x0 MSTORE PUSH1 0x20 PUSH1 0x0 KECCAK256 SWAP1 PUSH1 0x7 MUL ADD PUSH1 0x2 ADD PUSH1 0x40 MLOAD PUSH1 0x20 ADD PUSH2 0x3B16 SWAP3 SWAP2 SWAP1 PUSH2 0x4B64 JUMP JUMPDEST PUSH1 0x40 MLOAD PUSH1 0x20 DUP2 DUP4 SUB SUB DUP2 MSTORE SWAP1 PUSH1 0x40 MSTORE SWAP1 POP PUSH1 0x60 PUSH1 0x0 PUSH1 0x2 PUSH8 0xFFFFFFFFFFFFFFFF DUP2 GT ISZERO PUSH2 0x3B46 JUMPI PUSH2 0x3B45 PUSH2 0x54F1 JUMP JUMPDEST JUMPDEST PUSH1 0x40 MLOAD SWAP1 DUP1 DUP3 MSTORE DUP1 PUSH1 0x20 MUL PUSH1 0x20 ADD DUP3 ADD PUSH1 0x40 MSTORE DUP1 ISZERO PUSH2 0x3B79 JUMPI DUP2 PUSH1 0x20 ADD JUMPDEST PUSH1 0x60 DUP2 MSTORE PUSH1 0x20 ADD SWAP1 PUSH1 0x1 SWAP1 SUB SWAP1 DUP2 PUSH2 0x3B64 JUMPI SWAP1 POP JUMPDEST POP SWAP1 POP PUSH1 0x40 MLOAD DUP1 PUSH1 0x40 ADD PUSH1 0x40 MSTORE DUP1 PUSH1 0x7 DUP2 MSTORE PUSH1 0x20 ADD PUSH32 0x706172746E657200000000000000000000000000000000000000000000000000 DUP2 MSTORE POP DUP2 PUSH1 0x0 DUP2 MLOAD DUP2 LT PUSH2 0x3BC6 JUMPI PUSH2 0x3BC5 PUSH2 0x54C2 JUMP JUMPDEST JUMPDEST PUSH1 0x20 MUL PUSH1 0x20 ADD ADD DUP2 SWAP1 MSTORE POP PUSH1 0x40 MLOAD DUP1 PUSH1 0x40 ADD PUSH1 0x40 MSTORE DUP1 PUSH1 0x8 DUP2 MSTORE PUSH1 0x20 ADD PUSH32 0x616464536F63696F000000000000000000000000000000000000000000000000 DUP2 MSTORE POP DUP2 PUSH1 0x1 DUP2 MLOAD DUP2 LT PUSH2 0x3C1B JUMPI PUSH2 0x3C1A PUSH2 0x54C2 JUMP JUMPDEST JUMPDEST PUSH1 0x20 MUL PUSH1 0x20 ADD ADD DUP2 SWAP1 MSTORE POP PUSH1 0x0 PUSH1 0x7 SLOAD PUSH1 0x4 DUP8 DUP2 SLOAD DUP2 LT PUSH2 0x3C3F JUMPI PUSH2 0x3C3E PUSH2 0x54C2 JUMP JUMPDEST JUMPDEST SWAP1 PUSH1 0x0 MSTORE PUSH1 0x20 PUSH1 0x0 KECCAK256 SWAP1 PUSH1 0x7 MUL ADD PUSH1 0x5 ADD SLOAD PUSH2 0x3C5B SWAP2 SWAP1 PUSH2 0x50CC JUMP JUMPDEST SWAP1 POP PUSH1 0x0 PUSH2 0x3C6B DUP6 DUP6 DUP6 DUP6 PUSH2 0x40FA JUMP JUMPDEST SWAP1 POP DUP1 PUSH1 0x6 PUSH1 0x0 DUP10 DUP2 MSTORE PUSH1 0x20 ADD SWAP1 DUP2 MSTORE PUSH1 0x20 ADD PUSH1 0x0 KECCAK256 DUP2 SWAP1 SSTORE POP POP POP POP POP POP POP POP JUMP JUMPDEST PUSH2 0x3D16 PUSH1 0x0 PUSH1 0x40 MLOAD DUP1 PUSH1 0x40 ADD PUSH1 0x40 MSTORE DUP1 PUSH1 0x13 DUP2 MSTORE PUSH1 0x20 ADD PUSH32 0x4C69717569646163616F20646520546F6B656E00000000000000000000000000 DUP2 MSTORE POP PUSH1 0x40 MLOAD DUP1 PUSH1 0x20 ADD PUSH1 0x40 MSTORE DUP1 PUSH1 0x0 DUP2 MSTORE POP DUP5 PUSH1 0x40 MLOAD DUP1 PUSH1 0x40 ADD PUSH1 0x40 MSTORE DUP1 PUSH1 0x5 DUP2 MSTORE PUSH1 0x20 ADD PUSH32 0x636F6E7461000000000000000000000000000000000000000000000000000000 DUP2 MSTORE POP TIMESTAMP PUSH2 0x1168 JUMP JUMPDEST POP POP JUMP JUMPDEST PUSH1 0x0 PUSH1 0xD DUP3 DUP2 SLOAD DUP2 LT PUSH2 0x3D30 JUMPI PUSH2 0x3D2F PUSH2 0x54C2 JUMP JUMPDEST JUMPDEST SWAP1 PUSH1 0x0 MSTORE PUSH1 0x20 PUSH1 0x0 KECCAK256 SWAP1 PUSH1 0x6 MUL ADD PUSH1 0x40 MLOAD DUP1 PUSH1 0xC0 ADD PUSH1 0x40 MSTORE SWAP1 DUP2 PUSH1 0x0 DUP3 ADD SLOAD DUP2 MSTORE PUSH1 0x20 ADD PUSH1 0x1 DUP3 ADD SLOAD DUP2 MSTORE PUSH1 0x20 ADD PUSH1 0x2 DUP3 ADD SLOAD DUP2 MSTORE PUSH1 0x20 ADD PUSH1 0x3 DUP3 ADD SLOAD DUP2 MSTORE PUSH1 0x20 ADD PUSH1 0x4 DUP3 ADD SLOAD DUP2 MSTORE PUSH1 0x20 ADD PUSH1 0x5 DUP3 ADD PUSH1 0x0 SWAP1 SLOAD SWAP1 PUSH2 0x100 EXP SWAP1 DIV PUSH1 0xFF AND PUSH1 0x3 DUP2 GT ISZERO PUSH2 0x3DA0 JUMPI PUSH2 0x3D9F PUSH2 0x5464 JUMP JUMPDEST JUMPDEST PUSH1 0x3 DUP2 GT ISZERO PUSH2 0x3DB2 JUMPI PUSH2 0x3DB1 PUSH2 0x5464 JUMP JUMPDEST JUMPDEST DUP2 MSTORE POP POP SWAP1 POP PUSH1 0x0 PUSH2 0x3DC7 DUP3 PUSH1 0x0 ADD MLOAD PUSH2 0x1A64 JUMP JUMPDEST POP POP POP POP SWAP3 POP POP POP PUSH1 0x0 PUSH2 0x3DDA CALLER PUSH2 0x3273 JUMP JUMPDEST SWAP2 POP POP PUSH1 0x0 PUSH2 0x3DE8 DUP3 PUSH2 0x1A64 JUMP JUMPDEST POP POP POP POP SWAP3 POP POP POP PUSH1 0x0 PUSH2 0x3DFF DUP6 PUSH1 0x20 ADD MLOAD PUSH2 0x2CF1 JUMP JUMPDEST SWAP1 POP PUSH1 0x0 DUP2 DUP6 DUP5 PUSH1 0x40 MLOAD PUSH1 0x20 ADD PUSH2 0x3E18 SWAP4 SWAP3 SWAP2 SWAP1 PUSH2 0x4B9E JUMP JUMPDEST PUSH1 0x40 MLOAD PUSH1 0x20 DUP2 DUP4 SUB SUB DUP2 MSTORE SWAP1 PUSH1 0x40 MSTORE SWAP1 POP PUSH1 0x60 PUSH1 0x0 PUSH1 0x2 PUSH8 0xFFFFFFFFFFFFFFFF DUP2 GT ISZERO PUSH2 0x3E48 JUMPI PUSH2 0x3E47 PUSH2 0x54F1 JUMP JUMPDEST JUMPDEST PUSH1 0x40 MLOAD SWAP1 DUP1 DUP3 MSTORE DUP1 PUSH1 0x20 MUL PUSH1 0x20 ADD DUP3 ADD PUSH1 0x40 MSTORE DUP1 ISZERO PUSH2 0x3E7B JUMPI DUP2 PUSH1 0x20 ADD JUMPDEST PUSH1 0x60 DUP2 MSTORE PUSH1 0x20 ADD SWAP1 PUSH1 0x1 SWAP1 SUB SWAP1 DUP2 PUSH2 0x3E66 JUMPI SWAP1 POP JUMPDEST POP SWAP1 POP PUSH1 0x40 MLOAD DUP1 PUSH1 0x40 ADD PUSH1 0x40 MSTORE DUP1 PUSH1 0x5 DUP2 MSTORE PUSH1 0x20 ADD PUSH32 0x746F6B656E000000000000000000000000000000000000000000000000000000 DUP2 MSTORE POP DUP2 PUSH1 0x0 DUP2 MLOAD DUP2 LT PUSH2 0x3EC8 JUMPI PUSH2 0x3EC7 PUSH2 0x54C2 JUMP JUMPDEST JUMPDEST PUSH1 0x20 MUL PUSH1 0x20 ADD ADD DUP2 SWAP1 MSTORE POP PUSH1 0x40 MLOAD DUP1 PUSH1 0x40 ADD PUSH1 0x40 MSTORE DUP1 PUSH1 0x8 DUP2 MSTORE PUSH1 0x20 ADD PUSH32 0x616464546F6B656E000000000000000000000000000000000000000000000000 DUP2 MSTORE POP DUP2 PUSH1 0x1 DUP2 MLOAD DUP2 LT PUSH2 0x3F1D JUMPI PUSH2 0x3F1C PUSH2 0x54C2 JUMP JUMPDEST JUMPDEST PUSH1 0x20 MUL PUSH1 0x20 ADD ADD DUP2 SWAP1 MSTORE POP PUSH1 0x0 PUSH1 0x10 SLOAD DUP10 PUSH1 0x80 ADD MLOAD PUSH2 0x3F3C SWAP2 SWAP1 PUSH2 0x50CC JUMP JUMPDEST SWAP1 POP PUSH1 0x0 PUSH2 0x3F4C DUP6 DUP6 DUP6 DUP6 PUSH2 0x40FA JUMP JUMPDEST SWAP1 POP DUP1 PUSH1 0xF PUSH1 0x0 DUP14 DUP2 MSTORE PUSH1 0x20 ADD SWAP1 DUP2 MSTORE PUSH1 0x20 ADD PUSH1 0x0 KECCAK256 DUP2 SWAP1 SSTORE POP POP POP POP POP POP POP POP POP POP POP POP JUMP JUMPDEST PUSH1 0x0 ISZERO ISZERO PUSH2 0x3F81 DUP5 CALLER PUSH2 0xBA2 JUMP JUMPDEST ISZERO ISZERO EQ PUSH2 0x3FC3 JUMPI PUSH1 0x40 MLOAD PUSH32 0x8C379A000000000000000000000000000000000000000000000000000000000 DUP2 MSTORE PUSH1 0x4 ADD PUSH2 0x3FBA SWAP1 PUSH2 0x4E2E JUMP JUMPDEST PUSH1 0x40 MLOAD DUP1 SWAP2 SUB SWAP1 REVERT JUMPDEST PUSH1 0x2 PUSH1 0x40 MLOAD DUP1 PUSH1 0x80 ADD PUSH1 0x40 MSTORE DUP1 CALLER PUSH20 0xFFFFFFFFFFFFFFFFFFFFFFFFFFFFFFFFFFFFFFFF AND DUP2 MSTORE PUSH1 0x20 ADD DUP4 ISZERO ISZERO DUP2 MSTORE PUSH1 0x20 ADD DUP5 DUP2 MSTORE PUSH1 0x20 ADD TIMESTAMP DUP2 MSTORE POP SWAP1 DUP1 PUSH1 0x1 DUP2 SLOAD ADD DUP1 DUP3 SSTORE DUP1 SWAP2 POP POP PUSH1 0x1 SWAP1 SUB SWAP1 PUSH1 0x0 MSTORE PUSH1 0x20 PUSH1 0x0 KECCAK256 SWAP1 PUSH1 0x3 MUL ADD PUSH1 0x0 SWAP1 SWAP2 SWAP1 SWAP2 SWAP1 SWAP2 POP PUSH1 0x0 DUP3 ADD MLOAD DUP2 PUSH1 0x0 ADD PUSH1 0x0 PUSH2 0x100 EXP DUP2 SLOAD DUP2 PUSH20 0xFFFFFFFFFFFFFFFFFFFFFFFFFFFFFFFFFFFFFFFF MUL NOT AND SWAP1 DUP4 PUSH20 0xFFFFFFFFFFFFFFFFFFFFFFFFFFFFFFFFFFFFFFFF AND MUL OR SWAP1 SSTORE POP PUSH1 0x20 DUP3 ADD MLOAD DUP2 PUSH1 0x0 ADD PUSH1 0x14 PUSH2 0x100 EXP DUP2 SLOAD DUP2 PUSH1 0xFF MUL NOT AND SWAP1 DUP4 ISZERO ISZERO MUL OR SWAP1 SSTORE POP PUSH1 0x40 DUP3 ADD MLOAD DUP2 PUSH1 0x1 ADD SSTORE PUSH1 0x60 DUP3 ADD MLOAD DUP2 PUSH1 0x2 ADD SSTORE POP POP PUSH1 0x0 PUSH1 0x1 PUSH1 0x2 DUP1 SLOAD SWAP1 POP PUSH2 0x40B8 SWAP2 SWAP1 PUSH2 0x51AD JUMP JUMPDEST SWAP1 POP PUSH1 0x3 PUSH1 0x0 DUP6 DUP2 MSTORE PUSH1 0x20 ADD SWAP1 DUP2 MSTORE PUSH1 0x20 ADD PUSH1 0x0 KECCAK256 DUP2 SWAP1 DUP1 PUSH1 0x1 DUP2 SLOAD ADD DUP1 DUP3 SSTORE DUP1 SWAP2 POP POP PUSH1 0x1 SWAP1 SUB SWAP1 PUSH1 0x0 MSTORE PUSH1 0x20 PUSH1 0x0 KECCAK256 ADD PUSH1 0x0 SWAP1 SWAP2 SWAP1 SWAP2 SWAP1 SWAP2 POP SSTORE POP POP POP POP JUMP JUMPDEST PUSH1 0x0 PUSH1 0x1 PUSH1 0x40 MLOAD DUP1 PUSH1 0xC0 ADD PUSH1 0x40 MSTORE DUP1 CALLER PUSH20 0xFFFFFFFFFFFFFFFFFFFFFFFFFFFFFFFFFFFFFFFF AND DUP2 MSTORE PUSH1 0x20 ADD DUP8 DUP2 MSTORE PUSH1 0x20 ADD DUP7 DUP2 MSTORE PUSH1 0x20 ADD DUP6 DUP2 MSTORE PUSH1 0x20 ADD DUP5 DUP2 MSTORE PUSH1 0x20 ADD TIMESTAMP DUP2 MSTORE POP SWAP1 DUP1 PUSH1 0x1 DUP2 SLOAD ADD DUP1 DUP3 SSTORE DUP1 SWAP2 POP POP PUSH1 0x1 SWAP1 SUB SWAP1 PUSH1 0x0 MSTORE PUSH1 0x20 PUSH1 0x0 KECCAK256 SWAP1 PUSH1 0x6 MUL ADD PUSH1 0x0 SWAP1 SWAP2 SWAP1 SWAP2 SWAP1 SWAP2 POP PUSH1 0x0 DUP3 ADD MLOAD DUP2 PUSH1 0x0 ADD PUSH1 0x0 PUSH2 0x100 EXP DUP2 SLOAD DUP2 PUSH20 0xFFFFFFFFFFFFFFFFFFFFFFFFFFFFFFFFFFFFFFFF MUL NOT AND SWAP1 DUP4 PUSH20 0xFFFFFFFFFFFFFFFFFFFFFFFFFFFFFFFFFFFFFFFF AND MUL OR SWAP1 SSTORE POP PUSH1 0x20 DUP3 ADD MLOAD DUP2 PUSH1 0x1 ADD SWAP1 DUP1 MLOAD SWAP1 PUSH1 0x20 ADD SWAP1 PUSH2 0x41CD SWAP3 SWAP2 SWAP1 PUSH2 0x4239 JUMP JUMPDEST POP PUSH1 0x40 DUP3 ADD MLOAD DUP2 PUSH1 0x2 ADD SWAP1 DUP1 MLOAD SWAP1 PUSH1 0x20 ADD SWAP1 PUSH2 0x41EA SWAP3 SWAP2 SWAP1 PUSH2 0x4239 JUMP JUMPDEST POP PUSH1 0x60 DUP3 ADD MLOAD DUP2 PUSH1 0x3 ADD SWAP1 DUP1 MLOAD SWAP1 PUSH1 0x20 ADD SWAP1 PUSH2 0x4207 SWAP3 SWAP2 SWAP1 PUSH2 0x42BF JUMP JUMPDEST POP PUSH1 0x80 DUP3 ADD MLOAD DUP2 PUSH1 0x4 ADD SSTORE PUSH1 0xA0 DUP3 ADD MLOAD DUP2 PUSH1 0x5 ADD SSTORE POP POP PUSH1 0x1 DUP1 DUP1 SLOAD SWAP1 POP PUSH2 0x422F SWAP2 SWAP1 PUSH2 0x51AD JUMP JUMPDEST SWAP1 POP SWAP5 SWAP4 POP POP POP POP JUMP JUMPDEST DUP3 DUP1 SLOAD PUSH2 0x4245 SWAP1 PUSH2 0x5329 JUMP JUMPDEST SWAP1 PUSH1 0x0 MSTORE PUSH1 0x20 PUSH1 0x0 KECCAK256 SWAP1 PUSH1 0x1F ADD PUSH1 0x20 SWAP1 DIV DUP2 ADD SWAP3 DUP3 PUSH2 0x4267 JUMPI PUSH1 0x0 DUP6 SSTORE PUSH2 0x42AE JUMP JUMPDEST DUP3 PUSH1 0x1F LT PUSH2 0x4280 JUMPI DUP1 MLOAD PUSH1 0xFF NOT AND DUP4 DUP1 ADD OR DUP6 SSTORE PUSH2 0x42AE JUMP JUMPDEST DUP3 DUP1 ADD PUSH1 0x1 ADD DUP6 SSTORE DUP3 ISZERO PUSH2 0x42AE JUMPI SWAP2 DUP3 ADD JUMPDEST DUP3 DUP2 GT ISZERO PUSH2 0x42AD JUMPI DUP3 MLOAD DUP3 SSTORE SWAP2 PUSH1 0x20 ADD SWAP2 SWAP1 PUSH1 0x1 ADD SWAP1 PUSH2 0x4292 JUMP JUMPDEST JUMPDEST POP SWAP1 POP PUSH2 0x42BB SWAP2 SWAP1 PUSH2 0x431F JUMP JUMPDEST POP SWAP1 JUMP JUMPDEST DUP3 DUP1 SLOAD DUP3 DUP3 SSTORE SWAP1 PUSH1 0x0 MSTORE PUSH1 0x20 PUSH1 0x0 KECCAK256 SWAP1 DUP2 ADD SWAP3 DUP3 ISZERO PUSH2 0x430E JUMPI SWAP2 PUSH1 0x20 MUL DUP3 ADD JUMPDEST DUP3 DUP2 GT ISZERO PUSH2 0x430D JUMPI DUP3 MLOAD DUP3 SWAP1 DUP1 MLOAD SWAP1 PUSH1 0x20 ADD SWAP1 PUSH2 0x42FD SWAP3 SWAP2 SWAP1 PUSH2 0x4239 JUMP JUMPDEST POP SWAP2 PUSH1 0x20 ADD SWAP2 SWAP1 PUSH1 0x1 ADD SWAP1 PUSH2 0x42DF JUMP JUMPDEST JUMPDEST POP SWAP1 POP PUSH2 0x431B SWAP2 SWAP1 PUSH2 0x433C JUMP JUMPDEST POP SWAP1 JUMP JUMPDEST JUMPDEST DUP1 DUP3 GT ISZERO PUSH2 0x4338 JUMPI PUSH1 0x0 DUP2 PUSH1 0x0 SWAP1 SSTORE POP PUSH1 0x1 ADD PUSH2 0x4320 JUMP JUMPDEST POP SWAP1 JUMP JUMPDEST JUMPDEST DUP1 DUP3 GT ISZERO PUSH2 0x435C JUMPI PUSH1 0x0 DUP2 DUP2 PUSH2 0x4353 SWAP2 SWAP1 PUSH2 0x4360 JUMP JUMPDEST POP PUSH1 0x1 ADD PUSH2 0x433D JUMP JUMPDEST POP SWAP1 JUMP JUMPDEST POP DUP1 SLOAD PUSH2 0x436C SWAP1 PUSH2 0x5329 JUMP JUMPDEST PUSH1 0x0 DUP3 SSTORE DUP1 PUSH1 0x1F LT PUSH2 0x437E JUMPI POP PUSH2 0x439D JUMP JUMPDEST PUSH1 0x1F ADD PUSH1 0x20 SWAP1 DIV SWAP1 PUSH1 0x0 MSTORE PUSH1 0x20 PUSH1 0x0 KECCAK256 SWAP1 DUP2 ADD SWAP1 PUSH2 0x439C SWAP2 SWAP1 PUSH2 0x431F JUMP JUMPDEST JUMPDEST POP JUMP JUMPDEST PUSH1 0x0 PUSH2 0x43B3 PUSH2 0x43AE DUP5 PUSH2 0x4FDC JUMP JUMPDEST PUSH2 0x4FB7 JUMP JUMPDEST SWAP1 POP DUP3 DUP2 MSTORE PUSH1 0x20 DUP2 ADD DUP5 DUP5 DUP5 ADD GT ISZERO PUSH2 0x43CF JUMPI PUSH2 0x43CE PUSH2 0x5525 JUMP JUMPDEST JUMPDEST PUSH2 0x43DA DUP5 DUP3 DUP6 PUSH2 0x52BD JUMP JUMPDEST POP SWAP4 SWAP3 POP POP POP JUMP JUMPDEST PUSH1 0x0 DUP2 CALLDATALOAD SWAP1 POP PUSH2 0x43F1 DUP2 PUSH2 0x57C7 JUMP JUMPDEST SWAP3 SWAP2 POP POP JUMP JUMPDEST PUSH1 0x0 DUP2 CALLDATALOAD SWAP1 POP PUSH2 0x4406 DUP2 PUSH2 0x57DE JUMP JUMPDEST SWAP3 SWAP2 POP POP JUMP JUMPDEST PUSH1 0x0 DUP2 CALLDATALOAD SWAP1 POP PUSH2 0x441B DUP2 PUSH2 0x57F5 JUMP JUMPDEST SWAP3 SWAP2 POP POP JUMP JUMPDEST PUSH1 0x0 DUP3 PUSH1 0x1F DUP4 ADD SLT PUSH2 0x4436 JUMPI PUSH2 0x4435 PUSH2 0x5520 JUMP JUMPDEST JUMPDEST DUP2 CALLDATALOAD PUSH2 0x4446 DUP5 DUP3 PUSH1 0x20 DUP7 ADD PUSH2 0x43A0 JUMP JUMPDEST SWAP2 POP POP SWAP3 SWAP2 POP POP JUMP JUMPDEST PUSH1 0x0 DUP2 CALLDATALOAD SWAP1 POP PUSH2 0x445E DUP2 PUSH2 0x5805 JUMP JUMPDEST SWAP3 SWAP2 POP POP JUMP JUMPDEST PUSH1 0x0 PUSH1 0x20 DUP3 DUP5 SUB SLT ISZERO PUSH2 0x447A JUMPI PUSH2 0x4479 PUSH2 0x552F JUMP JUMPDEST JUMPDEST PUSH1 0x0 PUSH2 0x4488 DUP5 DUP3 DUP6 ADD PUSH2 0x43E2 JUMP JUMPDEST SWAP2 POP POP SWAP3 SWAP2 POP POP JUMP JUMPDEST PUSH1 0x0 DUP1 PUSH1 0x0 DUP1 PUSH1 0x80 DUP6 DUP8 SUB SLT ISZERO PUSH2 0x44AB JUMPI PUSH2 0x44AA PUSH2 0x552F JUMP JUMPDEST JUMPDEST PUSH1 0x0 PUSH2 0x44B9 DUP8 DUP3 DUP9 ADD PUSH2 0x43E2 JUMP JUMPDEST SWAP5 POP POP PUSH1 0x20 DUP6 ADD CALLDATALOAD PUSH8 0xFFFFFFFFFFFFFFFF DUP2 GT ISZERO PUSH2 0x44DA JUMPI PUSH2 0x44D9 PUSH2 0x552A JUMP JUMPDEST JUMPDEST PUSH2 0x44E6 DUP8 DUP3 DUP9 ADD PUSH2 0x4421 JUMP JUMPDEST SWAP4 POP POP PUSH1 0x40 DUP6 ADD CALLDATALOAD PUSH8 0xFFFFFFFFFFFFFFFF DUP2 GT ISZERO PUSH2 0x4507 JUMPI PUSH2 0x4506 PUSH2 0x552A JUMP JUMPDEST JUMPDEST PUSH2 0x4513 DUP8 DUP3 DUP9 ADD PUSH2 0x4421 JUMP JUMPDEST SWAP3 POP POP PUSH1 0x60 DUP6 ADD CALLDATALOAD PUSH8 0xFFFFFFFFFFFFFFFF DUP2 GT ISZERO PUSH2 0x4534 JUMPI PUSH2 0x4533 PUSH2 0x552A JUMP JUMPDEST JUMPDEST PUSH2 0x4540 DUP8 DUP3 DUP9 ADD PUSH2 0x4421 JUMP JUMPDEST SWAP2 POP POP SWAP3 SWAP6 SWAP2 SWAP5 POP SWAP3 POP JUMP JUMPDEST PUSH1 0x0 DUP1 PUSH1 0x40 DUP4 DUP6 SUB SLT ISZERO PUSH2 0x4563 JUMPI PUSH2 0x4562 PUSH2 0x552F JUMP JUMPDEST JUMPDEST PUSH1 0x0 PUSH2 0x4571 DUP6 DUP3 DUP7 ADD PUSH2 0x43E2 JUMP JUMPDEST SWAP3 POP POP PUSH1 0x20 PUSH2 0x4582 DUP6 DUP3 DUP7 ADD PUSH2 0x444F JUMP JUMPDEST SWAP2 POP POP SWAP3 POP SWAP3 SWAP1 POP JUMP JUMPDEST PUSH1 0x0 DUP1 PUSH1 0x0 PUSH1 0x60 DUP5 DUP7 SUB SLT ISZERO PUSH2 0x45A5 JUMPI PUSH2 0x45A4 PUSH2 0x552F JUMP JUMPDEST JUMPDEST PUSH1 0x0 PUSH2 0x45B3 DUP7 DUP3 DUP8 ADD PUSH2 0x43E2 JUMP JUMPDEST SWAP4 POP POP PUSH1 0x20 PUSH2 0x45C4 DUP7 DUP3 DUP8 ADD PUSH2 0x444F JUMP JUMPDEST SWAP3 POP POP PUSH1 0x40 PUSH2 0x45D5 DUP7 DUP3 DUP8 ADD PUSH2 0x444F JUMP JUMPDEST SWAP2 POP POP SWAP3 POP SWAP3 POP SWAP3 JUMP JUMPDEST PUSH1 0x0 DUP1 PUSH1 0x0 DUP1 PUSH1 0x0 DUP1 PUSH1 0xC0 DUP8 DUP10 SUB SLT ISZERO PUSH2 0x45FC JUMPI PUSH2 0x45FB PUSH2 0x552F JUMP JUMPDEST JUMPDEST PUSH1 0x0 PUSH2 0x460A DUP10 DUP3 DUP11 ADD PUSH2 0x440C JUMP JUMPDEST SWAP7 POP POP PUSH1 0x20 DUP8 ADD CALLDATALOAD PUSH8 0xFFFFFFFFFFFFFFFF DUP2 GT ISZERO PUSH2 0x462B JUMPI PUSH2 0x462A PUSH2 0x552A JUMP JUMPDEST JUMPDEST PUSH2 0x4637 DUP10 DUP3 DUP11 ADD PUSH2 0x4421 JUMP JUMPDEST SWAP6 POP POP PUSH1 0x40 DUP8 ADD CALLDATALOAD PUSH8 0xFFFFFFFFFFFFFFFF DUP2 GT ISZERO PUSH2 0x4658 JUMPI PUSH2 0x4657 PUSH2 0x552A JUMP JUMPDEST JUMPDEST PUSH2 0x4664 DUP10 DUP3 DUP11 ADD PUSH2 0x4421 JUMP JUMPDEST SWAP5 POP POP PUSH1 0x60 PUSH2 0x4675 DUP10 DUP3 DUP11 ADD PUSH2 0x444F JUMP JUMPDEST SWAP4 POP POP PUSH1 0x80 DUP8 ADD CALLDATALOAD PUSH8 0xFFFFFFFFFFFFFFFF DUP2 GT ISZERO PUSH2 0x4696 JUMPI PUSH2 0x4695 PUSH2 0x552A JUMP JUMPDEST JUMPDEST PUSH2 0x46A2 DUP10 DUP3 DUP11 ADD PUSH2 0x4421 JUMP JUMPDEST SWAP3 POP POP PUSH1 0xA0 PUSH2 0x46B3 DUP10 DUP3 DUP11 ADD PUSH2 0x444F JUMP JUMPDEST SWAP2 POP POP SWAP3 SWAP6 POP SWAP3 SWAP6 POP SWAP3 SWAP6 JUMP JUMPDEST PUSH1 0x0 PUSH1 0x20 DUP3 DUP5 SUB SLT ISZERO PUSH2 0x46D6 JUMPI PUSH2 0x46D5 PUSH2 0x552F JUMP JUMPDEST JUMPDEST PUSH1 0x0 PUSH2 0x46E4 DUP5 DUP3 DUP6 ADD PUSH2 0x444F JUMP JUMPDEST SWAP2 POP POP SWAP3 SWAP2 POP POP JUMP JUMPDEST PUSH1 0x0 DUP1 PUSH1 0x40 DUP4 DUP6 SUB SLT ISZERO PUSH2 0x4704 JUMPI PUSH2 0x4703 PUSH2 0x552F JUMP JUMPDEST JUMPDEST PUSH1 0x0 PUSH2 0x4712 DUP6 DUP3 DUP7 ADD PUSH2 0x444F JUMP JUMPDEST SWAP3 POP POP PUSH1 0x20 PUSH2 0x4723 DUP6 DUP3 DUP7 ADD PUSH2 0x43E2 JUMP JUMPDEST SWAP2 POP POP SWAP3 POP SWAP3 SWAP1 POP JUMP JUMPDEST PUSH1 0x0 DUP1 PUSH1 0x40 DUP4 DUP6 SUB SLT ISZERO PUSH2 0x4744 JUMPI PUSH2 0x4743 PUSH2 0x552F JUMP JUMPDEST JUMPDEST PUSH1 0x0 PUSH2 0x4752 DUP6 DUP3 DUP7 ADD PUSH2 0x444F JUMP JUMPDEST SWAP3 POP POP PUSH1 0x20 PUSH2 0x4763 DUP6 DUP3 DUP7 ADD PUSH2 0x43F7 JUMP JUMPDEST SWAP2 POP POP SWAP3 POP SWAP3 SWAP1 POP JUMP JUMPDEST PUSH1 0x0 PUSH2 0x4779 DUP4 DUP4 PUSH2 0x48C6 JUMP JUMPDEST SWAP1 POP SWAP3 SWAP2 POP POP JUMP JUMPDEST PUSH1 0x0 PUSH2 0x478D DUP4 DUP4 PUSH2 0x4B46 JUMP JUMPDEST PUSH1 0x20 DUP4 ADD SWAP1 POP SWAP3 SWAP2 POP POP JUMP JUMPDEST PUSH2 0x47A2 DUP2 PUSH2 0x51E1 JUMP JUMPDEST DUP3 MSTORE POP POP JUMP JUMPDEST PUSH1 0x0 PUSH2 0x47B3 DUP3 PUSH2 0x5042 JUMP JUMPDEST PUSH2 0x47BD DUP2 DUP6 PUSH2 0x507D JUMP JUMPDEST SWAP4 POP DUP4 PUSH1 0x20 DUP3 MUL DUP6 ADD PUSH2 0x47CF DUP6 PUSH2 0x500D JUMP JUMPDEST DUP1 PUSH1 0x0 JUMPDEST DUP6 DUP2 LT ISZERO PUSH2 0x480B JUMPI DUP5 DUP5 SUB DUP10 MSTORE DUP2 MLOAD PUSH2 0x47EC DUP6 DUP3 PUSH2 0x476D JUMP JUMPDEST SWAP5 POP PUSH2 0x47F7 DUP4 PUSH2 0x5063 JUMP JUMPDEST SWAP3 POP PUSH1 0x20 DUP11 ADD SWAP10 POP POP PUSH1 0x1 DUP2 ADD SWAP1 POP PUSH2 0x47D3 JUMP JUMPDEST POP DUP3 SWAP8 POP DUP8 SWAP6 POP POP POP POP POP POP SWAP3 SWAP2 POP POP JUMP JUMPDEST PUSH1 0x0 PUSH2 0x4828 DUP3 PUSH2 0x504D JUMP JUMPDEST PUSH2 0x4832 DUP2 DUP6 PUSH2 0x508E JUMP JUMPDEST SWAP4 POP PUSH2 0x483D DUP4 PUSH2 0x501D JUMP JUMPDEST DUP1 PUSH1 0x0 JUMPDEST DUP4 DUP2 LT ISZERO PUSH2 0x486E JUMPI DUP2 MLOAD PUSH2 0x4855 DUP9 DUP3 PUSH2 0x4781 JUMP JUMPDEST SWAP8 POP PUSH2 0x4860 DUP4 PUSH2 0x5070 JUMP JUMPDEST SWAP3 POP POP PUSH1 0x1 DUP2 ADD SWAP1 POP PUSH2 0x4841 JUMP JUMPDEST POP DUP6 SWAP4 POP POP POP POP SWAP3 SWAP2 POP POP JUMP JUMPDEST PUSH2 0x4884 DUP2 PUSH2 0x51F3 JUMP JUMPDEST DUP3 MSTORE POP POP JUMP JUMPDEST PUSH2 0x4893 DUP2 PUSH2 0x5275 JUMP JUMPDEST DUP3 MSTORE POP POP JUMP JUMPDEST PUSH2 0x48A2 DUP2 PUSH2 0x5287 JUMP JUMPDEST DUP3 MSTORE POP POP JUMP JUMPDEST PUSH2 0x48B1 DUP2 PUSH2 0x5299 JUMP JUMPDEST DUP3 MSTORE POP POP JUMP JUMPDEST PUSH2 0x48C0 DUP2 PUSH2 0x52AB JUMP JUMPDEST DUP3 MSTORE POP POP JUMP JUMPDEST PUSH1 0x0 PUSH2 0x48D1 DUP3 PUSH2 0x5058 JUMP JUMPDEST PUSH2 0x48DB DUP2 DUP6 PUSH2 0x509F JUMP JUMPDEST SWAP4 POP PUSH2 0x48EB DUP2 DUP6 PUSH1 0x20 DUP7 ADD PUSH2 0x52CC JUMP JUMPDEST PUSH2 0x48F4 DUP2 PUSH2 0x5534 JUMP JUMPDEST DUP5 ADD SWAP2 POP POP SWAP3 SWAP2 POP POP JUMP JUMPDEST PUSH1 0x0 PUSH2 0x490A DUP3 PUSH2 0x5058 JUMP JUMPDEST PUSH2 0x4914 DUP2 DUP6 PUSH2 0x50B0 JUMP JUMPDEST SWAP4 POP PUSH2 0x4924 DUP2 DUP6 PUSH1 0x20 DUP7 ADD PUSH2 0x52CC JUMP JUMPDEST PUSH2 0x492D DUP2 PUSH2 0x5534 JUMP JUMPDEST DUP5 ADD SWAP2 POP POP SWAP3 SWAP2 POP POP JUMP JUMPDEST PUSH1 0x0 PUSH2 0x4943 DUP3 PUSH2 0x5058 JUMP JUMPDEST PUSH2 0x494D DUP2 DUP6 PUSH2 0x50C1 JUMP JUMPDEST SWAP4 POP PUSH2 0x495D DUP2 DUP6 PUSH1 0x20 DUP7 ADD PUSH2 0x52CC JUMP JUMPDEST DUP1 DUP5 ADD SWAP2 POP POP SWAP3 SWAP2 POP POP JUMP JUMPDEST PUSH1 0x0 DUP2 SLOAD PUSH2 0x4976 DUP2 PUSH2 0x5329 JUMP JUMPDEST PUSH2 0x4980 DUP2 DUP7 PUSH2 0x50C1 JUMP JUMPDEST SWAP5 POP PUSH1 0x1 DUP3 AND PUSH1 0x0 DUP2 EQ PUSH2 0x499B JUMPI PUSH1 0x1 DUP2 EQ PUSH2 0x49AC JUMPI PUSH2 0x49DF JUMP JUMPDEST PUSH1 0xFF NOT DUP4 AND DUP7 MSTORE DUP2 DUP7 ADD SWAP4 POP PUSH2 0x49DF JUMP JUMPDEST PUSH2 0x49B5 DUP6 PUSH2 0x502D JUMP JUMPDEST PUSH1 0x0 JUMPDEST DUP4 DUP2 LT ISZERO PUSH2 0x49D7 JUMPI DUP2 SLOAD DUP2 DUP10 ADD MSTORE PUSH1 0x1 DUP3 ADD SWAP2 POP PUSH1 0x20 DUP2 ADD SWAP1 POP PUSH2 0x49B8 JUMP JUMPDEST DUP4 DUP9 ADD SWAP6 POP POP POP JUMPDEST POP POP POP SWAP3 SWAP2 POP POP JUMP JUMPDEST PUSH1 0x0 PUSH2 0x49F5 PUSH1 0x9 DUP4 PUSH2 0x50C1 JUMP JUMPDEST SWAP2 POP PUSH2 0x4A00 DUP3 PUSH2 0x5545 JUMP JUMPDEST PUSH1 0x9 DUP3 ADD SWAP1 POP SWAP2 SWAP1 POP JUMP JUMPDEST PUSH1 0x0 PUSH2 0x4A18 PUSH1 0xC DUP4 PUSH2 0x50C1 JUMP JUMPDEST SWAP2 POP PUSH2 0x4A23 DUP3 PUSH2 0x556E JUMP JUMPDEST PUSH1 0xC DUP3 ADD SWAP1 POP SWAP2 SWAP1 POP JUMP JUMPDEST PUSH1 0x0 PUSH2 0x4A3B PUSH1 0x32 DUP4 PUSH2 0x50B0 JUMP JUMPDEST SWAP2 POP PUSH2 0x4A46 DUP3 PUSH2 0x5597 JUMP JUMPDEST PUSH1 0x40 DUP3 ADD SWAP1 POP SWAP2 SWAP1 POP JUMP JUMPDEST PUSH1 0x0 PUSH2 0x4A5E PUSH1 0xB DUP4 PUSH2 0x50C1 JUMP JUMPDEST SWAP2 POP PUSH2 0x4A69 DUP3 PUSH2 0x55E6 JUMP JUMPDEST PUSH1 0xB DUP3 ADD SWAP1 POP SWAP2 SWAP1 POP JUMP JUMPDEST PUSH1 0x0 PUSH2 0x4A81 PUSH1 0x9 DUP4 PUSH2 0x50B0 JUMP JUMPDEST SWAP2 POP PUSH2 0x4A8C DUP3 PUSH2 0x560F JUMP JUMPDEST PUSH1 0x20 DUP3 ADD SWAP1 POP SWAP2 SWAP1 POP JUMP JUMPDEST PUSH1 0x0 PUSH2 0x4AA4 PUSH1 0x21 DUP4 PUSH2 0x50B0 JUMP JUMPDEST SWAP2 POP PUSH2 0x4AAF DUP3 PUSH2 0x5638 JUMP JUMPDEST PUSH1 0x40 DUP3 ADD SWAP1 POP SWAP2 SWAP1 POP JUMP JUMPDEST PUSH1 0x0 PUSH2 0x4AC7 PUSH1 0x23 DUP4 PUSH2 0x50B0 JUMP JUMPDEST SWAP2 POP PUSH2 0x4AD2 DUP3 PUSH2 0x5687 JUMP JUMPDEST PUSH1 0x40 DUP3 ADD SWAP1 POP SWAP2 SWAP1 POP JUMP JUMPDEST PUSH1 0x0 PUSH2 0x4AEA PUSH1 0x21 DUP4 PUSH2 0x50C1 JUMP JUMPDEST SWAP2 POP PUSH2 0x4AF5 DUP3 PUSH2 0x56D6 JUMP JUMPDEST PUSH1 0x21 DUP3 ADD SWAP1 POP SWAP2 SWAP1 POP JUMP JUMPDEST PUSH1 0x0 PUSH2 0x4B0D PUSH1 0x19 DUP4 PUSH2 0x50C1 JUMP JUMPDEST SWAP2 POP PUSH2 0x4B18 DUP3 PUSH2 0x5725 JUMP JUMPDEST PUSH1 0x19 DUP3 ADD SWAP1 POP SWAP2 SWAP1 POP JUMP JUMPDEST PUSH1 0x0 PUSH2 0x4B30 PUSH1 0xB DUP4 PUSH2 0x50C1 JUMP JUMPDEST SWAP2 POP PUSH2 0x4B3B DUP3 PUSH2 0x574E JUMP JUMPDEST PUSH1 0xB DUP3 ADD SWAP1 POP SWAP2 SWAP1 POP JUMP JUMPDEST PUSH2 0x4B4F DUP2 PUSH2 0x526B JUMP JUMPDEST DUP3 MSTORE POP POP JUMP JUMPDEST PUSH2 0x4B5E DUP2 PUSH2 0x526B JUMP JUMPDEST DUP3 MSTORE POP POP JUMP JUMPDEST PUSH1 0x0 PUSH2 0x4B6F DUP3 PUSH2 0x4A0B JUMP JUMPDEST SWAP2 POP PUSH2 0x4B7B DUP3 DUP6 PUSH2 0x4938 JUMP JUMPDEST SWAP2 POP PUSH2 0x4B86 DUP3 PUSH2 0x4A51 JUMP JUMPDEST SWAP2 POP PUSH2 0x4B92 DUP3 DUP5 PUSH2 0x4969 JUMP JUMPDEST SWAP2 POP DUP2 SWAP1 POP SWAP4 SWAP3 POP POP POP JUMP JUMPDEST PUSH1 0x0 PUSH2 0x4BA9 DUP3 PUSH2 0x4ADD JUMP JUMPDEST SWAP2 POP PUSH2 0x4BB5 DUP3 DUP7 PUSH2 0x4938 JUMP JUMPDEST SWAP2 POP PUSH2 0x4BC0 DUP3 PUSH2 0x49E8 JUMP JUMPDEST SWAP2 POP PUSH2 0x4BCC DUP3 DUP6 PUSH2 0x4938 JUMP JUMPDEST SWAP2 POP PUSH2 0x4BD7 DUP3 PUSH2 0x4A51 JUMP JUMPDEST SWAP2 POP PUSH2 0x4BE3 DUP3 DUP5 PUSH2 0x4938 JUMP JUMPDEST SWAP2 POP DUP2 SWAP1 POP SWAP5 SWAP4 POP POP POP POP JUMP JUMPDEST PUSH1 0x0 PUSH2 0x4BFB DUP3 PUSH2 0x4B00 JUMP JUMPDEST SWAP2 POP PUSH2 0x4C07 DUP3 DUP5 PUSH2 0x4938 JUMP JUMPDEST SWAP2 POP DUP2 SWAP1 POP SWAP3 SWAP2 POP POP JUMP JUMPDEST PUSH1 0x0 PUSH2 0x4C1D DUP3 PUSH2 0x4B23 JUMP JUMPDEST SWAP2 POP PUSH2 0x4C29 DUP3 DUP5 PUSH2 0x4938 JUMP JUMPDEST SWAP2 POP DUP2 SWAP1 POP SWAP3 SWAP2 POP POP JUMP JUMPDEST PUSH1 0x0 PUSH1 0xC0 DUP3 ADD SWAP1 POP PUSH2 0x4C49 PUSH1 0x0 DUP4 ADD DUP10 PUSH2 0x4799 JUMP JUMPDEST DUP2 DUP2 SUB PUSH1 0x20 DUP4 ADD MSTORE PUSH2 0x4C5B DUP2 DUP9 PUSH2 0x48FF JUMP JUMPDEST SWAP1 POP DUP2 DUP2 SUB PUSH1 0x40 DUP4 ADD MSTORE PUSH2 0x4C6F DUP2 DUP8 PUSH2 0x48FF JUMP JUMPDEST SWAP1 POP DUP2 DUP2 SUB PUSH1 0x60 DUP4 ADD MSTORE PUSH2 0x4C83 DUP2 DUP7 PUSH2 0x47A8 JUMP JUMPDEST SWAP1 POP PUSH2 0x4C92 PUSH1 0x80 DUP4 ADD DUP6 PUSH2 0x4B55 JUMP JUMPDEST PUSH2 0x4C9F PUSH1 0xA0 DUP4 ADD DUP5 PUSH2 0x4B55 JUMP JUMPDEST SWAP8 SWAP7 POP POP POP POP POP POP POP JUMP JUMPDEST PUSH1 0x0 PUSH1 0x20 DUP3 ADD SWAP1 POP DUP2 DUP2 SUB PUSH1 0x0 DUP4 ADD MSTORE PUSH2 0x4CC4 DUP2 DUP5 PUSH2 0x481D JUMP JUMPDEST SWAP1 POP SWAP3 SWAP2 POP POP JUMP JUMPDEST PUSH1 0x0 PUSH1 0x20 DUP3 ADD SWAP1 POP PUSH2 0x4CE1 PUSH1 0x0 DUP4 ADD DUP5 PUSH2 0x487B JUMP JUMPDEST SWAP3 SWAP2 POP POP JUMP JUMPDEST PUSH1 0x0 PUSH1 0x80 DUP3 ADD SWAP1 POP PUSH2 0x4CFC PUSH1 0x0 DUP4 ADD DUP8 PUSH2 0x487B JUMP JUMPDEST PUSH2 0x4D09 PUSH1 0x20 DUP4 ADD DUP7 PUSH2 0x487B JUMP JUMPDEST PUSH2 0x4D16 PUSH1 0x40 DUP4 ADD DUP6 PUSH2 0x4B55 JUMP JUMPDEST PUSH2 0x4D23 PUSH1 0x60 DUP4 ADD DUP5 PUSH2 0x4B55 JUMP JUMPDEST SWAP6 SWAP5 POP POP POP POP POP JUMP JUMPDEST PUSH1 0x0 PUSH2 0x160 DUP3 ADD SWAP1 POP PUSH2 0x4D42 PUSH1 0x0 DUP4 ADD DUP15 PUSH2 0x4899 JUMP JUMPDEST PUSH2 0x4D4F PUSH1 0x20 DUP4 ADD DUP14 PUSH2 0x48B7 JUMP JUMPDEST PUSH2 0x4D5C PUSH1 0x40 DUP4 ADD DUP13 PUSH2 0x4B55 JUMP JUMPDEST PUSH2 0x4D69 PUSH1 0x60 DUP4 ADD DUP12 PUSH2 0x4B55 JUMP JUMPDEST DUP2 DUP2 SUB PUSH1 0x80 DUP4 ADD MSTORE PUSH2 0x4D7B DUP2 DUP11 PUSH2 0x48FF JUMP JUMPDEST SWAP1 POP DUP2 DUP2 SUB PUSH1 0xA0 DUP4 ADD MSTORE PUSH2 0x4D8F DUP2 DUP10 PUSH2 0x48FF JUMP JUMPDEST SWAP1 POP PUSH2 0x4D9E PUSH1 0xC0 DUP4 ADD DUP9 PUSH2 0x4B55 JUMP JUMPDEST DUP2 DUP2 SUB PUSH1 0xE0 DUP4 ADD MSTORE PUSH2 0x4DB0 DUP2 DUP8 PUSH2 0x48FF JUMP JUMPDEST SWAP1 POP PUSH2 0x4DC0 PUSH2 0x100 DUP4 ADD DUP7 PUSH2 0x4B55 JUMP JUMPDEST PUSH2 0x4DCE PUSH2 0x120 DUP4 ADD DUP6 PUSH2 0x4B55 JUMP JUMPDEST PUSH2 0x4DDC PUSH2 0x140 DUP4 ADD DUP5 PUSH2 0x4B55 JUMP JUMPDEST SWAP13 SWAP12 POP POP POP POP POP POP POP POP POP POP POP POP JUMP JUMPDEST PUSH1 0x0 PUSH1 0x20 DUP3 ADD SWAP1 POP DUP2 DUP2 SUB PUSH1 0x0 DUP4 ADD MSTORE PUSH2 0x4E06 DUP2 DUP5 PUSH2 0x48FF JUMP JUMPDEST SWAP1 POP SWAP3 SWAP2 POP POP JUMP JUMPDEST PUSH1 0x0 PUSH1 0x20 DUP3 ADD SWAP1 POP DUP2 DUP2 SUB PUSH1 0x0 DUP4 ADD MSTORE PUSH2 0x4E27 DUP2 PUSH2 0x4A2E JUMP JUMPDEST SWAP1 POP SWAP2 SWAP1 POP JUMP JUMPDEST PUSH1 0x0 PUSH1 0x20 DUP3 ADD SWAP1 POP DUP2 DUP2 SUB PUSH1 0x0 DUP4 ADD MSTORE PUSH2 0x4E47 DUP2 PUSH2 0x4A74 JUMP JUMPDEST SWAP1 POP SWAP2 SWAP1 POP JUMP JUMPDEST PUSH1 0x0 PUSH1 0x20 DUP3 ADD SWAP1 POP DUP2 DUP2 SUB PUSH1 0x0 DUP4 ADD MSTORE PUSH2 0x4E67 DUP2 PUSH2 0x4A97 JUMP JUMPDEST SWAP1 POP SWAP2 SWAP1 POP JUMP JUMPDEST PUSH1 0x0 PUSH1 0x20 DUP3 ADD SWAP1 POP DUP2 DUP2 SUB PUSH1 0x0 DUP4 ADD MSTORE PUSH2 0x4E87 DUP2 PUSH2 0x4ABA JUMP JUMPDEST SWAP1 POP SWAP2 SWAP1 POP JUMP JUMPDEST PUSH1 0x0 PUSH1 0x20 DUP3 ADD SWAP1 POP PUSH2 0x4EA3 PUSH1 0x0 DUP4 ADD DUP5 PUSH2 0x4B55 JUMP JUMPDEST SWAP3 SWAP2 POP POP JUMP JUMPDEST PUSH1 0x0 PUSH1 0xE0 DUP3 ADD SWAP1 POP PUSH2 0x4EBE PUSH1 0x0 DUP4 ADD DUP11 PUSH2 0x4B55 JUMP JUMPDEST PUSH2 0x4ECB PUSH1 0x20 DUP4 ADD DUP10 PUSH2 0x4799 JUMP JUMPDEST DUP2 DUP2 SUB PUSH1 0x40 DUP4 ADD MSTORE PUSH2 0x4EDD DUP2 DUP9 PUSH2 0x48FF JUMP JUMPDEST SWAP1 POP DUP2 DUP2 SUB PUSH1 0x60 DUP4 ADD MSTORE PUSH2 0x4EF1 DUP2 DUP8 PUSH2 0x48FF JUMP JUMPDEST SWAP1 POP DUP2 DUP2 SUB PUSH1 0x80 DUP4 ADD MSTORE PUSH2 0x4F05 DUP2 DUP7 PUSH2 0x48FF JUMP JUMPDEST SWAP1 POP PUSH2 0x4F14 PUSH1 0xA0 DUP4 ADD DUP6 PUSH2 0x4B55 JUMP JUMPDEST PUSH2 0x4F21 PUSH1 0xC0 DUP4 ADD DUP5 PUSH2 0x48A8 JUMP JUMPDEST SWAP9 SWAP8 POP POP POP POP POP POP POP POP JUMP JUMPDEST PUSH1 0x0 PUSH1 0x40 DUP3 ADD SWAP1 POP PUSH2 0x4F42 PUSH1 0x0 DUP4 ADD DUP6 PUSH2 0x4B55 JUMP JUMPDEST PUSH2 0x4F4F PUSH1 0x20 DUP4 ADD DUP5 PUSH2 0x4B55 JUMP JUMPDEST SWAP4 SWAP3 POP POP POP JUMP JUMPDEST PUSH1 0x0 PUSH1 0xC0 DUP3 ADD SWAP1 POP PUSH2 0x4F6B PUSH1 0x0 DUP4 ADD DUP10 PUSH2 0x4B55 JUMP JUMPDEST PUSH2 0x4F78 PUSH1 0x20 DUP4 ADD DUP9 PUSH2 0x4B55 JUMP JUMPDEST PUSH2 0x4F85 PUSH1 0x40 DUP4 ADD DUP8 PUSH2 0x4B55 JUMP JUMPDEST PUSH2 0x4F92 PUSH1 0x60 DUP4 ADD DUP7 PUSH2 0x4B55 JUMP JUMPDEST PUSH2 0x4F9F PUSH1 0x80 DUP4 ADD DUP6 PUSH2 0x4B55 JUMP JUMPDEST PUSH2 0x4FAC PUSH1 0xA0 DUP4 ADD DUP5 PUSH2 0x488A JUMP JUMPDEST SWAP8 SWAP7 POP POP POP POP POP POP POP JUMP JUMPDEST PUSH1 0x0 PUSH2 0x4FC1 PUSH2 0x4FD2 JUMP JUMPDEST SWAP1 POP PUSH2 0x4FCD DUP3 DUP3 PUSH2 0x535B JUMP JUMPDEST SWAP2 SWAP1 POP JUMP JUMPDEST PUSH1 0x0 PUSH1 0x40 MLOAD SWAP1 POP SWAP1 JUMP JUMPDEST PUSH1 0x0 PUSH8 0xFFFFFFFFFFFFFFFF DUP3 GT ISZERO PUSH2 0x4FF7 JUMPI PUSH2 0x4FF6 PUSH2 0x54F1 JUMP JUMPDEST JUMPDEST PUSH2 0x5000 DUP3 PUSH2 0x5534 JUMP JUMPDEST SWAP1 POP PUSH1 0x20 DUP2 ADD SWAP1 POP SWAP2 SWAP1 POP JUMP JUMPDEST PUSH1 0x0 DUP2 SWAP1 POP PUSH1 0x20 DUP3 ADD SWAP1 POP SWAP2 SWAP1 POP JUMP JUMPDEST PUSH1 0x0 DUP2 SWAP1 POP PUSH1 0x20 DUP3 ADD SWAP1 POP SWAP2 SWAP1 POP JUMP JUMPDEST PUSH1 0x0 DUP2 SWAP1 POP DUP2 PUSH1 0x0 MSTORE PUSH1 0x20 PUSH1 0x0 KECCAK256 SWAP1 POP SWAP2 SWAP1 POP JUMP JUMPDEST PUSH1 0x0 DUP2 MLOAD SWAP1 POP SWAP2 SWAP1 POP JUMP JUMPDEST PUSH1 0x0 DUP2 MLOAD SWAP1 POP SWAP2 SWAP1 POP JUMP JUMPDEST PUSH1 0x0 DUP2 MLOAD SWAP1 POP SWAP2 SWAP1 POP JUMP JUMPDEST PUSH1 0x0 PUSH1 0x20 DUP3 ADD SWAP1 POP SWAP2 SWAP1 POP JUMP JUMPDEST PUSH1 0x0 PUSH1 0x20 DUP3 ADD SWAP1 POP SWAP2 SWAP1 POP JUMP JUMPDEST PUSH1 0x0 DUP3 DUP3 MSTORE PUSH1 0x20 DUP3 ADD SWAP1 POP SWAP3 SWAP2 POP POP JUMP JUMPDEST PUSH1 0x0 DUP3 DUP3 MSTORE PUSH1 0x20 DUP3 ADD SWAP1 POP SWAP3 SWAP2 POP POP JUMP JUMPDEST PUSH1 0x0 DUP3 DUP3 MSTORE PUSH1 0x20 DUP3 ADD SWAP1 POP SWAP3 SWAP2 POP POP JUMP JUMPDEST PUSH1 0x0 DUP3 DUP3 MSTORE PUSH1 0x20 DUP3 ADD SWAP1 POP SWAP3 SWAP2 POP POP JUMP JUMPDEST PUSH1 0x0 DUP2 SWAP1 POP SWAP3 SWAP2 POP POP JUMP JUMPDEST PUSH1 0x0 PUSH2 0x50D7 DUP3 PUSH2 0x526B JUMP JUMPDEST SWAP2 POP PUSH2 0x50E2 DUP4 PUSH2 0x526B JUMP JUMPDEST SWAP3 POP DUP3 PUSH32 0xFFFFFFFFFFFFFFFFFFFFFFFFFFFFFFFFFFFFFFFFFFFFFFFFFFFFFFFFFFFFFFFF SUB DUP3 GT ISZERO PUSH2 0x5117 JUMPI PUSH2 0x5116 PUSH2 0x5406 JUMP JUMPDEST JUMPDEST DUP3 DUP3 ADD SWAP1 POP SWAP3 SWAP2 POP POP JUMP JUMPDEST PUSH1 0x0 PUSH2 0x512D DUP3 PUSH2 0x526B JUMP JUMPDEST SWAP2 POP PUSH2 0x5138 DUP4 PUSH2 0x526B JUMP JUMPDEST SWAP3 POP DUP3 PUSH2 0x5148 JUMPI PUSH2 0x5147 PUSH2 0x5435 JUMP JUMPDEST JUMPDEST DUP3 DUP3 DIV SWAP1 POP SWAP3 SWAP2 POP POP JUMP JUMPDEST PUSH1 0x0 PUSH2 0x515E DUP3 PUSH2 0x526B JUMP JUMPDEST SWAP2 POP PUSH2 0x5169 DUP4 PUSH2 0x526B JUMP JUMPDEST SWAP3 POP DUP2 PUSH32 0xFFFFFFFFFFFFFFFFFFFFFFFFFFFFFFFFFFFFFFFFFFFFFFFFFFFFFFFFFFFFFFFF DIV DUP4 GT DUP3 ISZERO ISZERO AND ISZERO PUSH2 0x51A2 JUMPI PUSH2 0x51A1 PUSH2 0x5406 JUMP JUMPDEST JUMPDEST DUP3 DUP3 MUL SWAP1 POP SWAP3 SWAP2 POP POP JUMP JUMPDEST PUSH1 0x0 PUSH2 0x51B8 DUP3 PUSH2 0x526B JUMP JUMPDEST SWAP2 POP PUSH2 0x51C3 DUP4 PUSH2 0x526B JUMP JUMPDEST SWAP3 POP DUP3 DUP3 LT ISZERO PUSH2 0x51D6 JUMPI PUSH2 0x51D5 PUSH2 0x5406 JUMP JUMPDEST JUMPDEST DUP3 DUP3 SUB SWAP1 POP SWAP3 SWAP2 POP POP JUMP JUMPDEST PUSH1 0x0 PUSH2 0x51EC DUP3 PUSH2 0x524B JUMP JUMPDEST SWAP1 POP SWAP2 SWAP1 POP JUMP JUMPDEST PUSH1 0x0 DUP2 ISZERO ISZERO SWAP1 POP SWAP2 SWAP1 POP JUMP JUMPDEST PUSH1 0x0 DUP2 SWAP1 POP PUSH2 0x520D DUP3 PUSH2 0x5777 JUMP JUMPDEST SWAP2 SWAP1 POP JUMP JUMPDEST PUSH1 0x0 DUP2 SWAP1 POP PUSH2 0x5220 DUP3 PUSH2 0x578B JUMP JUMPDEST SWAP2 SWAP1 POP JUMP JUMPDEST PUSH1 0x0 DUP2 SWAP1 POP PUSH2 0x5233 DUP3 PUSH2 0x579F JUMP JUMPDEST SWAP2 SWAP1 POP JUMP JUMPDEST PUSH1 0x0 DUP2 SWAP1 POP PUSH2 0x5246 DUP3 PUSH2 0x57B3 JUMP JUMPDEST SWAP2 SWAP1 POP JUMP JUMPDEST PUSH1 0x0 PUSH20 0xFFFFFFFFFFFFFFFFFFFFFFFFFFFFFFFFFFFFFFFF DUP3 AND SWAP1 POP SWAP2 SWAP1 POP JUMP JUMPDEST PUSH1 0x0 DUP2 SWAP1 POP SWAP2 SWAP1 POP JUMP JUMPDEST PUSH1 0x0 PUSH2 0x5280 DUP3 PUSH2 0x51FF JUMP JUMPDEST SWAP1 POP SWAP2 SWAP1 POP JUMP JUMPDEST PUSH1 0x0 PUSH2 0x5292 DUP3 PUSH2 0x5212 JUMP JUMPDEST SWAP1 POP SWAP2 SWAP1 POP JUMP JUMPDEST PUSH1 0x0 PUSH2 0x52A4 DUP3 PUSH2 0x5225 JUMP JUMPDEST SWAP1 POP SWAP2 SWAP1 POP JUMP JUMPDEST PUSH1 0x0 PUSH2 0x52B6 DUP3 PUSH2 0x5238 JUMP JUMPDEST SWAP1 POP SWAP2 SWAP1 POP JUMP JUMPDEST DUP3 DUP2 DUP4 CALLDATACOPY PUSH1 0x0 DUP4 DUP4 ADD MSTORE POP POP POP JUMP JUMPDEST PUSH1 0x0 JUMPDEST DUP4 DUP2 LT ISZERO PUSH2 0x52EA JUMPI DUP1 DUP3 ADD MLOAD DUP2 DUP5 ADD MSTORE PUSH1 0x20 DUP2 ADD SWAP1 POP PUSH2 0x52CF JUMP JUMPDEST DUP4 DUP2 GT ISZERO PUSH2 0x52F9 JUMPI PUSH1 0x0 DUP5 DUP5 ADD MSTORE JUMPDEST POP POP POP POP JUMP JUMPDEST PUSH1 0x0 PUSH2 0x530A DUP3 PUSH2 0x526B JUMP JUMPDEST SWAP2 POP PUSH1 0x0 DUP3 EQ ISZERO PUSH2 0x531E JUMPI PUSH2 0x531D PUSH2 0x5406 JUMP JUMPDEST JUMPDEST PUSH1 0x1 DUP3 SUB SWAP1 POP SWAP2 SWAP1 POP JUMP JUMPDEST PUSH1 0x0 PUSH1 0x2 DUP3 DIV SWAP1 POP PUSH1 0x1 DUP3 AND DUP1 PUSH2 0x5341 JUMPI PUSH1 0x7F DUP3 AND SWAP2 POP JUMPDEST PUSH1 0x20 DUP3 LT DUP2 EQ ISZERO PUSH2 0x5355 JUMPI PUSH2 0x5354 PUSH2 0x5493 JUMP JUMPDEST JUMPDEST POP SWAP2 SWAP1 POP JUMP JUMPDEST PUSH2 0x5364 DUP3 PUSH2 0x5534 JUMP JUMPDEST DUP2 ADD DUP2 DUP2 LT PUSH8 0xFFFFFFFFFFFFFFFF DUP3 GT OR ISZERO PUSH2 0x5383 JUMPI PUSH2 0x5382 PUSH2 0x54F1 JUMP JUMPDEST JUMPDEST DUP1 PUSH1 0x40 MSTORE POP POP POP JUMP JUMPDEST PUSH1 0x0 PUSH2 0x5397 DUP3 PUSH2 0x526B JUMP JUMPDEST SWAP2 POP PUSH32 0xFFFFFFFFFFFFFFFFFFFFFFFFFFFFFFFFFFFFFFFFFFFFFFFFFFFFFFFFFFFFFFFF DUP3 EQ ISZERO PUSH2 0x53CA JUMPI PUSH2 0x53C9 PUSH2 0x5406 JUMP JUMPDEST JUMPDEST PUSH1 0x1 DUP3 ADD SWAP1 POP SWAP2 SWAP1 POP JUMP JUMPDEST PUSH1 0x0 PUSH2 0x53E0 DUP3 PUSH2 0x526B JUMP JUMPDEST SWAP2 POP PUSH2 0x53EB DUP4 PUSH2 0x526B JUMP JUMPDEST SWAP3 POP DUP3 PUSH2 0x53FB JUMPI PUSH2 0x53FA PUSH2 0x5435 JUMP JUMPDEST JUMPDEST DUP3 DUP3 MOD SWAP1 POP SWAP3 SWAP2 POP POP JUMP JUMPDEST PUSH32 0x4E487B7100000000000000000000000000000000000000000000000000000000 PUSH1 0x0 MSTORE PUSH1 0x11 PUSH1 0x4 MSTORE PUSH1 0x24 PUSH1 0x0 REVERT JUMPDEST PUSH32 0x4E487B7100000000000000000000000000000000000000000000000000000000 PUSH1 0x0 MSTORE PUSH1 0x12 PUSH1 0x4 MSTORE PUSH1 0x24 PUSH1 0x0 REVERT JUMPDEST PUSH32 0x4E487B7100000000000000000000000000000000000000000000000000000000 PUSH1 0x0 MSTORE PUSH1 0x21 PUSH1 0x4 MSTORE PUSH1 0x24 PUSH1 0x0 REVERT JUMPDEST PUSH32 0x4E487B7100000000000000000000000000000000000000000000000000000000 PUSH1 0x0 MSTORE PUSH1 0x22 PUSH1 0x4 MSTORE PUSH1 0x24 PUSH1 0x0 REVERT JUMPDEST PUSH32 0x4E487B7100000000000000000000000000000000000000000000000000000000 PUSH1 0x0 MSTORE PUSH1 0x32 PUSH1 0x4 MSTORE PUSH1 0x24 PUSH1 0x0 REVERT JUMPDEST PUSH32 0x4E487B7100000000000000000000000000000000000000000000000000000000 PUSH1 0x0 MSTORE PUSH1 0x41 PUSH1 0x4 MSTORE PUSH1 0x24 PUSH1 0x0 REVERT JUMPDEST PUSH1 0x0 DUP1 REVERT JUMPDEST PUSH1 0x0 DUP1 REVERT JUMPDEST PUSH1 0x0 DUP1 REVERT JUMPDEST PUSH1 0x0 DUP1 REVERT JUMPDEST PUSH1 0x0 PUSH1 0x1F NOT PUSH1 0x1F DUP4 ADD AND SWAP1 POP SWAP2 SWAP1 POP JUMP JUMPDEST PUSH32 0x3F3F3F2070617261200000000000000000000000000000000000000000000000 PUSH1 0x0 DUP3 ADD MSTORE POP JUMP JUMPDEST PUSH32 0x496E636C7573616F20646F200000000000000000000000000000000000000000 PUSH1 0x0 DUP3 ADD MSTORE POP JUMP JUMPDEST PUSH32 0x4170656E617320736F63696F7320617469766F7320706F64656D206164696369 PUSH1 0x0 DUP3 ADD MSTORE PUSH32 0x6F6E6172206E6F766F7320736F63696F73210000000000000000000000000000 PUSH1 0x20 DUP3 ADD MSTORE POP JUMP JUMPDEST PUSH32 0x20666569746120706F7220000000000000000000000000000000000000000000 PUSH1 0x0 DUP3 ADD MSTORE POP JUMP JUMPDEST PUSH32 0x4A6120766F746F75210000000000000000000000000000000000000000000000 PUSH1 0x0 DUP3 ADD MSTORE POP JUMP JUMPDEST PUSH32 0x4170656E617320736F63696F7320617469766F7320706F64656D20766F746172 PUSH1 0x0 DUP3 ADD MSTORE PUSH32 0x2100000000000000000000000000000000000000000000000000000000000000 PUSH1 0x20 DUP3 ADD MSTORE POP JUMP JUMPDEST PUSH32 0x4170656E617320736F63696F7320706F64656D207265636562657220746F6B65 PUSH1 0x0 DUP3 ADD MSTORE PUSH32 0x6E73210000000000000000000000000000000000000000000000000000000000 PUSH1 0x20 DUP3 ADD MSTORE POP JUMP JUMPDEST PUSH32 0x496E636C7573616F20646520636F6E747261746F20646520546F6B656E206465 PUSH1 0x0 DUP3 ADD MSTORE PUSH32 0x2000000000000000000000000000000000000000000000000000000000000000 PUSH1 0x20 DUP3 ADD MSTORE POP JUMP JUMPDEST PUSH32 0x4D6F76696D656E746163616F2066696E616E63656972613A2000000000000000 PUSH1 0x0 DUP3 ADD MSTORE POP JUMP JUMPDEST PUSH32 0x44657363726963616F3A20000000000000000000000000000000000000000000 PUSH1 0x0 DUP3 ADD MSTORE POP JUMP JUMPDEST PUSH1 0x4 DUP2 LT PUSH2 0x5788 JUMPI PUSH2 0x5787 PUSH2 0x5464 JUMP JUMPDEST JUMPDEST POP JUMP JUMPDEST PUSH1 0x5 DUP2 LT PUSH2 0x579C JUMPI PUSH2 0x579B PUSH2 0x5464 JUMP JUMPDEST JUMPDEST POP JUMP JUMPDEST PUSH1 0x5 DUP2 LT PUSH2 0x57B0 JUMPI PUSH2 0x57AF PUSH2 0x5464 JUMP JUMPDEST JUMPDEST POP JUMP JUMPDEST PUSH1 0x2 DUP2 LT PUSH2 0x57C4 JUMPI PUSH2 0x57C3 PUSH2 0x5464 JUMP JUMPDEST JUMPDEST POP JUMP JUMPDEST PUSH2 0x57D0 DUP2 PUSH2 0x51E1 JUMP JUMPDEST DUP2 EQ PUSH2 0x57DB JUMPI PUSH1 0x0 DUP1 REVERT JUMPDEST POP JUMP JUMPDEST PUSH2 0x57E7 DUP2 PUSH2 0x51F3 JUMP JUMPDEST DUP2 EQ PUSH2 0x57F2 JUMPI PUSH1 0x0 DUP1 REVERT JUMPDEST POP JUMP JUMPDEST PUSH1 0x2 DUP2 LT PUSH2 0x5802 JUMPI PUSH1 0x0 DUP1 REVERT JUMPDEST POP JUMP JUMPDEST PUSH2 0x580E DUP2 PUSH2 0x526B JUMP JUMPDEST DUP2 EQ PUSH2 0x5819 JUMPI PUSH1 0x0 DUP1 REVERT JUMPDEST POP JUMP INVALID LOG2 PUSH5 0x6970667358 0x22 SLT KECCAK256 PUSH2 0xBE0F 0xD2 SUB 0xD2 PUSH1 0xA4 SELFDESTRUCT PUSH17 0x60F80AE515BEEED647B7E48D474FA35D14 0xC2 0xC5 PUSH2 0x9B06 PUSH5 0x736F6C6343 STOP ADDMOD SMOD STOP CALLER "
		},
		"gasEstimates": {
			"creation": {
				"codeDepositCost": "4522000",
				"executionCost": "infinite",
				"totalCost": "infinite"
			},
			"external": {
				"AddContratoToken(address,uint256,uint256)": "infinite",
				"AddMovimentacaoFinanceira(uint8,string,string,uint256,string,uint256)": "infinite",
				"AddSocio(address,string,string,string)": "infinite",
				"EfetivarLancamento(uint256)": "infinite",
				"EfetivarVotacaoSocio(uint256)": "infinite",
				"EfetivarVotacaoToken(uint256)": "infinite",
				"GetContratoToken(uint256)": "infinite",
				"GetContratosToken()": "infinite",
				"GetCotacaoToken()": "infinite",
				"GetEnumStatusMovimentacaoFinanceira(uint256)": "infinite",
				"GetEnumTipoMovimentacaoFinanceira(uint256)": "infinite",
				"GetMovimentacaoFinanceira(uint256)": "infinite",
				"GetMovimentacoesFinanceira()": "infinite",
				"GetMovimentacoesFinanceirasPendentesEfetivacao()": "infinite",
				"GetPropostaVotacao(uint256)": "infinite",
				"GetResultadoVotacao(uint256)": "infinite",
				"GetSaldoFundoTokens()": "2483",
				"GetSocio(uint256)": "infinite",
				"GetSocios()": "infinite",
				"GetTokensPorSocio(address)": "infinite",
				"GetTokensPorSocioPorData(address,uint256)": "infinite",
				"GetTotalTokens()": "infinite",
				"GetTotalTokensPorData(uint256)": "infinite",
				"GetVotacoesAbertas()": "infinite",
				"JaVotou(uint256,address)": "infinite",
				"LiquidarToken(uint256)": "infinite",
				"SocioAtivo(address)": "infinite",
				"SociosPendentes()": "infinite",
				"Votar(uint256,bool)": "infinite",
				"uintToString(uint256)": "infinite"
			}
		},
		"methodIdentifiers": {
			"AddContratoToken(address,uint256,uint256)": "e484018a",
			"AddMovimentacaoFinanceira(uint8,string,string,uint256,string,uint256)": "66e15fa6",
			"AddSocio(address,string,string,string)": "baeee9ed",
			"EfetivarLancamento(uint256)": "d6fcbe6c",
			"EfetivarVotacaoSocio(uint256)": "3fc62a26",
			"EfetivarVotacaoToken(uint256)": "1059ead1",
			"GetContratoToken(uint256)": "fb84a1d8",
			"GetContratosToken()": "315fbd89",
			"GetCotacaoToken()": "35010d78",
			"GetEnumStatusMovimentacaoFinanceira(uint256)": "d388fb7c",
			"GetEnumTipoMovimentacaoFinanceira(uint256)": "0b12c493",
			"GetMovimentacaoFinanceira(uint256)": "78555cf8",
			"GetMovimentacoesFinanceira()": "4012ec96",
			"GetMovimentacoesFinanceirasPendentesEfetivacao()": "d41b47d3",
			"GetPropostaVotacao(uint256)": "69512a07",
			"GetResultadoVotacao(uint256)": "2ccdab8a",
			"GetSaldoFundoTokens()": "38dc2de5",
			"GetSocio(uint256)": "965cfb5c",
			"GetSocios()": "f2a6fc46",
			"GetTokensPorSocio(address)": "b03ef5aa",
			"GetTokensPorSocioPorData(address,uint256)": "37b8ec5f",
			"GetTotalTokens()": "c65d10c0",
			"GetTotalTokensPorData(uint256)": "81b2664a",
			"GetVotacoesAbertas()": "b2f5f56d",
			"JaVotou(uint256,address)": "362f1367",
			"LiquidarToken(uint256)": "d27eaa93",
			"SocioAtivo(address)": "b3c6e789",
			"SociosPendentes()": "5ff9ed87",
			"Votar(uint256,bool)": "ebe8c6fa",
			"uintToString(uint256)": "e9395679"
		}
	},
	"abi": [
		{
			"inputs": [],
			"stateMutability": "nonpayable",
			"type": "constructor"
		},
		{
			"inputs": [
				{
					"internalType": "address",
					"name": "addressSocio",
					"type": "address"
				},
				{
					"internalType": "uint256",
					"name": "quantidadeTokens",
					"type": "uint256"
				},
				{
					"internalType": "uint256",
					"name": "dataLiquidacao",
					"type": "uint256"
				}
			],
			"name": "AddContratoToken",
			"outputs": [
				{
					"internalType": "uint256",
					"name": "index",
					"type": "uint256"
				}
			],
			"stateMutability": "nonpayable",
			"type": "function"
		},
		{
			"inputs": [
				{
					"internalType": "enum Banking.tipoMovimentacaoFinanceira",
					"name": "tipo",
					"type": "uint8"
				},
				{
					"internalType": "string",
					"name": "titulo",
					"type": "string"
				},
				{
					"internalType": "string",
					"name": "descricao",
					"type": "string"
				},
				{
					"internalType": "uint256",
					"name": "valor",
					"type": "uint256"
				},
				{
					"internalType": "string",
					"name": "conta",
					"type": "string"
				},
				{
					"internalType": "uint256",
					"name": "dataVencimento",
					"type": "uint256"
				}
			],
			"name": "AddMovimentacaoFinanceira",
			"outputs": [
				{
					"internalType": "uint256",
					"name": "index",
					"type": "uint256"
				}
			],
			"stateMutability": "nonpayable",
			"type": "function"
		},
		{
			"inputs": [
				{
					"internalType": "address",
					"name": "addressSocio",
					"type": "address"
				},
				{
					"internalType": "string",
					"name": "nome",
					"type": "string"
				},
				{
					"internalType": "string",
					"name": "email",
					"type": "string"
				},
				{
					"internalType": "string",
					"name": "conta",
					"type": "string"
				}
			],
			"name": "AddSocio",
			"outputs": [],
			"stateMutability": "nonpayable",
			"type": "function"
		},
		{
			"inputs": [
				{
					"internalType": "uint256",
					"name": "index",
					"type": "uint256"
				}
			],
			"name": "EfetivarLancamento",
			"outputs": [
				{
					"internalType": "bool",
					"name": "",
					"type": "bool"
				}
			],
			"stateMutability": "nonpayable",
			"type": "function"
		},
		{
			"inputs": [
				{
					"internalType": "uint256",
					"name": "index",
					"type": "uint256"
				}
			],
			"name": "EfetivarVotacaoSocio",
			"outputs": [],
			"stateMutability": "nonpayable",
			"type": "function"
		},
		{
			"inputs": [
				{
					"internalType": "uint256",
					"name": "index",
					"type": "uint256"
				}
			],
			"name": "EfetivarVotacaoToken",
			"outputs": [],
			"stateMutability": "nonpayable",
			"type": "function"
		},
		{
			"inputs": [
				{
					"internalType": "uint256",
					"name": "index",
					"type": "uint256"
				}
			],
			"name": "GetContratoToken",
			"outputs": [
				{
					"internalType": "uint256",
					"name": "indexSocio",
					"type": "uint256"
				},
				{
					"internalType": "uint256",
					"name": "quantidadeTokens",
					"type": "uint256"
				},
				{
					"internalType": "uint256",
					"name": "quantidadeTokensRestante",
					"type": "uint256"
				},
				{
					"internalType": "uint256",
					"name": "dataLiquidacao",
					"type": "uint256"
				},
				{
					"internalType": "uint256",
					"name": "dataRegistro",
					"type": "uint256"
				},
				{
					"internalType": "enum Token.statusContratoToken",
					"name": "status",
					"type": "uint8"
				}
			],
			"stateMutability": "view",
			"type": "function"
		},
		{
			"inputs": [],
			"name": "GetContratosToken",
			"outputs": [
				{
					"internalType": "uint256[]",
					"name": "",
					"type": "uint256[]"
				}
			],
			"stateMutability": "view",
			"type": "function"
		},
		{
			"inputs": [],
			"name": "GetCotacaoToken",
			"outputs": [
				{
					"internalType": "uint256",
					"name": "cotacao",
					"type": "uint256"
				}
			],
			"stateMutability": "view",
			"type": "function"
		},
		{
			"inputs": [
				{
					"internalType": "uint256",
					"name": "index",
					"type": "uint256"
				}
			],
			"name": "GetEnumStatusMovimentacaoFinanceira",
			"outputs": [
				{
					"internalType": "string",
					"name": "",
					"type": "string"
				}
			],
			"stateMutability": "pure",
			"type": "function"
		},
		{
			"inputs": [
				{
					"internalType": "uint256",
					"name": "index",
					"type": "uint256"
				}
			],
			"name": "GetEnumTipoMovimentacaoFinanceira",
			"outputs": [
				{
					"internalType": "string",
					"name": "",
					"type": "string"
				}
			],
			"stateMutability": "pure",
			"type": "function"
		},
		{
			"inputs": [
				{
					"internalType": "uint256",
					"name": "index",
					"type": "uint256"
				}
			],
			"name": "GetMovimentacaoFinanceira",
			"outputs": [
				{
					"internalType": "enum Banking.statusMovimentacaoFinanceira",
					"name": "status",
					"type": "uint8"
				},
				{
					"internalType": "enum Banking.tipoMovimentacaoFinanceira",
					"name": "tipo",
					"type": "uint8"
				},
				{
					"internalType": "uint256",
					"name": "indexSocioInclusao",
					"type": "uint256"
				},
				{
					"internalType": "uint256",
					"name": "indexSocioEfetivacao",
					"type": "uint256"
				},
				{
					"internalType": "string",
					"name": "titulo",
					"type": "string"
				},
				{
					"internalType": "string",
					"name": "descricao",
					"type": "string"
				},
				{
					"internalType": "uint256",
					"name": "valor",
					"type": "uint256"
				},
				{
					"internalType": "string",
					"name": "conta",
					"type": "string"
				},
				{
					"internalType": "uint256",
					"name": "dataVencimento",
					"type": "uint256"
				},
				{
					"internalType": "uint256",
					"name": "dataEfetivacao",
					"type": "uint256"
				},
				{
					"internalType": "uint256",
					"name": "dataRegistro",
					"type": "uint256"
				}
			],
			"stateMutability": "view",
			"type": "function"
		},
		{
			"inputs": [],
			"name": "GetMovimentacoesFinanceira",
			"outputs": [
				{
					"internalType": "uint256[]",
					"name": "",
					"type": "uint256[]"
				}
			],
			"stateMutability": "view",
			"type": "function"
		},
		{
			"inputs": [],
			"name": "GetMovimentacoesFinanceirasPendentesEfetivacao",
			"outputs": [
				{
					"internalType": "uint256[]",
					"name": "",
					"type": "uint256[]"
				}
			],
			"stateMutability": "view",
			"type": "function"
		},
		{
			"inputs": [
				{
					"internalType": "uint256",
					"name": "index",
					"type": "uint256"
				}
			],
			"name": "GetPropostaVotacao",
			"outputs": [
				{
					"internalType": "address",
					"name": "ownerVotacao",
					"type": "address"
				},
				{
					"internalType": "string",
					"name": "titulo",
					"type": "string"
				},
				{
					"internalType": "string",
					"name": "descricao",
					"type": "string"
				},
				{
					"internalType": "string[]",
					"name": "tags",
					"type": "string[]"
				},
				{
					"internalType": "uint256",
					"name": "dataTermino",
					"type": "uint256"
				},
				{
					"internalType": "uint256",
					"name": "dataRegistro",
					"type": "uint256"
				}
			],
			"stateMutability": "view",
			"type": "function"
		},
		{
			"inputs": [
				{
					"internalType": "uint256",
					"name": "index",
					"type": "uint256"
				}
			],
			"name": "GetResultadoVotacao",
			"outputs": [
				{
					"internalType": "bool",
					"name": "finalizada",
					"type": "bool"
				},
				{
					"internalType": "bool",
					"name": "resultado",
					"type": "bool"
				},
				{
					"internalType": "uint256",
					"name": "votosAprovacao",
					"type": "uint256"
				},
				{
					"internalType": "uint256",
					"name": "votosReprovacao",
					"type": "uint256"
				}
			],
			"stateMutability": "view",
			"type": "function"
		},
		{
			"inputs": [],
			"name": "GetSaldoFundoTokens",
			"outputs": [
				{
					"internalType": "uint256",
					"name": "valor",
					"type": "uint256"
				}
			],
			"stateMutability": "view",
			"type": "function"
		},
		{
			"inputs": [
				{
					"internalType": "uint256",
					"name": "index",
					"type": "uint256"
				}
			],
			"name": "GetSocio",
			"outputs": [
				{
					"internalType": "uint256",
					"name": "indexSocioIndicacao",
					"type": "uint256"
				},
				{
					"internalType": "address",
					"name": "addressSocio",
					"type": "address"
				},
				{
					"internalType": "string",
					"name": "nome",
					"type": "string"
				},
				{
					"internalType": "string",
					"name": "email",
					"type": "string"
				},
				{
					"internalType": "string",
					"name": "conta",
					"type": "string"
				},
				{
					"internalType": "uint256",
					"name": "dataRegistro",
					"type": "uint256"
				},
				{
					"internalType": "enum Partner.statusSocio",
					"name": "status",
					"type": "uint8"
				}
			],
			"stateMutability": "view",
			"type": "function"
		},
		{
			"inputs": [],
			"name": "GetSocios",
			"outputs": [
				{
					"internalType": "uint256[]",
					"name": "",
					"type": "uint256[]"
				}
			],
			"stateMutability": "view",
			"type": "function"
		},
		{
			"inputs": [
				{
					"internalType": "address",
					"name": "addressSocio",
					"type": "address"
				}
			],
			"name": "GetTokensPorSocio",
			"outputs": [
				{
					"internalType": "uint256",
					"name": "total",
					"type": "uint256"
				},
				{
					"internalType": "uint256",
					"name": "liberados",
					"type": "uint256"
				}
			],
			"stateMutability": "view",
			"type": "function"
		},
		{
			"inputs": [
				{
					"internalType": "address",
					"name": "addressSocio",
					"type": "address"
				},
				{
					"internalType": "uint256",
					"name": "data",
					"type": "uint256"
				}
			],
			"name": "GetTokensPorSocioPorData",
			"outputs": [
				{
					"internalType": "uint256",
					"name": "total",
					"type": "uint256"
				}
			],
			"stateMutability": "view",
			"type": "function"
		},
		{
			"inputs": [],
			"name": "GetTotalTokens",
			"outputs": [
				{
					"internalType": "uint256",
					"name": "total",
					"type": "uint256"
				},
				{
					"internalType": "uint256",
					"name": "liberados",
					"type": "uint256"
				}
			],
			"stateMutability": "view",
			"type": "function"
		},
		{
			"inputs": [
				{
					"internalType": "uint256",
					"name": "data",
					"type": "uint256"
				}
			],
			"name": "GetTotalTokensPorData",
			"outputs": [
				{
					"internalType": "uint256",
					"name": "total",
					"type": "uint256"
				}
			],
			"stateMutability": "view",
			"type": "function"
		},
		{
			"inputs": [],
			"name": "GetVotacoesAbertas",
			"outputs": [
				{
					"internalType": "uint256[]",
					"name": "_votacoes",
					"type": "uint256[]"
				}
			],
			"stateMutability": "view",
			"type": "function"
		},
		{
			"inputs": [
				{
					"internalType": "uint256",
					"name": "index",
					"type": "uint256"
				},
				{
					"internalType": "address",
					"name": "addressSocio",
					"type": "address"
				}
			],
			"name": "JaVotou",
			"outputs": [
				{
					"internalType": "bool",
					"name": "votado",
					"type": "bool"
				}
			],
			"stateMutability": "view",
			"type": "function"
		},
		{
			"inputs": [
				{
					"internalType": "uint256",
					"name": "quantidadeDesejada",
					"type": "uint256"
				}
			],
			"name": "LiquidarToken",
			"outputs": [
				{
					"internalType": "uint256",
					"name": "quantidadeLiquidada",
					"type": "uint256"
				},
				{
					"internalType": "uint256",
					"name": "valorLiquidado",
					"type": "uint256"
				}
			],
			"stateMutability": "nonpayable",
			"type": "function"
		},
		{
			"inputs": [
				{
					"internalType": "address",
					"name": "addressSocio",
					"type": "address"
				}
			],
			"name": "SocioAtivo",
			"outputs": [
				{
					"internalType": "bool",
					"name": "socioAtivo",
					"type": "bool"
				}
			],
			"stateMutability": "view",
			"type": "function"
		},
		{
			"inputs": [],
			"name": "SociosPendentes",
			"outputs": [
				{
					"internalType": "uint256[]",
					"name": "",
					"type": "uint256[]"
				}
			],
			"stateMutability": "view",
			"type": "function"
		},
		{
			"inputs": [
				{
					"internalType": "uint256",
					"name": "index",
					"type": "uint256"
				},
				{
					"internalType": "bool",
					"name": "voto",
					"type": "bool"
				}
			],
			"name": "Votar",
			"outputs": [],
			"stateMutability": "nonpayable",
			"type": "function"
		},
		{
			"inputs": [
				{
					"internalType": "uint256",
					"name": "_i",
					"type": "uint256"
				}
			],
			"name": "uintToString",
			"outputs": [
				{
					"internalType": "string",
					"name": "_uintAsString",
					"type": "string"
				}
			],
			"stateMutability": "pure",
			"type": "function"
		}
	]
}