{
  "contractName": "Banking",
  "abi": [
    {
      "inputs": [],
      "stateMutability": "nonpayable",
      "type": "constructor"
    },
    {
      "inputs": [
        {
          "internalType": "address",
          "name": "addressSocio",
          "type": "address"
        },
        {
          "internalType": "string",
          "name": "nome",
          "type": "string"
        },
        {
          "internalType": "string",
          "name": "email",
          "type": "string"
        },
        {
          "internalType": "string",
          "name": "conta",
          "type": "string"
        }
      ],
      "name": "AddSocio",
      "outputs": [],
      "stateMutability": "nonpayable",
      "type": "function"
    },
    {
      "inputs": [
        {
          "internalType": "uint256",
          "name": "index",
          "type": "uint256"
        }
      ],
      "name": "EfetivarVotacaoSocio",
      "outputs": [],
      "stateMutability": "nonpayable",
      "type": "function"
    },
    {
      "inputs": [
        {
          "internalType": "uint256",
          "name": "index",
          "type": "uint256"
        }
      ],
      "name": "GetPropostaVotacao",
      "outputs": [
        {
          "internalType": "address",
          "name": "ownerVotacao",
          "type": "address"
        },
        {
          "internalType": "string",
          "name": "titulo",
          "type": "string"
        },
        {
          "internalType": "string",
          "name": "descricao",
          "type": "string"
        },
        {
          "internalType": "string[]",
          "name": "tags",
          "type": "string[]"
        },
        {
          "internalType": "uint256",
          "name": "dataTermino",
          "type": "uint256"
        },
        {
          "internalType": "uint256",
          "name": "dataRegistro",
          "type": "uint256"
        }
      ],
      "stateMutability": "view",
      "type": "function"
    },
    {
      "inputs": [
        {
          "internalType": "uint256",
          "name": "index",
          "type": "uint256"
        }
      ],
      "name": "GetResultadoVotacao",
      "outputs": [
        {
          "internalType": "bool",
          "name": "finalizada",
          "type": "bool"
        },
        {
          "internalType": "bool",
          "name": "resultado",
          "type": "bool"
        },
        {
          "internalType": "uint256",
          "name": "votosAprovacao",
          "type": "uint256"
        },
        {
          "internalType": "uint256",
          "name": "votosReprovacao",
          "type": "uint256"
        }
      ],
      "stateMutability": "view",
      "type": "function"
    },
    {
      "inputs": [
        {
          "internalType": "uint256",
          "name": "index",
          "type": "uint256"
        }
      ],
      "name": "GetSocio",
      "outputs": [
        {
          "internalType": "uint256",
          "name": "indexSocioIndicacao",
          "type": "uint256"
        },
        {
          "internalType": "address",
          "name": "addressSocio",
          "type": "address"
        },
        {
          "internalType": "string",
          "name": "nome",
          "type": "string"
        },
        {
          "internalType": "string",
          "name": "email",
          "type": "string"
        },
        {
          "internalType": "string",
          "name": "conta",
          "type": "string"
        },
        {
          "internalType": "uint256",
          "name": "dataRegistro",
          "type": "uint256"
        },
        {
          "internalType": "enum Partner.statusSocio",
          "name": "status",
          "type": "uint8"
        }
      ],
      "stateMutability": "view",
      "type": "function"
    },
    {
      "inputs": [],
      "name": "GetSocios",
      "outputs": [
        {
          "internalType": "uint256[]",
          "name": "",
          "type": "uint256[]"
        }
      ],
      "stateMutability": "view",
      "type": "function"
    },
    {
      "inputs": [],
      "name": "GetVotacoesAbertas",
      "outputs": [
        {
          "internalType": "uint256[]",
          "name": "_votacoes",
          "type": "uint256[]"
        }
      ],
      "stateMutability": "view",
      "type": "function"
    },
    {
      "inputs": [
        {
          "internalType": "uint256",
          "name": "index",
          "type": "uint256"
        },
        {
          "internalType": "address",
          "name": "addressSocio",
          "type": "address"
        }
      ],
      "name": "JaVotou",
      "outputs": [
        {
          "internalType": "bool",
          "name": "votado",
          "type": "bool"
        }
      ],
      "stateMutability": "view",
      "type": "function"
    },
    {
      "inputs": [
        {
          "internalType": "address",
          "name": "addressSocio",
          "type": "address"
        }
      ],
      "name": "SocioAtivo",
      "outputs": [
        {
          "internalType": "bool",
          "name": "socioAtivo",
          "type": "bool"
        }
      ],
      "stateMutability": "view",
      "type": "function"
    },
    {
      "inputs": [],
      "name": "SociosPendentes",
      "outputs": [
        {
          "internalType": "uint256[]",
          "name": "",
          "type": "uint256[]"
        }
      ],
      "stateMutability": "view",
      "type": "function"
    },
    {
      "inputs": [
        {
          "internalType": "uint256",
          "name": "index",
          "type": "uint256"
        }
      ],
      "name": "GetEnumTipoMovimentacaoFinanceira",
      "outputs": [
        {
          "internalType": "string",
          "name": "",
          "type": "string"
        }
      ],
      "stateMutability": "pure",
      "type": "function"
    },
    {
      "inputs": [
        {
          "internalType": "uint256",
          "name": "index",
          "type": "uint256"
        }
      ],
      "name": "GetEnumStatusMovimentacaoFinanceira",
      "outputs": [
        {
          "internalType": "string",
          "name": "",
          "type": "string"
        }
      ],
      "stateMutability": "pure",
      "type": "function"
    },
    {
      "inputs": [],
      "name": "GetSaldoFundoTokens",
      "outputs": [
        {
          "internalType": "uint256",
          "name": "valor",
          "type": "uint256"
        }
      ],
      "stateMutability": "view",
      "type": "function"
    },
    {
      "inputs": [
        {
          "internalType": "enum Banking.tipoMovimentacaoFinanceira",
          "name": "tipo",
          "type": "uint8"
        },
        {
          "internalType": "string",
          "name": "titulo",
          "type": "string"
        },
        {
          "internalType": "string",
          "name": "descricao",
          "type": "string"
        },
        {
          "internalType": "uint256",
          "name": "valor",
          "type": "uint256"
        },
        {
          "internalType": "string",
          "name": "conta",
          "type": "string"
        },
        {
          "internalType": "uint256",
          "name": "dataVencimento",
          "type": "uint256"
        }
      ],
      "name": "AddMovimentacaoFinanceira",
      "outputs": [
        {
          "internalType": "uint256",
          "name": "index",
          "type": "uint256"
        }
      ],
      "stateMutability": "nonpayable",
      "type": "function"
    },
    {
      "inputs": [
        {
          "internalType": "uint256",
          "name": "index",
          "type": "uint256"
        }
      ],
      "name": "GetMovimentacaoFinanceira",
      "outputs": [
        {
          "internalType": "enum Banking.statusMovimentacaoFinanceira",
          "name": "status",
          "type": "uint8"
        },
        {
          "internalType": "enum Banking.tipoMovimentacaoFinanceira",
          "name": "tipo",
          "type": "uint8"
        },
        {
          "internalType": "uint256",
          "name": "indexSocioInclusao",
          "type": "uint256"
        },
        {
          "internalType": "uint256",
          "name": "indexSocioEfetivacao",
          "type": "uint256"
        },
        {
          "internalType": "string",
          "name": "titulo",
          "type": "string"
        },
        {
          "internalType": "string",
          "name": "descricao",
          "type": "string"
        },
        {
          "internalType": "uint256",
          "name": "valor",
          "type": "uint256"
        },
        {
          "internalType": "string",
          "name": "conta",
          "type": "string"
        },
        {
          "internalType": "uint256",
          "name": "dataVencimento",
          "type": "uint256"
        },
        {
          "internalType": "uint256",
          "name": "dataEfetivacao",
          "type": "uint256"
        },
        {
          "internalType": "uint256",
          "name": "dataRegistro",
          "type": "uint256"
        }
      ],
      "stateMutability": "view",
      "type": "function"
    },
    {
      "inputs": [],
      "name": "GetMovimentacoesFinanceira",
      "outputs": [
        {
          "internalType": "uint256[]",
          "name": "",
          "type": "uint256[]"
        }
      ],
      "stateMutability": "view",
      "type": "function"
    },
    {
      "inputs": [],
      "name": "GetMovimentacoesFinanceirasPendentesEfetivacao",
      "outputs": [
        {
          "internalType": "uint256[]",
          "name": "",
          "type": "uint256[]"
        }
      ],
      "stateMutability": "view",
      "type": "function"
    },
    {
      "inputs": [
        {
          "internalType": "uint256",
          "name": "index",
          "type": "uint256"
        }
      ],
      "name": "EfetivarLancamento",
      "outputs": [
        {
          "internalType": "bool",
          "name": "",
          "type": "bool"
        }
      ],
      "stateMutability": "nonpayable",
      "type": "function"
    }
  ],
  "bytecode": "0x60806040523480156200001157600080fd5b506203f48060078190555060006040518060e00160405280600081526020013373ffffffffffffffffffffffffffffffffffffffff1681526020016040518060400160405280600581526020017f6f776e6572000000000000000000000000000000000000000000000000000000815250815260200160405180602001604052806000815250815260200160405180602001604052806000815250815260200142815260200160026004811115620000ce57620000cd620002e3565b5b815250905060048190806001815401808255809150506001900390600052602060002090600702016000909190919091506000820151816000015560208201518160010160006101000a81548173ffffffffffffffffffffffffffffffffffffffff021916908373ffffffffffffffffffffffffffffffffffffffff16021790555060408201518160020190805190602001906200016e929190620001fd565b5060608201518160030190805190602001906200018d929190620001fd565b506080820151816004019080519060200190620001ac929190620001fd565b5060a0820151816005015560c08201518160060160006101000a81548160ff02191690836004811115620001e557620001e4620002e3565b5b02179055505050506203f480600b8190555062000341565b8280546200020b90620002ad565b90600052602060002090601f0160209004810192826200022f57600085556200027b565b82601f106200024a57805160ff19168380011785556200027b565b828001600101855582156200027b579182015b828111156200027a5782518255916020019190600101906200025d565b5b5090506200028a91906200028e565b5090565b5b80821115620002a95760008160009055506001016200028f565b5090565b60006002820490506001821680620002c657607f821691505b60208210811415620002dd57620002dc62000312565b5b50919050565b7f4e487b7100000000000000000000000000000000000000000000000000000000600052602160045260246000fd5b7f4e487b7100000000000000000000000000000000000000000000000000000000600052602260045260246000fd5b613d0c80620003516000396000f3fe608060405234801561001057600080fd5b50600436106101165760003560e01c806378555cf8116100a2578063baeee9ed11610071578063baeee9ed14610347578063d388fb7c14610363578063d41b47d314610393578063d6fcbe6c146103b1578063f2a6fc46146103e157610116565b806378555cf814610289578063965cfb5c146102c3578063b2f5f56d146102f9578063b3c6e7891461031757610116565b80633fc62a26116100e95780633fc62a26146101cc5780634012ec96146101e85780635ff9ed871461020657806366e15fa61461022457806369512a071461025457610116565b80630b12c4931461011b5780632ccdab8a1461014b578063362f13671461017e57806338dc2de5146101ae575b600080fd5b61013560048036038101906101309190613058565b6103ff565b6040516101429190613634565b60405180910390f35b61016560048036038101906101609190613058565b6104a4565b604051610175949392919061352f565b60405180910390f35b61019860048036038101906101939190613085565b6106a1565b6040516101a59190613514565b60405180910390f35b6101b66107c7565b6040516101c39190613676565b60405180910390f35b6101e660048036038101906101e19190613058565b6107d1565b005b6101f0610894565b6040516101fd91906134f2565b60405180910390f35b61020e610933565b60405161021b91906134f2565b60405180910390f35b61023e60048036038101906102399190612f77565b610b36565b60405161024b9190613676565b60405180910390f35b61026e60048036038101906102699190613058565b610d64565b6040516102809695949392919061347c565b60405180910390f35b6102a3600480360381019061029e9190613058565b61103a565b6040516102ba9b9a99989796959493929190613574565b60405180910390f35b6102dd60048036038101906102d89190613058565b6113e0565b6040516102f09796959493929190613691565b60405180910390f35b610301611749565b60405161030e91906134f2565b60405180910390f35b610331600480360381019061032c9190612e8f565b611888565b60405161033e9190613514565b60405180910390f35b610361600480360381019061035c9190612ebc565b611912565b005b61037d60048036038101906103789190613058565b611bae565b60405161038a9190613634565b60405180910390f35b61039b611cc9565b6040516103a891906134f2565b60405180910390f35b6103cb60048036038101906103c69190613058565b611ecc565b6040516103d89190613514565b60405180910390f35b6103e9612080565b6040516103f691906134f2565b60405180910390f35b6060600060405180604001604052806040518060400160405280600581526020017f706167617200000000000000000000000000000000000000000000000000000081525081526020016040518060400160405280600781526020017f7265636562657200000000000000000000000000000000000000000000000000815250815250905080836002811061049757610496613ae6565b5b6020020151915050919050565b6000806000806000935060009250600091506000905060006003600087815260200190815260200160002080548060200260200160405190810160405280929190818152602001828054801561051957602002820191906000526020600020905b815481526020019060010190808311610505575b5050505050905060005b81518110156106385760011515600283838151811061054557610544613ae6565b5b60200260200101518154811061055e5761055d613ae6565b5b906000526020600020906003020160000160149054906101000a900460ff16151514156105d757600282828151811061059a57610599613ae6565b5b6020026020010151815481106105b3576105b2613ae6565b5b906000526020600020906003020160010154846105d0919061382a565b9350610625565b60028282815181106105ec576105eb613ae6565b5b60200260200101518154811061060557610604613ae6565b5b90600052602060002090600302016001015483610622919061382a565b92505b808061063090613a10565b915050610523565b50426001878154811061064e5761064d613ae6565b5b906000526020600020906006020160040154108061066d575061138883115b80610679575061138882115b1561068357600194505b818311156106945760019350610699565b600093505b509193509193565b6000806003600085815260200190815260200160002080548060200260200160405190810160405280929190818152602001828054801561070157602002820191906000526020600020905b8154815260200190600101908083116106ed575b5050505050905060005b81518110156107bf578373ffffffffffffffffffffffffffffffffffffffff1660028383815181106107405761073f613ae6565b5b60200260200101518154811061075957610758613ae6565b5b906000526020600020906003020160000160009054906101000a900473ffffffffffffffffffffffffffffffffffffffff1673ffffffffffffffffffffffffffffffffffffffff1614156107ac57600192505b80806107b790613a10565b91505061070b565b505092915050565b6000600a54905090565b6000806107f060066000858152602001908152602001600020546104a4565b5050915091506000600481111561080a57610809613a88565b5b6004848154811061081e5761081d613ae6565b5b906000526020600020906007020160060160009054906101000a900460ff16600481111561084f5761084e613a88565b5b148015610860575060011515821515145b1561088f576001151581151514156108825761087d83600261211f565b61088e565b61088d83600361211f565b5b5b505050565b6060600060088054905067ffffffffffffffff8111156108b7576108b6613b15565b5b6040519080825280602002602001820160405280156108e55781602001602082028036833780820191505090505b50905060005b60088054905081101561092b578082828151811061090c5761090b613ae6565b5b602002602001018181525050808061092390613a10565b9150506108eb565b508091505090565b6060600080606060005b6004805490508110156109fd576000600481111561095e5761095d613a88565b5b6004828154811061097257610971613ae6565b5b906000526020600020906007020160060160009054906101000a900460ff1660048111156109a3576109a2613a88565b5b14156109ea5760006109c760066000848152602001908152602001600020546104a4565b50505090506001151581151514156109e85783806109e490613a10565b9450505b505b80806109f590613a10565b91505061093d565b508167ffffffffffffffff811115610a1857610a17613b15565b5b604051908082528060200260200182016040528015610a465781602001602082028036833780820191505090505b50905060005b600480549050811015610b2c5760006004811115610a6d57610a6c613a88565b5b60048281548110610a8157610a80613ae6565b5b906000526020600020906007020160060160009054906101000a900460ff166004811115610ab257610ab1613a88565b5b1415610b19576000610ad660066000848152602001908152602001600020546104a4565b5050509050600115158115151415610b175781838681518110610afc57610afb613ae6565b5b6020026020010181815250508480610b1390613a10565b9550505b505b8080610b2490613a10565b915050610a4c565b5080935050505090565b600080610b423361220f565b915050600060405180610160016040528060006003811115610b6757610b66613a88565b5b81526020018a6001811115610b7f57610b7e613a88565b5b8152602001838152602001600081526020018981526020018881526020018781526020018681526020018581526020016000815260200142815250905060088190806001815401808255809150506001900390600052602060002090600a020160009091909190915060008201518160000160006101000a81548160ff02191690836003811115610c1357610c12613a88565b5b021790555060208201518160000160016101000a81548160ff02191690836001811115610c4357610c42613a88565b5b021790555060408201518160010155606082015181600201556080820151816003019080519060200190610c78929190612c79565b5060a0820151816004019080519060200190610c95929190612c79565b5060c0820151816005015560e0820151816006019080519060200190610cbc929190612c79565b5061010082015181600701556101208201518160080155610140820151816009015550506001600880549050610cf29190613880565b9250610cfd836122c6565b60006001811115610d1157610d10613a88565b5b896001811115610d2457610d23613a88565b5b1415610d435785600a54610d389190613880565b600a81905550610d58565b85600a54610d51919061382a565b600a819055505b50509695505050505050565b60006060806060600080600060018881548110610d8457610d83613ae6565b5b90600052602060002090600602016040518060c00160405290816000820160009054906101000a900473ffffffffffffffffffffffffffffffffffffffff1673ffffffffffffffffffffffffffffffffffffffff1673ffffffffffffffffffffffffffffffffffffffff168152602001600182018054610e03906139ad565b80601f0160208091040260200160405190810160405280929190818152602001828054610e2f906139ad565b8015610e7c5780601f10610e5157610100808354040283529160200191610e7c565b820191906000526020600020905b815481529060010190602001808311610e5f57829003601f168201915b50505050508152602001600282018054610e95906139ad565b80601f0160208091040260200160405190810160405280929190818152602001828054610ec1906139ad565b8015610f0e5780601f10610ee357610100808354040283529160200191610f0e565b820191906000526020600020905b815481529060010190602001808311610ef157829003601f168201915b5050505050815260200160038201805480602002602001604051908101604052809291908181526020016000905b82821015610fe8578382906000526020600020018054610f5b906139ad565b80601f0160208091040260200160405190810160405280929190818152602001828054610f87906139ad565b8015610fd45780601f10610fa957610100808354040283529160200191610fd4565b820191906000526020600020905b815481529060010190602001808311610fb757829003601f168201915b505050505081526020019060010190610f3c565b505050508152602001600482015481526020016005820154815250509050806000015181602001518260400151836060015184608001518560a001519650965096509650965096505091939550919395565b6000806000806060806000606060008060008060088d8154811061106157611060613ae6565b5b90600052602060002090600a0201604051806101600160405290816000820160009054906101000a900460ff1660038111156110a05761109f613a88565b5b60038111156110b2576110b1613a88565b5b81526020016000820160019054906101000a900460ff1660018111156110db576110da613a88565b5b60018111156110ed576110ec613a88565b5b81526020016001820154815260200160028201548152602001600382018054611115906139ad565b80601f0160208091040260200160405190810160405280929190818152602001828054611141906139ad565b801561118e5780601f106111635761010080835404028352916020019161118e565b820191906000526020600020905b81548152906001019060200180831161117157829003601f168201915b505050505081526020016004820180546111a7906139ad565b80601f01602080910402602001604051908101604052809291908181526020018280546111d3906139ad565b80156112205780601f106111f557610100808354040283529160200191611220565b820191906000526020600020905b81548152906001019060200180831161120357829003601f168201915b5050505050815260200160058201548152602001600682018054611243906139ad565b80601f016020809104026020016040519081016040528092919081815260200182805461126f906139ad565b80156112bc5780601f10611291576101008083540402835291602001916112bc565b820191906000526020600020905b81548152906001019060200180831161129f57829003601f168201915b50505050508152602001600782015481526020016008820154815260200160098201548152505090506000600960008f81526020019081526020016000205490506000600381111561131157611310613a88565b5b8260000151600381111561132857611327613a88565b5b141561137f576000611339826104a4565b505050905060011515811515141561137d5760018360000190600381111561136457611363613a88565b5b9081600381111561137857611377613a88565b5b815250505b505b816000015182602001518360400151846060015185608001518660a001518760c001518860e001518961010001518a61012001518b61014001519c509c509c509c509c509c509c509c509c509c509c50505091939597999b90929496989a50565b600080606080606060008060006004898154811061140157611400613ae6565b5b90600052602060002090600702016040518060e0016040529081600082015481526020016001820160009054906101000a900473ffffffffffffffffffffffffffffffffffffffff1673ffffffffffffffffffffffffffffffffffffffff1673ffffffffffffffffffffffffffffffffffffffff16815260200160028201805461148a906139ad565b80601f01602080910402602001604051908101604052809291908181526020018280546114b6906139ad565b80156115035780601f106114d857610100808354040283529160200191611503565b820191906000526020600020905b8154815290600101906020018083116114e657829003601f168201915b5050505050815260200160038201805461151c906139ad565b80601f0160208091040260200160405190810160405280929190818152602001828054611548906139ad565b80156115955780601f1061156a57610100808354040283529160200191611595565b820191906000526020600020905b81548152906001019060200180831161157857829003601f168201915b505050505081526020016004820180546115ae906139ad565b80601f01602080910402602001604051908101604052809291908181526020018280546115da906139ad565b80156116275780601f106115fc57610100808354040283529160200191611627565b820191906000526020600020905b81548152906001019060200180831161160a57829003601f168201915b50505050508152602001600582015481526020016006820160009054906101000a900460ff16600481111561165f5761165e613a88565b5b600481111561167157611670613a88565b5b8152505090506000600481111561168b5761168a613a88565b5b8160c0015160048111156116a2576116a1613a88565b5b141561170c5760006116c6600660008c8152602001908152602001600020546104a4565b505050905060011515811515141561170a5760018260c0019060048111156116f1576116f0613a88565b5b9081600481111561170557611704613a88565b5b815250505b505b806000015181602001518260400151836060015184608001518560a001518660c00151975097509750975097509750975050919395979092949650565b60606000806060600042905060005b6001805490508110156117b357816001828154811061177a57611779613ae6565b5b906000526020600020906006020160040154106117a057838061179c90613a10565b9450505b80806117ab90613a10565b915050611758565b508267ffffffffffffffff8111156117ce576117cd613b15565b5b6040519080825280602002602001820160405280156117fc5781602001602082028036833780820191505090505b50915060005b60018054905081101561187d57816001828154811061182457611823613ae6565b5b9060005260206000209060060201600401541061186a578083868151811061184f5761184e613ae6565b5b602002602001018181525050848061186690613a10565b9550505b808061187590613a10565b915050611802565b508194505050505090565b600080806118958461220f565b9150915060011515821515141561190b57600260048111156118ba576118b9613a88565b5b600482815481106118ce576118cd613ae6565b5b906000526020600020906007020160060160009054906101000a900460ff1660048111156118ff576118fe613a88565b5b141561190a57600192505b5b5050919050565b6001151561191f33611888565b151514611961576040517f08c379a000000000000000000000000000000000000000000000000000000000815260040161195890613656565b60405180910390fd5b600061196c3361220f565b91505060006040518060e001604052808381526020018773ffffffffffffffffffffffffffffffffffffffff168152602001868152602001858152602001848152602001428152602001600060048111156119ca576119c9613a88565b5b815250905060048190806001815401808255809150506001900390600052602060002090600702016000909190919091506000820151816000015560208201518160010160006101000a81548173ffffffffffffffffffffffffffffffffffffffff021916908373ffffffffffffffffffffffffffffffffffffffff1602179055506040820151816002019080519060200190611a68929190612c79565b506060820151816003019080519060200190611a85929190612c79565b506080820151816004019080519060200190611aa2929190612c79565b5060a0820151816005015560c08201518160060160006101000a81548160ff02191690836004811115611ad857611ad7613a88565b5b0217905550505060006001600480549050611af39190613880565b90506005600082815260200190815260200160002060405180604001604052808460c001516004811115611b2a57611b29613a88565b5b81526020018460a00151815250908060018154018082558091505060019003906000526020600020906002020160009091909190915060008201518160000160006101000a81548160ff02191690836004811115611b8b57611b8a613a88565b5b0217905550602082015181600101555050611ba5816126f5565b50505050505050565b6060600060405180608001604052806040518060400160405280600f81526020017f70656e64656e7465566f746163616f000000000000000000000000000000000081525081526020016040518060400160405280601281526020017f70656e64656e74654566657469766163616f000000000000000000000000000081525081526020016040518060400160405280600581526020017f617469766f00000000000000000000000000000000000000000000000000000081525081526020016040518060400160405280600881526020017f726563757361646f0000000000000000000000000000000000000000000000008152508152509050808360048110611cbc57611cbb613ae6565b5b6020020151915050919050565b6060600080606060005b600880549050811015611d935760006003811115611cf457611cf3613a88565b5b60088281548110611d0857611d07613ae6565b5b90600052602060002090600a020160000160009054906101000a900460ff166003811115611d3957611d38613a88565b5b1415611d80576000611d5d60096000848152602001908152602001600020546104a4565b5050509050600115158115151415611d7e578380611d7a90613a10565b9450505b505b8080611d8b90613a10565b915050611cd3565b508167ffffffffffffffff811115611dae57611dad613b15565b5b604051908082528060200260200182016040528015611ddc5781602001602082028036833780820191505090505b50905060005b600880549050811015611ec25760006003811115611e0357611e02613a88565b5b60088281548110611e1757611e16613ae6565b5b90600052602060002090600a020160000160009054906101000a900460ff166003811115611e4857611e47613a88565b5b1415611eaf576000611e6c60096000848152602001908152602001600020546104a4565b5050509050600115158115151415611ead5781838681518110611e9257611e91613ae6565b5b6020026020010181815250508480611ea990613a10565b9550505b505b8080611eba90613a10565b915050611de2565b5080935050505090565b6000806000611eed60096000868152602001908152602001600020546104a4565b50509150915060006003811115611f0757611f06613a88565b5b60088581548110611f1b57611f1a613ae6565b5b90600052602060002090600a020160000160009054906101000a900460ff166003811115611f4c57611f4b613a88565b5b148015611f5d575060011515821515145b1561201257600115158115151415611fc257600260088581548110611f8557611f84613ae6565b5b90600052602060002090600a020160000160006101000a81548160ff02191690836003811115611fb857611fb7613a88565b5b0217905550612011565b600360088581548110611fd857611fd7613ae6565b5b90600052602060002090600a020160000160006101000a81548160ff0219169083600381111561200b5761200a613a88565b5b02179055505b5b600061201d3361220f565b915050806008868154811061203557612034613ae6565b5b90600052602060002090600a020160020181905550426008868154811061205f5761205e613ae6565b5b90600052602060002090600a02016008018190555060019350505050919050565b6060600060048054905067ffffffffffffffff8111156120a3576120a2613b15565b5b6040519080825280602002602001820160405280156120d15781602001602082028036833780820191505090505b50905060005b60048054905081101561211757808282815181106120f8576120f7613ae6565b5b602002602001018181525050808061210f90613a10565b9150506120d7565b508091505090565b806004838154811061213457612133613ae6565b5b906000526020600020906007020160060160006101000a81548160ff0219169083600481111561216757612166613a88565b5b021790555060056000838152602001908152602001600020604051806040016040528083600481111561219d5761219c613a88565b5b815260200142815250908060018154018082558091505060019003906000526020600020906002020160009091909190915060008201518160000160006101000a81548160ff021916908360048111156121fa576121f9613a88565b5b02179055506020820151816001015550505050565b6000806000915060005b6004805490508110156122bf578373ffffffffffffffffffffffffffffffffffffffff166004828154811061225157612250613ae6565b5b906000526020600020906007020160010160009054906101000a900473ffffffffffffffffffffffffffffffffffffffff1673ffffffffffffffffffffffffffffffffffffffff1614156122ac5760019250809150506122c1565b80806122b790613a10565b915050612219565b505b915091565b6000600882815481106122dc576122db613ae6565b5b90600052602060002090600a0201604051806101600160405290816000820160009054906101000a900460ff16600381111561231b5761231a613a88565b5b600381111561232d5761232c613a88565b5b81526020016000820160019054906101000a900460ff16600181111561235657612355613a88565b5b600181111561236857612367613a88565b5b81526020016001820154815260200160028201548152602001600382018054612390906139ad565b80601f01602080910402602001604051908101604052809291908181526020018280546123bc906139ad565b80156124095780601f106123de57610100808354040283529160200191612409565b820191906000526020600020905b8154815290600101906020018083116123ec57829003601f168201915b50505050508152602001600482018054612422906139ad565b80601f016020809104026020016040519081016040528092919081815260200182805461244e906139ad565b801561249b5780601f106124705761010080835404028352916020019161249b565b820191906000526020600020905b81548152906001019060200180831161247e57829003601f168201915b50505050508152602001600582015481526020016006820180546124be906139ad565b80601f01602080910402602001604051908101604052809291908181526020018280546124ea906139ad565b80156125375780601f1061250c57610100808354040283529160200191612537565b820191906000526020600020905b81548152906001019060200180831161251a57829003601f168201915b5050505050815260200160078201548152602001600882015481526020016009820154815250509050600081608001516040516020016125779190613438565b604051602081830303815290604052905060008260a0015160405160200161259f919061345a565b60405160208183030381529060405290506000600267ffffffffffffffff8111156125cd576125cc613b15565b5b60405190808252806020026020018201604052801561260057816020015b60608152602001906001900390816125eb5790505b5090506040518060400160405280600781526020017f62616e6b696e67000000000000000000000000000000000000000000000000008152508160008151811061264d5761264c613ae6565b5b60200260200101819052506040518060400160405280601681526020017f6d6f76696d656e746163616f46696e616e636569726100000000000000000000815250816001815181106126a2576126a1613ae6565b5b60200260200101819052506000600b548561014001516126c2919061382a565b905060006126d285858585612b3a565b905080600960008981526020019081526020016000208190555050505050505050565b60006004828154811061270b5761270a613ae6565b5b90600052602060002090600702016040518060e0016040529081600082015481526020016001820160009054906101000a900473ffffffffffffffffffffffffffffffffffffffff1673ffffffffffffffffffffffffffffffffffffffff1673ffffffffffffffffffffffffffffffffffffffff168152602001600282018054612794906139ad565b80601f01602080910402602001604051908101604052809291908181526020018280546127c0906139ad565b801561280d5780601f106127e25761010080835404028352916020019161280d565b820191906000526020600020905b8154815290600101906020018083116127f057829003601f168201915b50505050508152602001600382018054612826906139ad565b80601f0160208091040260200160405190810160405280929190818152602001828054612852906139ad565b801561289f5780601f106128745761010080835404028352916020019161289f565b820191906000526020600020905b81548152906001019060200180831161288257829003601f168201915b505050505081526020016004820180546128b8906139ad565b80601f01602080910402602001604051908101604052809291908181526020018280546128e4906139ad565b80156129315780601f1061290657610100808354040283529160200191612931565b820191906000526020600020905b81548152906001019060200180831161291457829003601f168201915b50505050508152602001600582015481526020016006820160009054906101000a900460ff16600481111561296957612968613a88565b5b600481111561297b5761297a613a88565b5b8152505090506000816040015160048360000151815481106129a05761299f613ae6565b5b90600052602060002090600702016002016040516020016129c29291906133fe565b604051602081830303815290604052905060606000600267ffffffffffffffff8111156129f2576129f1613b15565b5b604051908082528060200260200182016040528015612a2557816020015b6060815260200190600190039081612a105790505b5090506040518060400160405280600781526020017f706172746e65720000000000000000000000000000000000000000000000000081525081600081518110612a7257612a71613ae6565b5b60200260200101819052506040518060400160405280600881526020017f616464536f63696f00000000000000000000000000000000000000000000000081525081600181518110612ac757612ac6613ae6565b5b6020026020010181905250600060075460048781548110612aeb57612aea613ae6565b5b906000526020600020906007020160050154612b07919061382a565b90506000612b1785858585612b3a565b905080600660008981526020019081526020016000208190555050505050505050565b600060016040518060c001604052803373ffffffffffffffffffffffffffffffffffffffff16815260200187815260200186815260200185815260200184815260200142815250908060018154018082558091505060019003906000526020600020906006020160009091909190915060008201518160000160006101000a81548173ffffffffffffffffffffffffffffffffffffffff021916908373ffffffffffffffffffffffffffffffffffffffff1602179055506020820151816001019080519060200190612c0d929190612c79565b506040820151816002019080519060200190612c2a929190612c79565b506060820151816003019080519060200190612c47929190612cff565b506080820151816004015560a08201518160050155505060018080549050612c6f9190613880565b9050949350505050565b828054612c85906139ad565b90600052602060002090601f016020900481019282612ca75760008555612cee565b82601f10612cc057805160ff1916838001178555612cee565b82800160010185558215612cee579182015b82811115612ced578251825591602001919060010190612cd2565b5b509050612cfb9190612d5f565b5090565b828054828255906000526020600020908101928215612d4e579160200282015b82811115612d4d578251829080519060200190612d3d929190612c79565b5091602001919060010190612d1f565b5b509050612d5b9190612d7c565b5090565b5b80821115612d78576000816000905550600101612d60565b5090565b5b80821115612d9c5760008181612d939190612da0565b50600101612d7d565b5090565b508054612dac906139ad565b6000825580601f10612dbe5750612ddd565b601f016020900490600052602060002090810190612ddc9190612d5f565b5b50565b6000612df3612dee8461373a565b613715565b905082815260208101848484011115612e0f57612e0e613b49565b5b612e1a84828561396b565b509392505050565b600081359050612e3181613c98565b92915050565b600081359050612e4681613caf565b92915050565b600082601f830112612e6157612e60613b44565b5b8135612e71848260208601612de0565b91505092915050565b600081359050612e8981613cbf565b92915050565b600060208284031215612ea557612ea4613b53565b5b6000612eb384828501612e22565b91505092915050565b60008060008060808587031215612ed657612ed5613b53565b5b6000612ee487828801612e22565b945050602085013567ffffffffffffffff811115612f0557612f04613b4e565b5b612f1187828801612e4c565b935050604085013567ffffffffffffffff811115612f3257612f31613b4e565b5b612f3e87828801612e4c565b925050606085013567ffffffffffffffff811115612f5f57612f5e613b4e565b5b612f6b87828801612e4c565b91505092959194509250565b60008060008060008060c08789031215612f9457612f93613b53565b5b6000612fa289828a01612e37565b965050602087013567ffffffffffffffff811115612fc357612fc2613b4e565b5b612fcf89828a01612e4c565b955050604087013567ffffffffffffffff811115612ff057612fef613b4e565b5b612ffc89828a01612e4c565b945050606061300d89828a01612e7a565b935050608087013567ffffffffffffffff81111561302e5761302d613b4e565b5b61303a89828a01612e4c565b92505060a061304b89828a01612e7a565b9150509295509295509295565b60006020828403121561306e5761306d613b53565b5b600061307c84828501612e7a565b91505092915050565b6000806040838503121561309c5761309b613b53565b5b60006130aa85828601612e7a565b92505060206130bb85828601612e22565b9150509250929050565b60006130d1838361320f565b905092915050565b60006130e583836133e0565b60208301905092915050565b6130fa816138b4565b82525050565b600061310b826137a0565b61311581856137db565b9350836020820285016131278561376b565b8060005b85811015613163578484038952815161314485826130c5565b945061314f836137c1565b925060208a0199505060018101905061312b565b50829750879550505050505092915050565b6000613180826137ab565b61318a81856137ec565b93506131958361377b565b8060005b838110156131c65781516131ad88826130d9565b97506131b8836137ce565b925050600181019050613199565b5085935050505092915050565b6131dc816138c6565b82525050565b6131eb81613935565b82525050565b6131fa81613947565b82525050565b61320981613959565b82525050565b600061321a826137b6565b61322481856137fd565b935061323481856020860161397a565b61323d81613b58565b840191505092915050565b6000613253826137b6565b61325d818561380e565b935061326d81856020860161397a565b61327681613b58565b840191505092915050565b600061328c826137b6565b613296818561381f565b93506132a681856020860161397a565b80840191505092915050565b600081546132bf816139ad565b6132c9818661381f565b945060018216600081146132e457600181146132f557613328565b60ff19831686528186019350613328565b6132fe8561378b565b60005b8381101561332057815481890152600182019150602081019050613301565b838801955050505b50505092915050565b600061333e600c8361381f565b915061334982613b69565b600c82019050919050565b600061336160328361380e565b915061336c82613b92565b604082019050919050565b6000613384600b8361381f565b915061338f82613be1565b600b82019050919050565b60006133a760198361381f565b91506133b282613c0a565b601982019050919050565b60006133ca600b8361381f565b91506133d582613c33565b600b82019050919050565b6133e98161392b565b82525050565b6133f88161392b565b82525050565b600061340982613331565b91506134158285613281565b915061342082613377565b915061342c82846132b2565b91508190509392505050565b60006134438261339a565b915061344f8284613281565b915081905092915050565b6000613465826133bd565b91506134718284613281565b915081905092915050565b600060c08201905061349160008301896130f1565b81810360208301526134a38188613248565b905081810360408301526134b78187613248565b905081810360608301526134cb8186613100565b90506134da60808301856133ef565b6134e760a08301846133ef565b979650505050505050565b6000602082019050818103600083015261350c8184613175565b905092915050565b600060208201905061352960008301846131d3565b92915050565b600060808201905061354460008301876131d3565b61355160208301866131d3565b61355e60408301856133ef565b61356b60608301846133ef565b95945050505050565b60006101608201905061358a600083018e6131e2565b613597602083018d613200565b6135a4604083018c6133ef565b6135b1606083018b6133ef565b81810360808301526135c3818a613248565b905081810360a08301526135d78189613248565b90506135e660c08301886133ef565b81810360e08301526135f88187613248565b90506136086101008301866133ef565b6136166101208301856133ef565b6136246101408301846133ef565b9c9b505050505050505050505050565b6000602082019050818103600083015261364e8184613248565b905092915050565b6000602082019050818103600083015261366f81613354565b9050919050565b600060208201905061368b60008301846133ef565b92915050565b600060e0820190506136a6600083018a6133ef565b6136b360208301896130f1565b81810360408301526136c58188613248565b905081810360608301526136d98187613248565b905081810360808301526136ed8186613248565b90506136fc60a08301856133ef565b61370960c08301846131f1565b98975050505050505050565b600061371f613730565b905061372b82826139df565b919050565b6000604051905090565b600067ffffffffffffffff82111561375557613754613b15565b5b61375e82613b58565b9050602081019050919050565b6000819050602082019050919050565b6000819050602082019050919050565b60008190508160005260206000209050919050565b600081519050919050565b600081519050919050565b600081519050919050565b6000602082019050919050565b6000602082019050919050565b600082825260208201905092915050565b600082825260208201905092915050565b600082825260208201905092915050565b600082825260208201905092915050565b600081905092915050565b60006138358261392b565b91506138408361392b565b9250827fffffffffffffffffffffffffffffffffffffffffffffffffffffffffffffffff0382111561387557613874613a59565b5b828201905092915050565b600061388b8261392b565b91506138968361392b565b9250828210156138a9576138a8613a59565b5b828203905092915050565b60006138bf8261390b565b9050919050565b60008115159050919050565b60008190506138e082613c5c565b919050565b60008190506138f382613c70565b919050565b600081905061390682613c84565b919050565b600073ffffffffffffffffffffffffffffffffffffffff82169050919050565b6000819050919050565b6000613940826138d2565b9050919050565b6000613952826138e5565b9050919050565b6000613964826138f8565b9050919050565b82818337600083830152505050565b60005b8381101561399857808201518184015260208101905061397d565b838111156139a7576000848401525b50505050565b600060028204905060018216806139c557607f821691505b602082108114156139d9576139d8613ab7565b5b50919050565b6139e882613b58565b810181811067ffffffffffffffff82111715613a0757613a06613b15565b5b80604052505050565b6000613a1b8261392b565b91507fffffffffffffffffffffffffffffffffffffffffffffffffffffffffffffffff821415613a4e57613a4d613a59565b5b600182019050919050565b7f4e487b7100000000000000000000000000000000000000000000000000000000600052601160045260246000fd5b7f4e487b7100000000000000000000000000000000000000000000000000000000600052602160045260246000fd5b7f4e487b7100000000000000000000000000000000000000000000000000000000600052602260045260246000fd5b7f4e487b7100000000000000000000000000000000000000000000000000000000600052603260045260246000fd5b7f4e487b7100000000000000000000000000000000000000000000000000000000600052604160045260246000fd5b600080fd5b600080fd5b600080fd5b600080fd5b6000601f19601f8301169050919050565b7f496e636c7573616f20646f200000000000000000000000000000000000000000600082015250565b7f4170656e617320736f63696f7320617469766f7320706f64656d20616469636960008201527f6f6e6172206e6f766f7320736f63696f73210000000000000000000000000000602082015250565b7f20666569746120706f7220000000000000000000000000000000000000000000600082015250565b7f4d6f76696d656e746163616f2066696e616e63656972613a2000000000000000600082015250565b7f44657363726963616f3a20000000000000000000000000000000000000000000600082015250565b60048110613c6d57613c6c613a88565b5b50565b60058110613c8157613c80613a88565b5b50565b60028110613c9557613c94613a88565b5b50565b613ca1816138b4565b8114613cac57600080fd5b50565b60028110613cbc57600080fd5b50565b613cc88161392b565b8114613cd357600080fd5b5056fea26469706673582212203f3c4ae531ca8b71f1ed0c2a6c606bb027850b31dc2067057cd8d1e7569779bd64736f6c63430008070033",
  "immutableReferences": {},
  "source": "//SPDX-License-Identifier: MIT\r\npragma solidity >=0.8.0 <0.9.0;\r\n\r\nimport \"./Partner.sol\";\r\n\r\ncontract Banking is Partner {\r\n    enum statusMovimentacaoFinanceira {\r\n        pendenteVotacao,\r\n        pendenteEfetivacao,\r\n        ativo,\r\n        recusado\r\n    }\r\n\r\n    enum tipoMovimentacaoFinanceira {\r\n        pagar,\r\n        receber\r\n    }\r\n\r\n    struct MovimentacaoFinanceira {\r\n        statusMovimentacaoFinanceira status;\r\n        tipoMovimentacaoFinanceira tipo;\r\n        uint256 indexSocioInclusao;\r\n        uint256 indexSocioEfetivacao;\r\n        string titulo;\r\n        string descricao;\r\n        uint256 valor;\r\n        string conta;\r\n        uint256 dataVencimento;\r\n        uint256 dataEfetivacao;\r\n        uint256 dataRegistro;\r\n    }\r\n\r\n    MovimentacaoFinanceira[] movimentacoesFinanceiras;\r\n    mapping(uint256 => uint256) votacoesMovimentacoesFinanceiras; // index movimentacoesFinanceiras[] => index votacoes[]\r\n    uint256 saldoFinanceiro;\r\n\r\n    uint256 private prazoVotacao;\r\n\r\n    constructor() {\r\n        prazoVotacao = 3 days;\r\n    }\r\n\r\n    function GetEnumTipoMovimentacaoFinanceira(uint256 index)\r\n        public\r\n        pure\r\n        returns (string memory)\r\n    {\r\n        string[2] memory stringToEnum = [\"pagar\", \"receber\"];\r\n        return stringToEnum[index];\r\n    }\r\n\r\n    function GetEnumStatusMovimentacaoFinanceira(uint256 index)\r\n        public\r\n        pure\r\n        returns (string memory)\r\n    {\r\n        string[4] memory stringToEnum = [\r\n            \"pendenteVotacao\",\r\n            \"pendenteEfetivacao\",\r\n            \"ativo\",\r\n            \"recusado\"\r\n        ];\r\n        return stringToEnum[index];\r\n    }\r\n\r\n    function GetSaldoFundoTokens() public view returns (uint256 valor) {\r\n        // Considera o balano financeiro dos ltimos 30 dias\r\n        return saldoFinanceiro;\r\n    }\r\n\r\n    function AddMovimentacaoFinanceira(\r\n        tipoMovimentacaoFinanceira tipo,\r\n        string memory titulo,\r\n        string memory descricao,\r\n        uint256 valor,\r\n        string memory conta,\r\n        uint256 dataVencimento\r\n    ) public returns (uint256 index) {\r\n        (, uint256 indexSocioInclusao) = GetIndexSocioByAddress(msg.sender);\r\n\r\n        MovimentacaoFinanceira memory mv = MovimentacaoFinanceira({\r\n            status: statusMovimentacaoFinanceira.pendenteVotacao,\r\n            tipo: tipo,\r\n            indexSocioInclusao: indexSocioInclusao,\r\n            indexSocioEfetivacao: 0,\r\n            titulo: titulo,\r\n            descricao: descricao,\r\n            valor: valor,\r\n            conta: conta,\r\n            dataVencimento: dataVencimento,\r\n            dataEfetivacao: 0,\r\n            dataRegistro: block.timestamp\r\n        });\r\n        movimentacoesFinanceiras.push(mv);\r\n        index = movimentacoesFinanceiras.length - 1;\r\n\r\n        AddPropostaVotacaoMovimentacaoFinanceira(index);\r\n\r\n        //Temporrio\r\n        if (tipo == tipoMovimentacaoFinanceira.pagar) {\r\n            saldoFinanceiro = saldoFinanceiro - valor;\r\n        } else {\r\n            saldoFinanceiro = saldoFinanceiro + valor;\r\n        }\r\n    }\r\n\r\n    function AddPropostaVotacaoMovimentacaoFinanceira(uint256 index) private {\r\n        MovimentacaoFinanceira memory mv = movimentacoesFinanceiras[index];\r\n\r\n        string memory titulo = string(\r\n            abi.encodePacked(\"Movimentacao financeira: \", mv.titulo)\r\n        );\r\n        string memory descricao = string(\r\n            abi.encodePacked(\"Descricao: \", mv.descricao)\r\n        );\r\n        string[] memory tags = new string[](2);\r\n        tags[0] = \"banking\";\r\n        tags[1] = \"movimentacaoFinanceira\";\r\n        // tags[2] = string(abi.encodePacked(\"index:\", index));\r\n        // tags[3] = GetEnumTipoMovimentacaoFinanceira(uint256(mv.tipo));\r\n\r\n        uint256 dataTermino = mv.dataRegistro + prazoVotacao;\r\n        uint256 indexVotacao = AddPropostaVotacao(\r\n            titulo,\r\n            descricao,\r\n            tags,\r\n            dataTermino\r\n        );\r\n        votacoesMovimentacoesFinanceiras[index] = indexVotacao;\r\n    }\r\n\r\n    function GetMovimentacaoFinanceira(uint256 index)\r\n        public\r\n        view\r\n        returns (\r\n            statusMovimentacaoFinanceira status,\r\n            tipoMovimentacaoFinanceira tipo,\r\n            uint256 indexSocioInclusao,\r\n            uint256 indexSocioEfetivacao,\r\n            string memory titulo,\r\n            string memory descricao,\r\n            uint256 valor,\r\n            string memory conta,\r\n            uint256 dataVencimento,\r\n            uint256 dataEfetivacao,\r\n            uint256 dataRegistro\r\n        )\r\n    {\r\n        MovimentacaoFinanceira memory mv = movimentacoesFinanceiras[index];\r\n        uint256 indexVotacao = votacoesMovimentacoesFinanceiras[index];\r\n\r\n        if (mv.status == statusMovimentacaoFinanceira.pendenteVotacao) {\r\n            (bool finalizada, , , ) = Consent.GetResultadoVotacao(indexVotacao);\r\n\r\n            if (finalizada == true) {\r\n                mv.status = statusMovimentacaoFinanceira.pendenteEfetivacao;\r\n            }\r\n        }\r\n\r\n        return (\r\n            mv.status,\r\n            mv.tipo,\r\n            mv.indexSocioInclusao,\r\n            mv.indexSocioEfetivacao,\r\n            mv.titulo,\r\n            mv.descricao,\r\n            mv.valor,\r\n            mv.conta,\r\n            mv.dataVencimento,\r\n            mv.dataEfetivacao,\r\n            mv.dataRegistro\r\n        );\r\n    }\r\n\r\n    function GetMovimentacoesFinanceira()\r\n        public\r\n        view\r\n        returns (uint256[] memory)\r\n    {\r\n        uint256[] memory arrayIndex = new uint256[](\r\n            movimentacoesFinanceiras.length\r\n        );\r\n\r\n        for (uint256 i; i < movimentacoesFinanceiras.length; i++) {\r\n            arrayIndex[i] = i;\r\n        }\r\n\r\n        return arrayIndex;\r\n    }\r\n\r\n    // GetLancamentosPendentesVotacao\r\n\r\n    function GetMovimentacoesFinanceirasPendentesEfetivacao()\r\n        public\r\n        view\r\n        returns (uint256[] memory)\r\n    {\r\n        uint256 index = 0;\r\n        uint256 tamanhoArray = 0;\r\n        uint256[] memory arrayTemp;\r\n\r\n        for (uint256 i; i < movimentacoesFinanceiras.length; i++) {\r\n            if (\r\n                movimentacoesFinanceiras[i].status ==\r\n                statusMovimentacaoFinanceira.pendenteVotacao\r\n            ) {\r\n                (bool finalizada, , , ) = GetResultadoVotacao(\r\n                    votacoesMovimentacoesFinanceiras[i]\r\n                );\r\n\r\n                if (finalizada == true) {\r\n                    tamanhoArray++;\r\n                }\r\n            }\r\n        }\r\n\r\n        arrayTemp = new uint256[](tamanhoArray);\r\n\r\n        for (uint256 i; i < movimentacoesFinanceiras.length; i++) {\r\n            if (\r\n                movimentacoesFinanceiras[i].status ==\r\n                statusMovimentacaoFinanceira.pendenteVotacao\r\n            ) {\r\n                (bool finalizada, , , ) = GetResultadoVotacao(\r\n                    votacoesMovimentacoesFinanceiras[i]\r\n                );\r\n\r\n                if (finalizada == true) {\r\n                    arrayTemp[index] = i;\r\n                    index++;\r\n                }\r\n            }\r\n        }\r\n\r\n        return arrayTemp;\r\n    }\r\n\r\n    function EfetivarLancamento(uint256 index) public returns (bool) {\r\n        (bool finalizada, bool resultado, , ) = GetResultadoVotacao(\r\n            votacoesMovimentacoesFinanceiras[index]\r\n        );\r\n\r\n        if (\r\n            movimentacoesFinanceiras[index].status ==\r\n            statusMovimentacaoFinanceira.pendenteVotacao &&\r\n            finalizada == true\r\n        ) {\r\n            if (resultado == true) {\r\n                movimentacoesFinanceiras[index]\r\n                    .status = statusMovimentacaoFinanceira.ativo;\r\n            } else {\r\n                movimentacoesFinanceiras[index]\r\n                    .status = statusMovimentacaoFinanceira.recusado;\r\n            }\r\n        }\r\n\r\n        (, uint256 indexSocioEfetivacao) = GetIndexSocioByAddress(msg.sender);\r\n        movimentacoesFinanceiras[index]\r\n            .indexSocioEfetivacao = indexSocioEfetivacao;\r\n        movimentacoesFinanceiras[index].dataEfetivacao = block.timestamp;\r\n\r\n        return true;\r\n    }\r\n}\r\n",
  "sourcePath": "C:\\projetos\\dao7\\contracts\\contracts\\Banking.sol",
  "compiler": {
    "name": "solc",
    "version": "0.8.7+commit.e28d00a7.Emscripten.clang"
  },
  "schemaVersion": "3.4.3",
  "updatedAt": "2021-11-02T19:30:46.270Z",
  "devdoc": {
    "kind": "dev",
    "methods": {},
    "version": 1
  },
  "userdoc": {
    "kind": "user",
    "methods": {},
    "version": 1
  }
}