{
  "contractName": "Consent",
  "abi": [
    {
      "inputs": [],
      "stateMutability": "nonpayable",
      "type": "constructor"
    },
    {
      "inputs": [
        {
          "internalType": "uint256",
          "name": "index",
          "type": "uint256"
        },
        {
          "internalType": "address",
          "name": "addressSocio",
          "type": "address"
        }
      ],
      "name": "JaVotou",
      "outputs": [
        {
          "internalType": "bool",
          "name": "votado",
          "type": "bool"
        }
      ],
      "stateMutability": "view",
      "type": "function"
    },
    {
      "inputs": [
        {
          "internalType": "uint256",
          "name": "index",
          "type": "uint256"
        }
      ],
      "name": "GetPropostaVotacao",
      "outputs": [
        {
          "internalType": "address",
          "name": "ownerVotacao",
          "type": "address"
        },
        {
          "internalType": "string",
          "name": "titulo",
          "type": "string"
        },
        {
          "internalType": "string",
          "name": "descricao",
          "type": "string"
        },
        {
          "internalType": "string[]",
          "name": "tags",
          "type": "string[]"
        },
        {
          "internalType": "uint256",
          "name": "dataTermino",
          "type": "uint256"
        },
        {
          "internalType": "uint256",
          "name": "dataRegistro",
          "type": "uint256"
        }
      ],
      "stateMutability": "view",
      "type": "function"
    },
    {
      "inputs": [
        {
          "internalType": "uint256",
          "name": "index",
          "type": "uint256"
        }
      ],
      "name": "GetResultadoVotacao",
      "outputs": [
        {
          "internalType": "bool",
          "name": "finalizada",
          "type": "bool"
        },
        {
          "internalType": "bool",
          "name": "resultado",
          "type": "bool"
        },
        {
          "internalType": "uint256",
          "name": "votosAprovacao",
          "type": "uint256"
        },
        {
          "internalType": "uint256",
          "name": "votosReprovacao",
          "type": "uint256"
        }
      ],
      "stateMutability": "view",
      "type": "function"
    },
    {
      "inputs": [],
      "name": "GetVotacoesAbertas",
      "outputs": [
        {
          "internalType": "uint256[]",
          "name": "_votacoes",
          "type": "uint256[]"
        }
      ],
      "stateMutability": "view",
      "type": "function"
    }
  ],
  "bytecode": "0x608060405234801561001057600080fd5b50610e9c806100206000396000f3fe608060405234801561001057600080fd5b506004361061004c5760003560e01c80632ccdab8a14610051578063362f13671461008457806369512a07146100b4578063b2f5f56d146100e9575b600080fd5b61006b60048036038101906100669190610869565b610107565b60405161007b9493929190610b36565b60405180910390f35b61009e60048036038101906100999190610896565b610304565b6040516100ab9190610b1b565b60405180910390f35b6100ce60048036038101906100c99190610869565b61042a565b6040516100e096959493929190610a83565b60405180910390f35b6100f1610700565b6040516100fe9190610af9565b60405180910390f35b6000806000806000935060009250600091506000905060006003600087815260200190815260200160002080548060200260200160405190810160405280929190818152602001828054801561017c57602002820191906000526020600020905b815481526020019060010190808311610168575b5050505050905060005b815181101561029b576001151560028383815181106101a8576101a7610dc4565b5b6020026020010151815481106101c1576101c0610dc4565b5b906000526020600020906003020160000160149054906101000a900460ff161515141561023a5760028282815181106101fd576101fc610dc4565b5b60200260200101518154811061021657610215610dc4565b5b906000526020600020906003020160010154846102339190610c1a565b9350610288565b600282828151811061024f5761024e610dc4565b5b60200260200101518154811061026857610267610dc4565b5b906000526020600020906003020160010154836102859190610c1a565b92505b808061029390610d1d565b915050610186565b5042600187815481106102b1576102b0610dc4565b5b90600052602060002090600602016004015410806102d0575061138883115b806102dc575061138882115b156102e657600194505b818311156102f757600193506102fc565b600093505b509193509193565b6000806003600085815260200190815260200160002080548060200260200160405190810160405280929190818152602001828054801561036457602002820191906000526020600020905b815481526020019060010190808311610350575b5050505050905060005b8151811015610422578373ffffffffffffffffffffffffffffffffffffffff1660028383815181106103a3576103a2610dc4565b5b6020026020010151815481106103bc576103bb610dc4565b5b906000526020600020906003020160000160009054906101000a900473ffffffffffffffffffffffffffffffffffffffff1673ffffffffffffffffffffffffffffffffffffffff16141561040f57600192505b808061041a90610d1d565b91505061036e565b505092915050565b6000606080606060008060006001888154811061044a57610449610dc4565b5b90600052602060002090600602016040518060c00160405290816000820160009054906101000a900473ffffffffffffffffffffffffffffffffffffffff1673ffffffffffffffffffffffffffffffffffffffff1673ffffffffffffffffffffffffffffffffffffffff1681526020016001820180546104c990610ceb565b80601f01602080910402602001604051908101604052809291908181526020018280546104f590610ceb565b80156105425780601f1061051757610100808354040283529160200191610542565b820191906000526020600020905b81548152906001019060200180831161052557829003601f168201915b5050505050815260200160028201805461055b90610ceb565b80601f016020809104026020016040519081016040528092919081815260200182805461058790610ceb565b80156105d45780601f106105a9576101008083540402835291602001916105d4565b820191906000526020600020905b8154815290600101906020018083116105b757829003601f168201915b5050505050815260200160038201805480602002602001604051908101604052809291908181526020016000905b828210156106ae57838290600052602060002001805461062190610ceb565b80601f016020809104026020016040519081016040528092919081815260200182805461064d90610ceb565b801561069a5780601f1061066f5761010080835404028352916020019161069a565b820191906000526020600020905b81548152906001019060200180831161067d57829003601f168201915b505050505081526020019060010190610602565b505050508152602001600482015481526020016005820154815250509050806000015181602001518260400151836060015184608001518560a001519650965096509650965096505091939550919395565b60606000806060600042905060005b60018054905081101561076a57816001828154811061073157610730610dc4565b5b9060005260206000209060060201600401541061075757838061075390610d1d565b9450505b808061076290610d1d565b91505061070f565b508267ffffffffffffffff81111561078557610784610df3565b5b6040519080825280602002602001820160405280156107b35781602001602082028036833780820191505090505b50915060005b6001805490508110156108345781600182815481106107db576107da610dc4565b5b90600052602060002090600602016004015410610821578083868151811061080657610805610dc4565b5b602002602001018181525050848061081d90610d1d565b9550505b808061082c90610d1d565b9150506107b9565b508194505050505090565b60008135905061084e81610e38565b92915050565b60008135905061086381610e4f565b92915050565b60006020828403121561087f5761087e610e22565b5b600061088d84828501610854565b91505092915050565b600080604083850312156108ad576108ac610e22565b5b60006108bb85828601610854565b92505060206108cc8582860161083f565b9150509250929050565b60006108e283836109f3565b905092915050565b60006108f68383610a65565b60208301905092915050565b61090b81610c70565b82525050565b600061091c82610b9b565b6109268185610bd6565b93508360208202850161093885610b7b565b8060005b85811015610974578484038952815161095585826108d6565b945061096083610bbc565b925060208a0199505060018101905061093c565b50829750879550505050505092915050565b600061099182610ba6565b61099b8185610be7565b93506109a683610b8b565b8060005b838110156109d75781516109be88826108ea565b97506109c983610bc9565b9250506001810190506109aa565b5085935050505092915050565b6109ed81610c82565b82525050565b60006109fe82610bb1565b610a088185610bf8565b9350610a18818560208601610cb8565b610a2181610e27565b840191505092915050565b6000610a3782610bb1565b610a418185610c09565b9350610a51818560208601610cb8565b610a5a81610e27565b840191505092915050565b610a6e81610cae565b82525050565b610a7d81610cae565b82525050565b600060c082019050610a986000830189610902565b8181036020830152610aaa8188610a2c565b90508181036040830152610abe8187610a2c565b90508181036060830152610ad28186610911565b9050610ae16080830185610a74565b610aee60a0830184610a74565b979650505050505050565b60006020820190508181036000830152610b138184610986565b905092915050565b6000602082019050610b3060008301846109e4565b92915050565b6000608082019050610b4b60008301876109e4565b610b5860208301866109e4565b610b656040830185610a74565b610b726060830184610a74565b95945050505050565b6000819050602082019050919050565b6000819050602082019050919050565b600081519050919050565b600081519050919050565b600081519050919050565b6000602082019050919050565b6000602082019050919050565b600082825260208201905092915050565b600082825260208201905092915050565b600082825260208201905092915050565b600082825260208201905092915050565b6000610c2582610cae565b9150610c3083610cae565b9250827fffffffffffffffffffffffffffffffffffffffffffffffffffffffffffffffff03821115610c6557610c64610d66565b5b828201905092915050565b6000610c7b82610c8e565b9050919050565b60008115159050919050565b600073ffffffffffffffffffffffffffffffffffffffff82169050919050565b6000819050919050565b60005b83811015610cd6578082015181840152602081019050610cbb565b83811115610ce5576000848401525b50505050565b60006002820490506001821680610d0357607f821691505b60208210811415610d1757610d16610d95565b5b50919050565b6000610d2882610cae565b91507fffffffffffffffffffffffffffffffffffffffffffffffffffffffffffffffff821415610d5b57610d5a610d66565b5b600182019050919050565b7f4e487b7100000000000000000000000000000000000000000000000000000000600052601160045260246000fd5b7f4e487b7100000000000000000000000000000000000000000000000000000000600052602260045260246000fd5b7f4e487b7100000000000000000000000000000000000000000000000000000000600052603260045260246000fd5b7f4e487b7100000000000000000000000000000000000000000000000000000000600052604160045260246000fd5b600080fd5b6000601f19601f8301169050919050565b610e4181610c70565b8114610e4c57600080fd5b50565b610e5881610cae565b8114610e6357600080fd5b5056fea2646970667358221220f70c5abf417a1e5cd3493c5d958167d1df3ece0dc4a917d25c6df9d03fe5b12b64736f6c63430008070033",
  "immutableReferences": {},
  "source": "//SPDX-License-Identifier: MIT\r\npragma solidity >=0.8.0 <0.9.0;\r\n\r\ncontract Consent {\r\n    address owner;\r\n\r\n    struct PropostaVotacao {\r\n        address owner;\r\n        string titulo;\r\n        string descricao;\r\n        string[] tags;\r\n        uint256 dataTermino;\r\n        uint256 dataRegistro;\r\n    }\r\n\r\n    struct Voto {\r\n        address owner;\r\n        bool voto;\r\n        uint256 peso;\r\n        uint256 dataRegistro;\r\n    }\r\n\r\n    PropostaVotacao[] private votacoes;\r\n    Voto[] private votos;\r\n\r\n    mapping(uint256 => uint256[]) votacao; //index votacao / array votos\r\n\r\n    constructor() {}\r\n\r\n    function AddPropostaVotacao(\r\n        string memory titulo,\r\n        string memory descricao,\r\n        string[] memory tags,\r\n        uint256 dataTermino\r\n    ) internal returns (uint256 index) {\r\n        //Transformar o mtodo em privado pois s poder ser acessado\r\n        //pelos Contratos filhos devido a necessidade de reconhecer a\r\n        //lista de scios e o peso de cada voto\r\n\r\n        votacoes.push(\r\n            PropostaVotacao({\r\n                owner: msg.sender,\r\n                titulo: titulo,\r\n                descricao: descricao,\r\n                tags: tags,\r\n                dataTermino: dataTermino,\r\n                dataRegistro: block.timestamp\r\n            })\r\n        );\r\n        index = votacoes.length - 1;\r\n        return index;\r\n    }\r\n\r\n    function JaVotou(uint256 index, address addressSocio)\r\n        public\r\n        view\r\n        returns (bool votado)\r\n    {\r\n        votado = false;\r\n        uint256[] memory indexVoto = votacao[index];\r\n\r\n        for (uint256 i = 0; i < indexVoto.length; i++) {\r\n            if (votos[indexVoto[i]].owner == addressSocio) {\r\n                votado = true;\r\n            }\r\n        }\r\n\r\n        return votado;\r\n    }\r\n\r\n    function Votar(\r\n        uint256 index,\r\n        uint256 peso,\r\n        bool voto\r\n    ) internal {\r\n        require(JaVotou(index, msg.sender) == false, \"Ja votou!\");\r\n\r\n        votos.push(\r\n            Voto({\r\n                owner: msg.sender,\r\n                voto: voto,\r\n                peso: peso,\r\n                dataRegistro: block.timestamp\r\n            })\r\n        );\r\n        uint256 indexVoto = votos.length - 1;\r\n        votacao[index].push(indexVoto);\r\n    }\r\n\r\n    function GetPropostaVotacao(uint256 index)\r\n        public\r\n        view\r\n        returns (\r\n            address ownerVotacao,\r\n            string memory titulo,\r\n            string memory descricao,\r\n            string[] memory tags,\r\n            uint256 dataTermino,\r\n            uint256 dataRegistro\r\n        )\r\n    {\r\n        PropostaVotacao memory propostaVotacao = votacoes[index];\r\n\r\n        return (\r\n            propostaVotacao.owner,\r\n            propostaVotacao.titulo,\r\n            propostaVotacao.descricao,\r\n            propostaVotacao.tags,\r\n            propostaVotacao.dataTermino,\r\n            propostaVotacao.dataRegistro\r\n        );\r\n    }\r\n\r\n    function GetResultadoVotacao(uint256 index)\r\n        public\r\n        view\r\n        returns (\r\n            bool finalizada,\r\n            bool resultado,\r\n            uint256 votosAprovacao,\r\n            uint256 votosReprovacao\r\n        )\r\n    {\r\n        //se nao tiver resultado, verificar no array votacoes se j encerrou o prazo e carregar o resultado no mapping\r\n\r\n        finalizada = false;\r\n        resultado = false;\r\n        votosAprovacao = 0;\r\n        votosReprovacao = 0;\r\n\r\n        uint256[] memory _votos = votacao[index];\r\n\r\n        for (uint256 i; i < _votos.length; i++) {\r\n            if (votos[_votos[i]].voto == true) {\r\n                votosAprovacao += votos[_votos[i]].peso;\r\n            } else {\r\n                votosReprovacao += votos[_votos[i]].peso;\r\n            }\r\n        }\r\n\r\n        if (\r\n            votacoes[index].dataTermino < block.timestamp ||\r\n            votosAprovacao > 5000 ||\r\n            votosReprovacao > 5000\r\n        ) {\r\n            finalizada = true;\r\n        }\r\n\r\n        if (votosAprovacao > votosReprovacao) {\r\n            resultado = true;\r\n        } else {\r\n            resultado = false;\r\n        }\r\n\r\n        return (finalizada, resultado, votosAprovacao, votosReprovacao);\r\n    }\r\n\r\n    function GetVotacoesAbertas()\r\n        public\r\n        view\r\n        returns (uint256[] memory _votacoes)\r\n    {\r\n        uint256 _index = 0;\r\n        uint256 _qtdVotacoes = 0;\r\n        uint256[] memory _arrayTemp;\r\n        uint256 _agora = block.timestamp;\r\n\r\n        for (uint256 i; i < votacoes.length; i++) {\r\n            if (votacoes[i].dataTermino >= _agora) {\r\n                _qtdVotacoes++;\r\n            }\r\n        }\r\n\r\n        _arrayTemp = new uint256[](_qtdVotacoes);\r\n        for (uint256 i; i < votacoes.length; i++) {\r\n            if (votacoes[i].dataTermino >= _agora) {\r\n                _arrayTemp[_index] = i;\r\n                _index++;\r\n            }\r\n        }\r\n\r\n        _votacoes = _arrayTemp;\r\n\r\n        return _votacoes;\r\n    }\r\n}\r\n",
  "sourcePath": "C:\\projetos\\dao7\\contracts\\contracts\\Consent.sol",
  "compiler": {
    "name": "solc",
    "version": "0.8.7+commit.e28d00a7.Emscripten.clang"
  },
  "schemaVersion": "3.4.3",
  "updatedAt": "2021-11-02T14:36:18.825Z",
  "devdoc": {
    "kind": "dev",
    "methods": {},
    "version": 1
  },
  "userdoc": {
    "kind": "user",
    "methods": {},
    "version": 1
  }
}