{
  "contractName": "DAO7",
  "abi": [
    {
      "inputs": [],
      "stateMutability": "nonpayable",
      "type": "constructor"
    },
    {
      "inputs": [
        {
          "internalType": "address",
          "name": "addressSocio",
          "type": "address"
        },
        {
          "internalType": "uint256",
          "name": "quantidadeTokens",
          "type": "uint256"
        },
        {
          "internalType": "uint256",
          "name": "dataLiquidacao",
          "type": "uint256"
        }
      ],
      "name": "AddContratoToken",
      "outputs": [
        {
          "internalType": "uint256",
          "name": "index",
          "type": "uint256"
        }
      ],
      "stateMutability": "nonpayable",
      "type": "function"
    },
    {
      "inputs": [
        {
          "internalType": "enum Banking.tipoMovimentacaoFinanceira",
          "name": "tipo",
          "type": "uint8"
        },
        {
          "internalType": "string",
          "name": "titulo",
          "type": "string"
        },
        {
          "internalType": "string",
          "name": "descricao",
          "type": "string"
        },
        {
          "internalType": "uint256",
          "name": "valor",
          "type": "uint256"
        },
        {
          "internalType": "string",
          "name": "conta",
          "type": "string"
        },
        {
          "internalType": "uint256",
          "name": "dataVencimento",
          "type": "uint256"
        }
      ],
      "name": "AddMovimentacaoFinanceira",
      "outputs": [
        {
          "internalType": "uint256",
          "name": "index",
          "type": "uint256"
        }
      ],
      "stateMutability": "nonpayable",
      "type": "function"
    },
    {
      "inputs": [
        {
          "internalType": "address",
          "name": "addressSocio",
          "type": "address"
        },
        {
          "internalType": "string",
          "name": "nome",
          "type": "string"
        },
        {
          "internalType": "string",
          "name": "email",
          "type": "string"
        },
        {
          "internalType": "string",
          "name": "conta",
          "type": "string"
        }
      ],
      "name": "AddSocio",
      "outputs": [],
      "stateMutability": "nonpayable",
      "type": "function"
    },
    {
      "inputs": [
        {
          "internalType": "uint256",
          "name": "index",
          "type": "uint256"
        }
      ],
      "name": "EfetivarLancamento",
      "outputs": [
        {
          "internalType": "bool",
          "name": "",
          "type": "bool"
        }
      ],
      "stateMutability": "nonpayable",
      "type": "function"
    },
    {
      "inputs": [
        {
          "internalType": "uint256",
          "name": "index",
          "type": "uint256"
        }
      ],
      "name": "EfetivarVotacaoSocio",
      "outputs": [],
      "stateMutability": "nonpayable",
      "type": "function"
    },
    {
      "inputs": [
        {
          "internalType": "uint256",
          "name": "index",
          "type": "uint256"
        }
      ],
      "name": "EfetivarVotacaoToken",
      "outputs": [],
      "stateMutability": "nonpayable",
      "type": "function"
    },
    {
      "inputs": [
        {
          "internalType": "uint256",
          "name": "index",
          "type": "uint256"
        }
      ],
      "name": "GetContratoToken",
      "outputs": [
        {
          "internalType": "uint256",
          "name": "indexSocio",
          "type": "uint256"
        },
        {
          "internalType": "uint256",
          "name": "quantidadeTokens",
          "type": "uint256"
        },
        {
          "internalType": "uint256",
          "name": "quantidadeTokensRestante",
          "type": "uint256"
        },
        {
          "internalType": "uint256",
          "name": "dataLiquidacao",
          "type": "uint256"
        },
        {
          "internalType": "uint256",
          "name": "dataRegistro",
          "type": "uint256"
        },
        {
          "internalType": "enum Token.statusContratoToken",
          "name": "status",
          "type": "uint8"
        }
      ],
      "stateMutability": "view",
      "type": "function",
      "constant": true
    },
    {
      "inputs": [],
      "name": "GetContratosToken",
      "outputs": [
        {
          "internalType": "uint256[]",
          "name": "",
          "type": "uint256[]"
        }
      ],
      "stateMutability": "view",
      "type": "function",
      "constant": true
    },
    {
      "inputs": [],
      "name": "GetCotacaoToken",
      "outputs": [
        {
          "internalType": "uint256",
          "name": "cotacao",
          "type": "uint256"
        }
      ],
      "stateMutability": "view",
      "type": "function",
      "constant": true
    },
    {
      "inputs": [
        {
          "internalType": "uint256",
          "name": "index",
          "type": "uint256"
        }
      ],
      "name": "GetEnumStatusMovimentacaoFinanceira",
      "outputs": [
        {
          "internalType": "string",
          "name": "",
          "type": "string"
        }
      ],
      "stateMutability": "pure",
      "type": "function",
      "constant": true
    },
    {
      "inputs": [
        {
          "internalType": "uint256",
          "name": "index",
          "type": "uint256"
        }
      ],
      "name": "GetEnumTipoMovimentacaoFinanceira",
      "outputs": [
        {
          "internalType": "string",
          "name": "",
          "type": "string"
        }
      ],
      "stateMutability": "pure",
      "type": "function",
      "constant": true
    },
    {
      "inputs": [
        {
          "internalType": "uint256",
          "name": "index",
          "type": "uint256"
        }
      ],
      "name": "GetMovimentacaoFinanceira",
      "outputs": [
        {
          "internalType": "enum Banking.statusMovimentacaoFinanceira",
          "name": "status",
          "type": "uint8"
        },
        {
          "internalType": "enum Banking.tipoMovimentacaoFinanceira",
          "name": "tipo",
          "type": "uint8"
        },
        {
          "internalType": "uint256",
          "name": "indexSocioInclusao",
          "type": "uint256"
        },
        {
          "internalType": "uint256",
          "name": "indexSocioEfetivacao",
          "type": "uint256"
        },
        {
          "internalType": "string",
          "name": "titulo",
          "type": "string"
        },
        {
          "internalType": "string",
          "name": "descricao",
          "type": "string"
        },
        {
          "internalType": "uint256",
          "name": "valor",
          "type": "uint256"
        },
        {
          "internalType": "string",
          "name": "conta",
          "type": "string"
        },
        {
          "internalType": "uint256",
          "name": "dataVencimento",
          "type": "uint256"
        },
        {
          "internalType": "uint256",
          "name": "dataEfetivacao",
          "type": "uint256"
        },
        {
          "internalType": "uint256",
          "name": "dataRegistro",
          "type": "uint256"
        }
      ],
      "stateMutability": "view",
      "type": "function",
      "constant": true
    },
    {
      "inputs": [],
      "name": "GetMovimentacoesFinanceira",
      "outputs": [
        {
          "internalType": "uint256[]",
          "name": "",
          "type": "uint256[]"
        }
      ],
      "stateMutability": "view",
      "type": "function",
      "constant": true
    },
    {
      "inputs": [],
      "name": "GetMovimentacoesFinanceirasPendentesEfetivacao",
      "outputs": [
        {
          "internalType": "uint256[]",
          "name": "",
          "type": "uint256[]"
        }
      ],
      "stateMutability": "view",
      "type": "function",
      "constant": true
    },
    {
      "inputs": [
        {
          "internalType": "uint256",
          "name": "index",
          "type": "uint256"
        }
      ],
      "name": "GetPropostaVotacao",
      "outputs": [
        {
          "internalType": "address",
          "name": "ownerVotacao",
          "type": "address"
        },
        {
          "internalType": "string",
          "name": "titulo",
          "type": "string"
        },
        {
          "internalType": "string",
          "name": "descricao",
          "type": "string"
        },
        {
          "internalType": "string[]",
          "name": "tags",
          "type": "string[]"
        },
        {
          "internalType": "uint256",
          "name": "dataTermino",
          "type": "uint256"
        },
        {
          "internalType": "uint256",
          "name": "dataRegistro",
          "type": "uint256"
        }
      ],
      "stateMutability": "view",
      "type": "function",
      "constant": true
    },
    {
      "inputs": [
        {
          "internalType": "uint256",
          "name": "index",
          "type": "uint256"
        }
      ],
      "name": "GetResultadoVotacao",
      "outputs": [
        {
          "internalType": "bool",
          "name": "finalizada",
          "type": "bool"
        },
        {
          "internalType": "bool",
          "name": "resultado",
          "type": "bool"
        },
        {
          "internalType": "uint256",
          "name": "votosAprovacao",
          "type": "uint256"
        },
        {
          "internalType": "uint256",
          "name": "votosReprovacao",
          "type": "uint256"
        }
      ],
      "stateMutability": "view",
      "type": "function",
      "constant": true
    },
    {
      "inputs": [],
      "name": "GetSaldoFundoTokens",
      "outputs": [
        {
          "internalType": "uint256",
          "name": "valor",
          "type": "uint256"
        }
      ],
      "stateMutability": "view",
      "type": "function",
      "constant": true
    },
    {
      "inputs": [
        {
          "internalType": "uint256",
          "name": "index",
          "type": "uint256"
        }
      ],
      "name": "GetSocio",
      "outputs": [
        {
          "internalType": "uint256",
          "name": "indexSocioIndicacao",
          "type": "uint256"
        },
        {
          "internalType": "address",
          "name": "addressSocio",
          "type": "address"
        },
        {
          "internalType": "string",
          "name": "nome",
          "type": "string"
        },
        {
          "internalType": "string",
          "name": "email",
          "type": "string"
        },
        {
          "internalType": "string",
          "name": "conta",
          "type": "string"
        },
        {
          "internalType": "uint256",
          "name": "dataRegistro",
          "type": "uint256"
        },
        {
          "internalType": "enum Partner.statusSocio",
          "name": "status",
          "type": "uint8"
        }
      ],
      "stateMutability": "view",
      "type": "function",
      "constant": true
    },
    {
      "inputs": [],
      "name": "GetSocios",
      "outputs": [
        {
          "internalType": "uint256[]",
          "name": "",
          "type": "uint256[]"
        }
      ],
      "stateMutability": "view",
      "type": "function",
      "constant": true
    },
    {
      "inputs": [
        {
          "internalType": "address",
          "name": "addressSocio",
          "type": "address"
        }
      ],
      "name": "GetTokensPorSocio",
      "outputs": [
        {
          "internalType": "uint256",
          "name": "total",
          "type": "uint256"
        },
        {
          "internalType": "uint256",
          "name": "liberados",
          "type": "uint256"
        }
      ],
      "stateMutability": "view",
      "type": "function",
      "constant": true
    },
    {
      "inputs": [
        {
          "internalType": "address",
          "name": "addressSocio",
          "type": "address"
        },
        {
          "internalType": "uint256",
          "name": "data",
          "type": "uint256"
        }
      ],
      "name": "GetTokensPorSocioPorData",
      "outputs": [
        {
          "internalType": "uint256",
          "name": "total",
          "type": "uint256"
        }
      ],
      "stateMutability": "view",
      "type": "function",
      "constant": true
    },
    {
      "inputs": [],
      "name": "GetTotalTokens",
      "outputs": [
        {
          "internalType": "uint256",
          "name": "total",
          "type": "uint256"
        },
        {
          "internalType": "uint256",
          "name": "liberados",
          "type": "uint256"
        }
      ],
      "stateMutability": "view",
      "type": "function",
      "constant": true
    },
    {
      "inputs": [
        {
          "internalType": "uint256",
          "name": "data",
          "type": "uint256"
        }
      ],
      "name": "GetTotalTokensPorData",
      "outputs": [
        {
          "internalType": "uint256",
          "name": "total",
          "type": "uint256"
        }
      ],
      "stateMutability": "view",
      "type": "function",
      "constant": true
    },
    {
      "inputs": [],
      "name": "GetVotacoesAbertas",
      "outputs": [
        {
          "internalType": "uint256[]",
          "name": "_votacoes",
          "type": "uint256[]"
        }
      ],
      "stateMutability": "view",
      "type": "function",
      "constant": true
    },
    {
      "inputs": [
        {
          "internalType": "uint256",
          "name": "index",
          "type": "uint256"
        },
        {
          "internalType": "address",
          "name": "addressSocio",
          "type": "address"
        }
      ],
      "name": "JaVotou",
      "outputs": [
        {
          "internalType": "bool",
          "name": "votado",
          "type": "bool"
        }
      ],
      "stateMutability": "view",
      "type": "function",
      "constant": true
    },
    {
      "inputs": [
        {
          "internalType": "uint256",
          "name": "quantidadeDesejada",
          "type": "uint256"
        }
      ],
      "name": "LiquidarToken",
      "outputs": [
        {
          "internalType": "uint256",
          "name": "quantidadeLiquidada",
          "type": "uint256"
        },
        {
          "internalType": "uint256",
          "name": "valorLiquidado",
          "type": "uint256"
        }
      ],
      "stateMutability": "nonpayable",
      "type": "function"
    },
    {
      "inputs": [
        {
          "internalType": "address",
          "name": "addressSocio",
          "type": "address"
        }
      ],
      "name": "SocioAtivo",
      "outputs": [
        {
          "internalType": "bool",
          "name": "socioAtivo",
          "type": "bool"
        }
      ],
      "stateMutability": "view",
      "type": "function",
      "constant": true
    },
    {
      "inputs": [],
      "name": "SociosPendentes",
      "outputs": [
        {
          "internalType": "uint256[]",
          "name": "",
          "type": "uint256[]"
        }
      ],
      "stateMutability": "view",
      "type": "function",
      "constant": true
    },
    {
      "inputs": [
        {
          "internalType": "uint256",
          "name": "index",
          "type": "uint256"
        },
        {
          "internalType": "bool",
          "name": "voto",
          "type": "bool"
        }
      ],
      "name": "Votar",
      "outputs": [],
      "stateMutability": "nonpayable",
      "type": "function"
    }
  ],
  "bytecode": "0x60806040523480156200001157600080fd5b506203f48060078190555060006040518060e00160405280600081526020013373ffffffffffffffffffffffffffffffffffffffff1681526020016040518060400160405280600581526020017f6f776e6572000000000000000000000000000000000000000000000000000000815250815260200160405180602001604052806000815250815260200160405180602001604052806000815250815260200142815260200160026004811115620000ce57620000cd620003e7565b5b815250905060048190806001815401808255809150506001900390600052602060002090600702016000909190919091506000820151816000015560208201518160010160006101000a81548173ffffffffffffffffffffffffffffffffffffffff021916908373ffffffffffffffffffffffffffffffffffffffff16021790555060408201518160020190805190602001906200016e92919062000301565b5060608201518160030190805190602001906200018d92919062000301565b506080820151816004019080519060200190620001ac92919062000301565b5060a0820151816005015560c08201518160060160006101000a81548160ff02191690836004811115620001e557620001e4620003e7565b5b02179055505050506203f480600b81905550610bb8600c819055506203f480601081905550600d6040518060c00160405280600081526020016001815260200160018152602001428152602001428152602001600260038111156200024f576200024e620003e7565b5b8152509080600181540180825580915050600190039060005260206000209060060201600090919091909150600082015181600001556020820151816001015560408201518160020155606082015181600301556080820151816004015560a08201518160050160006101000a81548160ff02191690836003811115620002db57620002da620003e7565b5b021790555050506000600e60008081526020019081526020016000208190555062000445565b8280546200030f90620003b1565b90600052602060002090601f0160209004810192826200033357600085556200037f565b82601f106200034e57805160ff19168380011785556200037f565b828001600101855582156200037f579182015b828111156200037e57825182559160200191906001019062000361565b5b5090506200038e919062000392565b5090565b5b80821115620003ad57600081600090555060010162000393565b5090565b60006002820490506001821680620003ca57607f821691505b60208210811415620003e157620003e062000416565b5b50919050565b7f4e487b7100000000000000000000000000000000000000000000000000000000600052602160045260246000fd5b7f4e487b7100000000000000000000000000000000000000000000000000000000600052602260045260246000fd5b6157d880620004556000396000f3fe608060405234801561001057600080fd5b50600436106101cf5760003560e01c806381b2664a11610104578063d27eaa93116100a2578063e484018a11610071578063e484018a146105d3578063ebe8c6fa14610603578063f2a6fc461461061f578063fb84a1d81461063d576101cf565b8063d27eaa9314610524578063d388fb7c14610555578063d41b47d314610585578063d6fcbe6c146105a3576101cf565b8063b2f5f56d116100de578063b2f5f56d1461049b578063b3c6e789146104b9578063baeee9ed146104e9578063c65d10c014610505576101cf565b806381b2664a14610404578063965cfb5c14610434578063b03ef5aa1461046a576101cf565b806338dc2de5116101715780635ff9ed871161014b5780635ff9ed871461034757806366e15fa61461036557806369512a071461039557806378555cf8146103ca576101cf565b806338dc2de5146102ef5780633fc62a261461030d5780634012ec9614610329576101cf565b8063315fbd89116101ad578063315fbd891461025357806335010d7814610271578063362f13671461028f57806337b8ec5f146102bf576101cf565b80630b12c493146101d45780631059ead1146102045780632ccdab8a14610220575b600080fd5b6101ee60048036038101906101e99190614670565b610672565b6040516101fb9190614d9c565b60405180910390f35b61021e60048036038101906102199190614670565b610717565b005b61023a60048036038101906102359190614670565b61086a565b60405161024a9493929190614c97565b60405180910390f35b61025b610a67565b6040516102689190614c5a565b60405180910390f35b610279610b1e565b6040516102869190614e3e565b60405180910390f35b6102a960048036038101906102a4919061469d565b610b67565b6040516102b69190614c7c565b60405180910390f35b6102d960048036038101906102d491906144fc565b610c8d565b6040516102e69190614e3e565b60405180910390f35b6102f7610dbe565b6040516103049190614e3e565b60405180910390f35b61032760048036038101906103229190614670565b610dc8565b005b610331610e8b565b60405161033e9190614c5a565b60405180910390f35b61034f610f2a565b60405161035c9190614c5a565b60405180910390f35b61037f600480360381019061037a919061458f565b61112d565b60405161038c9190614e3e565b60405180910390f35b6103af60048036038101906103aa9190614670565b61135b565b6040516103c196959493929190614be4565b60405180910390f35b6103e460048036038101906103df9190614670565b611631565b6040516103fb9b9a99989796959493929190614cdc565b60405180910390f35b61041e60048036038101906104199190614670565b61193c565b60405161042b9190614e3e565b60405180910390f35b61044e60048036038101906104499190614670565b611a29565b6040516104619796959493929190614e59565b60405180910390f35b610484600480360381019061047f9190614414565b611d92565b604051610492929190614edd565b60405180910390f35b6104a3611ef9565b6040516104b09190614c5a565b60405180910390f35b6104d360048036038101906104ce9190614414565b612038565b6040516104e09190614c7c565b60405180910390f35b61050360048036038101906104fe9190614441565b6120c2565b005b61050d61235e565b60405161051b929190614edd565b60405180910390f35b61053e60048036038101906105399190614670565b612485565b60405161054c929190614edd565b60405180910390f35b61056f600480360381019061056a9190614670565b61274f565b60405161057c9190614d9c565b60405180910390f35b61058d6128a5565b60405161059a9190614c5a565b60405180910390f35b6105bd60048036038101906105b89190614670565b612aa8565b6040516105ca9190614c7c565b60405180910390f35b6105ed60048036038101906105e8919061453c565b612b63565b6040516105fa9190614e3e565b60405180910390f35b61061d600480360381019061061891906146dd565b612cb6565b005b610627612d62565b6040516106349190614c5a565b60405180910390f35b61065760048036038101906106529190614670565b612e01565b60405161066996959493929190614f06565b60405180910390f35b6060600060405180604001604052806040518060400160405280600581526020017f706167617200000000000000000000000000000000000000000000000000000081525081526020016040518060400160405280600781526020017f7265636562657200000000000000000000000000000000000000000000000000815250815250905080836002811061070a57610709615448565b5b6020020151915050919050565b600080610736600f60008581526020019081526020016000205461086a565b505091509150600060038111156107505761074f6153ea565b5b600d848154811061076457610763615448565b5b906000526020600020906006020160050160009054906101000a900460ff166003811115610795576107946153ea565b5b1480156107a6575060011515821515145b1561086557600115158115151415610815576002600d84815481106107ce576107cd615448565b5b906000526020600020906006020160050160006101000a81548160ff02191690836003811115610801576108006153ea565b5b021790555061080f83612f80565b50610864565b6003600d848154811061082b5761082a615448565b5b906000526020600020906006020160050160006101000a81548160ff0219169083600381111561085e5761085d6153ea565b5b02179055505b5b505050565b600080600080600093506000925060009150600090506000600360008781526020019081526020016000208054806020026020016040519081016040528092919081815260200182805480156108df57602002820191906000526020600020905b8154815260200190600101908083116108cb575b5050505050905060005b81518110156109fe5760011515600283838151811061090b5761090a615448565b5b60200260200101518154811061092457610923615448565b5b906000526020600020906003020160000160149054906101000a900460ff161515141561099d5760028282815181106109605761095f615448565b5b60200260200101518154811061097957610978615448565b5b90600052602060002090600302016001015484610996919061507c565b93506109eb565b60028282815181106109b2576109b1615448565b5b6020026020010151815481106109cb576109ca615448565b5b906000526020600020906003020160010154836109e8919061507c565b92505b80806109f690615312565b9150506108e9565b504260018781548110610a1457610a13615448565b5b9060005260206000209060060201600401541080610a33575061138883115b80610a3f575061138882115b15610a4957600194505b81831115610a5a5760019350610a5f565b600093505b509193509193565b60606000600d8054905067ffffffffffffffff811115610a8a57610a89615477565b5b604051908082528060200260200182016040528015610ab85781602001602082028036833780820191505090505b5090506000805b600d80549050811015610b155780838381518110610ae057610adf615448565b5b602002602001018181525050600e60008381526020019081526020016000205491508080610b0d90615312565b915050610abf565b50819250505090565b600080610b2961235e565b9150506000610b36610dbe565b905081816064610b469190615103565b610b5091906150d2565b9250600c54831015610b6257600c5492505b505090565b60008060036000858152602001908152602001600020805480602002602001604051908101604052809291908181526020018280548015610bc757602002820191906000526020600020905b815481526020019060010190808311610bb3575b5050505050905060005b8151811015610c85578373ffffffffffffffffffffffffffffffffffffffff166002838381518110610c0657610c05615448565b5b602002602001015181548110610c1f57610c1e615448565b5b906000526020600020906003020160000160009054906101000a900473ffffffffffffffffffffffffffffffffffffffff1673ffffffffffffffffffffffffffffffffffffffff161415610c7257600192505b8080610c7d90615312565b915050610bd1565b505092915050565b600080610c99846130c8565b9150506000915060005b600d80549050811015610db65781600d8281548110610cc557610cc4615448565b5b906000526020600020906006020160000154148015610d3a575060026003811115610cf357610cf26153ea565b5b600d8281548110610d0757610d06615448565b5b906000526020600020906006020160050160009054906101000a900460ff166003811115610d3857610d376153ea565b5b145b8015610d6a575083600d8281548110610d5657610d55615448565b5b906000526020600020906006020160040154105b15610da357600d8181548110610d8357610d82615448565b5b90600052602060002090600602016002015483610da0919061507c565b92505b8080610dae90615312565b915050610ca3565b505092915050565b6000600a54905090565b600080610de7600660008581526020019081526020016000205461086a565b50509150915060006004811115610e0157610e006153ea565b5b60048481548110610e1557610e14615448565b5b906000526020600020906007020160060160009054906101000a900460ff166004811115610e4657610e456153ea565b5b148015610e57575060011515821515145b15610e8657600115158115151415610e7957610e7483600261317f565b610e85565b610e8483600361317f565b5b5b505050565b6060600060088054905067ffffffffffffffff811115610eae57610ead615477565b5b604051908082528060200260200182016040528015610edc5781602001602082028036833780820191505090505b50905060005b600880549050811015610f225780828281518110610f0357610f02615448565b5b6020026020010181815250508080610f1a90615312565b915050610ee2565b508091505090565b6060600080606060005b600480549050811015610ff45760006004811115610f5557610f546153ea565b5b60048281548110610f6957610f68615448565b5b906000526020600020906007020160060160009054906101000a900460ff166004811115610f9a57610f996153ea565b5b1415610fe1576000610fbe600660008481526020019081526020016000205461086a565b5050509050600115158115151415610fdf578380610fdb90615312565b9450505b505b8080610fec90615312565b915050610f34565b508167ffffffffffffffff81111561100f5761100e615477565b5b60405190808252806020026020018201604052801561103d5781602001602082028036833780820191505090505b50905060005b6004805490508110156111235760006004811115611064576110636153ea565b5b6004828154811061107857611077615448565b5b906000526020600020906007020160060160009054906101000a900460ff1660048111156110a9576110a86153ea565b5b14156111105760006110cd600660008481526020019081526020016000205461086a565b505050905060011515811515141561110e57818386815181106110f3576110f2615448565b5b602002602001018181525050848061110a90615312565b9550505b505b808061111b90615312565b915050611043565b5080935050505090565b600080611139336130c8565b91505060006040518061016001604052806002600481111561115e5761115d6153ea565b5b81526020018a6001811115611176576111756153ea565b5b8152602001838152602001600081526020018981526020018881526020018781526020018681526020018581526020016000815260200142815250905060088190806001815401808255809150506001900390600052602060002090600a020160009091909190915060008201518160000160006101000a81548160ff0219169083600481111561120a576112096153ea565b5b021790555060208201518160000160016101000a81548160ff0219169083600181111561123a576112396153ea565b5b02179055506040820151816001015560608201518160020155608082015181600301908051906020019061126f9291906141e9565b5060a082015181600401908051906020019061128c9291906141e9565b5060c0820151816005015560e08201518160060190805190602001906112b39291906141e9565b50610100820151816007015561012082015181600801556101408201518160090155505060016008805490506112e9919061515d565b92506112f48361326f565b60006001811115611308576113076153ea565b5b89600181111561131b5761131a6153ea565b5b141561133a5785600a5461132f919061515d565b600a8190555061134f565b85600a54611348919061507c565b600a819055505b50509695505050505050565b6000606080606060008060006001888154811061137b5761137a615448565b5b90600052602060002090600602016040518060c00160405290816000820160009054906101000a900473ffffffffffffffffffffffffffffffffffffffff1673ffffffffffffffffffffffffffffffffffffffff1673ffffffffffffffffffffffffffffffffffffffff1681526020016001820180546113fa906152af565b80601f0160208091040260200160405190810160405280929190818152602001828054611426906152af565b80156114735780601f1061144857610100808354040283529160200191611473565b820191906000526020600020905b81548152906001019060200180831161145657829003601f168201915b5050505050815260200160028201805461148c906152af565b80601f01602080910402602001604051908101604052809291908181526020018280546114b8906152af565b80156115055780601f106114da57610100808354040283529160200191611505565b820191906000526020600020905b8154815290600101906020018083116114e857829003601f168201915b5050505050815260200160038201805480602002602001604051908101604052809291908181526020016000905b828210156115df578382906000526020600020018054611552906152af565b80601f016020809104026020016040519081016040528092919081815260200182805461157e906152af565b80156115cb5780601f106115a0576101008083540402835291602001916115cb565b820191906000526020600020905b8154815290600101906020018083116115ae57829003601f168201915b505050505081526020019060010190611533565b505050508152602001600482015481526020016005820154815250509050806000015181602001518260400151836060015184608001518560a001519650965096509650965096505091939550919395565b6000806000806060806000606060008060008060088d8154811061165857611657615448565b5b90600052602060002090600a0201604051806101600160405290816000820160009054906101000a900460ff166004811115611697576116966153ea565b5b60048111156116a9576116a86153ea565b5b81526020016000820160019054906101000a900460ff1660018111156116d2576116d16153ea565b5b60018111156116e4576116e36153ea565b5b8152602001600182015481526020016002820154815260200160038201805461170c906152af565b80601f0160208091040260200160405190810160405280929190818152602001828054611738906152af565b80156117855780601f1061175a57610100808354040283529160200191611785565b820191906000526020600020905b81548152906001019060200180831161176857829003601f168201915b5050505050815260200160048201805461179e906152af565b80601f01602080910402602001604051908101604052809291908181526020018280546117ca906152af565b80156118175780601f106117ec57610100808354040283529160200191611817565b820191906000526020600020905b8154815290600101906020018083116117fa57829003601f168201915b505050505081526020016005820154815260200160068201805461183a906152af565b80601f0160208091040260200160405190810160405280929190818152602001828054611866906152af565b80156118b35780601f10611888576101008083540402835291602001916118b3565b820191906000526020600020905b81548152906001019060200180831161189657829003601f168201915b5050505050815260200160078201548152602001600882015481526020016009820154815250509050806000015181602001518260400151836060015184608001518560a001518660c001518760e001518861010001518961012001518a61014001519b509b509b509b509b509b509b509b509b509b509b505091939597999b90929496989a50565b6000805b600d80549050811015611a235760026003811115611961576119606153ea565b5b600d828154811061197557611974615448565b5b906000526020600020906006020160050160009054906101000a900460ff1660038111156119a6576119a56153ea565b5b1480156119d7575082600d82815481106119c3576119c2615448565b5b906000526020600020906006020160040154105b15611a1057600d81815481106119f0576119ef615448565b5b90600052602060002090600602016002015482611a0d919061507c565b91505b8080611a1b90615312565b915050611940565b50919050565b6000806060806060600080600060048981548110611a4a57611a49615448565b5b90600052602060002090600702016040518060e0016040529081600082015481526020016001820160009054906101000a900473ffffffffffffffffffffffffffffffffffffffff1673ffffffffffffffffffffffffffffffffffffffff1673ffffffffffffffffffffffffffffffffffffffff168152602001600282018054611ad3906152af565b80601f0160208091040260200160405190810160405280929190818152602001828054611aff906152af565b8015611b4c5780601f10611b2157610100808354040283529160200191611b4c565b820191906000526020600020905b815481529060010190602001808311611b2f57829003601f168201915b50505050508152602001600382018054611b65906152af565b80601f0160208091040260200160405190810160405280929190818152602001828054611b91906152af565b8015611bde5780601f10611bb357610100808354040283529160200191611bde565b820191906000526020600020905b815481529060010190602001808311611bc157829003601f168201915b50505050508152602001600482018054611bf7906152af565b80601f0160208091040260200160405190810160405280929190818152602001828054611c23906152af565b8015611c705780601f10611c4557610100808354040283529160200191611c70565b820191906000526020600020905b815481529060010190602001808311611c5357829003601f168201915b50505050508152602001600582015481526020016006820160009054906101000a900460ff166004811115611ca857611ca76153ea565b5b6004811115611cba57611cb96153ea565b5b81525050905060006004811115611cd457611cd36153ea565b5b8160c001516004811115611ceb57611cea6153ea565b5b1415611d55576000611d0f600660008c81526020019081526020016000205461086a565b5050509050600115158115151415611d535760018260c001906004811115611d3a57611d396153ea565b5b90816004811115611d4e57611d4d6153ea565b5b815250505b505b806000015181602001518260400151836060015184608001518560a001518660c00151975097509750975097509750975050919395979092949650565b6000806000611da0846130c8565b915050600092506000915060005b600d80549050811015611ef25781600d8281548110611dd057611dcf615448565b5b906000526020600020906006020160000154148015611e45575060026003811115611dfe57611dfd6153ea565b5b600d8281548110611e1257611e11615448565b5b906000526020600020906006020160050160009054906101000a900460ff166003811115611e4357611e426153ea565b5b145b15611edf57600d8181548110611e5e57611e5d615448565b5b90600052602060002090600602016002015484611e7b919061507c565b935042600d8281548110611e9257611e91615448565b5b9060005260206000209060060201600301541015611ede57600d8181548110611ebe57611ebd615448565b5b90600052602060002090600602016002015483611edb919061507c565b92505b5b8080611eea90615312565b915050611dae565b5050915091565b60606000806060600042905060005b600180549050811015611f63578160018281548110611f2a57611f29615448565b5b90600052602060002090600602016004015410611f50578380611f4c90615312565b9450505b8080611f5b90615312565b915050611f08565b508267ffffffffffffffff811115611f7e57611f7d615477565b5b604051908082528060200260200182016040528015611fac5781602001602082028036833780820191505090505b50915060005b60018054905081101561202d578160018281548110611fd457611fd3615448565b5b9060005260206000209060060201600401541061201a5780838681518110611fff57611ffe615448565b5b602002602001018181525050848061201690615312565b9550505b808061202590615312565b915050611fb2565b508194505050505090565b60008080612045846130c8565b915091506001151582151514156120bb576002600481111561206a576120696153ea565b5b6004828154811061207e5761207d615448565b5b906000526020600020906007020160060160009054906101000a900460ff1660048111156120af576120ae6153ea565b5b14156120ba57600192505b5b5050919050565b600115156120cf33612038565b151514612111576040517f08c379a000000000000000000000000000000000000000000000000000000000815260040161210890614dbe565b60405180910390fd5b600061211c336130c8565b91505060006040518060e001604052808381526020018773ffffffffffffffffffffffffffffffffffffffff1681526020018681526020018581526020018481526020014281526020016000600481111561217a576121796153ea565b5b815250905060048190806001815401808255809150506001900390600052602060002090600702016000909190919091506000820151816000015560208201518160010160006101000a81548173ffffffffffffffffffffffffffffffffffffffff021916908373ffffffffffffffffffffffffffffffffffffffff16021790555060408201518160020190805190602001906122189291906141e9565b5060608201518160030190805190602001906122359291906141e9565b5060808201518160040190805190602001906122529291906141e9565b5060a0820151816005015560c08201518160060160006101000a81548160ff02191690836004811115612288576122876153ea565b5b02179055505050600060016004805490506122a3919061515d565b90506005600082815260200190815260200160002060405180604001604052808460c0015160048111156122da576122d96153ea565b5b81526020018460a00151815250908060018154018082558091505060019003906000526020600020906002020160009091909190915060008201518160000160006101000a81548160ff0219169083600481111561233b5761233a6153ea565b5b02179055506020820151816001015550506123558161369e565b50505050505050565b600080600091506000905060005b600d80549050811015612480576002600381111561238d5761238c6153ea565b5b600d82815481106123a1576123a0615448565b5b906000526020600020906006020160050160009054906101000a900460ff1660038111156123d2576123d16153ea565b5b141561246d57600d81815481106123ec576123eb615448565b5b90600052602060002090600602016002015483612409919061507c565b925042600d82815481106124205761241f615448565b5b906000526020600020906006020160030154101561246c57600d818154811061244c5761244b615448565b5b90600052602060002090600602016002015482612469919061507c565b91505b5b808061247890615312565b91505061236c565b509091565b6000806000612493336130c8565b91505060008060006124a3610b1e565b905060006124af610dbe565b90506000828260646124c19190615103565b6124cb91906150d2565b905060008098505b6000821180156124e257508989105b801561250157506000600e600088815260200190815260200160002054115b1561272057859450600e600087815260200190815260200160002054955086600d878154811061253457612533615448565b5b90600052602060002090600602016000015414156126e757888a612558919061515d565b905080821015612566578190505b80600d878154811061257b5761257a615448565b5b906000526020600020906006020160020154111561260e5780600d87815481106125a8576125a7615448565b5b9060005260206000209060060201600201546125c4919061515d565b600d87815481106125d8576125d7615448565b5b90600052602060002090600602016002018190555080896125f9919061507c565b98508082612607919061515d565b91506126e2565b600d868154811061262257612621615448565b5b9060005260206000209060060201600201548961263f919061507c565b9850600d868154811061265557612654615448565b5b90600052602060002090600602016002015482612672919061515d565b91506000600d878154811061268a57612689615448565b5b906000526020600020906006020160020181905550600e600087815260200190815260200160002054600e600087815260200190815260200160002081905550600e6000878152602001908152602001600020600090555b61271b565b600d86815481106126fb576126fa615448565b5b90600052602060002090600602016002015482612718919061515d565b91505b6124d3565b6064848a61272e9190615103565b61273891906150d2565b975061274388613ae3565b50505050505050915091565b606060006040518060a001604052806040518060400160405280600881526020017f726563757361646f00000000000000000000000000000000000000000000000081525081526020016040518060400160405280600681526020017f61636569746f000000000000000000000000000000000000000000000000000081525081526020016040518060400160405280600f81526020017f70656e64656e7465566f746163616f000000000000000000000000000000000081525081526020016040518060400160405280600981526020017f63616e63656c61646f000000000000000000000000000000000000000000000081525081526020016040518060400160405280600981526020017f65666574697661646f0000000000000000000000000000000000000000000000815250815250905080836005811061289857612897615448565b5b6020020151915050919050565b6060600080606060005b60088054905081101561296f57600260048111156128d0576128cf6153ea565b5b600882815481106128e4576128e3615448565b5b90600052602060002090600a020160000160009054906101000a900460ff166004811115612915576129146153ea565b5b141561295c576000612939600960008481526020019081526020016000205461086a565b505050905060011515811515141561295a57838061295690615312565b9450505b505b808061296790615312565b9150506128af565b508167ffffffffffffffff81111561298a57612989615477565b5b6040519080825280602002602001820160405280156129b85781602001602082028036833780820191505090505b50905060005b600880549050811015612a9e57600260048111156129df576129de6153ea565b5b600882815481106129f3576129f2615448565b5b90600052602060002090600a020160000160009054906101000a900460ff166004811115612a2457612a236153ea565b5b1415612a8b576000612a48600960008481526020019081526020016000205461086a565b5050509050600115158115151415612a895781838681518110612a6e57612a6d615448565b5b6020026020010181815250508480612a8590615312565b9550505b505b8080612a9690615312565b9150506129be565b5080935050505090565b600080612ab4336130c8565b915050600460088481548110612acd57612acc615448565b5b90600052602060002090600a020160000160006101000a81548160ff02191690836004811115612b0057612aff6153ea565b5b02179055508060088481548110612b1a57612b19615448565b5b90600052602060002090600a0201600201819055504260088481548110612b4457612b43615448565b5b90600052602060002090600a0201600801819055506001915050919050565b600060011515612b7285612038565b151514612bb4576040517f08c379a0000000000000000000000000000000000000000000000000000000008152600401612bab90614e1e565b60405180910390fd5b6000612bbf856130c8565b915050600d6040518060c0016040528083815260200186815260200186815260200185815260200142815260200160006003811115612c0157612c006153ea565b5b8152509080600181540180825580915050600190039060005260206000209060060201600090919091909150600082015181600001556020820151816001015560408201518160020155606082015181600301556080820151816004015560a08201518160050160006101000a81548160ff02191690836003811115612c8a57612c896153ea565b5b021790555050506001600d80549050612ca3919061515d565b9150612cae82613b6f565b509392505050565b60011515612cc333612038565b151514612d05576040517f08c379a0000000000000000000000000000000000000000000000000000000008152600401612cfc90614dfe565b60405180910390fd5b6000612d108361135b565b955050505050506000612d228261193c565b90506000612d303384610c8d565b905060008282612710612d439190615103565b612d4d91906150d2565b9050612d5a868287613dc2565b505050505050565b6060600060048054905067ffffffffffffffff811115612d8557612d84615477565b5b604051908082528060200260200182016040528015612db35781602001602082028036833780820191505090505b50905060005b600480549050811015612df95780828281518110612dda57612dd9615448565b5b6020026020010181815250508080612df190615312565b915050612db9565b508091505090565b6000806000806000806000600d8881548110612e2057612e1f615448565b5b90600052602060002090600602016040518060c001604052908160008201548152602001600182015481526020016002820154815260200160038201548152602001600482015481526020016005820160009054906101000a900460ff166003811115612e9057612e8f6153ea565b5b6003811115612ea257612ea16153ea565b5b81525050905060006003811115612ebc57612ebb6153ea565b5b8160a001516003811115612ed357612ed26153ea565b5b1415612f3d576000612ef7600f60008b81526020019081526020016000205461086a565b5050509050600115158115151415612f3b5760018260a001906003811115612f2257612f216153ea565b5b90816003811115612f3657612f356153ea565b5b815250505b505b806000015196508681602001519650868260400151965086836060015196508684608001519650868560a001519650965096509650965096505091939550919395565b600080600090506000600e6000838152602001908152602001600020549050600192505b6001156130c0578280612fb690615312565b935050600d8481548110612fcd57612fcc615448565b5b906000526020600020906006020160030154600d8381548110612ff357612ff2615448565b5b90600052602060002090600602016003015410801561305b5750600d848154811061302157613020615448565b5b906000526020600020906006020160030154600d828154811061304757613046615448565b5b906000526020600020906006020160030154115b806130665750600081145b156130a25783600e60008481526020019081526020016000208190555080600e60008681526020019081526020016000208190555050506130c3565b809150600e6000838152602001908152602001600020549050612fa4565b50505b919050565b6000806000915060005b600480549050811015613178578373ffffffffffffffffffffffffffffffffffffffff166004828154811061310a57613109615448565b5b906000526020600020906007020160010160009054906101000a900473ffffffffffffffffffffffffffffffffffffffff1673ffffffffffffffffffffffffffffffffffffffff16141561316557600192508091505061317a565b808061317090615312565b9150506130d2565b505b915091565b806004838154811061319457613193615448565b5b906000526020600020906007020160060160006101000a81548160ff021916908360048111156131c7576131c66153ea565b5b02179055506005600083815260200190815260200160002060405180604001604052808360048111156131fd576131fc6153ea565b5b815260200142815250908060018154018082558091505060019003906000526020600020906002020160009091909190915060008201518160000160006101000a81548160ff0219169083600481111561325a576132596153ea565b5b02179055506020820151816001015550505050565b60006008828154811061328557613284615448565b5b90600052602060002090600a0201604051806101600160405290816000820160009054906101000a900460ff1660048111156132c4576132c36153ea565b5b60048111156132d6576132d56153ea565b5b81526020016000820160019054906101000a900460ff1660018111156132ff576132fe6153ea565b5b6001811115613311576133106153ea565b5b81526020016001820154815260200160028201548152602001600382018054613339906152af565b80601f0160208091040260200160405190810160405280929190818152602001828054613365906152af565b80156133b25780601f10613387576101008083540402835291602001916133b2565b820191906000526020600020905b81548152906001019060200180831161339557829003601f168201915b505050505081526020016004820180546133cb906152af565b80601f01602080910402602001604051908101604052809291908181526020018280546133f7906152af565b80156134445780601f1061341957610100808354040283529160200191613444565b820191906000526020600020905b81548152906001019060200180831161342757829003601f168201915b5050505050815260200160058201548152602001600682018054613467906152af565b80601f0160208091040260200160405190810160405280929190818152602001828054613493906152af565b80156134e05780601f106134b5576101008083540402835291602001916134e0565b820191906000526020600020905b8154815290600101906020018083116134c357829003601f168201915b5050505050815260200160078201548152602001600882015481526020016009820154815250509050600081608001516040516020016135209190614ba0565b604051602081830303815290604052905060008260a001516040516020016135489190614bc2565b60405160208183030381529060405290506000600267ffffffffffffffff81111561357657613575615477565b5b6040519080825280602002602001820160405280156135a957816020015b60608152602001906001900390816135945790505b5090506040518060400160405280600781526020017f62616e6b696e6700000000000000000000000000000000000000000000000000815250816000815181106135f6576135f5615448565b5b60200260200101819052506040518060400160405280601681526020017f6d6f76696d656e746163616f46696e616e6365697261000000000000000000008152508160018151811061364b5761364a615448565b5b60200260200101819052506000600b5485610140015161366b919061507c565b9050600061367b85858585613f49565b905080600960008981526020019081526020016000208190555050505050505050565b6000600482815481106136b4576136b3615448565b5b90600052602060002090600702016040518060e0016040529081600082015481526020016001820160009054906101000a900473ffffffffffffffffffffffffffffffffffffffff1673ffffffffffffffffffffffffffffffffffffffff1673ffffffffffffffffffffffffffffffffffffffff16815260200160028201805461373d906152af565b80601f0160208091040260200160405190810160405280929190818152602001828054613769906152af565b80156137b65780601f1061378b576101008083540402835291602001916137b6565b820191906000526020600020905b81548152906001019060200180831161379957829003601f168201915b505050505081526020016003820180546137cf906152af565b80601f01602080910402602001604051908101604052809291908181526020018280546137fb906152af565b80156138485780601f1061381d57610100808354040283529160200191613848565b820191906000526020600020905b81548152906001019060200180831161382b57829003601f168201915b50505050508152602001600482018054613861906152af565b80601f016020809104026020016040519081016040528092919081815260200182805461388d906152af565b80156138da5780601f106138af576101008083540402835291602001916138da565b820191906000526020600020905b8154815290600101906020018083116138bd57829003601f168201915b50505050508152602001600582015481526020016006820160009054906101000a900460ff166004811115613912576139116153ea565b5b6004811115613924576139236153ea565b5b81525050905060008160400151600483600001518154811061394957613948615448565b5b906000526020600020906007020160020160405160200161396b929190614b14565b604051602081830303815290604052905060606000600267ffffffffffffffff81111561399b5761399a615477565b5b6040519080825280602002602001820160405280156139ce57816020015b60608152602001906001900390816139b95790505b5090506040518060400160405280600781526020017f706172746e65720000000000000000000000000000000000000000000000000081525081600081518110613a1b57613a1a615448565b5b60200260200101819052506040518060400160405280600881526020017f616464536f63696f00000000000000000000000000000000000000000000000081525081600181518110613a7057613a6f615448565b5b6020026020010181905250600060075460048781548110613a9457613a93615448565b5b906000526020600020906007020160050154613ab0919061507c565b90506000613ac085858585613f49565b905080600660008981526020019081526020016000208190555050505050505050565b613b6b60006040518060400160405280601381526020017f4c69717569646163616f20646520546f6b656e0000000000000000000000000081525060405180602001604052806000815250846040518060400160405280600581526020017f636f6e74610000000000000000000000000000000000000000000000000000008152504261112d565b5050565b6000600d8281548110613b8557613b84615448565b5b90600052602060002090600602016040518060c001604052908160008201548152602001600182015481526020016002820154815260200160038201548152602001600482015481526020016005820160009054906101000a900460ff166003811115613bf557613bf46153ea565b5b6003811115613c0757613c066153ea565b5b8152505090506000613c1c8260000151611a29565b50505050925050506000613c2f336130c8565b9150506000613c3d82611a29565b50505050925050506000613c548560200151614088565b8483604051602001613c6893929190614b4e565b604051602081830303815290604052905060606000600267ffffffffffffffff811115613c9857613c97615477565b5b604051908082528060200260200182016040528015613ccb57816020015b6060815260200190600190039081613cb65790505b5090506040518060400160405280600581526020017f746f6b656e00000000000000000000000000000000000000000000000000000081525081600081518110613d1857613d17615448565b5b60200260200101819052506040518060400160405280600881526020017f616464546f6b656e00000000000000000000000000000000000000000000000081525081600181518110613d6d57613d6c615448565b5b602002602001018190525060006010548860800151613d8c919061507c565b90506000613d9c85858585613f49565b905080600f60008c81526020019081526020016000208190555050505050505050505050565b60001515613dd08433610b67565b151514613e12576040517f08c379a0000000000000000000000000000000000000000000000000000000008152600401613e0990614dde565b60405180910390fd5b600260405180608001604052803373ffffffffffffffffffffffffffffffffffffffff168152602001831515815260200184815260200142815250908060018154018082558091505060019003906000526020600020906003020160009091909190915060008201518160000160006101000a81548173ffffffffffffffffffffffffffffffffffffffff021916908373ffffffffffffffffffffffffffffffffffffffff16021790555060208201518160000160146101000a81548160ff0219169083151502179055506040820151816001015560608201518160020155505060006001600280549050613f07919061515d565b90506003600085815260200190815260200160002081908060018154018082558091505060019003906000526020600020016000909190919091505550505050565b600060016040518060c001604052803373ffffffffffffffffffffffffffffffffffffffff16815260200187815260200186815260200185815260200184815260200142815250908060018154018082558091505060019003906000526020600020906006020160009091909190915060008201518160000160006101000a81548173ffffffffffffffffffffffffffffffffffffffff021916908373ffffffffffffffffffffffffffffffffffffffff160217905550602082015181600101908051906020019061401c9291906141e9565b5060408201518160020190805190602001906140399291906141e9565b50606082015181600301908051906020019061405692919061426f565b506080820151816004015560a0820151816005015550506001808054905061407e919061515d565b9050949350505050565b606060008214156140d0576040518060400160405280600181526020017f300000000000000000000000000000000000000000000000000000000000000081525090506141e4565b600082905060005b600082146141025780806140eb90615312565b915050600a826140fb91906150d2565b91506140d8565b60008167ffffffffffffffff81111561411e5761411d615477565b5b6040519080825280601f01601f1916602001820160405280156141505781602001600182028036833780820191505090505b5090505b600085146141dd57600182614169919061515d565b9150600a85614178919061535b565b6030614184919061507c565b60f81b81838151811061419a57614199615448565b5b60200101907effffffffffffffffffffffffffffffffffffffffffffffffffffffffffffff1916908160001a905350600a856141d691906150d2565b9450614154565b8093505050505b919050565b8280546141f5906152af565b90600052602060002090601f016020900481019282614217576000855561425e565b82601f1061423057805160ff191683800117855561425e565b8280016001018555821561425e579182015b8281111561425d578251825591602001919060010190614242565b5b50905061426b91906142cf565b5090565b8280548282559060005260206000209081019282156142be579160200282015b828111156142bd5782518290805190602001906142ad9291906141e9565b509160200191906001019061428f565b5b5090506142cb91906142ec565b5090565b5b808211156142e85760008160009055506001016142d0565b5090565b5b8082111561430c57600081816143039190614310565b506001016142ed565b5090565b50805461431c906152af565b6000825580601f1061432e575061434d565b601f01602090049060005260206000209081019061434c91906142cf565b5b50565b600061436361435e84614f8c565b614f67565b90508281526020810184848401111561437f5761437e6154ab565b5b61438a84828561526d565b509392505050565b6000813590506143a18161574d565b92915050565b6000813590506143b681615764565b92915050565b6000813590506143cb8161577b565b92915050565b600082601f8301126143e6576143e56154a6565b5b81356143f6848260208601614350565b91505092915050565b60008135905061440e8161578b565b92915050565b60006020828403121561442a576144296154b5565b5b600061443884828501614392565b91505092915050565b6000806000806080858703121561445b5761445a6154b5565b5b600061446987828801614392565b945050602085013567ffffffffffffffff81111561448a576144896154b0565b5b614496878288016143d1565b935050604085013567ffffffffffffffff8111156144b7576144b66154b0565b5b6144c3878288016143d1565b925050606085013567ffffffffffffffff8111156144e4576144e36154b0565b5b6144f0878288016143d1565b91505092959194509250565b60008060408385031215614513576145126154b5565b5b600061452185828601614392565b9250506020614532858286016143ff565b9150509250929050565b600080600060608486031215614555576145546154b5565b5b600061456386828701614392565b9350506020614574868287016143ff565b9250506040614585868287016143ff565b9150509250925092565b60008060008060008060c087890312156145ac576145ab6154b5565b5b60006145ba89828a016143bc565b965050602087013567ffffffffffffffff8111156145db576145da6154b0565b5b6145e789828a016143d1565b955050604087013567ffffffffffffffff811115614608576146076154b0565b5b61461489828a016143d1565b945050606061462589828a016143ff565b935050608087013567ffffffffffffffff811115614646576146456154b0565b5b61465289828a016143d1565b92505060a061466389828a016143ff565b9150509295509295509295565b600060208284031215614686576146856154b5565b5b6000614694848285016143ff565b91505092915050565b600080604083850312156146b4576146b36154b5565b5b60006146c2858286016143ff565b92505060206146d385828601614392565b9150509250929050565b600080604083850312156146f4576146f36154b5565b5b6000614702858286016143ff565b9250506020614713858286016143a7565b9150509250929050565b60006147298383614876565b905092915050565b600061473d8383614af6565b60208301905092915050565b61475281615191565b82525050565b600061476382614ff2565b61476d818561502d565b93508360208202850161477f85614fbd565b8060005b858110156147bb578484038952815161479c858261471d565b94506147a783615013565b925060208a01995050600181019050614783565b50829750879550505050505092915050565b60006147d882614ffd565b6147e2818561503e565b93506147ed83614fcd565b8060005b8381101561481e5781516148058882614731565b975061481083615020565b9250506001810190506147f1565b5085935050505092915050565b614834816151a3565b82525050565b61484381615225565b82525050565b61485281615237565b82525050565b61486181615249565b82525050565b6148708161525b565b82525050565b600061488182615008565b61488b818561504f565b935061489b81856020860161527c565b6148a4816154ba565b840191505092915050565b60006148ba82615008565b6148c48185615060565b93506148d481856020860161527c565b6148dd816154ba565b840191505092915050565b60006148f382615008565b6148fd8185615071565b935061490d81856020860161527c565b80840191505092915050565b60008154614926816152af565b6149308186615071565b9450600182166000811461494b576001811461495c5761498f565b60ff1983168652818601935061498f565b61496585614fdd565b60005b8381101561498757815481890152600182019150602081019050614968565b838801955050505b50505092915050565b60006149a5600983615071565b91506149b0826154cb565b600982019050919050565b60006149c8600c83615071565b91506149d3826154f4565b600c82019050919050565b60006149eb603283615060565b91506149f68261551d565b604082019050919050565b6000614a0e600b83615071565b9150614a198261556c565b600b82019050919050565b6000614a31600983615060565b9150614a3c82615595565b602082019050919050565b6000614a54602183615060565b9150614a5f826155be565b604082019050919050565b6000614a77602383615060565b9150614a828261560d565b604082019050919050565b6000614a9a602183615071565b9150614aa58261565c565b602182019050919050565b6000614abd601983615071565b9150614ac8826156ab565b601982019050919050565b6000614ae0600b83615071565b9150614aeb826156d4565b600b82019050919050565b614aff8161521b565b82525050565b614b0e8161521b565b82525050565b6000614b1f826149bb565b9150614b2b82856148e8565b9150614b3682614a01565b9150614b428284614919565b91508190509392505050565b6000614b5982614a8d565b9150614b6582866148e8565b9150614b7082614998565b9150614b7c82856148e8565b9150614b8782614a01565b9150614b9382846148e8565b9150819050949350505050565b6000614bab82614ab0565b9150614bb782846148e8565b915081905092915050565b6000614bcd82614ad3565b9150614bd982846148e8565b915081905092915050565b600060c082019050614bf96000830189614749565b8181036020830152614c0b81886148af565b90508181036040830152614c1f81876148af565b90508181036060830152614c338186614758565b9050614c426080830185614b05565b614c4f60a0830184614b05565b979650505050505050565b60006020820190508181036000830152614c7481846147cd565b905092915050565b6000602082019050614c91600083018461482b565b92915050565b6000608082019050614cac600083018761482b565b614cb9602083018661482b565b614cc66040830185614b05565b614cd36060830184614b05565b95945050505050565b600061016082019050614cf2600083018e614849565b614cff602083018d614867565b614d0c604083018c614b05565b614d19606083018b614b05565b8181036080830152614d2b818a6148af565b905081810360a0830152614d3f81896148af565b9050614d4e60c0830188614b05565b81810360e0830152614d6081876148af565b9050614d70610100830186614b05565b614d7e610120830185614b05565b614d8c610140830184614b05565b9c9b505050505050505050505050565b60006020820190508181036000830152614db681846148af565b905092915050565b60006020820190508181036000830152614dd7816149de565b9050919050565b60006020820190508181036000830152614df781614a24565b9050919050565b60006020820190508181036000830152614e1781614a47565b9050919050565b60006020820190508181036000830152614e3781614a6a565b9050919050565b6000602082019050614e536000830184614b05565b92915050565b600060e082019050614e6e600083018a614b05565b614e7b6020830189614749565b8181036040830152614e8d81886148af565b90508181036060830152614ea181876148af565b90508181036080830152614eb581866148af565b9050614ec460a0830185614b05565b614ed160c0830184614858565b98975050505050505050565b6000604082019050614ef26000830185614b05565b614eff6020830184614b05565b9392505050565b600060c082019050614f1b6000830189614b05565b614f286020830188614b05565b614f356040830187614b05565b614f426060830186614b05565b614f4f6080830185614b05565b614f5c60a083018461483a565b979650505050505050565b6000614f71614f82565b9050614f7d82826152e1565b919050565b6000604051905090565b600067ffffffffffffffff821115614fa757614fa6615477565b5b614fb0826154ba565b9050602081019050919050565b6000819050602082019050919050565b6000819050602082019050919050565b60008190508160005260206000209050919050565b600081519050919050565b600081519050919050565b600081519050919050565b6000602082019050919050565b6000602082019050919050565b600082825260208201905092915050565b600082825260208201905092915050565b600082825260208201905092915050565b600082825260208201905092915050565b600081905092915050565b60006150878261521b565b91506150928361521b565b9250827fffffffffffffffffffffffffffffffffffffffffffffffffffffffffffffffff038211156150c7576150c661538c565b5b828201905092915050565b60006150dd8261521b565b91506150e88361521b565b9250826150f8576150f76153bb565b5b828204905092915050565b600061510e8261521b565b91506151198361521b565b9250817fffffffffffffffffffffffffffffffffffffffffffffffffffffffffffffffff04831182151516156151525761515161538c565b5b828202905092915050565b60006151688261521b565b91506151738361521b565b9250828210156151865761518561538c565b5b828203905092915050565b600061519c826151fb565b9050919050565b60008115159050919050565b60008190506151bd826156fd565b919050565b60008190506151d082615711565b919050565b60008190506151e382615725565b919050565b60008190506151f682615739565b919050565b600073ffffffffffffffffffffffffffffffffffffffff82169050919050565b6000819050919050565b6000615230826151af565b9050919050565b6000615242826151c2565b9050919050565b6000615254826151d5565b9050919050565b6000615266826151e8565b9050919050565b82818337600083830152505050565b60005b8381101561529a57808201518184015260208101905061527f565b838111156152a9576000848401525b50505050565b600060028204905060018216806152c757607f821691505b602082108114156152db576152da615419565b5b50919050565b6152ea826154ba565b810181811067ffffffffffffffff8211171561530957615308615477565b5b80604052505050565b600061531d8261521b565b91507fffffffffffffffffffffffffffffffffffffffffffffffffffffffffffffffff8214156153505761534f61538c565b5b600182019050919050565b60006153668261521b565b91506153718361521b565b925082615381576153806153bb565b5b828206905092915050565b7f4e487b7100000000000000000000000000000000000000000000000000000000600052601160045260246000fd5b7f4e487b7100000000000000000000000000000000000000000000000000000000600052601260045260246000fd5b7f4e487b7100000000000000000000000000000000000000000000000000000000600052602160045260246000fd5b7f4e487b7100000000000000000000000000000000000000000000000000000000600052602260045260246000fd5b7f4e487b7100000000000000000000000000000000000000000000000000000000600052603260045260246000fd5b7f4e487b7100000000000000000000000000000000000000000000000000000000600052604160045260246000fd5b600080fd5b600080fd5b600080fd5b600080fd5b6000601f19601f8301169050919050565b7f3f3f3f2070617261200000000000000000000000000000000000000000000000600082015250565b7f496e636c7573616f20646f200000000000000000000000000000000000000000600082015250565b7f4170656e617320736f63696f7320617469766f7320706f64656d20616469636960008201527f6f6e6172206e6f766f7320736f63696f73210000000000000000000000000000602082015250565b7f20666569746120706f7220000000000000000000000000000000000000000000600082015250565b7f4a6120766f746f75210000000000000000000000000000000000000000000000600082015250565b7f4170656e617320736f63696f7320617469766f7320706f64656d20766f74617260008201527f2100000000000000000000000000000000000000000000000000000000000000602082015250565b7f4170656e617320736f63696f7320706f64656d207265636562657220746f6b6560008201527f6e73210000000000000000000000000000000000000000000000000000000000602082015250565b7f496e636c7573616f20646520636f6e747261746f20646520546f6b656e20646560008201527f2000000000000000000000000000000000000000000000000000000000000000602082015250565b7f4d6f76696d656e746163616f2066696e616e63656972613a2000000000000000600082015250565b7f44657363726963616f3a20000000000000000000000000000000000000000000600082015250565b6004811061570e5761570d6153ea565b5b50565b60058110615722576157216153ea565b5b50565b60058110615736576157356153ea565b5b50565b6002811061574a576157496153ea565b5b50565b61575681615191565b811461576157600080fd5b50565b61576d816151a3565b811461577857600080fd5b50565b6002811061578857600080fd5b50565b6157948161521b565b811461579f57600080fd5b5056fea2646970667358221220fc29aba55da7cf127b29a78f04634964a2ef561bc38b20f6304ef4a2f974a0a864736f6c63430008070033",
  "immutableReferences": {},
  "source": "//SPDX-License-Identifier: MIT\r\npragma solidity >=0.8.0 <0.9.0;\r\n\r\nimport \"./Project.sol\";\r\n\r\ncontract DAO7 is Project {\r\n    constructor() {}\r\n\r\n    function Votar(uint256 index, bool voto) public {\r\n        require(\r\n            Partner.SocioAtivo(msg.sender) == true,\r\n            \"Apenas socios ativos podem votar!\"\r\n        );\r\n\r\n        (, , , , , uint256 dataVotacao) = Consent.GetPropostaVotacao(index);\r\n        uint256 totalTokens = Token.GetTotalTokensPorData(dataVotacao);\r\n        uint256 tokensSocio = Token.GetTokensPorSocioPorData(\r\n            msg.sender,\r\n            dataVotacao\r\n        );\r\n        uint256 peso = ((10000 * tokensSocio) / totalTokens);\r\n\r\n        Consent.Votar(index, peso, voto);\r\n    }\r\n}\r\n",
  "sourcePath": "C:\\projetos\\dao7\\contracts\\contracts\\DAO7.sol",
  "compiler": {
    "name": "solc",
    "version": "0.8.7+commit.e28d00a7.Emscripten.clang"
  },
  "schemaVersion": "3.4.3",
  "updatedAt": "2021-10-29T17:19:50.709Z",
  "networkType": "ethereum",
  "devdoc": {
    "kind": "dev",
    "methods": {},
    "version": 1
  },
  "userdoc": {
    "kind": "user",
    "methods": {},
    "version": 1
  }
}