{
  "contractName": "DAO7",
  "abi": [
    {
      "inputs": [],
      "stateMutability": "nonpayable",
      "type": "constructor"
    },
    {
      "inputs": [
        {
          "internalType": "address",
          "name": "addressSocio",
          "type": "address"
        },
        {
          "internalType": "uint256",
          "name": "quantidadeTokens",
          "type": "uint256"
        },
        {
          "internalType": "uint256",
          "name": "dataLiquidacao",
          "type": "uint256"
        }
      ],
      "name": "AddContratoToken",
      "outputs": [
        {
          "internalType": "uint256",
          "name": "index",
          "type": "uint256"
        }
      ],
      "stateMutability": "nonpayable",
      "type": "function"
    },
    {
      "inputs": [
        {
          "internalType": "enum Banking.tipoMovimentacaoFinanceira",
          "name": "tipo",
          "type": "uint8"
        },
        {
          "internalType": "string",
          "name": "titulo",
          "type": "string"
        },
        {
          "internalType": "string",
          "name": "descricao",
          "type": "string"
        },
        {
          "internalType": "uint256",
          "name": "valor",
          "type": "uint256"
        },
        {
          "internalType": "string",
          "name": "conta",
          "type": "string"
        },
        {
          "internalType": "uint256",
          "name": "dataVencimento",
          "type": "uint256"
        }
      ],
      "name": "AddMovimentacaoFinanceira",
      "outputs": [
        {
          "internalType": "uint256",
          "name": "index",
          "type": "uint256"
        }
      ],
      "stateMutability": "nonpayable",
      "type": "function"
    },
    {
      "inputs": [
        {
          "internalType": "address",
          "name": "addressSocio",
          "type": "address"
        },
        {
          "internalType": "string",
          "name": "nome",
          "type": "string"
        },
        {
          "internalType": "string",
          "name": "email",
          "type": "string"
        },
        {
          "internalType": "string",
          "name": "conta",
          "type": "string"
        }
      ],
      "name": "AddSocio",
      "outputs": [],
      "stateMutability": "nonpayable",
      "type": "function"
    },
    {
      "inputs": [
        {
          "internalType": "uint256",
          "name": "index",
          "type": "uint256"
        }
      ],
      "name": "EfetivarLancamento",
      "outputs": [
        {
          "internalType": "bool",
          "name": "",
          "type": "bool"
        }
      ],
      "stateMutability": "nonpayable",
      "type": "function"
    },
    {
      "inputs": [
        {
          "internalType": "uint256",
          "name": "index",
          "type": "uint256"
        }
      ],
      "name": "EfetivarVotacaoSocio",
      "outputs": [],
      "stateMutability": "nonpayable",
      "type": "function"
    },
    {
      "inputs": [
        {
          "internalType": "uint256",
          "name": "index",
          "type": "uint256"
        }
      ],
      "name": "EfetivarVotacaoToken",
      "outputs": [],
      "stateMutability": "nonpayable",
      "type": "function"
    },
    {
      "inputs": [
        {
          "internalType": "uint256",
          "name": "index",
          "type": "uint256"
        }
      ],
      "name": "GetContratoToken",
      "outputs": [
        {
          "internalType": "uint256",
          "name": "indexSocio",
          "type": "uint256"
        },
        {
          "internalType": "uint256",
          "name": "quantidadeTokens",
          "type": "uint256"
        },
        {
          "internalType": "uint256",
          "name": "quantidadeTokensRestante",
          "type": "uint256"
        },
        {
          "internalType": "uint256",
          "name": "dataLiquidacao",
          "type": "uint256"
        },
        {
          "internalType": "uint256",
          "name": "dataRegistro",
          "type": "uint256"
        },
        {
          "internalType": "enum Token.statusContratoToken",
          "name": "status",
          "type": "uint8"
        }
      ],
      "stateMutability": "view",
      "type": "function",
      "constant": true
    },
    {
      "inputs": [],
      "name": "GetContratosToken",
      "outputs": [
        {
          "internalType": "uint256[]",
          "name": "",
          "type": "uint256[]"
        }
      ],
      "stateMutability": "view",
      "type": "function",
      "constant": true
    },
    {
      "inputs": [],
      "name": "GetCotacaoToken",
      "outputs": [
        {
          "internalType": "uint256",
          "name": "cotacao",
          "type": "uint256"
        }
      ],
      "stateMutability": "view",
      "type": "function",
      "constant": true
    },
    {
      "inputs": [
        {
          "internalType": "uint256",
          "name": "index",
          "type": "uint256"
        }
      ],
      "name": "GetEnumStatusMovimentacaoFinanceira",
      "outputs": [
        {
          "internalType": "string",
          "name": "",
          "type": "string"
        }
      ],
      "stateMutability": "pure",
      "type": "function",
      "constant": true
    },
    {
      "inputs": [
        {
          "internalType": "uint256",
          "name": "index",
          "type": "uint256"
        }
      ],
      "name": "GetEnumTipoMovimentacaoFinanceira",
      "outputs": [
        {
          "internalType": "string",
          "name": "",
          "type": "string"
        }
      ],
      "stateMutability": "pure",
      "type": "function",
      "constant": true
    },
    {
      "inputs": [
        {
          "internalType": "uint256",
          "name": "index",
          "type": "uint256"
        }
      ],
      "name": "GetMovimentacaoFinanceira",
      "outputs": [
        {
          "internalType": "enum Banking.statusMovimentacaoFinanceira",
          "name": "status",
          "type": "uint8"
        },
        {
          "internalType": "enum Banking.tipoMovimentacaoFinanceira",
          "name": "tipo",
          "type": "uint8"
        },
        {
          "internalType": "uint256",
          "name": "indexSocioInclusao",
          "type": "uint256"
        },
        {
          "internalType": "uint256",
          "name": "indexSocioEfetivacao",
          "type": "uint256"
        },
        {
          "internalType": "string",
          "name": "titulo",
          "type": "string"
        },
        {
          "internalType": "string",
          "name": "descricao",
          "type": "string"
        },
        {
          "internalType": "uint256",
          "name": "valor",
          "type": "uint256"
        },
        {
          "internalType": "string",
          "name": "conta",
          "type": "string"
        },
        {
          "internalType": "uint256",
          "name": "dataVencimento",
          "type": "uint256"
        },
        {
          "internalType": "uint256",
          "name": "dataEfetivacao",
          "type": "uint256"
        },
        {
          "internalType": "uint256",
          "name": "dataRegistro",
          "type": "uint256"
        }
      ],
      "stateMutability": "view",
      "type": "function",
      "constant": true
    },
    {
      "inputs": [],
      "name": "GetMovimentacoesFinanceira",
      "outputs": [
        {
          "internalType": "uint256[]",
          "name": "",
          "type": "uint256[]"
        }
      ],
      "stateMutability": "view",
      "type": "function",
      "constant": true
    },
    {
      "inputs": [],
      "name": "GetMovimentacoesFinanceirasPendentesEfetivacao",
      "outputs": [
        {
          "internalType": "uint256[]",
          "name": "",
          "type": "uint256[]"
        }
      ],
      "stateMutability": "view",
      "type": "function",
      "constant": true
    },
    {
      "inputs": [
        {
          "internalType": "uint256",
          "name": "index",
          "type": "uint256"
        }
      ],
      "name": "GetPropostaVotacao",
      "outputs": [
        {
          "internalType": "address",
          "name": "ownerVotacao",
          "type": "address"
        },
        {
          "internalType": "string",
          "name": "titulo",
          "type": "string"
        },
        {
          "internalType": "string",
          "name": "descricao",
          "type": "string"
        },
        {
          "internalType": "string[]",
          "name": "tags",
          "type": "string[]"
        },
        {
          "internalType": "uint256",
          "name": "dataTermino",
          "type": "uint256"
        },
        {
          "internalType": "uint256",
          "name": "dataRegistro",
          "type": "uint256"
        }
      ],
      "stateMutability": "view",
      "type": "function",
      "constant": true
    },
    {
      "inputs": [
        {
          "internalType": "uint256",
          "name": "index",
          "type": "uint256"
        }
      ],
      "name": "GetResultadoVotacao",
      "outputs": [
        {
          "internalType": "bool",
          "name": "finalizada",
          "type": "bool"
        },
        {
          "internalType": "bool",
          "name": "resultado",
          "type": "bool"
        },
        {
          "internalType": "uint256",
          "name": "votosAprovacao",
          "type": "uint256"
        },
        {
          "internalType": "uint256",
          "name": "votosReprovacao",
          "type": "uint256"
        }
      ],
      "stateMutability": "view",
      "type": "function",
      "constant": true
    },
    {
      "inputs": [],
      "name": "GetSaldoFundoTokens",
      "outputs": [
        {
          "internalType": "uint256",
          "name": "valor",
          "type": "uint256"
        }
      ],
      "stateMutability": "view",
      "type": "function",
      "constant": true
    },
    {
      "inputs": [
        {
          "internalType": "uint256",
          "name": "index",
          "type": "uint256"
        }
      ],
      "name": "GetSocio",
      "outputs": [
        {
          "internalType": "uint256",
          "name": "indexSocioIndicacao",
          "type": "uint256"
        },
        {
          "internalType": "address",
          "name": "addressSocio",
          "type": "address"
        },
        {
          "internalType": "string",
          "name": "nome",
          "type": "string"
        },
        {
          "internalType": "string",
          "name": "email",
          "type": "string"
        },
        {
          "internalType": "string",
          "name": "conta",
          "type": "string"
        },
        {
          "internalType": "uint256",
          "name": "dataRegistro",
          "type": "uint256"
        },
        {
          "internalType": "enum Partner.statusSocio",
          "name": "status",
          "type": "uint8"
        }
      ],
      "stateMutability": "view",
      "type": "function",
      "constant": true
    },
    {
      "inputs": [],
      "name": "GetSocios",
      "outputs": [
        {
          "internalType": "uint256[]",
          "name": "",
          "type": "uint256[]"
        }
      ],
      "stateMutability": "view",
      "type": "function",
      "constant": true
    },
    {
      "inputs": [
        {
          "internalType": "address",
          "name": "addressSocio",
          "type": "address"
        }
      ],
      "name": "GetTokensPorSocio",
      "outputs": [
        {
          "internalType": "uint256",
          "name": "total",
          "type": "uint256"
        },
        {
          "internalType": "uint256",
          "name": "liberados",
          "type": "uint256"
        }
      ],
      "stateMutability": "view",
      "type": "function",
      "constant": true
    },
    {
      "inputs": [
        {
          "internalType": "address",
          "name": "addressSocio",
          "type": "address"
        },
        {
          "internalType": "uint256",
          "name": "data",
          "type": "uint256"
        }
      ],
      "name": "GetTokensPorSocioPorData",
      "outputs": [
        {
          "internalType": "uint256",
          "name": "total",
          "type": "uint256"
        }
      ],
      "stateMutability": "view",
      "type": "function",
      "constant": true
    },
    {
      "inputs": [],
      "name": "GetTotalTokens",
      "outputs": [
        {
          "internalType": "uint256",
          "name": "total",
          "type": "uint256"
        },
        {
          "internalType": "uint256",
          "name": "liberados",
          "type": "uint256"
        }
      ],
      "stateMutability": "view",
      "type": "function",
      "constant": true
    },
    {
      "inputs": [
        {
          "internalType": "uint256",
          "name": "data",
          "type": "uint256"
        }
      ],
      "name": "GetTotalTokensPorData",
      "outputs": [
        {
          "internalType": "uint256",
          "name": "total",
          "type": "uint256"
        }
      ],
      "stateMutability": "view",
      "type": "function",
      "constant": true
    },
    {
      "inputs": [],
      "name": "GetVotacoesAbertas",
      "outputs": [
        {
          "internalType": "uint256[]",
          "name": "_votacoes",
          "type": "uint256[]"
        }
      ],
      "stateMutability": "view",
      "type": "function",
      "constant": true
    },
    {
      "inputs": [
        {
          "internalType": "uint256",
          "name": "index",
          "type": "uint256"
        },
        {
          "internalType": "address",
          "name": "addressSocio",
          "type": "address"
        }
      ],
      "name": "JaVotou",
      "outputs": [
        {
          "internalType": "bool",
          "name": "votado",
          "type": "bool"
        }
      ],
      "stateMutability": "view",
      "type": "function",
      "constant": true
    },
    {
      "inputs": [
        {
          "internalType": "uint256",
          "name": "quantidadeDesejada",
          "type": "uint256"
        }
      ],
      "name": "LiquidarToken",
      "outputs": [
        {
          "internalType": "uint256",
          "name": "quantidadeLiquidada",
          "type": "uint256"
        },
        {
          "internalType": "uint256",
          "name": "valorLiquidado",
          "type": "uint256"
        }
      ],
      "stateMutability": "nonpayable",
      "type": "function"
    },
    {
      "inputs": [
        {
          "internalType": "address",
          "name": "addressSocio",
          "type": "address"
        }
      ],
      "name": "SocioAtivo",
      "outputs": [
        {
          "internalType": "bool",
          "name": "socioAtivo",
          "type": "bool"
        }
      ],
      "stateMutability": "view",
      "type": "function",
      "constant": true
    },
    {
      "inputs": [],
      "name": "SociosPendentes",
      "outputs": [
        {
          "internalType": "uint256[]",
          "name": "",
          "type": "uint256[]"
        }
      ],
      "stateMutability": "view",
      "type": "function",
      "constant": true
    },
    {
      "inputs": [
        {
          "internalType": "uint256",
          "name": "index",
          "type": "uint256"
        },
        {
          "internalType": "bool",
          "name": "voto",
          "type": "bool"
        }
      ],
      "name": "Votar",
      "outputs": [],
      "stateMutability": "nonpayable",
      "type": "function"
    }
  ],
  "bytecode": "0x60806040523480156200001157600080fd5b506203f48060078190555060006040518060e00160405280600081526020013373ffffffffffffffffffffffffffffffffffffffff1681526020016040518060400160405280600581526020017f6f776e6572000000000000000000000000000000000000000000000000000000815250815260200160405180602001604052806000815250815260200160405180602001604052806000815250815260200142815260200160026004811115620000ce57620000cd620003e7565b5b815250905060048190806001815401808255809150506001900390600052602060002090600702016000909190919091506000820151816000015560208201518160010160006101000a81548173ffffffffffffffffffffffffffffffffffffffff021916908373ffffffffffffffffffffffffffffffffffffffff16021790555060408201518160020190805190602001906200016e92919062000301565b5060608201518160030190805190602001906200018d92919062000301565b506080820151816004019080519060200190620001ac92919062000301565b5060a0820151816005015560c08201518160060160006101000a81548160ff02191690836004811115620001e557620001e4620003e7565b5b02179055505050506203f480600b81905550610bb8600c819055506203f480601081905550600d6040518060c00160405280600081526020016001815260200160018152602001428152602001428152602001600260038111156200024f576200024e620003e7565b5b8152509080600181540180825580915050600190039060005260206000209060060201600090919091909150600082015181600001556020820151816001015560408201518160020155606082015181600301556080820151816004015560a08201518160050160006101000a81548160ff02191690836003811115620002db57620002da620003e7565b5b021790555050506000600e60008081526020019081526020016000208190555062000445565b8280546200030f90620003b1565b90600052602060002090601f0160209004810192826200033357600085556200037f565b82601f106200034e57805160ff19168380011785556200037f565b828001600101855582156200037f579182015b828111156200037e57825182559160200191906001019062000361565b5b5090506200038e919062000392565b5090565b5b80821115620003ad57600081600090555060010162000393565b5090565b60006002820490506001821680620003ca57607f821691505b60208210811415620003e157620003e062000416565b5b50919050565b7f4e487b7100000000000000000000000000000000000000000000000000000000600052602160045260246000fd5b7f4e487b7100000000000000000000000000000000000000000000000000000000600052602260045260246000fd5b61593180620004556000396000f3fe608060405234801561001057600080fd5b50600436106101cf5760003560e01c806381b2664a11610104578063d27eaa93116100a2578063e484018a11610071578063e484018a146105d3578063ebe8c6fa14610603578063f2a6fc461461061f578063fb84a1d81461063d576101cf565b8063d27eaa9314610524578063d388fb7c14610555578063d41b47d314610585578063d6fcbe6c146105a3576101cf565b8063b2f5f56d116100de578063b2f5f56d1461049b578063b3c6e789146104b9578063baeee9ed146104e9578063c65d10c014610505576101cf565b806381b2664a14610404578063965cfb5c14610434578063b03ef5aa1461046a576101cf565b806338dc2de5116101715780635ff9ed871161014b5780635ff9ed871461034757806366e15fa61461036557806369512a071461039557806378555cf8146103ca576101cf565b806338dc2de5146102ef5780633fc62a261461030d5780634012ec9614610329576101cf565b8063315fbd89116101ad578063315fbd891461025357806335010d7814610271578063362f13671461028f57806337b8ec5f146102bf576101cf565b80630b12c493146101d45780631059ead1146102045780632ccdab8a14610220575b600080fd5b6101ee60048036038101906101e991906147c9565b610672565b6040516101fb9190614ef5565b60405180910390f35b61021e600480360381019061021991906147c9565b610717565b005b61023a600480360381019061023591906147c9565b61086a565b60405161024a9493929190614df0565b60405180910390f35b61025b610a67565b6040516102689190614db3565b60405180910390f35b610279610b1e565b6040516102869190614f97565b60405180910390f35b6102a960048036038101906102a491906147f6565b610b67565b6040516102b69190614dd5565b60405180910390f35b6102d960048036038101906102d49190614655565b610c8d565b6040516102e69190614f97565b60405180910390f35b6102f7610dbe565b6040516103049190614f97565b60405180910390f35b610327600480360381019061032291906147c9565b610dc8565b005b610331610e8b565b60405161033e9190614db3565b60405180910390f35b61034f610f2a565b60405161035c9190614db3565b60405180910390f35b61037f600480360381019061037a91906146e8565b61112d565b60405161038c9190614f97565b60405180910390f35b6103af60048036038101906103aa91906147c9565b61135b565b6040516103c196959493929190614d3d565b60405180910390f35b6103e460048036038101906103df91906147c9565b611631565b6040516103fb9b9a99989796959493929190614e35565b60405180910390f35b61041e600480360381019061041991906147c9565b6119d7565b60405161042b9190614f97565b60405180910390f35b61044e600480360381019061044991906147c9565b611ac4565b6040516104619796959493929190614fb2565b60405180910390f35b610484600480360381019061047f919061456d565b611e2d565b604051610492929190615036565b60405180910390f35b6104a3611f94565b6040516104b09190614db3565b60405180910390f35b6104d360048036038101906104ce919061456d565b6120d3565b6040516104e09190614dd5565b60405180910390f35b61050360048036038101906104fe919061459a565b61215d565b005b61050d6123f9565b60405161051b929190615036565b60405180910390f35b61053e600480360381019061053991906147c9565b612520565b60405161054c929190615036565b60405180910390f35b61056f600480360381019061056a91906147c9565b6127ea565b60405161057c9190614ef5565b60405180910390f35b61058d612905565b60405161059a9190614db3565b60405180910390f35b6105bd60048036038101906105b891906147c9565b612b08565b6040516105ca9190614dd5565b60405180910390f35b6105ed60048036038101906105e89190614695565b612cbc565b6040516105fa9190614f97565b60405180910390f35b61061d60048036038101906106189190614836565b612e0f565b005b610627612ebb565b6040516106349190614db3565b60405180910390f35b610657600480360381019061065291906147c9565b612f5a565b6040516106699695949392919061505f565b60405180910390f35b6060600060405180604001604052806040518060400160405280600581526020017f706167617200000000000000000000000000000000000000000000000000000081525081526020016040518060400160405280600781526020017f7265636562657200000000000000000000000000000000000000000000000000815250815250905080836002811061070a576107096155a1565b5b6020020151915050919050565b600080610736600f60008581526020019081526020016000205461086a565b505091509150600060038111156107505761074f615543565b5b600d8481548110610764576107636155a1565b5b906000526020600020906006020160050160009054906101000a900460ff16600381111561079557610794615543565b5b1480156107a6575060011515821515145b1561086557600115158115151415610815576002600d84815481106107ce576107cd6155a1565b5b906000526020600020906006020160050160006101000a81548160ff0219169083600381111561080157610800615543565b5b021790555061080f836130d9565b50610864565b6003600d848154811061082b5761082a6155a1565b5b906000526020600020906006020160050160006101000a81548160ff0219169083600381111561085e5761085d615543565b5b02179055505b5b505050565b600080600080600093506000925060009150600090506000600360008781526020019081526020016000208054806020026020016040519081016040528092919081815260200182805480156108df57602002820191906000526020600020905b8154815260200190600101908083116108cb575b5050505050905060005b81518110156109fe5760011515600283838151811061090b5761090a6155a1565b5b602002602001015181548110610924576109236155a1565b5b906000526020600020906003020160000160149054906101000a900460ff161515141561099d5760028282815181106109605761095f6155a1565b5b602002602001015181548110610979576109786155a1565b5b9060005260206000209060030201600101548461099691906151d5565b93506109eb565b60028282815181106109b2576109b16155a1565b5b6020026020010151815481106109cb576109ca6155a1565b5b906000526020600020906003020160010154836109e891906151d5565b92505b80806109f69061546b565b9150506108e9565b504260018781548110610a1457610a136155a1565b5b9060005260206000209060060201600401541080610a33575061138883115b80610a3f575061138882115b15610a4957600194505b81831115610a5a5760019350610a5f565b600093505b509193509193565b60606000600d8054905067ffffffffffffffff811115610a8a57610a896155d0565b5b604051908082528060200260200182016040528015610ab85781602001602082028036833780820191505090505b5090506000805b600d80549050811015610b155780838381518110610ae057610adf6155a1565b5b602002602001018181525050600e60008381526020019081526020016000205491508080610b0d9061546b565b915050610abf565b50819250505090565b600080610b296123f9565b9150506000610b36610dbe565b905081816064610b46919061525c565b610b50919061522b565b9250600c54831015610b6257600c5492505b505090565b60008060036000858152602001908152602001600020805480602002602001604051908101604052809291908181526020018280548015610bc757602002820191906000526020600020905b815481526020019060010190808311610bb3575b5050505050905060005b8151811015610c85578373ffffffffffffffffffffffffffffffffffffffff166002838381518110610c0657610c056155a1565b5b602002602001015181548110610c1f57610c1e6155a1565b5b906000526020600020906003020160000160009054906101000a900473ffffffffffffffffffffffffffffffffffffffff1673ffffffffffffffffffffffffffffffffffffffff161415610c7257600192505b8080610c7d9061546b565b915050610bd1565b505092915050565b600080610c9984613221565b9150506000915060005b600d80549050811015610db65781600d8281548110610cc557610cc46155a1565b5b906000526020600020906006020160000154148015610d3a575060026003811115610cf357610cf2615543565b5b600d8281548110610d0757610d066155a1565b5b906000526020600020906006020160050160009054906101000a900460ff166003811115610d3857610d37615543565b5b145b8015610d6a575083600d8281548110610d5657610d556155a1565b5b906000526020600020906006020160040154105b15610da357600d8181548110610d8357610d826155a1565b5b90600052602060002090600602016002015483610da091906151d5565b92505b8080610dae9061546b565b915050610ca3565b505092915050565b6000600a54905090565b600080610de7600660008581526020019081526020016000205461086a565b50509150915060006004811115610e0157610e00615543565b5b60048481548110610e1557610e146155a1565b5b906000526020600020906007020160060160009054906101000a900460ff166004811115610e4657610e45615543565b5b148015610e57575060011515821515145b15610e8657600115158115151415610e7957610e748360026132d8565b610e85565b610e848360036132d8565b5b5b505050565b6060600060088054905067ffffffffffffffff811115610eae57610ead6155d0565b5b604051908082528060200260200182016040528015610edc5781602001602082028036833780820191505090505b50905060005b600880549050811015610f225780828281518110610f0357610f026155a1565b5b6020026020010181815250508080610f1a9061546b565b915050610ee2565b508091505090565b6060600080606060005b600480549050811015610ff45760006004811115610f5557610f54615543565b5b60048281548110610f6957610f686155a1565b5b906000526020600020906007020160060160009054906101000a900460ff166004811115610f9a57610f99615543565b5b1415610fe1576000610fbe600660008481526020019081526020016000205461086a565b5050509050600115158115151415610fdf578380610fdb9061546b565b9450505b505b8080610fec9061546b565b915050610f34565b508167ffffffffffffffff81111561100f5761100e6155d0565b5b60405190808252806020026020018201604052801561103d5781602001602082028036833780820191505090505b50905060005b600480549050811015611123576000600481111561106457611063615543565b5b60048281548110611078576110776155a1565b5b906000526020600020906007020160060160009054906101000a900460ff1660048111156110a9576110a8615543565b5b14156111105760006110cd600660008481526020019081526020016000205461086a565b505050905060011515811515141561110e57818386815181106110f3576110f26155a1565b5b602002602001018181525050848061110a9061546b565b9550505b505b808061111b9061546b565b915050611043565b5080935050505090565b60008061113933613221565b91505060006040518061016001604052806000600381111561115e5761115d615543565b5b81526020018a600181111561117657611175615543565b5b8152602001838152602001600081526020018981526020018881526020018781526020018681526020018581526020016000815260200142815250905060088190806001815401808255809150506001900390600052602060002090600a020160009091909190915060008201518160000160006101000a81548160ff0219169083600381111561120a57611209615543565b5b021790555060208201518160000160016101000a81548160ff0219169083600181111561123a57611239615543565b5b02179055506040820151816001015560608201518160020155608082015181600301908051906020019061126f929190614342565b5060a082015181600401908051906020019061128c929190614342565b5060c0820151816005015560e08201518160060190805190602001906112b3929190614342565b50610100820151816007015561012082015181600801556101408201518160090155505060016008805490506112e991906152b6565b92506112f4836133c8565b6000600181111561130857611307615543565b5b89600181111561131b5761131a615543565b5b141561133a5785600a5461132f91906152b6565b600a8190555061134f565b85600a5461134891906151d5565b600a819055505b50509695505050505050565b6000606080606060008060006001888154811061137b5761137a6155a1565b5b90600052602060002090600602016040518060c00160405290816000820160009054906101000a900473ffffffffffffffffffffffffffffffffffffffff1673ffffffffffffffffffffffffffffffffffffffff1673ffffffffffffffffffffffffffffffffffffffff1681526020016001820180546113fa90615408565b80601f016020809104026020016040519081016040528092919081815260200182805461142690615408565b80156114735780601f1061144857610100808354040283529160200191611473565b820191906000526020600020905b81548152906001019060200180831161145657829003601f168201915b5050505050815260200160028201805461148c90615408565b80601f01602080910402602001604051908101604052809291908181526020018280546114b890615408565b80156115055780601f106114da57610100808354040283529160200191611505565b820191906000526020600020905b8154815290600101906020018083116114e857829003601f168201915b5050505050815260200160038201805480602002602001604051908101604052809291908181526020016000905b828210156115df57838290600052602060002001805461155290615408565b80601f016020809104026020016040519081016040528092919081815260200182805461157e90615408565b80156115cb5780601f106115a0576101008083540402835291602001916115cb565b820191906000526020600020905b8154815290600101906020018083116115ae57829003601f168201915b505050505081526020019060010190611533565b505050508152602001600482015481526020016005820154815250509050806000015181602001518260400151836060015184608001518560a001519650965096509650965096505091939550919395565b6000806000806060806000606060008060008060088d81548110611658576116576155a1565b5b90600052602060002090600a0201604051806101600160405290816000820160009054906101000a900460ff16600381111561169757611696615543565b5b60038111156116a9576116a8615543565b5b81526020016000820160019054906101000a900460ff1660018111156116d2576116d1615543565b5b60018111156116e4576116e3615543565b5b8152602001600182015481526020016002820154815260200160038201805461170c90615408565b80601f016020809104026020016040519081016040528092919081815260200182805461173890615408565b80156117855780601f1061175a57610100808354040283529160200191611785565b820191906000526020600020905b81548152906001019060200180831161176857829003601f168201915b5050505050815260200160048201805461179e90615408565b80601f01602080910402602001604051908101604052809291908181526020018280546117ca90615408565b80156118175780601f106117ec57610100808354040283529160200191611817565b820191906000526020600020905b8154815290600101906020018083116117fa57829003601f168201915b505050505081526020016005820154815260200160068201805461183a90615408565b80601f016020809104026020016040519081016040528092919081815260200182805461186690615408565b80156118b35780601f10611888576101008083540402835291602001916118b3565b820191906000526020600020905b81548152906001019060200180831161189657829003601f168201915b50505050508152602001600782015481526020016008820154815260200160098201548152505090506000600960008f81526020019081526020016000205490506000600381111561190857611907615543565b5b8260000151600381111561191f5761191e615543565b5b14156119765760006119308261086a565b50505090506001151581151514156119745760018360000190600381111561195b5761195a615543565b5b9081600381111561196f5761196e615543565b5b815250505b505b816000015182602001518360400151846060015185608001518660a001518760c001518860e001518961010001518a61012001518b61014001519c509c509c509c509c509c509c509c509c509c509c50505091939597999b90929496989a50565b6000805b600d80549050811015611abe57600260038111156119fc576119fb615543565b5b600d8281548110611a1057611a0f6155a1565b5b906000526020600020906006020160050160009054906101000a900460ff166003811115611a4157611a40615543565b5b148015611a72575082600d8281548110611a5e57611a5d6155a1565b5b906000526020600020906006020160040154105b15611aab57600d8181548110611a8b57611a8a6155a1565b5b90600052602060002090600602016002015482611aa891906151d5565b91505b8080611ab69061546b565b9150506119db565b50919050565b6000806060806060600080600060048981548110611ae557611ae46155a1565b5b90600052602060002090600702016040518060e0016040529081600082015481526020016001820160009054906101000a900473ffffffffffffffffffffffffffffffffffffffff1673ffffffffffffffffffffffffffffffffffffffff1673ffffffffffffffffffffffffffffffffffffffff168152602001600282018054611b6e90615408565b80601f0160208091040260200160405190810160405280929190818152602001828054611b9a90615408565b8015611be75780601f10611bbc57610100808354040283529160200191611be7565b820191906000526020600020905b815481529060010190602001808311611bca57829003601f168201915b50505050508152602001600382018054611c0090615408565b80601f0160208091040260200160405190810160405280929190818152602001828054611c2c90615408565b8015611c795780601f10611c4e57610100808354040283529160200191611c79565b820191906000526020600020905b815481529060010190602001808311611c5c57829003601f168201915b50505050508152602001600482018054611c9290615408565b80601f0160208091040260200160405190810160405280929190818152602001828054611cbe90615408565b8015611d0b5780601f10611ce057610100808354040283529160200191611d0b565b820191906000526020600020905b815481529060010190602001808311611cee57829003601f168201915b50505050508152602001600582015481526020016006820160009054906101000a900460ff166004811115611d4357611d42615543565b5b6004811115611d5557611d54615543565b5b81525050905060006004811115611d6f57611d6e615543565b5b8160c001516004811115611d8657611d85615543565b5b1415611df0576000611daa600660008c81526020019081526020016000205461086a565b5050509050600115158115151415611dee5760018260c001906004811115611dd557611dd4615543565b5b90816004811115611de957611de8615543565b5b815250505b505b806000015181602001518260400151836060015184608001518560a001518660c00151975097509750975097509750975050919395979092949650565b6000806000611e3b84613221565b915050600092506000915060005b600d80549050811015611f8d5781600d8281548110611e6b57611e6a6155a1565b5b906000526020600020906006020160000154148015611ee0575060026003811115611e9957611e98615543565b5b600d8281548110611ead57611eac6155a1565b5b906000526020600020906006020160050160009054906101000a900460ff166003811115611ede57611edd615543565b5b145b15611f7a57600d8181548110611ef957611ef86155a1565b5b90600052602060002090600602016002015484611f1691906151d5565b935042600d8281548110611f2d57611f2c6155a1565b5b9060005260206000209060060201600301541015611f7957600d8181548110611f5957611f586155a1565b5b90600052602060002090600602016002015483611f7691906151d5565b92505b5b8080611f859061546b565b915050611e49565b5050915091565b60606000806060600042905060005b600180549050811015611ffe578160018281548110611fc557611fc46155a1565b5b90600052602060002090600602016004015410611feb578380611fe79061546b565b9450505b8080611ff69061546b565b915050611fa3565b508267ffffffffffffffff811115612019576120186155d0565b5b6040519080825280602002602001820160405280156120475781602001602082028036833780820191505090505b50915060005b6001805490508110156120c857816001828154811061206f5761206e6155a1565b5b906000526020600020906006020160040154106120b5578083868151811061209a576120996155a1565b5b60200260200101818152505084806120b19061546b565b9550505b80806120c09061546b565b91505061204d565b508194505050505090565b600080806120e084613221565b91509150600115158215151415612156576002600481111561210557612104615543565b5b60048281548110612119576121186155a1565b5b906000526020600020906007020160060160009054906101000a900460ff16600481111561214a57612149615543565b5b141561215557600192505b5b5050919050565b6001151561216a336120d3565b1515146121ac576040517f08c379a00000000000000000000000000000000000000000000000000000000081526004016121a390614f17565b60405180910390fd5b60006121b733613221565b91505060006040518060e001604052808381526020018773ffffffffffffffffffffffffffffffffffffffff1681526020018681526020018581526020018481526020014281526020016000600481111561221557612214615543565b5b815250905060048190806001815401808255809150506001900390600052602060002090600702016000909190919091506000820151816000015560208201518160010160006101000a81548173ffffffffffffffffffffffffffffffffffffffff021916908373ffffffffffffffffffffffffffffffffffffffff16021790555060408201518160020190805190602001906122b3929190614342565b5060608201518160030190805190602001906122d0929190614342565b5060808201518160040190805190602001906122ed929190614342565b5060a0820151816005015560c08201518160060160006101000a81548160ff0219169083600481111561232357612322615543565b5b021790555050506000600160048054905061233e91906152b6565b90506005600082815260200190815260200160002060405180604001604052808460c00151600481111561237557612374615543565b5b81526020018460a00151815250908060018154018082558091505060019003906000526020600020906002020160009091909190915060008201518160000160006101000a81548160ff021916908360048111156123d6576123d5615543565b5b02179055506020820151816001015550506123f0816137f7565b50505050505050565b600080600091506000905060005b600d8054905081101561251b576002600381111561242857612427615543565b5b600d828154811061243c5761243b6155a1565b5b906000526020600020906006020160050160009054906101000a900460ff16600381111561246d5761246c615543565b5b141561250857600d8181548110612487576124866155a1565b5b906000526020600020906006020160020154836124a491906151d5565b925042600d82815481106124bb576124ba6155a1565b5b906000526020600020906006020160030154101561250757600d81815481106124e7576124e66155a1565b5b9060005260206000209060060201600201548261250491906151d5565b91505b5b80806125139061546b565b915050612407565b509091565b600080600061252e33613221565b915050600080600061253e610b1e565b9050600061254a610dbe565b905060008282606461255c919061525c565b612566919061522b565b905060008098505b60008211801561257d57508989105b801561259c57506000600e600088815260200190815260200160002054115b156127bb57859450600e600087815260200190815260200160002054955086600d87815481106125cf576125ce6155a1565b5b906000526020600020906006020160000154141561278257888a6125f391906152b6565b905080821015612601578190505b80600d8781548110612616576126156155a1565b5b90600052602060002090600602016002015411156126a95780600d8781548110612643576126426155a1565b5b90600052602060002090600602016002015461265f91906152b6565b600d8781548110612673576126726155a1565b5b906000526020600020906006020160020181905550808961269491906151d5565b985080826126a291906152b6565b915061277d565b600d86815481106126bd576126bc6155a1565b5b906000526020600020906006020160020154896126da91906151d5565b9850600d86815481106126f0576126ef6155a1565b5b9060005260206000209060060201600201548261270d91906152b6565b91506000600d8781548110612725576127246155a1565b5b906000526020600020906006020160020181905550600e600087815260200190815260200160002054600e600087815260200190815260200160002081905550600e6000878152602001908152602001600020600090555b6127b6565b600d8681548110612796576127956155a1565b5b906000526020600020906006020160020154826127b391906152b6565b91505b61256e565b6064848a6127c9919061525c565b6127d3919061522b565b97506127de88613c3c565b50505050505050915091565b6060600060405180608001604052806040518060400160405280600f81526020017f70656e64656e7465566f746163616f000000000000000000000000000000000081525081526020016040518060400160405280601281526020017f70656e64656e74654566657469766163616f000000000000000000000000000081525081526020016040518060400160405280600581526020017f617469766f00000000000000000000000000000000000000000000000000000081525081526020016040518060400160405280600881526020017f726563757361646f00000000000000000000000000000000000000000000000081525081525090508083600481106128f8576128f76155a1565b5b6020020151915050919050565b6060600080606060005b6008805490508110156129cf57600060038111156129305761292f615543565b5b60088281548110612944576129436155a1565b5b90600052602060002090600a020160000160009054906101000a900460ff16600381111561297557612974615543565b5b14156129bc576000612999600960008481526020019081526020016000205461086a565b50505090506001151581151514156129ba5783806129b69061546b565b9450505b505b80806129c79061546b565b91505061290f565b508167ffffffffffffffff8111156129ea576129e96155d0565b5b604051908082528060200260200182016040528015612a185781602001602082028036833780820191505090505b50905060005b600880549050811015612afe5760006003811115612a3f57612a3e615543565b5b60088281548110612a5357612a526155a1565b5b90600052602060002090600a020160000160009054906101000a900460ff166003811115612a8457612a83615543565b5b1415612aeb576000612aa8600960008481526020019081526020016000205461086a565b5050509050600115158115151415612ae95781838681518110612ace57612acd6155a1565b5b6020026020010181815250508480612ae59061546b565b9550505b505b8080612af69061546b565b915050612a1e565b5080935050505090565b6000806000612b29600960008681526020019081526020016000205461086a565b50509150915060006003811115612b4357612b42615543565b5b60088581548110612b5757612b566155a1565b5b90600052602060002090600a020160000160009054906101000a900460ff166003811115612b8857612b87615543565b5b148015612b99575060011515821515145b15612c4e57600115158115151415612bfe57600260088581548110612bc157612bc06155a1565b5b90600052602060002090600a020160000160006101000a81548160ff02191690836003811115612bf457612bf3615543565b5b0217905550612c4d565b600360088581548110612c1457612c136155a1565b5b90600052602060002090600a020160000160006101000a81548160ff02191690836003811115612c4757612c46615543565b5b02179055505b5b6000612c5933613221565b9150508060088681548110612c7157612c706155a1565b5b90600052602060002090600a0201600201819055504260088681548110612c9b57612c9a6155a1565b5b90600052602060002090600a02016008018190555060019350505050919050565b600060011515612ccb856120d3565b151514612d0d576040517f08c379a0000000000000000000000000000000000000000000000000000000008152600401612d0490614f77565b60405180910390fd5b6000612d1885613221565b915050600d6040518060c0016040528083815260200186815260200186815260200185815260200142815260200160006003811115612d5a57612d59615543565b5b8152509080600181540180825580915050600190039060005260206000209060060201600090919091909150600082015181600001556020820151816001015560408201518160020155606082015181600301556080820151816004015560a08201518160050160006101000a81548160ff02191690836003811115612de357612de2615543565b5b021790555050506001600d80549050612dfc91906152b6565b9150612e0782613cc8565b509392505050565b60011515612e1c336120d3565b151514612e5e576040517f08c379a0000000000000000000000000000000000000000000000000000000008152600401612e5590614f57565b60405180910390fd5b6000612e698361135b565b955050505050506000612e7b826119d7565b90506000612e893384610c8d565b905060008282612710612e9c919061525c565b612ea6919061522b565b9050612eb3868287613f1b565b505050505050565b6060600060048054905067ffffffffffffffff811115612ede57612edd6155d0565b5b604051908082528060200260200182016040528015612f0c5781602001602082028036833780820191505090505b50905060005b600480549050811015612f525780828281518110612f3357612f326155a1565b5b6020026020010181815250508080612f4a9061546b565b915050612f12565b508091505090565b6000806000806000806000600d8881548110612f7957612f786155a1565b5b90600052602060002090600602016040518060c001604052908160008201548152602001600182015481526020016002820154815260200160038201548152602001600482015481526020016005820160009054906101000a900460ff166003811115612fe957612fe8615543565b5b6003811115612ffb57612ffa615543565b5b8152505090506000600381111561301557613014615543565b5b8160a00151600381111561302c5761302b615543565b5b1415613096576000613050600f60008b81526020019081526020016000205461086a565b50505090506001151581151514156130945760018260a00190600381111561307b5761307a615543565b5b9081600381111561308f5761308e615543565b5b815250505b505b806000015196508681602001519650868260400151965086836060015196508684608001519650868560a001519650965096509650965096505091939550919395565b600080600090506000600e6000838152602001908152602001600020549050600192505b60011561321957828061310f9061546b565b935050600d8481548110613126576131256155a1565b5b906000526020600020906006020160030154600d838154811061314c5761314b6155a1565b5b9060005260206000209060060201600301541080156131b45750600d848154811061317a576131796155a1565b5b906000526020600020906006020160030154600d82815481106131a05761319f6155a1565b5b906000526020600020906006020160030154115b806131bf5750600081145b156131fb5783600e60008481526020019081526020016000208190555080600e600086815260200190815260200160002081905550505061321c565b809150600e60008381526020019081526020016000205490506130fd565b50505b919050565b6000806000915060005b6004805490508110156132d1578373ffffffffffffffffffffffffffffffffffffffff1660048281548110613263576132626155a1565b5b906000526020600020906007020160010160009054906101000a900473ffffffffffffffffffffffffffffffffffffffff1673ffffffffffffffffffffffffffffffffffffffff1614156132be5760019250809150506132d3565b80806132c99061546b565b91505061322b565b505b915091565b80600483815481106132ed576132ec6155a1565b5b906000526020600020906007020160060160006101000a81548160ff021916908360048111156133205761331f615543565b5b021790555060056000838152602001908152602001600020604051806040016040528083600481111561335657613355615543565b5b815260200142815250908060018154018082558091505060019003906000526020600020906002020160009091909190915060008201518160000160006101000a81548160ff021916908360048111156133b3576133b2615543565b5b02179055506020820151816001015550505050565b6000600882815481106133de576133dd6155a1565b5b90600052602060002090600a0201604051806101600160405290816000820160009054906101000a900460ff16600381111561341d5761341c615543565b5b600381111561342f5761342e615543565b5b81526020016000820160019054906101000a900460ff16600181111561345857613457615543565b5b600181111561346a57613469615543565b5b8152602001600182015481526020016002820154815260200160038201805461349290615408565b80601f01602080910402602001604051908101604052809291908181526020018280546134be90615408565b801561350b5780601f106134e05761010080835404028352916020019161350b565b820191906000526020600020905b8154815290600101906020018083116134ee57829003601f168201915b5050505050815260200160048201805461352490615408565b80601f016020809104026020016040519081016040528092919081815260200182805461355090615408565b801561359d5780601f106135725761010080835404028352916020019161359d565b820191906000526020600020905b81548152906001019060200180831161358057829003601f168201915b50505050508152602001600582015481526020016006820180546135c090615408565b80601f01602080910402602001604051908101604052809291908181526020018280546135ec90615408565b80156136395780601f1061360e57610100808354040283529160200191613639565b820191906000526020600020905b81548152906001019060200180831161361c57829003601f168201915b5050505050815260200160078201548152602001600882015481526020016009820154815250509050600081608001516040516020016136799190614cf9565b604051602081830303815290604052905060008260a001516040516020016136a19190614d1b565b60405160208183030381529060405290506000600267ffffffffffffffff8111156136cf576136ce6155d0565b5b60405190808252806020026020018201604052801561370257816020015b60608152602001906001900390816136ed5790505b5090506040518060400160405280600781526020017f62616e6b696e67000000000000000000000000000000000000000000000000008152508160008151811061374f5761374e6155a1565b5b60200260200101819052506040518060400160405280601681526020017f6d6f76696d656e746163616f46696e616e636569726100000000000000000000815250816001815181106137a4576137a36155a1565b5b60200260200101819052506000600b548561014001516137c491906151d5565b905060006137d4858585856140a2565b905080600960008981526020019081526020016000208190555050505050505050565b60006004828154811061380d5761380c6155a1565b5b90600052602060002090600702016040518060e0016040529081600082015481526020016001820160009054906101000a900473ffffffffffffffffffffffffffffffffffffffff1673ffffffffffffffffffffffffffffffffffffffff1673ffffffffffffffffffffffffffffffffffffffff16815260200160028201805461389690615408565b80601f01602080910402602001604051908101604052809291908181526020018280546138c290615408565b801561390f5780601f106138e45761010080835404028352916020019161390f565b820191906000526020600020905b8154815290600101906020018083116138f257829003601f168201915b5050505050815260200160038201805461392890615408565b80601f016020809104026020016040519081016040528092919081815260200182805461395490615408565b80156139a15780601f10613976576101008083540402835291602001916139a1565b820191906000526020600020905b81548152906001019060200180831161398457829003601f168201915b505050505081526020016004820180546139ba90615408565b80601f01602080910402602001604051908101604052809291908181526020018280546139e690615408565b8015613a335780601f10613a0857610100808354040283529160200191613a33565b820191906000526020600020905b815481529060010190602001808311613a1657829003601f168201915b50505050508152602001600582015481526020016006820160009054906101000a900460ff166004811115613a6b57613a6a615543565b5b6004811115613a7d57613a7c615543565b5b815250509050600081604001516004836000015181548110613aa257613aa16155a1565b5b9060005260206000209060070201600201604051602001613ac4929190614c6d565b604051602081830303815290604052905060606000600267ffffffffffffffff811115613af457613af36155d0565b5b604051908082528060200260200182016040528015613b2757816020015b6060815260200190600190039081613b125790505b5090506040518060400160405280600781526020017f706172746e65720000000000000000000000000000000000000000000000000081525081600081518110613b7457613b736155a1565b5b60200260200101819052506040518060400160405280600881526020017f616464536f63696f00000000000000000000000000000000000000000000000081525081600181518110613bc957613bc86155a1565b5b6020026020010181905250600060075460048781548110613bed57613bec6155a1565b5b906000526020600020906007020160050154613c0991906151d5565b90506000613c19858585856140a2565b905080600660008981526020019081526020016000208190555050505050505050565b613cc460006040518060400160405280601381526020017f4c69717569646163616f20646520546f6b656e0000000000000000000000000081525060405180602001604052806000815250846040518060400160405280600581526020017f636f6e74610000000000000000000000000000000000000000000000000000008152504261112d565b5050565b6000600d8281548110613cde57613cdd6155a1565b5b90600052602060002090600602016040518060c001604052908160008201548152602001600182015481526020016002820154815260200160038201548152602001600482015481526020016005820160009054906101000a900460ff166003811115613d4e57613d4d615543565b5b6003811115613d6057613d5f615543565b5b8152505090506000613d758260000151611ac4565b50505050925050506000613d8833613221565b9150506000613d9682611ac4565b50505050925050506000613dad85602001516141e1565b8483604051602001613dc193929190614ca7565b604051602081830303815290604052905060606000600267ffffffffffffffff811115613df157613df06155d0565b5b604051908082528060200260200182016040528015613e2457816020015b6060815260200190600190039081613e0f5790505b5090506040518060400160405280600581526020017f746f6b656e00000000000000000000000000000000000000000000000000000081525081600081518110613e7157613e706155a1565b5b60200260200101819052506040518060400160405280600881526020017f616464546f6b656e00000000000000000000000000000000000000000000000081525081600181518110613ec657613ec56155a1565b5b602002602001018190525060006010548860800151613ee591906151d5565b90506000613ef5858585856140a2565b905080600f60008c81526020019081526020016000208190555050505050505050505050565b60001515613f298433610b67565b151514613f6b576040517f08c379a0000000000000000000000000000000000000000000000000000000008152600401613f6290614f37565b60405180910390fd5b600260405180608001604052803373ffffffffffffffffffffffffffffffffffffffff168152602001831515815260200184815260200142815250908060018154018082558091505060019003906000526020600020906003020160009091909190915060008201518160000160006101000a81548173ffffffffffffffffffffffffffffffffffffffff021916908373ffffffffffffffffffffffffffffffffffffffff16021790555060208201518160000160146101000a81548160ff021916908315150217905550604082015181600101556060820151816002015550506000600160028054905061406091906152b6565b90506003600085815260200190815260200160002081908060018154018082558091505060019003906000526020600020016000909190919091505550505050565b600060016040518060c001604052803373ffffffffffffffffffffffffffffffffffffffff16815260200187815260200186815260200185815260200184815260200142815250908060018154018082558091505060019003906000526020600020906006020160009091909190915060008201518160000160006101000a81548173ffffffffffffffffffffffffffffffffffffffff021916908373ffffffffffffffffffffffffffffffffffffffff1602179055506020820151816001019080519060200190614175929190614342565b506040820151816002019080519060200190614192929190614342565b5060608201518160030190805190602001906141af9291906143c8565b506080820151816004015560a082015181600501555050600180805490506141d791906152b6565b9050949350505050565b60606000821415614229576040518060400160405280600181526020017f3000000000000000000000000000000000000000000000000000000000000000815250905061433d565b600082905060005b6000821461425b5780806142449061546b565b915050600a82614254919061522b565b9150614231565b60008167ffffffffffffffff811115614277576142766155d0565b5b6040519080825280601f01601f1916602001820160405280156142a95781602001600182028036833780820191505090505b5090505b60008514614336576001826142c291906152b6565b9150600a856142d191906154b4565b60306142dd91906151d5565b60f81b8183815181106142f3576142f26155a1565b5b60200101907effffffffffffffffffffffffffffffffffffffffffffffffffffffffffffff1916908160001a905350600a8561432f919061522b565b94506142ad565b8093505050505b919050565b82805461434e90615408565b90600052602060002090601f01602090048101928261437057600085556143b7565b82601f1061438957805160ff19168380011785556143b7565b828001600101855582156143b7579182015b828111156143b657825182559160200191906001019061439b565b5b5090506143c49190614428565b5090565b828054828255906000526020600020908101928215614417579160200282015b82811115614416578251829080519060200190614406929190614342565b50916020019190600101906143e8565b5b5090506144249190614445565b5090565b5b80821115614441576000816000905550600101614429565b5090565b5b80821115614465576000818161445c9190614469565b50600101614446565b5090565b50805461447590615408565b6000825580601f1061448757506144a6565b601f0160209004906000526020600020908101906144a59190614428565b5b50565b60006144bc6144b7846150e5565b6150c0565b9050828152602081018484840111156144d8576144d7615604565b5b6144e38482856153c6565b509392505050565b6000813590506144fa816158a6565b92915050565b60008135905061450f816158bd565b92915050565b600081359050614524816158d4565b92915050565b600082601f83011261453f5761453e6155ff565b5b813561454f8482602086016144a9565b91505092915050565b600081359050614567816158e4565b92915050565b6000602082840312156145835761458261560e565b5b6000614591848285016144eb565b91505092915050565b600080600080608085870312156145b4576145b361560e565b5b60006145c2878288016144eb565b945050602085013567ffffffffffffffff8111156145e3576145e2615609565b5b6145ef8782880161452a565b935050604085013567ffffffffffffffff8111156146105761460f615609565b5b61461c8782880161452a565b925050606085013567ffffffffffffffff81111561463d5761463c615609565b5b6146498782880161452a565b91505092959194509250565b6000806040838503121561466c5761466b61560e565b5b600061467a858286016144eb565b925050602061468b85828601614558565b9150509250929050565b6000806000606084860312156146ae576146ad61560e565b5b60006146bc868287016144eb565b93505060206146cd86828701614558565b92505060406146de86828701614558565b9150509250925092565b60008060008060008060c087890312156147055761470461560e565b5b600061471389828a01614515565b965050602087013567ffffffffffffffff81111561473457614733615609565b5b61474089828a0161452a565b955050604087013567ffffffffffffffff81111561476157614760615609565b5b61476d89828a0161452a565b945050606061477e89828a01614558565b935050608087013567ffffffffffffffff81111561479f5761479e615609565b5b6147ab89828a0161452a565b92505060a06147bc89828a01614558565b9150509295509295509295565b6000602082840312156147df576147de61560e565b5b60006147ed84828501614558565b91505092915050565b6000806040838503121561480d5761480c61560e565b5b600061481b85828601614558565b925050602061482c858286016144eb565b9150509250929050565b6000806040838503121561484d5761484c61560e565b5b600061485b85828601614558565b925050602061486c85828601614500565b9150509250929050565b600061488283836149cf565b905092915050565b60006148968383614c4f565b60208301905092915050565b6148ab816152ea565b82525050565b60006148bc8261514b565b6148c68185615186565b9350836020820285016148d885615116565b8060005b8581101561491457848403895281516148f58582614876565b94506149008361516c565b925060208a019950506001810190506148dc565b50829750879550505050505092915050565b600061493182615156565b61493b8185615197565b935061494683615126565b8060005b8381101561497757815161495e888261488a565b975061496983615179565b92505060018101905061494a565b5085935050505092915050565b61498d816152fc565b82525050565b61499c8161537e565b82525050565b6149ab81615390565b82525050565b6149ba816153a2565b82525050565b6149c9816153b4565b82525050565b60006149da82615161565b6149e481856151a8565b93506149f48185602086016153d5565b6149fd81615613565b840191505092915050565b6000614a1382615161565b614a1d81856151b9565b9350614a2d8185602086016153d5565b614a3681615613565b840191505092915050565b6000614a4c82615161565b614a5681856151ca565b9350614a668185602086016153d5565b80840191505092915050565b60008154614a7f81615408565b614a8981866151ca565b94506001821660008114614aa45760018114614ab557614ae8565b60ff19831686528186019350614ae8565b614abe85615136565b60005b83811015614ae057815481890152600182019150602081019050614ac1565b838801955050505b50505092915050565b6000614afe6009836151ca565b9150614b0982615624565b600982019050919050565b6000614b21600c836151ca565b9150614b2c8261564d565b600c82019050919050565b6000614b446032836151b9565b9150614b4f82615676565b604082019050919050565b6000614b67600b836151ca565b9150614b72826156c5565b600b82019050919050565b6000614b8a6009836151b9565b9150614b95826156ee565b602082019050919050565b6000614bad6021836151b9565b9150614bb882615717565b604082019050919050565b6000614bd06023836151b9565b9150614bdb82615766565b604082019050919050565b6000614bf36021836151ca565b9150614bfe826157b5565b602182019050919050565b6000614c166019836151ca565b9150614c2182615804565b601982019050919050565b6000614c39600b836151ca565b9150614c448261582d565b600b82019050919050565b614c5881615374565b82525050565b614c6781615374565b82525050565b6000614c7882614b14565b9150614c848285614a41565b9150614c8f82614b5a565b9150614c9b8284614a72565b91508190509392505050565b6000614cb282614be6565b9150614cbe8286614a41565b9150614cc982614af1565b9150614cd58285614a41565b9150614ce082614b5a565b9150614cec8284614a41565b9150819050949350505050565b6000614d0482614c09565b9150614d108284614a41565b915081905092915050565b6000614d2682614c2c565b9150614d328284614a41565b915081905092915050565b600060c082019050614d5260008301896148a2565b8181036020830152614d648188614a08565b90508181036040830152614d788187614a08565b90508181036060830152614d8c81866148b1565b9050614d9b6080830185614c5e565b614da860a0830184614c5e565b979650505050505050565b60006020820190508181036000830152614dcd8184614926565b905092915050565b6000602082019050614dea6000830184614984565b92915050565b6000608082019050614e056000830187614984565b614e126020830186614984565b614e1f6040830185614c5e565b614e2c6060830184614c5e565b95945050505050565b600061016082019050614e4b600083018e6149a2565b614e58602083018d6149c0565b614e65604083018c614c5e565b614e72606083018b614c5e565b8181036080830152614e84818a614a08565b905081810360a0830152614e988189614a08565b9050614ea760c0830188614c5e565b81810360e0830152614eb98187614a08565b9050614ec9610100830186614c5e565b614ed7610120830185614c5e565b614ee5610140830184614c5e565b9c9b505050505050505050505050565b60006020820190508181036000830152614f0f8184614a08565b905092915050565b60006020820190508181036000830152614f3081614b37565b9050919050565b60006020820190508181036000830152614f5081614b7d565b9050919050565b60006020820190508181036000830152614f7081614ba0565b9050919050565b60006020820190508181036000830152614f9081614bc3565b9050919050565b6000602082019050614fac6000830184614c5e565b92915050565b600060e082019050614fc7600083018a614c5e565b614fd460208301896148a2565b8181036040830152614fe68188614a08565b90508181036060830152614ffa8187614a08565b9050818103608083015261500e8186614a08565b905061501d60a0830185614c5e565b61502a60c08301846149b1565b98975050505050505050565b600060408201905061504b6000830185614c5e565b6150586020830184614c5e565b9392505050565b600060c0820190506150746000830189614c5e565b6150816020830188614c5e565b61508e6040830187614c5e565b61509b6060830186614c5e565b6150a86080830185614c5e565b6150b560a0830184614993565b979650505050505050565b60006150ca6150db565b90506150d6828261543a565b919050565b6000604051905090565b600067ffffffffffffffff821115615100576150ff6155d0565b5b61510982615613565b9050602081019050919050565b6000819050602082019050919050565b6000819050602082019050919050565b60008190508160005260206000209050919050565b600081519050919050565b600081519050919050565b600081519050919050565b6000602082019050919050565b6000602082019050919050565b600082825260208201905092915050565b600082825260208201905092915050565b600082825260208201905092915050565b600082825260208201905092915050565b600081905092915050565b60006151e082615374565b91506151eb83615374565b9250827fffffffffffffffffffffffffffffffffffffffffffffffffffffffffffffffff038211156152205761521f6154e5565b5b828201905092915050565b600061523682615374565b915061524183615374565b92508261525157615250615514565b5b828204905092915050565b600061526782615374565b915061527283615374565b9250817fffffffffffffffffffffffffffffffffffffffffffffffffffffffffffffffff04831182151516156152ab576152aa6154e5565b5b828202905092915050565b60006152c182615374565b91506152cc83615374565b9250828210156152df576152de6154e5565b5b828203905092915050565b60006152f582615354565b9050919050565b60008115159050919050565b600081905061531682615856565b919050565b60008190506153298261586a565b919050565b600081905061533c8261587e565b919050565b600081905061534f82615892565b919050565b600073ffffffffffffffffffffffffffffffffffffffff82169050919050565b6000819050919050565b600061538982615308565b9050919050565b600061539b8261531b565b9050919050565b60006153ad8261532e565b9050919050565b60006153bf82615341565b9050919050565b82818337600083830152505050565b60005b838110156153f35780820151818401526020810190506153d8565b83811115615402576000848401525b50505050565b6000600282049050600182168061542057607f821691505b6020821081141561543457615433615572565b5b50919050565b61544382615613565b810181811067ffffffffffffffff82111715615462576154616155d0565b5b80604052505050565b600061547682615374565b91507fffffffffffffffffffffffffffffffffffffffffffffffffffffffffffffffff8214156154a9576154a86154e5565b5b600182019050919050565b60006154bf82615374565b91506154ca83615374565b9250826154da576154d9615514565b5b828206905092915050565b7f4e487b7100000000000000000000000000000000000000000000000000000000600052601160045260246000fd5b7f4e487b7100000000000000000000000000000000000000000000000000000000600052601260045260246000fd5b7f4e487b7100000000000000000000000000000000000000000000000000000000600052602160045260246000fd5b7f4e487b7100000000000000000000000000000000000000000000000000000000600052602260045260246000fd5b7f4e487b7100000000000000000000000000000000000000000000000000000000600052603260045260246000fd5b7f4e487b7100000000000000000000000000000000000000000000000000000000600052604160045260246000fd5b600080fd5b600080fd5b600080fd5b600080fd5b6000601f19601f8301169050919050565b7f3f3f3f2070617261200000000000000000000000000000000000000000000000600082015250565b7f496e636c7573616f20646f200000000000000000000000000000000000000000600082015250565b7f4170656e617320736f63696f7320617469766f7320706f64656d20616469636960008201527f6f6e6172206e6f766f7320736f63696f73210000000000000000000000000000602082015250565b7f20666569746120706f7220000000000000000000000000000000000000000000600082015250565b7f4a6120766f746f75210000000000000000000000000000000000000000000000600082015250565b7f4170656e617320736f63696f7320617469766f7320706f64656d20766f74617260008201527f2100000000000000000000000000000000000000000000000000000000000000602082015250565b7f4170656e617320736f63696f7320706f64656d207265636562657220746f6b6560008201527f6e73210000000000000000000000000000000000000000000000000000000000602082015250565b7f496e636c7573616f20646520636f6e747261746f20646520546f6b656e20646560008201527f2000000000000000000000000000000000000000000000000000000000000000602082015250565b7f4d6f76696d656e746163616f2066696e616e63656972613a2000000000000000600082015250565b7f44657363726963616f3a20000000000000000000000000000000000000000000600082015250565b6004811061586757615866615543565b5b50565b6004811061587b5761587a615543565b5b50565b6005811061588f5761588e615543565b5b50565b600281106158a3576158a2615543565b5b50565b6158af816152ea565b81146158ba57600080fd5b50565b6158c6816152fc565b81146158d157600080fd5b50565b600281106158e157600080fd5b50565b6158ed81615374565b81146158f857600080fd5b5056fea2646970667358221220854635f009501dc2074fb7df7e998629ef98b43f5aaf1009df368c5cf1bd7b5064736f6c63430008070033",
  "immutableReferences": {},
  "source": "//SPDX-License-Identifier: MIT\r\npragma solidity >=0.8.0 <0.9.0;\r\n\r\nimport \"./Project.sol\";\r\n\r\ncontract DAO7 is Project {\r\n    constructor() {}\r\n\r\n    function Votar(uint256 index, bool voto) public {\r\n        require(\r\n            Partner.SocioAtivo(msg.sender) == true,\r\n            \"Apenas socios ativos podem votar!\"\r\n        );\r\n\r\n        (, , , , , uint256 dataVotacao) = Consent.GetPropostaVotacao(index);\r\n        uint256 totalTokens = Token.GetTotalTokensPorData(dataVotacao);\r\n        uint256 tokensSocio = Token.GetTokensPorSocioPorData(\r\n            msg.sender,\r\n            dataVotacao\r\n        );\r\n        uint256 peso = ((10000 * tokensSocio) / totalTokens);\r\n\r\n        Consent.Votar(index, peso, voto);\r\n    }\r\n}\r\n",
  "sourcePath": "C:\\projetos\\dao7\\contracts\\contracts\\DAO7.sol",
  "compiler": {
    "name": "solc",
    "version": "0.8.7+commit.e28d00a7.Emscripten.clang"
  },
  "schemaVersion": "3.4.3",
  "updatedAt": "2021-11-02T19:30:57.442Z",
  "networkType": "ethereum",
  "devdoc": {
    "kind": "dev",
    "methods": {},
    "version": 1
  },
  "userdoc": {
    "kind": "user",
    "methods": {},
    "version": 1
  }
}