{
  "contractName": "Financeiro",
  "abi": [
    {
      "inputs": [],
      "stateMutability": "nonpayable",
      "type": "constructor"
    },
    {
      "inputs": [
        {
          "internalType": "address",
          "name": "addressSocio",
          "type": "address"
        },
        {
          "internalType": "string",
          "name": "nome",
          "type": "string"
        },
        {
          "internalType": "string",
          "name": "email",
          "type": "string"
        },
        {
          "internalType": "string",
          "name": "conta",
          "type": "string"
        }
      ],
      "name": "AddSocio",
      "outputs": [],
      "stateMutability": "nonpayable",
      "type": "function"
    },
    {
      "inputs": [
        {
          "internalType": "uint256",
          "name": "index",
          "type": "uint256"
        }
      ],
      "name": "EfetivarVotacaoSocio",
      "outputs": [],
      "stateMutability": "nonpayable",
      "type": "function"
    },
    {
      "inputs": [
        {
          "internalType": "uint256",
          "name": "index",
          "type": "uint256"
        }
      ],
      "name": "GetPropostaVotacao",
      "outputs": [
        {
          "internalType": "address",
          "name": "ownerVotacao",
          "type": "address"
        },
        {
          "internalType": "string",
          "name": "titulo",
          "type": "string"
        },
        {
          "internalType": "string",
          "name": "descricao",
          "type": "string"
        },
        {
          "internalType": "string[]",
          "name": "tags",
          "type": "string[]"
        },
        {
          "internalType": "uint256",
          "name": "dataTermino",
          "type": "uint256"
        },
        {
          "internalType": "uint256",
          "name": "dataRegistro",
          "type": "uint256"
        }
      ],
      "stateMutability": "view",
      "type": "function"
    },
    {
      "inputs": [
        {
          "internalType": "uint256",
          "name": "index",
          "type": "uint256"
        }
      ],
      "name": "GetResultadoVotacao",
      "outputs": [
        {
          "internalType": "bool",
          "name": "finalizada",
          "type": "bool"
        },
        {
          "internalType": "bool",
          "name": "resultado",
          "type": "bool"
        },
        {
          "internalType": "uint256",
          "name": "votosAprovacao",
          "type": "uint256"
        },
        {
          "internalType": "uint256",
          "name": "votosReprovacao",
          "type": "uint256"
        }
      ],
      "stateMutability": "view",
      "type": "function"
    },
    {
      "inputs": [
        {
          "internalType": "uint256",
          "name": "index",
          "type": "uint256"
        }
      ],
      "name": "GetSocio",
      "outputs": [
        {
          "internalType": "uint256",
          "name": "indexSocioIndicacao",
          "type": "uint256"
        },
        {
          "internalType": "address",
          "name": "addressSocio",
          "type": "address"
        },
        {
          "internalType": "string",
          "name": "nome",
          "type": "string"
        },
        {
          "internalType": "string",
          "name": "email",
          "type": "string"
        },
        {
          "internalType": "string",
          "name": "conta",
          "type": "string"
        },
        {
          "internalType": "uint256",
          "name": "dataRegistro",
          "type": "uint256"
        },
        {
          "internalType": "enum Sociedade.statusSocio",
          "name": "status",
          "type": "uint8"
        }
      ],
      "stateMutability": "view",
      "type": "function"
    },
    {
      "inputs": [],
      "name": "GetSocios",
      "outputs": [
        {
          "internalType": "uint256[]",
          "name": "",
          "type": "uint256[]"
        }
      ],
      "stateMutability": "view",
      "type": "function"
    },
    {
      "inputs": [],
      "name": "GetVotacoesAbertas",
      "outputs": [
        {
          "internalType": "uint256[]",
          "name": "_votacoes",
          "type": "uint256[]"
        }
      ],
      "stateMutability": "view",
      "type": "function"
    },
    {
      "inputs": [
        {
          "internalType": "uint256",
          "name": "index",
          "type": "uint256"
        },
        {
          "internalType": "address",
          "name": "addressSocio",
          "type": "address"
        }
      ],
      "name": "JaVotou",
      "outputs": [
        {
          "internalType": "bool",
          "name": "votado",
          "type": "bool"
        }
      ],
      "stateMutability": "view",
      "type": "function"
    },
    {
      "inputs": [
        {
          "internalType": "address",
          "name": "addressSocio",
          "type": "address"
        }
      ],
      "name": "SocioAtivo",
      "outputs": [
        {
          "internalType": "bool",
          "name": "socioAtivo",
          "type": "bool"
        }
      ],
      "stateMutability": "view",
      "type": "function"
    },
    {
      "inputs": [],
      "name": "SociosPendentes",
      "outputs": [
        {
          "internalType": "uint256[]",
          "name": "",
          "type": "uint256[]"
        }
      ],
      "stateMutability": "view",
      "type": "function"
    },
    {
      "inputs": [
        {
          "internalType": "uint256",
          "name": "index",
          "type": "uint256"
        }
      ],
      "name": "GetEnumTipoMovimentacaoFinanceira",
      "outputs": [
        {
          "internalType": "string",
          "name": "",
          "type": "string"
        }
      ],
      "stateMutability": "pure",
      "type": "function"
    },
    {
      "inputs": [
        {
          "internalType": "uint256",
          "name": "index",
          "type": "uint256"
        }
      ],
      "name": "GetEnumStatusMovimentacaoFinanceira",
      "outputs": [
        {
          "internalType": "string",
          "name": "",
          "type": "string"
        }
      ],
      "stateMutability": "pure",
      "type": "function"
    },
    {
      "inputs": [],
      "name": "GetSaldoFundoTokens",
      "outputs": [
        {
          "internalType": "uint256",
          "name": "valor",
          "type": "uint256"
        }
      ],
      "stateMutability": "view",
      "type": "function"
    },
    {
      "inputs": [
        {
          "internalType": "enum Financeiro.tipoMovimentacaoFinanceira",
          "name": "tipo",
          "type": "uint8"
        },
        {
          "internalType": "string",
          "name": "titulo",
          "type": "string"
        },
        {
          "internalType": "string",
          "name": "descricao",
          "type": "string"
        },
        {
          "internalType": "uint256",
          "name": "valor",
          "type": "uint256"
        },
        {
          "internalType": "string",
          "name": "conta",
          "type": "string"
        },
        {
          "internalType": "uint256",
          "name": "dataVencimento",
          "type": "uint256"
        }
      ],
      "name": "AddMovimentacaoFinanceira",
      "outputs": [
        {
          "internalType": "uint256",
          "name": "index",
          "type": "uint256"
        }
      ],
      "stateMutability": "nonpayable",
      "type": "function"
    },
    {
      "inputs": [
        {
          "internalType": "uint256",
          "name": "index",
          "type": "uint256"
        }
      ],
      "name": "GetMovimentacaoFinanceira",
      "outputs": [
        {
          "internalType": "enum Financeiro.statusMovimentacaoFinanceira",
          "name": "status",
          "type": "uint8"
        },
        {
          "internalType": "enum Financeiro.tipoMovimentacaoFinanceira",
          "name": "tipo",
          "type": "uint8"
        },
        {
          "internalType": "uint256",
          "name": "indexSocioInclusao",
          "type": "uint256"
        },
        {
          "internalType": "uint256",
          "name": "indexSocioEfetivacao",
          "type": "uint256"
        },
        {
          "internalType": "string",
          "name": "titulo",
          "type": "string"
        },
        {
          "internalType": "string",
          "name": "descricao",
          "type": "string"
        },
        {
          "internalType": "uint256",
          "name": "valor",
          "type": "uint256"
        },
        {
          "internalType": "string",
          "name": "conta",
          "type": "string"
        },
        {
          "internalType": "uint256",
          "name": "dataVencimento",
          "type": "uint256"
        },
        {
          "internalType": "uint256",
          "name": "dataEfetivacao",
          "type": "uint256"
        },
        {
          "internalType": "uint256",
          "name": "dataRegistro",
          "type": "uint256"
        }
      ],
      "stateMutability": "view",
      "type": "function"
    },
    {
      "inputs": [],
      "name": "GetMovimentacoesFinanceira",
      "outputs": [
        {
          "internalType": "uint256[]",
          "name": "",
          "type": "uint256[]"
        }
      ],
      "stateMutability": "view",
      "type": "function"
    },
    {
      "inputs": [],
      "name": "GetMovimentacoesFinanceirasPendentesEfetivacao",
      "outputs": [
        {
          "internalType": "uint256[]",
          "name": "",
          "type": "uint256[]"
        }
      ],
      "stateMutability": "view",
      "type": "function"
    },
    {
      "inputs": [
        {
          "internalType": "uint256",
          "name": "index",
          "type": "uint256"
        }
      ],
      "name": "EfetivarLancamento",
      "outputs": [
        {
          "internalType": "bool",
          "name": "",
          "type": "bool"
        }
      ],
      "stateMutability": "nonpayable",
      "type": "function"
    }
  ],
  "bytecode": "0x60806040523480156200001157600080fd5b506203f48060078190555060006040518060e00160405280600081526020013373ffffffffffffffffffffffffffffffffffffffff1681526020016040518060400160405280600581526020017f6f776e6572000000000000000000000000000000000000000000000000000000815250815260200160405180602001604052806000815250815260200160405180602001604052806000815250815260200142815260200160026004811115620000ce57620000cd620002e3565b5b815250905060048190806001815401808255809150506001900390600052602060002090600702016000909190919091506000820151816000015560208201518160010160006101000a81548173ffffffffffffffffffffffffffffffffffffffff021916908373ffffffffffffffffffffffffffffffffffffffff16021790555060408201518160020190805190602001906200016e929190620001fd565b5060608201518160030190805190602001906200018d929190620001fd565b506080820151816004019080519060200190620001ac929190620001fd565b5060a0820151816005015560c08201518160060160006101000a81548160ff02191690836004811115620001e557620001e4620002e3565b5b02179055505050506203f480600b8190555062000341565b8280546200020b90620002ad565b90600052602060002090601f0160209004810192826200022f57600085556200027b565b82601f106200024a57805160ff19168380011785556200027b565b828001600101855582156200027b579182015b828111156200027a5782518255916020019190600101906200025d565b5b5090506200028a91906200028e565b5090565b5b80821115620002a95760008160009055506001016200028f565b5090565b60006002820490506001821680620002c657607f821691505b60208210811415620002dd57620002dc62000312565b5b50919050565b7f4e487b7100000000000000000000000000000000000000000000000000000000600052602160045260246000fd5b7f4e487b7100000000000000000000000000000000000000000000000000000000600052602260045260246000fd5b613d9380620003516000396000f3fe608060405234801561001057600080fd5b50600436106101165760003560e01c806378555cf8116100a2578063baeee9ed11610071578063baeee9ed14610347578063d388fb7c14610363578063d41b47d314610393578063d6fcbe6c146103b1578063f2a6fc46146103e157610116565b806378555cf814610289578063965cfb5c146102c3578063b2f5f56d146102f9578063b3c6e7891461031757610116565b80633fc62a26116100e95780633fc62a26146101cc5780634012ec96146101e85780635ff9ed871461020657806366e15fa61461022457806369512a071461025457610116565b80630b12c4931461011b5780632ccdab8a1461014b578063362f13671461017e57806338dc2de5146101ae575b600080fd5b610135600480360381019061013091906130df565b6103ff565b60405161014291906136bb565b60405180910390f35b610165600480360381019061016091906130df565b6104a4565b60405161017594939291906135b6565b60405180910390f35b6101986004803603810190610193919061310c565b6106a1565b6040516101a5919061359b565b60405180910390f35b6101b66107c7565b6040516101c391906136fd565b60405180910390f35b6101e660048036038101906101e191906130df565b6107d1565b005b6101f0610894565b6040516101fd9190613579565b60405180910390f35b61020e610933565b60405161021b9190613579565b60405180910390f35b61023e60048036038101906102399190612ffe565b610b36565b60405161024b91906136fd565b60405180910390f35b61026e600480360381019061026991906130df565b610d09565b60405161028096959493929190613503565b60405180910390f35b6102a3600480360381019061029e91906130df565b610fdf565b6040516102ba9b9a999897969594939291906135fb565b60405180910390f35b6102dd60048036038101906102d891906130df565b611385565b6040516102f09796959493929190613718565b60405180910390f35b6103016116ee565b60405161030e9190613579565b60405180910390f35b610331600480360381019061032c9190612f16565b61182d565b60405161033e919061359b565b60405180910390f35b610361600480360381019061035c9190612f43565b6118b7565b005b61037d600480360381019061037891906130df565b611b53565b60405161038a91906136bb565b60405180910390f35b61039b611c6e565b6040516103a89190613579565b60405180910390f35b6103cb60048036038101906103c691906130df565b611e71565b6040516103d8919061359b565b60405180910390f35b6103e9612107565b6040516103f69190613579565b60405180910390f35b6060600060405180604001604052806040518060400160405280600581526020017f706167617200000000000000000000000000000000000000000000000000000081525081526020016040518060400160405280600781526020017f7265636562657200000000000000000000000000000000000000000000000000815250815250905080836002811061049757610496613b6d565b5b6020020151915050919050565b6000806000806000935060009250600091506000905060006003600087815260200190815260200160002080548060200260200160405190810160405280929190818152602001828054801561051957602002820191906000526020600020905b815481526020019060010190808311610505575b5050505050905060005b81518110156106385760011515600283838151811061054557610544613b6d565b5b60200260200101518154811061055e5761055d613b6d565b5b906000526020600020906003020160000160149054906101000a900460ff16151514156105d757600282828151811061059a57610599613b6d565b5b6020026020010151815481106105b3576105b2613b6d565b5b906000526020600020906003020160010154846105d091906138b1565b9350610625565b60028282815181106105ec576105eb613b6d565b5b60200260200101518154811061060557610604613b6d565b5b9060005260206000209060030201600101548361062291906138b1565b92505b808061063090613a97565b915050610523565b50426001878154811061064e5761064d613b6d565b5b906000526020600020906006020160040154108061066d575061138883115b80610679575061138882115b1561068357600194505b818311156106945760019350610699565b600093505b509193509193565b6000806003600085815260200190815260200160002080548060200260200160405190810160405280929190818152602001828054801561070157602002820191906000526020600020905b8154815260200190600101908083116106ed575b5050505050905060005b81518110156107bf578373ffffffffffffffffffffffffffffffffffffffff1660028383815181106107405761073f613b6d565b5b60200260200101518154811061075957610758613b6d565b5b906000526020600020906003020160000160009054906101000a900473ffffffffffffffffffffffffffffffffffffffff1673ffffffffffffffffffffffffffffffffffffffff1614156107ac57600192505b80806107b790613a97565b91505061070b565b505092915050565b6000600a54905090565b6000806107f060066000858152602001908152602001600020546104a4565b5050915091506000600481111561080a57610809613b0f565b5b6004848154811061081e5761081d613b6d565b5b906000526020600020906007020160060160009054906101000a900460ff16600481111561084f5761084e613b0f565b5b148015610860575060011515821515145b1561088f576001151581151514156108825761087d8360026121a6565b61088e565b61088d8360036121a6565b5b5b505050565b6060600060088054905067ffffffffffffffff8111156108b7576108b6613b9c565b5b6040519080825280602002602001820160405280156108e55781602001602082028036833780820191505090505b50905060005b60088054905081101561092b578082828151811061090c5761090b613b6d565b5b602002602001018181525050808061092390613a97565b9150506108eb565b508091505090565b6060600080606060005b6004805490508110156109fd576000600481111561095e5761095d613b0f565b5b6004828154811061097257610971613b6d565b5b906000526020600020906007020160060160009054906101000a900460ff1660048111156109a3576109a2613b0f565b5b14156109ea5760006109c760066000848152602001908152602001600020546104a4565b50505090506001151581151514156109e85783806109e490613a97565b9450505b505b80806109f590613a97565b91505061093d565b508167ffffffffffffffff811115610a1857610a17613b9c565b5b604051908082528060200260200182016040528015610a465781602001602082028036833780820191505090505b50905060005b600480549050811015610b2c5760006004811115610a6d57610a6c613b0f565b5b60048281548110610a8157610a80613b6d565b5b906000526020600020906007020160060160009054906101000a900460ff166004811115610ab257610ab1613b0f565b5b1415610b19576000610ad660066000848152602001908152602001600020546104a4565b5050509050600115158115151415610b175781838681518110610afc57610afb613b6d565b5b6020026020010181815250508480610b1390613a97565b9550505b505b8080610b2490613a97565b915050610a4c565b5080935050505090565b600080610b4233612296565b915050600060405180610160016040528060006003811115610b6757610b66613b0f565b5b81526020018a6001811115610b7f57610b7e613b0f565b5b8152602001838152602001600081526020018981526020018881526020018781526020018681526020018581526020016000815260200142815250905060088190806001815401808255809150506001900390600052602060002090600a020160009091909190915060008201518160000160006101000a81548160ff02191690836003811115610c1357610c12613b0f565b5b021790555060208201518160000160016101000a81548160ff02191690836001811115610c4357610c42613b0f565b5b021790555060408201518160010155606082015181600201556080820151816003019080519060200190610c78929190612d00565b5060a0820151816004019080519060200190610c95929190612d00565b5060c0820151816005015560e0820151816006019080519060200190610cbc929190612d00565b5061010082015181600701556101208201518160080155610140820151816009015550506001600880549050610cf29190613907565b9250610cfd8361234d565b50509695505050505050565b60006060806060600080600060018881548110610d2957610d28613b6d565b5b90600052602060002090600602016040518060c00160405290816000820160009054906101000a900473ffffffffffffffffffffffffffffffffffffffff1673ffffffffffffffffffffffffffffffffffffffff1673ffffffffffffffffffffffffffffffffffffffff168152602001600182018054610da890613a34565b80601f0160208091040260200160405190810160405280929190818152602001828054610dd490613a34565b8015610e215780601f10610df657610100808354040283529160200191610e21565b820191906000526020600020905b815481529060010190602001808311610e0457829003601f168201915b50505050508152602001600282018054610e3a90613a34565b80601f0160208091040260200160405190810160405280929190818152602001828054610e6690613a34565b8015610eb35780601f10610e8857610100808354040283529160200191610eb3565b820191906000526020600020905b815481529060010190602001808311610e9657829003601f168201915b5050505050815260200160038201805480602002602001604051908101604052809291908181526020016000905b82821015610f8d578382906000526020600020018054610f0090613a34565b80601f0160208091040260200160405190810160405280929190818152602001828054610f2c90613a34565b8015610f795780601f10610f4e57610100808354040283529160200191610f79565b820191906000526020600020905b815481529060010190602001808311610f5c57829003601f168201915b505050505081526020019060010190610ee1565b505050508152602001600482015481526020016005820154815250509050806000015181602001518260400151836060015184608001518560a001519650965096509650965096505091939550919395565b6000806000806060806000606060008060008060088d8154811061100657611005613b6d565b5b90600052602060002090600a0201604051806101600160405290816000820160009054906101000a900460ff16600381111561104557611044613b0f565b5b600381111561105757611056613b0f565b5b81526020016000820160019054906101000a900460ff1660018111156110805761107f613b0f565b5b600181111561109257611091613b0f565b5b815260200160018201548152602001600282015481526020016003820180546110ba90613a34565b80601f01602080910402602001604051908101604052809291908181526020018280546110e690613a34565b80156111335780601f1061110857610100808354040283529160200191611133565b820191906000526020600020905b81548152906001019060200180831161111657829003601f168201915b5050505050815260200160048201805461114c90613a34565b80601f016020809104026020016040519081016040528092919081815260200182805461117890613a34565b80156111c55780601f1061119a576101008083540402835291602001916111c5565b820191906000526020600020905b8154815290600101906020018083116111a857829003601f168201915b50505050508152602001600582015481526020016006820180546111e890613a34565b80601f016020809104026020016040519081016040528092919081815260200182805461121490613a34565b80156112615780601f1061123657610100808354040283529160200191611261565b820191906000526020600020905b81548152906001019060200180831161124457829003601f168201915b50505050508152602001600782015481526020016008820154815260200160098201548152505090506000600960008f8152602001908152602001600020549050600060038111156112b6576112b5613b0f565b5b826000015160038111156112cd576112cc613b0f565b5b14156113245760006112de826104a4565b50505090506001151581151514156113225760018360000190600381111561130957611308613b0f565b5b9081600381111561131d5761131c613b0f565b5b815250505b505b816000015182602001518360400151846060015185608001518660a001518760c001518860e001518961010001518a61012001518b61014001519c509c509c509c509c509c509c509c509c509c509c50505091939597999b90929496989a50565b60008060608060606000806000600489815481106113a6576113a5613b6d565b5b90600052602060002090600702016040518060e0016040529081600082015481526020016001820160009054906101000a900473ffffffffffffffffffffffffffffffffffffffff1673ffffffffffffffffffffffffffffffffffffffff1673ffffffffffffffffffffffffffffffffffffffff16815260200160028201805461142f90613a34565b80601f016020809104026020016040519081016040528092919081815260200182805461145b90613a34565b80156114a85780601f1061147d576101008083540402835291602001916114a8565b820191906000526020600020905b81548152906001019060200180831161148b57829003601f168201915b505050505081526020016003820180546114c190613a34565b80601f01602080910402602001604051908101604052809291908181526020018280546114ed90613a34565b801561153a5780601f1061150f5761010080835404028352916020019161153a565b820191906000526020600020905b81548152906001019060200180831161151d57829003601f168201915b5050505050815260200160048201805461155390613a34565b80601f016020809104026020016040519081016040528092919081815260200182805461157f90613a34565b80156115cc5780601f106115a1576101008083540402835291602001916115cc565b820191906000526020600020905b8154815290600101906020018083116115af57829003601f168201915b50505050508152602001600582015481526020016006820160009054906101000a900460ff16600481111561160457611603613b0f565b5b600481111561161657611615613b0f565b5b815250509050600060048111156116305761162f613b0f565b5b8160c00151600481111561164757611646613b0f565b5b14156116b157600061166b600660008c8152602001908152602001600020546104a4565b50505090506001151581151514156116af5760018260c00190600481111561169657611695613b0f565b5b908160048111156116aa576116a9613b0f565b5b815250505b505b806000015181602001518260400151836060015184608001518560a001518660c00151975097509750975097509750975050919395979092949650565b60606000806060600042905060005b60018054905081101561175857816001828154811061171f5761171e613b6d565b5b9060005260206000209060060201600401541061174557838061174190613a97565b9450505b808061175090613a97565b9150506116fd565b508267ffffffffffffffff81111561177357611772613b9c565b5b6040519080825280602002602001820160405280156117a15781602001602082028036833780820191505090505b50915060005b6001805490508110156118225781600182815481106117c9576117c8613b6d565b5b9060005260206000209060060201600401541061180f57808386815181106117f4576117f3613b6d565b5b602002602001018181525050848061180b90613a97565b9550505b808061181a90613a97565b9150506117a7565b508194505050505090565b6000808061183a84612296565b915091506001151582151514156118b0576002600481111561185f5761185e613b0f565b5b6004828154811061187357611872613b6d565b5b906000526020600020906007020160060160009054906101000a900460ff1660048111156118a4576118a3613b0f565b5b14156118af57600192505b5b5050919050565b600115156118c43361182d565b151514611906576040517f08c379a00000000000000000000000000000000000000000000000000000000081526004016118fd906136dd565b60405180910390fd5b600061191133612296565b91505060006040518060e001604052808381526020018773ffffffffffffffffffffffffffffffffffffffff1681526020018681526020018581526020018481526020014281526020016000600481111561196f5761196e613b0f565b5b815250905060048190806001815401808255809150506001900390600052602060002090600702016000909190919091506000820151816000015560208201518160010160006101000a81548173ffffffffffffffffffffffffffffffffffffffff021916908373ffffffffffffffffffffffffffffffffffffffff1602179055506040820151816002019080519060200190611a0d929190612d00565b506060820151816003019080519060200190611a2a929190612d00565b506080820151816004019080519060200190611a47929190612d00565b5060a0820151816005015560c08201518160060160006101000a81548160ff02191690836004811115611a7d57611a7c613b0f565b5b0217905550505060006001600480549050611a989190613907565b90506005600082815260200190815260200160002060405180604001604052808460c001516004811115611acf57611ace613b0f565b5b81526020018460a00151815250908060018154018082558091505060019003906000526020600020906002020160009091909190915060008201518160000160006101000a81548160ff02191690836004811115611b3057611b2f613b0f565b5b0217905550602082015181600101555050611b4a8161277c565b50505050505050565b6060600060405180608001604052806040518060400160405280600f81526020017f70656e64656e7465566f746163616f000000000000000000000000000000000081525081526020016040518060400160405280601281526020017f70656e64656e74654566657469766163616f000000000000000000000000000081525081526020016040518060400160405280600581526020017f617469766f00000000000000000000000000000000000000000000000000000081525081526020016040518060400160405280600881526020017f726563757361646f0000000000000000000000000000000000000000000000008152508152509050808360048110611c6157611c60613b6d565b5b6020020151915050919050565b6060600080606060005b600880549050811015611d385760006003811115611c9957611c98613b0f565b5b60088281548110611cad57611cac613b6d565b5b90600052602060002090600a020160000160009054906101000a900460ff166003811115611cde57611cdd613b0f565b5b1415611d25576000611d0260096000848152602001908152602001600020546104a4565b5050509050600115158115151415611d23578380611d1f90613a97565b9450505b505b8080611d3090613a97565b915050611c78565b508167ffffffffffffffff811115611d5357611d52613b9c565b5b604051908082528060200260200182016040528015611d815781602001602082028036833780820191505090505b50905060005b600880549050811015611e675760006003811115611da857611da7613b0f565b5b60088281548110611dbc57611dbb613b6d565b5b90600052602060002090600a020160000160009054906101000a900460ff166003811115611ded57611dec613b0f565b5b1415611e54576000611e1160096000848152602001908152602001600020546104a4565b5050509050600115158115151415611e525781838681518110611e3757611e36613b6d565b5b6020026020010181815250508480611e4e90613a97565b9550505b505b8080611e5f90613a97565b915050611d87565b5080935050505090565b6000806000611e9260096000868152602001908152602001600020546104a4565b50509150915060006003811115611eac57611eab613b0f565b5b60088581548110611ec057611ebf613b6d565b5b90600052602060002090600a020160000160009054906101000a900460ff166003811115611ef157611ef0613b0f565b5b148015611f02575060011515821515145b156120fb57600115158115151415611f6757600260088581548110611f2a57611f29613b6d565b5b90600052602060002090600a020160000160006101000a81548160ff02191690836003811115611f5d57611f5c613b0f565b5b0217905550611fb6565b600360088581548110611f7d57611f7c613b6d565b5b90600052602060002090600a020160000160006101000a81548160ff02191690836003811115611fb057611faf613b0f565b5b02179055505b6000611fc133612296565b9150508060088681548110611fd957611fd8613b6d565b5b90600052602060002090600a020160020181905550426008868154811061200357612002613b6d565b5b90600052602060002090600a0201600801819055506000600181111561202c5761202b613b0f565b5b600886815481106120405761203f613b6d565b5b90600052602060002090600a020160000160019054906101000a900460ff16600181111561207157612070613b0f565b5b14156120b5576008858154811061208b5761208a613b6d565b5b90600052602060002090600a020160050154600a546120aa9190613907565b600a819055506120ef565b600885815481106120c9576120c8613b6d565b5b90600052602060002090600a020160050154600a546120e891906138b1565b600a819055505b60019350505050612102565b6000925050505b919050565b6060600060048054905067ffffffffffffffff81111561212a57612129613b9c565b5b6040519080825280602002602001820160405280156121585781602001602082028036833780820191505090505b50905060005b60048054905081101561219e578082828151811061217f5761217e613b6d565b5b602002602001018181525050808061219690613a97565b91505061215e565b508091505090565b80600483815481106121bb576121ba613b6d565b5b906000526020600020906007020160060160006101000a81548160ff021916908360048111156121ee576121ed613b0f565b5b021790555060056000838152602001908152602001600020604051806040016040528083600481111561222457612223613b0f565b5b815260200142815250908060018154018082558091505060019003906000526020600020906002020160009091909190915060008201518160000160006101000a81548160ff0219169083600481111561228157612280613b0f565b5b02179055506020820151816001015550505050565b6000806000915060005b600480549050811015612346578373ffffffffffffffffffffffffffffffffffffffff16600482815481106122d8576122d7613b6d565b5b906000526020600020906007020160010160009054906101000a900473ffffffffffffffffffffffffffffffffffffffff1673ffffffffffffffffffffffffffffffffffffffff161415612333576001925080915050612348565b808061233e90613a97565b9150506122a0565b505b915091565b60006008828154811061236357612362613b6d565b5b90600052602060002090600a0201604051806101600160405290816000820160009054906101000a900460ff1660038111156123a2576123a1613b0f565b5b60038111156123b4576123b3613b0f565b5b81526020016000820160019054906101000a900460ff1660018111156123dd576123dc613b0f565b5b60018111156123ef576123ee613b0f565b5b8152602001600182015481526020016002820154815260200160038201805461241790613a34565b80601f016020809104026020016040519081016040528092919081815260200182805461244390613a34565b80156124905780601f1061246557610100808354040283529160200191612490565b820191906000526020600020905b81548152906001019060200180831161247357829003601f168201915b505050505081526020016004820180546124a990613a34565b80601f01602080910402602001604051908101604052809291908181526020018280546124d590613a34565b80156125225780601f106124f757610100808354040283529160200191612522565b820191906000526020600020905b81548152906001019060200180831161250557829003601f168201915b505050505081526020016005820154815260200160068201805461254590613a34565b80601f016020809104026020016040519081016040528092919081815260200182805461257190613a34565b80156125be5780601f10612593576101008083540402835291602001916125be565b820191906000526020600020905b8154815290600101906020018083116125a157829003601f168201915b5050505050815260200160078201548152602001600882015481526020016009820154815250509050600081608001516040516020016125fe91906134bf565b604051602081830303815290604052905060008260a0015160405160200161262691906134e1565b60405160208183030381529060405290506000600267ffffffffffffffff81111561265457612653613b9c565b5b60405190808252806020026020018201604052801561268757816020015b60608152602001906001900390816126725790505b5090506040518060400160405280600781526020017f62616e6b696e6700000000000000000000000000000000000000000000000000815250816000815181106126d4576126d3613b6d565b5b60200260200101819052506040518060400160405280601681526020017f6d6f76696d656e746163616f46696e616e6365697261000000000000000000008152508160018151811061272957612728613b6d565b5b60200260200101819052506000600b5485610140015161274991906138b1565b9050600061275985858585612bc1565b905080600960008981526020019081526020016000208190555050505050505050565b60006004828154811061279257612791613b6d565b5b90600052602060002090600702016040518060e0016040529081600082015481526020016001820160009054906101000a900473ffffffffffffffffffffffffffffffffffffffff1673ffffffffffffffffffffffffffffffffffffffff1673ffffffffffffffffffffffffffffffffffffffff16815260200160028201805461281b90613a34565b80601f016020809104026020016040519081016040528092919081815260200182805461284790613a34565b80156128945780601f1061286957610100808354040283529160200191612894565b820191906000526020600020905b81548152906001019060200180831161287757829003601f168201915b505050505081526020016003820180546128ad90613a34565b80601f01602080910402602001604051908101604052809291908181526020018280546128d990613a34565b80156129265780601f106128fb57610100808354040283529160200191612926565b820191906000526020600020905b81548152906001019060200180831161290957829003601f168201915b5050505050815260200160048201805461293f90613a34565b80601f016020809104026020016040519081016040528092919081815260200182805461296b90613a34565b80156129b85780601f1061298d576101008083540402835291602001916129b8565b820191906000526020600020905b81548152906001019060200180831161299b57829003601f168201915b50505050508152602001600582015481526020016006820160009054906101000a900460ff1660048111156129f0576129ef613b0f565b5b6004811115612a0257612a01613b0f565b5b815250509050600081604001516004836000015181548110612a2757612a26613b6d565b5b9060005260206000209060070201600201604051602001612a49929190613485565b604051602081830303815290604052905060606000600267ffffffffffffffff811115612a7957612a78613b9c565b5b604051908082528060200260200182016040528015612aac57816020015b6060815260200190600190039081612a975790505b5090506040518060400160405280600781526020017f706172746e65720000000000000000000000000000000000000000000000000081525081600081518110612af957612af8613b6d565b5b60200260200101819052506040518060400160405280600881526020017f616464536f63696f00000000000000000000000000000000000000000000000081525081600181518110612b4e57612b4d613b6d565b5b6020026020010181905250600060075460048781548110612b7257612b71613b6d565b5b906000526020600020906007020160050154612b8e91906138b1565b90506000612b9e85858585612bc1565b905080600660008981526020019081526020016000208190555050505050505050565b600060016040518060c001604052803373ffffffffffffffffffffffffffffffffffffffff16815260200187815260200186815260200185815260200184815260200142815250908060018154018082558091505060019003906000526020600020906006020160009091909190915060008201518160000160006101000a81548173ffffffffffffffffffffffffffffffffffffffff021916908373ffffffffffffffffffffffffffffffffffffffff1602179055506020820151816001019080519060200190612c94929190612d00565b506040820151816002019080519060200190612cb1929190612d00565b506060820151816003019080519060200190612cce929190612d86565b506080820151816004015560a08201518160050155505060018080549050612cf69190613907565b9050949350505050565b828054612d0c90613a34565b90600052602060002090601f016020900481019282612d2e5760008555612d75565b82601f10612d4757805160ff1916838001178555612d75565b82800160010185558215612d75579182015b82811115612d74578251825591602001919060010190612d59565b5b509050612d829190612de6565b5090565b828054828255906000526020600020908101928215612dd5579160200282015b82811115612dd4578251829080519060200190612dc4929190612d00565b5091602001919060010190612da6565b5b509050612de29190612e03565b5090565b5b80821115612dff576000816000905550600101612de7565b5090565b5b80821115612e235760008181612e1a9190612e27565b50600101612e04565b5090565b508054612e3390613a34565b6000825580601f10612e455750612e64565b601f016020900490600052602060002090810190612e639190612de6565b5b50565b6000612e7a612e75846137c1565b61379c565b905082815260208101848484011115612e9657612e95613bd0565b5b612ea18482856139f2565b509392505050565b600081359050612eb881613d1f565b92915050565b600081359050612ecd81613d36565b92915050565b600082601f830112612ee857612ee7613bcb565b5b8135612ef8848260208601612e67565b91505092915050565b600081359050612f1081613d46565b92915050565b600060208284031215612f2c57612f2b613bda565b5b6000612f3a84828501612ea9565b91505092915050565b60008060008060808587031215612f5d57612f5c613bda565b5b6000612f6b87828801612ea9565b945050602085013567ffffffffffffffff811115612f8c57612f8b613bd5565b5b612f9887828801612ed3565b935050604085013567ffffffffffffffff811115612fb957612fb8613bd5565b5b612fc587828801612ed3565b925050606085013567ffffffffffffffff811115612fe657612fe5613bd5565b5b612ff287828801612ed3565b91505092959194509250565b60008060008060008060c0878903121561301b5761301a613bda565b5b600061302989828a01612ebe565b965050602087013567ffffffffffffffff81111561304a57613049613bd5565b5b61305689828a01612ed3565b955050604087013567ffffffffffffffff81111561307757613076613bd5565b5b61308389828a01612ed3565b945050606061309489828a01612f01565b935050608087013567ffffffffffffffff8111156130b5576130b4613bd5565b5b6130c189828a01612ed3565b92505060a06130d289828a01612f01565b9150509295509295509295565b6000602082840312156130f5576130f4613bda565b5b600061310384828501612f01565b91505092915050565b6000806040838503121561312357613122613bda565b5b600061313185828601612f01565b925050602061314285828601612ea9565b9150509250929050565b60006131588383613296565b905092915050565b600061316c8383613467565b60208301905092915050565b6131818161393b565b82525050565b600061319282613827565b61319c8185613862565b9350836020820285016131ae856137f2565b8060005b858110156131ea57848403895281516131cb858261314c565b94506131d683613848565b925060208a019950506001810190506131b2565b50829750879550505050505092915050565b600061320782613832565b6132118185613873565b935061321c83613802565b8060005b8381101561324d5781516132348882613160565b975061323f83613855565b925050600181019050613220565b5085935050505092915050565b6132638161394d565b82525050565b613272816139bc565b82525050565b613281816139ce565b82525050565b613290816139e0565b82525050565b60006132a18261383d565b6132ab8185613884565b93506132bb818560208601613a01565b6132c481613bdf565b840191505092915050565b60006132da8261383d565b6132e48185613895565b93506132f4818560208601613a01565b6132fd81613bdf565b840191505092915050565b60006133138261383d565b61331d81856138a6565b935061332d818560208601613a01565b80840191505092915050565b6000815461334681613a34565b61335081866138a6565b9450600182166000811461336b576001811461337c576133af565b60ff198316865281860193506133af565b61338585613812565b60005b838110156133a757815481890152600182019150602081019050613388565b838801955050505b50505092915050565b60006133c5600c836138a6565b91506133d082613bf0565b600c82019050919050565b60006133e8603283613895565b91506133f382613c19565b604082019050919050565b600061340b600b836138a6565b915061341682613c68565b600b82019050919050565b600061342e6019836138a6565b915061343982613c91565b601982019050919050565b6000613451600b836138a6565b915061345c82613cba565b600b82019050919050565b613470816139b2565b82525050565b61347f816139b2565b82525050565b6000613490826133b8565b915061349c8285613308565b91506134a7826133fe565b91506134b38284613339565b91508190509392505050565b60006134ca82613421565b91506134d68284613308565b915081905092915050565b60006134ec82613444565b91506134f88284613308565b915081905092915050565b600060c0820190506135186000830189613178565b818103602083015261352a81886132cf565b9050818103604083015261353e81876132cf565b905081810360608301526135528186613187565b90506135616080830185613476565b61356e60a0830184613476565b979650505050505050565b6000602082019050818103600083015261359381846131fc565b905092915050565b60006020820190506135b0600083018461325a565b92915050565b60006080820190506135cb600083018761325a565b6135d8602083018661325a565b6135e56040830185613476565b6135f26060830184613476565b95945050505050565b600061016082019050613611600083018e613269565b61361e602083018d613287565b61362b604083018c613476565b613638606083018b613476565b818103608083015261364a818a6132cf565b905081810360a083015261365e81896132cf565b905061366d60c0830188613476565b81810360e083015261367f81876132cf565b905061368f610100830186613476565b61369d610120830185613476565b6136ab610140830184613476565b9c9b505050505050505050505050565b600060208201905081810360008301526136d581846132cf565b905092915050565b600060208201905081810360008301526136f6816133db565b9050919050565b60006020820190506137126000830184613476565b92915050565b600060e08201905061372d600083018a613476565b61373a6020830189613178565b818103604083015261374c81886132cf565b9050818103606083015261376081876132cf565b9050818103608083015261377481866132cf565b905061378360a0830185613476565b61379060c0830184613278565b98975050505050505050565b60006137a66137b7565b90506137b28282613a66565b919050565b6000604051905090565b600067ffffffffffffffff8211156137dc576137db613b9c565b5b6137e582613bdf565b9050602081019050919050565b6000819050602082019050919050565b6000819050602082019050919050565b60008190508160005260206000209050919050565b600081519050919050565b600081519050919050565b600081519050919050565b6000602082019050919050565b6000602082019050919050565b600082825260208201905092915050565b600082825260208201905092915050565b600082825260208201905092915050565b600082825260208201905092915050565b600081905092915050565b60006138bc826139b2565b91506138c7836139b2565b9250827fffffffffffffffffffffffffffffffffffffffffffffffffffffffffffffffff038211156138fc576138fb613ae0565b5b828201905092915050565b6000613912826139b2565b915061391d836139b2565b9250828210156139305761392f613ae0565b5b828203905092915050565b600061394682613992565b9050919050565b60008115159050919050565b600081905061396782613ce3565b919050565b600081905061397a82613cf7565b919050565b600081905061398d82613d0b565b919050565b600073ffffffffffffffffffffffffffffffffffffffff82169050919050565b6000819050919050565b60006139c782613959565b9050919050565b60006139d98261396c565b9050919050565b60006139eb8261397f565b9050919050565b82818337600083830152505050565b60005b83811015613a1f578082015181840152602081019050613a04565b83811115613a2e576000848401525b50505050565b60006002820490506001821680613a4c57607f821691505b60208210811415613a6057613a5f613b3e565b5b50919050565b613a6f82613bdf565b810181811067ffffffffffffffff82111715613a8e57613a8d613b9c565b5b80604052505050565b6000613aa2826139b2565b91507fffffffffffffffffffffffffffffffffffffffffffffffffffffffffffffffff821415613ad557613ad4613ae0565b5b600182019050919050565b7f4e487b7100000000000000000000000000000000000000000000000000000000600052601160045260246000fd5b7f4e487b7100000000000000000000000000000000000000000000000000000000600052602160045260246000fd5b7f4e487b7100000000000000000000000000000000000000000000000000000000600052602260045260246000fd5b7f4e487b7100000000000000000000000000000000000000000000000000000000600052603260045260246000fd5b7f4e487b7100000000000000000000000000000000000000000000000000000000600052604160045260246000fd5b600080fd5b600080fd5b600080fd5b600080fd5b6000601f19601f8301169050919050565b7f496e636c7573616f20646f200000000000000000000000000000000000000000600082015250565b7f4170656e617320736f63696f7320617469766f7320706f64656d20616469636960008201527f6f6e6172206e6f766f7320736f63696f73210000000000000000000000000000602082015250565b7f20666569746120706f7220000000000000000000000000000000000000000000600082015250565b7f4d6f76696d656e746163616f2066696e616e63656972613a2000000000000000600082015250565b7f44657363726963616f3a20000000000000000000000000000000000000000000600082015250565b60048110613cf457613cf3613b0f565b5b50565b60058110613d0857613d07613b0f565b5b50565b60028110613d1c57613d1b613b0f565b5b50565b613d288161393b565b8114613d3357600080fd5b50565b60028110613d4357600080fd5b50565b613d4f816139b2565b8114613d5a57600080fd5b5056fea264697066735822122036b69a62161020d4e2be903d823a08c73ae2cad0463533bd0d5a5378c03d28c064736f6c63430008070033",
  "immutableReferences": {},
  "source": "//SPDX-License-Identifier: MIT\r\npragma solidity >=0.8.0 <0.9.0;\r\n\r\nimport \"./Sociedade.sol\";\r\n\r\ncontract Financeiro is Sociedade {\r\n    enum statusMovimentacaoFinanceira {\r\n        pendenteVotacao,\r\n        pendenteEfetivacao,\r\n        ativo,\r\n        recusado\r\n    }\r\n\r\n    enum tipoMovimentacaoFinanceira {\r\n        pagar,\r\n        receber\r\n    }\r\n\r\n    struct MovimentacaoFinanceira {\r\n        statusMovimentacaoFinanceira status;\r\n        tipoMovimentacaoFinanceira tipo;\r\n        uint256 indexSocioInclusao;\r\n        uint256 indexSocioEfetivacao;\r\n        string titulo;\r\n        string descricao;\r\n        uint256 valor;\r\n        string conta;\r\n        uint256 dataVencimento;\r\n        uint256 dataEfetivacao;\r\n        uint256 dataRegistro;\r\n    }\r\n\r\n    MovimentacaoFinanceira[] movimentacoesFinanceiras;\r\n    mapping(uint256 => uint256) votacoesMovimentacoesFinanceiras; // index movimentacoesFinanceiras[] => index votacoes[]\r\n    uint256 saldoFinanceiro;\r\n\r\n    uint256 private prazoVotacao;\r\n\r\n    constructor() {\r\n        prazoVotacao = 3 days;\r\n    }\r\n\r\n    function GetEnumTipoMovimentacaoFinanceira(uint256 index)\r\n        public\r\n        pure\r\n        returns (string memory)\r\n    {\r\n        string[2] memory stringToEnum = [\"pagar\", \"receber\"];\r\n        return stringToEnum[index];\r\n    }\r\n\r\n    function GetEnumStatusMovimentacaoFinanceira(uint256 index)\r\n        public\r\n        pure\r\n        returns (string memory)\r\n    {\r\n        string[4] memory stringToEnum = [\r\n            \"pendenteVotacao\",\r\n            \"pendenteEfetivacao\",\r\n            \"ativo\",\r\n            \"recusado\"\r\n        ];\r\n        return stringToEnum[index];\r\n    }\r\n\r\n    function GetSaldoFundoTokens() public view returns (uint256 valor) {\r\n        // Considera o balano financeiro dos ltimos 30 dias\r\n        return saldoFinanceiro;\r\n    }\r\n\r\n    function AddMovimentacaoFinanceiraDireta(\r\n        tipoMovimentacaoFinanceira tipo,\r\n        string memory titulo,\r\n        string memory descricao,\r\n        uint256 valor,\r\n        string memory conta\r\n    ) internal returns (uint256 index) {\r\n        (, uint256 indexSocioInclusao) = GetIndexSocioByAddress(msg.sender);\r\n\r\n        uint256 data = block.timestamp;\r\n\r\n        MovimentacaoFinanceira memory mv = MovimentacaoFinanceira({\r\n            status: statusMovimentacaoFinanceira.ativo,\r\n            tipo: tipo,\r\n            indexSocioInclusao: indexSocioInclusao,\r\n            indexSocioEfetivacao: 2,\r\n            titulo: titulo,\r\n            descricao: descricao,\r\n            valor: valor,\r\n            conta: conta,\r\n            dataVencimento: data,\r\n            dataEfetivacao: data,\r\n            dataRegistro: data\r\n        });\r\n        movimentacoesFinanceiras.push(mv);\r\n        index = movimentacoesFinanceiras.length - 1;\r\n\r\n        if (\r\n            movimentacoesFinanceiras[index].tipo ==\r\n            tipoMovimentacaoFinanceira.pagar\r\n        ) {\r\n            saldoFinanceiro =\r\n                saldoFinanceiro -\r\n                movimentacoesFinanceiras[index].valor;\r\n        } else {\r\n            saldoFinanceiro =\r\n                saldoFinanceiro +\r\n                movimentacoesFinanceiras[index].valor;\r\n        }\r\n    }\r\n\r\n    function AddMovimentacaoFinanceira(\r\n        tipoMovimentacaoFinanceira tipo,\r\n        string memory titulo,\r\n        string memory descricao,\r\n        uint256 valor,\r\n        string memory conta,\r\n        uint256 dataVencimento\r\n    ) public returns (uint256 index) {\r\n        (, uint256 indexSocioInclusao) = GetIndexSocioByAddress(msg.sender);\r\n\r\n        MovimentacaoFinanceira memory mv = MovimentacaoFinanceira({\r\n            status: statusMovimentacaoFinanceira.pendenteVotacao,\r\n            tipo: tipo,\r\n            indexSocioInclusao: indexSocioInclusao,\r\n            indexSocioEfetivacao: 0,\r\n            titulo: titulo,\r\n            descricao: descricao,\r\n            valor: valor,\r\n            conta: conta,\r\n            dataVencimento: dataVencimento,\r\n            dataEfetivacao: 0,\r\n            dataRegistro: block.timestamp\r\n        });\r\n        movimentacoesFinanceiras.push(mv);\r\n        index = movimentacoesFinanceiras.length - 1;\r\n\r\n        AddPropostaVotacaoMovimentacaoFinanceira(index);\r\n    }\r\n\r\n    function AddPropostaVotacaoMovimentacaoFinanceira(uint256 index) private {\r\n        MovimentacaoFinanceira memory mv = movimentacoesFinanceiras[index];\r\n\r\n        string memory titulo = string(\r\n            abi.encodePacked(\"Movimentacao financeira: \", mv.titulo)\r\n        );\r\n        string memory descricao = string(\r\n            abi.encodePacked(\"Descricao: \", mv.descricao)\r\n        );\r\n        string[] memory tags = new string[](2);\r\n        tags[0] = \"banking\";\r\n        tags[1] = \"movimentacaoFinanceira\";\r\n        // tags[2] = string(abi.encodePacked(\"index:\", index));\r\n        // tags[3] = GetEnumTipoMovimentacaoFinanceira(uint256(mv.tipo));\r\n\r\n        uint256 dataTermino = mv.dataRegistro + prazoVotacao;\r\n        uint256 indexVotacao = AddPropostaVotacao(\r\n            titulo,\r\n            descricao,\r\n            tags,\r\n            dataTermino\r\n        );\r\n        votacoesMovimentacoesFinanceiras[index] = indexVotacao;\r\n    }\r\n\r\n    function GetMovimentacaoFinanceira(uint256 index)\r\n        public\r\n        view\r\n        returns (\r\n            statusMovimentacaoFinanceira status,\r\n            tipoMovimentacaoFinanceira tipo,\r\n            uint256 indexSocioInclusao,\r\n            uint256 indexSocioEfetivacao,\r\n            string memory titulo,\r\n            string memory descricao,\r\n            uint256 valor,\r\n            string memory conta,\r\n            uint256 dataVencimento,\r\n            uint256 dataEfetivacao,\r\n            uint256 dataRegistro\r\n        )\r\n    {\r\n        MovimentacaoFinanceira memory mv = movimentacoesFinanceiras[index];\r\n        uint256 indexVotacao = votacoesMovimentacoesFinanceiras[index];\r\n\r\n        if (mv.status == statusMovimentacaoFinanceira.pendenteVotacao) {\r\n            (bool finalizada, , , ) = Consenso.GetResultadoVotacao(indexVotacao);\r\n\r\n            if (finalizada == true) {\r\n                mv.status = statusMovimentacaoFinanceira.pendenteEfetivacao;\r\n            }\r\n        }\r\n\r\n        return (\r\n            mv.status,\r\n            mv.tipo,\r\n            mv.indexSocioInclusao,\r\n            mv.indexSocioEfetivacao,\r\n            mv.titulo,\r\n            mv.descricao,\r\n            mv.valor,\r\n            mv.conta,\r\n            mv.dataVencimento,\r\n            mv.dataEfetivacao,\r\n            mv.dataRegistro\r\n        );\r\n    }\r\n\r\n    function GetMovimentacoesFinanceira()\r\n        public\r\n        view\r\n        returns (uint256[] memory)\r\n    {\r\n        uint256[] memory arrayIndex = new uint256[](\r\n            movimentacoesFinanceiras.length\r\n        );\r\n\r\n        for (uint256 i; i < movimentacoesFinanceiras.length; i++) {\r\n            arrayIndex[i] = i;\r\n        }\r\n\r\n        return arrayIndex;\r\n    }\r\n\r\n    function GetMovimentacoesFinanceirasPendentesEfetivacao()\r\n        public\r\n        view\r\n        returns (uint256[] memory)\r\n    {\r\n        uint256 index = 0;\r\n        uint256 tamanhoArray = 0;\r\n        uint256[] memory arrayTemp;\r\n\r\n        for (uint256 i; i < movimentacoesFinanceiras.length; i++) {\r\n            if (\r\n                movimentacoesFinanceiras[i].status ==\r\n                statusMovimentacaoFinanceira.pendenteVotacao\r\n            ) {\r\n                (bool finalizada, , , ) = GetResultadoVotacao(\r\n                    votacoesMovimentacoesFinanceiras[i]\r\n                );\r\n\r\n                if (finalizada == true) {\r\n                    tamanhoArray++;\r\n                }\r\n            }\r\n        }\r\n\r\n        arrayTemp = new uint256[](tamanhoArray);\r\n\r\n        for (uint256 i; i < movimentacoesFinanceiras.length; i++) {\r\n            if (\r\n                movimentacoesFinanceiras[i].status ==\r\n                statusMovimentacaoFinanceira.pendenteVotacao\r\n            ) {\r\n                (bool finalizada, , , ) = GetResultadoVotacao(\r\n                    votacoesMovimentacoesFinanceiras[i]\r\n                );\r\n\r\n                if (finalizada == true) {\r\n                    arrayTemp[index] = i;\r\n                    index++;\r\n                }\r\n            }\r\n        }\r\n\r\n        return arrayTemp;\r\n    }\r\n\r\n    function EfetivarLancamento(uint256 index) public returns (bool) {\r\n        (bool finalizada, bool resultado, , ) = GetResultadoVotacao(\r\n            votacoesMovimentacoesFinanceiras[index]\r\n        );\r\n\r\n        if (\r\n            movimentacoesFinanceiras[index].status ==\r\n            statusMovimentacaoFinanceira.pendenteVotacao &&\r\n            finalizada == true\r\n        ) {\r\n            if (resultado == true) {\r\n                movimentacoesFinanceiras[index]\r\n                    .status = statusMovimentacaoFinanceira.ativo;\r\n            } else {\r\n                movimentacoesFinanceiras[index]\r\n                    .status = statusMovimentacaoFinanceira.recusado;\r\n            }\r\n\r\n            (, uint256 indexSocioEfetivacao) = GetIndexSocioByAddress(\r\n                msg.sender\r\n            );\r\n            movimentacoesFinanceiras[index]\r\n                .indexSocioEfetivacao = indexSocioEfetivacao;\r\n            movimentacoesFinanceiras[index].dataEfetivacao = block.timestamp;\r\n\r\n            if (\r\n                movimentacoesFinanceiras[index].tipo ==\r\n                tipoMovimentacaoFinanceira.pagar\r\n            ) {\r\n                saldoFinanceiro =\r\n                    saldoFinanceiro -\r\n                    movimentacoesFinanceiras[index].valor;\r\n            } else {\r\n                saldoFinanceiro =\r\n                    saldoFinanceiro +\r\n                    movimentacoesFinanceiras[index].valor;\r\n            }\r\n\r\n            return true;\r\n        }\r\n\r\n        return false;\r\n    }\r\n}\r\n",
  "sourcePath": "C:\\projetos\\dao7\\contracts\\contracts\\Financeiro.sol",
  "compiler": {
    "name": "solc",
    "version": "0.8.7+commit.e28d00a7.Emscripten.clang"
  },
  "schemaVersion": "3.4.5",
  "updatedAt": "2022-02-22T14:33:28.564Z",
  "devdoc": {
    "kind": "dev",
    "methods": {},
    "version": 1
  },
  "userdoc": {
    "kind": "user",
    "methods": {},
    "version": 1
  }
}