{
  "contractName": "Partner",
  "abi": [
    {
      "inputs": [],
      "stateMutability": "nonpayable",
      "type": "constructor"
    },
    {
      "inputs": [
        {
          "internalType": "uint256",
          "name": "index",
          "type": "uint256"
        }
      ],
      "name": "GetPropostaVotacao",
      "outputs": [
        {
          "internalType": "address",
          "name": "ownerVotacao",
          "type": "address"
        },
        {
          "internalType": "string",
          "name": "titulo",
          "type": "string"
        },
        {
          "internalType": "string",
          "name": "descricao",
          "type": "string"
        },
        {
          "internalType": "string[]",
          "name": "tags",
          "type": "string[]"
        },
        {
          "internalType": "uint256",
          "name": "dataTermino",
          "type": "uint256"
        },
        {
          "internalType": "uint256",
          "name": "dataRegistro",
          "type": "uint256"
        }
      ],
      "stateMutability": "view",
      "type": "function"
    },
    {
      "inputs": [
        {
          "internalType": "uint256",
          "name": "index",
          "type": "uint256"
        }
      ],
      "name": "GetResultadoVotacao",
      "outputs": [
        {
          "internalType": "bool",
          "name": "finalizada",
          "type": "bool"
        },
        {
          "internalType": "bool",
          "name": "resultado",
          "type": "bool"
        },
        {
          "internalType": "uint256",
          "name": "votosAprovacao",
          "type": "uint256"
        },
        {
          "internalType": "uint256",
          "name": "votosReprovacao",
          "type": "uint256"
        }
      ],
      "stateMutability": "view",
      "type": "function"
    },
    {
      "inputs": [],
      "name": "GetVotacoesAbertas",
      "outputs": [
        {
          "internalType": "uint256[]",
          "name": "_votacoes",
          "type": "uint256[]"
        }
      ],
      "stateMutability": "view",
      "type": "function"
    },
    {
      "inputs": [
        {
          "internalType": "uint256",
          "name": "index",
          "type": "uint256"
        },
        {
          "internalType": "address",
          "name": "addressSocio",
          "type": "address"
        }
      ],
      "name": "JaVotou",
      "outputs": [
        {
          "internalType": "bool",
          "name": "votado",
          "type": "bool"
        }
      ],
      "stateMutability": "view",
      "type": "function"
    },
    {
      "inputs": [
        {
          "internalType": "address",
          "name": "addressSocio",
          "type": "address"
        },
        {
          "internalType": "string",
          "name": "nome",
          "type": "string"
        },
        {
          "internalType": "string",
          "name": "email",
          "type": "string"
        },
        {
          "internalType": "string",
          "name": "conta",
          "type": "string"
        }
      ],
      "name": "AddSocio",
      "outputs": [],
      "stateMutability": "nonpayable",
      "type": "function"
    },
    {
      "inputs": [
        {
          "internalType": "address",
          "name": "addressSocio",
          "type": "address"
        }
      ],
      "name": "SocioAtivo",
      "outputs": [
        {
          "internalType": "bool",
          "name": "socioAtivo",
          "type": "bool"
        }
      ],
      "stateMutability": "view",
      "type": "function"
    },
    {
      "inputs": [],
      "name": "GetSocios",
      "outputs": [
        {
          "internalType": "uint256[]",
          "name": "",
          "type": "uint256[]"
        }
      ],
      "stateMutability": "view",
      "type": "function"
    },
    {
      "inputs": [],
      "name": "SociosPendentes",
      "outputs": [
        {
          "internalType": "uint256[]",
          "name": "",
          "type": "uint256[]"
        }
      ],
      "stateMutability": "view",
      "type": "function"
    },
    {
      "inputs": [
        {
          "internalType": "uint256",
          "name": "index",
          "type": "uint256"
        }
      ],
      "name": "EfetivarVotacaoSocio",
      "outputs": [],
      "stateMutability": "nonpayable",
      "type": "function"
    },
    {
      "inputs": [
        {
          "internalType": "uint256",
          "name": "index",
          "type": "uint256"
        }
      ],
      "name": "GetSocio",
      "outputs": [
        {
          "internalType": "uint256",
          "name": "indexSocioIndicacao",
          "type": "uint256"
        },
        {
          "internalType": "address",
          "name": "addressSocio",
          "type": "address"
        },
        {
          "internalType": "string",
          "name": "nome",
          "type": "string"
        },
        {
          "internalType": "string",
          "name": "email",
          "type": "string"
        },
        {
          "internalType": "string",
          "name": "conta",
          "type": "string"
        },
        {
          "internalType": "uint256",
          "name": "dataRegistro",
          "type": "uint256"
        },
        {
          "internalType": "enum Partner.statusSocio",
          "name": "status",
          "type": "uint8"
        }
      ],
      "stateMutability": "view",
      "type": "function"
    }
  ],
  "bytecode": "0x60806040523480156200001157600080fd5b506203f48060078190555060006040518060e00160405280600081526020013373ffffffffffffffffffffffffffffffffffffffff1681526020016040518060400160405280600581526020017f6f776e6572000000000000000000000000000000000000000000000000000000815250815260200160405180602001604052806000815250815260200160405180602001604052806000815250815260200142815260200160026004811115620000ce57620000cd620002d9565b5b815250905060048190806001815401808255809150506001900390600052602060002090600702016000909190919091506000820151816000015560208201518160010160006101000a81548173ffffffffffffffffffffffffffffffffffffffff021916908373ffffffffffffffffffffffffffffffffffffffff16021790555060408201518160020190805190602001906200016e929190620001f3565b5060608201518160030190805190602001906200018d929190620001f3565b506080820151816004019080519060200190620001ac929190620001f3565b5060a0820151816005015560c08201518160060160006101000a81548160ff02191690836004811115620001e557620001e4620002d9565b5b021790555050505062000337565b8280546200020190620002a3565b90600052602060002090601f01602090048101928262000225576000855562000271565b82601f106200024057805160ff191683800117855562000271565b8280016001018555821562000271579182015b828111156200027057825182559160200191906001019062000253565b5b50905062000280919062000284565b5090565b5b808211156200029f57600081600090555060010162000285565b5090565b60006002820490506001821680620002bc57607f821691505b60208210811415620002d357620002d262000308565b5b50919050565b7f4e487b7100000000000000000000000000000000000000000000000000000000600052602160045260246000fd5b7f4e487b7100000000000000000000000000000000000000000000000000000000600052602260045260246000fd5b6127ae80620003476000396000f3fe608060405234801561001057600080fd5b506004361061009e5760003560e01c8063965cfb5c11610066578063965cfb5c14610175578063b2f5f56d146101ab578063b3c6e789146101c9578063baeee9ed146101f9578063f2a6fc46146102155761009e565b80632ccdab8a146100a3578063362f1367146100d65780633fc62a26146101065780635ff9ed871461012257806369512a0714610140575b600080fd5b6100bd60048036038101906100b89190611d73565b610233565b6040516100cd94939291906121a2565b60405180910390f35b6100f060048036038101906100eb9190611da0565b610430565b6040516100fd9190612187565b60405180910390f35b610120600480360381019061011b9190611d73565b610556565b005b61012a610619565b6040516101379190612165565b60405180910390f35b61015a60048036038101906101559190611d73565b61081c565b60405161016c969594939291906120ef565b60405180910390f35b61018f600480360381019061018a9190611d73565b610af2565b6040516101a29796959493929190612207565b60405180910390f35b6101b3610e5b565b6040516101c09190612165565b60405180910390f35b6101e360048036038101906101de9190611c8b565b610f9a565b6040516101f09190612187565b60405180910390f35b610213600480360381019061020e9190611cb8565b611024565b005b61021d6112c0565b60405161022a9190612165565b60405180910390f35b600080600080600093506000925060009150600090506000600360008781526020019081526020016000208054806020026020016040519081016040528092919081815260200182805480156102a857602002820191906000526020600020905b815481526020019060010190808311610294575b5050505050905060005b81518110156103c7576001151560028383815181106102d4576102d3612612565b5b6020026020010151815481106102ed576102ec612612565b5b906000526020600020906003020160000160149054906101000a900460ff161515141561036657600282828151811061032957610328612612565b5b60200260200101518154811061034257610341612612565b5b9060005260206000209060030201600101548461035f91906123a0565b93506103b4565b600282828151811061037b5761037a612612565b5b60200260200101518154811061039457610393612612565b5b906000526020600020906003020160010154836103b191906123a0565b92505b80806103bf9061253c565b9150506102b2565b5042600187815481106103dd576103dc612612565b5b90600052602060002090600602016004015410806103fc575061138883115b80610408575061138882115b1561041257600194505b818311156104235760019350610428565b600093505b509193509193565b6000806003600085815260200190815260200160002080548060200260200160405190810160405280929190818152602001828054801561049057602002820191906000526020600020905b81548152602001906001019080831161047c575b5050505050905060005b815181101561054e578373ffffffffffffffffffffffffffffffffffffffff1660028383815181106104cf576104ce612612565b5b6020026020010151815481106104e8576104e7612612565b5b906000526020600020906003020160000160009054906101000a900473ffffffffffffffffffffffffffffffffffffffff1673ffffffffffffffffffffffffffffffffffffffff16141561053b57600192505b80806105469061253c565b91505061049a565b505092915050565b6000806105756006600085815260200190815260200160002054610233565b5050915091506000600481111561058f5761058e6125b4565b5b600484815481106105a3576105a2612612565b5b906000526020600020906007020160060160009054906101000a900460ff1660048111156105d4576105d36125b4565b5b1480156105e5575060011515821515145b15610614576001151581151514156106075761060283600261135f565b610613565b61061283600361135f565b5b5b505050565b6060600080606060005b6004805490508110156106e35760006004811115610644576106436125b4565b5b6004828154811061065857610657612612565b5b906000526020600020906007020160060160009054906101000a900460ff166004811115610689576106886125b4565b5b14156106d05760006106ad6006600084815260200190815260200160002054610233565b50505090506001151581151514156106ce5783806106ca9061253c565b9450505b505b80806106db9061253c565b915050610623565b508167ffffffffffffffff8111156106fe576106fd612641565b5b60405190808252806020026020018201604052801561072c5781602001602082028036833780820191505090505b50905060005b6004805490508110156108125760006004811115610753576107526125b4565b5b6004828154811061076757610766612612565b5b906000526020600020906007020160060160009054906101000a900460ff166004811115610798576107976125b4565b5b14156107ff5760006107bc6006600084815260200190815260200160002054610233565b50505090506001151581151514156107fd57818386815181106107e2576107e1612612565b5b60200260200101818152505084806107f99061253c565b9550505b505b808061080a9061253c565b915050610732565b5080935050505090565b6000606080606060008060006001888154811061083c5761083b612612565b5b90600052602060002090600602016040518060c00160405290816000820160009054906101000a900473ffffffffffffffffffffffffffffffffffffffff1673ffffffffffffffffffffffffffffffffffffffff1673ffffffffffffffffffffffffffffffffffffffff1681526020016001820180546108bb906124d9565b80601f01602080910402602001604051908101604052809291908181526020018280546108e7906124d9565b80156109345780601f1061090957610100808354040283529160200191610934565b820191906000526020600020905b81548152906001019060200180831161091757829003601f168201915b5050505050815260200160028201805461094d906124d9565b80601f0160208091040260200160405190810160405280929190818152602001828054610979906124d9565b80156109c65780601f1061099b576101008083540402835291602001916109c6565b820191906000526020600020905b8154815290600101906020018083116109a957829003601f168201915b5050505050815260200160038201805480602002602001604051908101604052809291908181526020016000905b82821015610aa0578382906000526020600020018054610a13906124d9565b80601f0160208091040260200160405190810160405280929190818152602001828054610a3f906124d9565b8015610a8c5780601f10610a6157610100808354040283529160200191610a8c565b820191906000526020600020905b815481529060010190602001808311610a6f57829003601f168201915b5050505050815260200190600101906109f4565b505050508152602001600482015481526020016005820154815250509050806000015181602001518260400151836060015184608001518560a001519650965096509650965096505091939550919395565b6000806060806060600080600060048981548110610b1357610b12612612565b5b90600052602060002090600702016040518060e0016040529081600082015481526020016001820160009054906101000a900473ffffffffffffffffffffffffffffffffffffffff1673ffffffffffffffffffffffffffffffffffffffff1673ffffffffffffffffffffffffffffffffffffffff168152602001600282018054610b9c906124d9565b80601f0160208091040260200160405190810160405280929190818152602001828054610bc8906124d9565b8015610c155780601f10610bea57610100808354040283529160200191610c15565b820191906000526020600020905b815481529060010190602001808311610bf857829003601f168201915b50505050508152602001600382018054610c2e906124d9565b80601f0160208091040260200160405190810160405280929190818152602001828054610c5a906124d9565b8015610ca75780601f10610c7c57610100808354040283529160200191610ca7565b820191906000526020600020905b815481529060010190602001808311610c8a57829003601f168201915b50505050508152602001600482018054610cc0906124d9565b80601f0160208091040260200160405190810160405280929190818152602001828054610cec906124d9565b8015610d395780601f10610d0e57610100808354040283529160200191610d39565b820191906000526020600020905b815481529060010190602001808311610d1c57829003601f168201915b50505050508152602001600582015481526020016006820160009054906101000a900460ff166004811115610d7157610d706125b4565b5b6004811115610d8357610d826125b4565b5b81525050905060006004811115610d9d57610d9c6125b4565b5b8160c001516004811115610db457610db36125b4565b5b1415610e1e576000610dd8600660008c815260200190815260200160002054610233565b5050509050600115158115151415610e1c5760018260c001906004811115610e0357610e026125b4565b5b90816004811115610e1757610e166125b4565b5b815250505b505b806000015181602001518260400151836060015184608001518560a001518660c00151975097509750975097509750975050919395979092949650565b60606000806060600042905060005b600180549050811015610ec5578160018281548110610e8c57610e8b612612565b5b90600052602060002090600602016004015410610eb2578380610eae9061253c565b9450505b8080610ebd9061253c565b915050610e6a565b508267ffffffffffffffff811115610ee057610edf612641565b5b604051908082528060200260200182016040528015610f0e5781602001602082028036833780820191505090505b50915060005b600180549050811015610f8f578160018281548110610f3657610f35612612565b5b90600052602060002090600602016004015410610f7c5780838681518110610f6157610f60612612565b5b6020026020010181815250508480610f789061253c565b9550505b8080610f879061253c565b915050610f14565b508194505050505090565b60008080610fa78461144f565b9150915060011515821515141561101d5760026004811115610fcc57610fcb6125b4565b5b60048281548110610fe057610fdf612612565b5b906000526020600020906007020160060160009054906101000a900460ff166004811115611011576110106125b4565b5b141561101c57600192505b5b5050919050565b6001151561103133610f9a565b151514611073576040517f08c379a000000000000000000000000000000000000000000000000000000000815260040161106a906121e7565b60405180910390fd5b600061107e3361144f565b91505060006040518060e001604052808381526020018773ffffffffffffffffffffffffffffffffffffffff168152602001868152602001858152602001848152602001428152602001600060048111156110dc576110db6125b4565b5b815250905060048190806001815401808255809150506001900390600052602060002090600702016000909190919091506000820151816000015560208201518160010160006101000a81548173ffffffffffffffffffffffffffffffffffffffff021916908373ffffffffffffffffffffffffffffffffffffffff160217905550604082015181600201908051906020019061117a929190611a8a565b506060820151816003019080519060200190611197929190611a8a565b5060808201518160040190805190602001906111b4929190611a8a565b5060a0820151816005015560c08201518160060160006101000a81548160ff021916908360048111156111ea576111e96125b4565b5b021790555050506000600160048054905061120591906123f6565b90506005600082815260200190815260200160002060405180604001604052808460c00151600481111561123c5761123b6125b4565b5b81526020018460a00151815250908060018154018082558091505060019003906000526020600020906002020160009091909190915060008201518160000160006101000a81548160ff0219169083600481111561129d5761129c6125b4565b5b02179055506020820151816001015550506112b781611506565b50505050505050565b6060600060048054905067ffffffffffffffff8111156112e3576112e2612641565b5b6040519080825280602002602001820160405280156113115781602001602082028036833780820191505090505b50905060005b600480549050811015611357578082828151811061133857611337612612565b5b602002602001018181525050808061134f9061253c565b915050611317565b508091505090565b806004838154811061137457611373612612565b5b906000526020600020906007020160060160006101000a81548160ff021916908360048111156113a7576113a66125b4565b5b02179055506005600083815260200190815260200160002060405180604001604052808360048111156113dd576113dc6125b4565b5b815260200142815250908060018154018082558091505060019003906000526020600020906002020160009091909190915060008201518160000160006101000a81548160ff0219169083600481111561143a576114396125b4565b5b02179055506020820151816001015550505050565b6000806000915060005b6004805490508110156114ff578373ffffffffffffffffffffffffffffffffffffffff166004828154811061149157611490612612565b5b906000526020600020906007020160010160009054906101000a900473ffffffffffffffffffffffffffffffffffffffff1673ffffffffffffffffffffffffffffffffffffffff1614156114ec576001925080915050611501565b80806114f79061253c565b915050611459565b505b915091565b60006004828154811061151c5761151b612612565b5b90600052602060002090600702016040518060e0016040529081600082015481526020016001820160009054906101000a900473ffffffffffffffffffffffffffffffffffffffff1673ffffffffffffffffffffffffffffffffffffffff1673ffffffffffffffffffffffffffffffffffffffff1681526020016002820180546115a5906124d9565b80601f01602080910402602001604051908101604052809291908181526020018280546115d1906124d9565b801561161e5780601f106115f35761010080835404028352916020019161161e565b820191906000526020600020905b81548152906001019060200180831161160157829003601f168201915b50505050508152602001600382018054611637906124d9565b80601f0160208091040260200160405190810160405280929190818152602001828054611663906124d9565b80156116b05780601f10611685576101008083540402835291602001916116b0565b820191906000526020600020905b81548152906001019060200180831161169357829003601f168201915b505050505081526020016004820180546116c9906124d9565b80601f01602080910402602001604051908101604052809291908181526020018280546116f5906124d9565b80156117425780601f1061171757610100808354040283529160200191611742565b820191906000526020600020905b81548152906001019060200180831161172557829003601f168201915b50505050508152602001600582015481526020016006820160009054906101000a900460ff16600481111561177a576117796125b4565b5b600481111561178c5761178b6125b4565b5b8152505090506000816040015160048360000151815481106117b1576117b0612612565b5b90600052602060002090600702016002016040516020016117d39291906120b5565b604051602081830303815290604052905060606000600267ffffffffffffffff81111561180357611802612641565b5b60405190808252806020026020018201604052801561183657816020015b60608152602001906001900390816118215790505b5090506040518060400160405280600781526020017f706172746e6572000000000000000000000000000000000000000000000000008152508160008151811061188357611882612612565b5b60200260200101819052506040518060400160405280600881526020017f616464536f63696f000000000000000000000000000000000000000000000000815250816001815181106118d8576118d7612612565b5b60200260200101819052506000600754600487815481106118fc576118fb612612565b5b90600052602060002090600702016005015461191891906123a0565b905060006119288585858561194b565b905080600660008981526020019081526020016000208190555050505050505050565b600060016040518060c001604052803373ffffffffffffffffffffffffffffffffffffffff16815260200187815260200186815260200185815260200184815260200142815250908060018154018082558091505060019003906000526020600020906006020160009091909190915060008201518160000160006101000a81548173ffffffffffffffffffffffffffffffffffffffff021916908373ffffffffffffffffffffffffffffffffffffffff1602179055506020820151816001019080519060200190611a1e929190611a8a565b506040820151816002019080519060200190611a3b929190611a8a565b506060820151816003019080519060200190611a58929190611b10565b506080820151816004015560a08201518160050155505060018080549050611a8091906123f6565b9050949350505050565b828054611a96906124d9565b90600052602060002090601f016020900481019282611ab85760008555611aff565b82601f10611ad157805160ff1916838001178555611aff565b82800160010185558215611aff579182015b82811115611afe578251825591602001919060010190611ae3565b5b509050611b0c9190611b70565b5090565b828054828255906000526020600020908101928215611b5f579160200282015b82811115611b5e578251829080519060200190611b4e929190611a8a565b5091602001919060010190611b30565b5b509050611b6c9190611b8d565b5090565b5b80821115611b89576000816000905550600101611b71565b5090565b5b80821115611bad5760008181611ba49190611bb1565b50600101611b8e565b5090565b508054611bbd906124d9565b6000825580601f10611bcf5750611bee565b601f016020900490600052602060002090810190611bed9190611b70565b5b50565b6000611c04611bff846122b0565b61228b565b905082815260208101848484011115611c2057611c1f612675565b5b611c2b848285612497565b509392505050565b600081359050611c428161274a565b92915050565b600082601f830112611c5d57611c5c612670565b5b8135611c6d848260208601611bf1565b91505092915050565b600081359050611c8581612761565b92915050565b600060208284031215611ca157611ca061267f565b5b6000611caf84828501611c33565b91505092915050565b60008060008060808587031215611cd257611cd161267f565b5b6000611ce087828801611c33565b945050602085013567ffffffffffffffff811115611d0157611d0061267a565b5b611d0d87828801611c48565b935050604085013567ffffffffffffffff811115611d2e57611d2d61267a565b5b611d3a87828801611c48565b925050606085013567ffffffffffffffff811115611d5b57611d5a61267a565b5b611d6787828801611c48565b91505092959194509250565b600060208284031215611d8957611d8861267f565b5b6000611d9784828501611c76565b91505092915050565b60008060408385031215611db757611db661267f565b5b6000611dc585828601611c76565b9250506020611dd685828601611c33565b9150509250929050565b6000611dec8383611f0c565b905092915050565b6000611e008383612097565b60208301905092915050565b611e158161242a565b82525050565b6000611e2682612316565b611e308185612351565b935083602082028501611e42856122e1565b8060005b85811015611e7e5784840389528151611e5f8582611de0565b9450611e6a83612337565b925060208a01995050600181019050611e46565b50829750879550505050505092915050565b6000611e9b82612321565b611ea58185612362565b9350611eb0836122f1565b8060005b83811015611ee1578151611ec88882611df4565b9750611ed383612344565b925050600181019050611eb4565b5085935050505092915050565b611ef78161243c565b82525050565b611f0681612485565b82525050565b6000611f178261232c565b611f218185612373565b9350611f318185602086016124a6565b611f3a81612684565b840191505092915050565b6000611f508261232c565b611f5a8185612384565b9350611f6a8185602086016124a6565b611f7381612684565b840191505092915050565b6000611f898261232c565b611f938185612395565b9350611fa38185602086016124a6565b80840191505092915050565b60008154611fbc816124d9565b611fc68186612395565b94506001821660008114611fe15760018114611ff257612025565b60ff19831686528186019350612025565b611ffb85612301565b60005b8381101561201d57815481890152600182019150602081019050611ffe565b838801955050505b50505092915050565b600061203b600c83612395565b915061204682612695565b600c82019050919050565b600061205e603283612384565b9150612069826126be565b604082019050919050565b6000612081600b83612395565b915061208c8261270d565b600b82019050919050565b6120a08161247b565b82525050565b6120af8161247b565b82525050565b60006120c08261202e565b91506120cc8285611f7e565b91506120d782612074565b91506120e38284611faf565b91508190509392505050565b600060c0820190506121046000830189611e0c565b81810360208301526121168188611f45565b9050818103604083015261212a8187611f45565b9050818103606083015261213e8186611e1b565b905061214d60808301856120a6565b61215a60a08301846120a6565b979650505050505050565b6000602082019050818103600083015261217f8184611e90565b905092915050565b600060208201905061219c6000830184611eee565b92915050565b60006080820190506121b76000830187611eee565b6121c46020830186611eee565b6121d160408301856120a6565b6121de60608301846120a6565b95945050505050565b6000602082019050818103600083015261220081612051565b9050919050565b600060e08201905061221c600083018a6120a6565b6122296020830189611e0c565b818103604083015261223b8188611f45565b9050818103606083015261224f8187611f45565b905081810360808301526122638186611f45565b905061227260a08301856120a6565b61227f60c0830184611efd565b98975050505050505050565b60006122956122a6565b90506122a1828261250b565b919050565b6000604051905090565b600067ffffffffffffffff8211156122cb576122ca612641565b5b6122d482612684565b9050602081019050919050565b6000819050602082019050919050565b6000819050602082019050919050565b60008190508160005260206000209050919050565b600081519050919050565b600081519050919050565b600081519050919050565b6000602082019050919050565b6000602082019050919050565b600082825260208201905092915050565b600082825260208201905092915050565b600082825260208201905092915050565b600082825260208201905092915050565b600081905092915050565b60006123ab8261247b565b91506123b68361247b565b9250827fffffffffffffffffffffffffffffffffffffffffffffffffffffffffffffffff038211156123eb576123ea612585565b5b828201905092915050565b60006124018261247b565b915061240c8361247b565b92508282101561241f5761241e612585565b5b828203905092915050565b60006124358261245b565b9050919050565b60008115159050919050565b600081905061245682612736565b919050565b600073ffffffffffffffffffffffffffffffffffffffff82169050919050565b6000819050919050565b600061249082612448565b9050919050565b82818337600083830152505050565b60005b838110156124c45780820151818401526020810190506124a9565b838111156124d3576000848401525b50505050565b600060028204905060018216806124f157607f821691505b60208210811415612505576125046125e3565b5b50919050565b61251482612684565b810181811067ffffffffffffffff8211171561253357612532612641565b5b80604052505050565b60006125478261247b565b91507fffffffffffffffffffffffffffffffffffffffffffffffffffffffffffffffff82141561257a57612579612585565b5b600182019050919050565b7f4e487b7100000000000000000000000000000000000000000000000000000000600052601160045260246000fd5b7f4e487b7100000000000000000000000000000000000000000000000000000000600052602160045260246000fd5b7f4e487b7100000000000000000000000000000000000000000000000000000000600052602260045260246000fd5b7f4e487b7100000000000000000000000000000000000000000000000000000000600052603260045260246000fd5b7f4e487b7100000000000000000000000000000000000000000000000000000000600052604160045260246000fd5b600080fd5b600080fd5b600080fd5b600080fd5b6000601f19601f8301169050919050565b7f496e636c7573616f20646f200000000000000000000000000000000000000000600082015250565b7f4170656e617320736f63696f7320617469766f7320706f64656d20616469636960008201527f6f6e6172206e6f766f7320736f63696f73210000000000000000000000000000602082015250565b7f20666569746120706f7220000000000000000000000000000000000000000000600082015250565b60058110612747576127466125b4565b5b50565b6127538161242a565b811461275e57600080fd5b50565b61276a8161247b565b811461277557600080fd5b5056fea26469706673582212205e7a3f3671693c7d05d5997d49398f80e7c1828c5d53d6bccebcf07e7d7a9d3c64736f6c63430008070033",
  "immutableReferences": {},
  "source": "//SPDX-License-Identifier: MIT\r\npragma solidity >=0.8.0 <0.9.0;\r\n\r\nimport \"./Consent.sol\";\r\n\r\ncontract Partner is Consent {\r\n    enum statusSocio {\r\n        pendenteVotacao,\r\n        pendenteEfetivacao,\r\n        ativo,\r\n        recusado,\r\n        bloqueado\r\n    }\r\n\r\n    struct Socio {\r\n        uint256 indexSocioIndicacao;\r\n        address addressSocio;\r\n        string nome;\r\n        string email;\r\n        string conta;\r\n        uint256 dataRegistro;\r\n        statusSocio status;\r\n    }\r\n\r\n    struct LogStatus {\r\n        statusSocio status;\r\n        uint256 dataRegistro;\r\n    }\r\n\r\n    Socio[] socios;\r\n    mapping(uint256 => LogStatus[]) logStatus; //index Socio / array Status\r\n    mapping(uint256 => uint256) votacoesSocios; //index Socio / index Votacao\r\n    // uint256 quantidadeVotacoesPendentes;\r\n\r\n    uint256 private prazoVotacao;\r\n\r\n    constructor() {\r\n        // quantidadeVotacoesPendentes = 0;\r\n        prazoVotacao = 3 days;\r\n\r\n        Socio memory socio = Socio({\r\n            indexSocioIndicacao: 0,\r\n            addressSocio: msg.sender,\r\n            nome: \"owner\",\r\n            email: \"\",\r\n            conta: \"\",\r\n            dataRegistro: block.timestamp,\r\n            status: statusSocio.ativo\r\n        });\r\n        socios.push(socio);\r\n    }\r\n\r\n    function AddSocio(\r\n        address addressSocio,\r\n        string memory nome,\r\n        string memory email,\r\n        string memory conta\r\n    ) public {\r\n        require(\r\n            SocioAtivo(msg.sender) == true,\r\n            \"Apenas socios ativos podem adicionar novos socios!\"\r\n        );\r\n\r\n        (, uint256 indexSocioIndicacao) = GetIndexSocioByAddress(msg.sender);\r\n\r\n        Socio memory socio = Socio({\r\n            indexSocioIndicacao: indexSocioIndicacao,\r\n            addressSocio: addressSocio,\r\n            nome: nome,\r\n            email: email,\r\n            conta: conta,\r\n            dataRegistro: block.timestamp,\r\n            status: statusSocio.pendenteVotacao\r\n        });\r\n        socios.push(socio);\r\n        uint256 index = socios.length - 1;\r\n\r\n        logStatus[index].push(\r\n            LogStatus({status: socio.status, dataRegistro: socio.dataRegistro})\r\n        );\r\n\r\n        AddPropostaVotacaoSocio(index);\r\n    }\r\n\r\n    function SocioAtivo(address addressSocio)\r\n        public\r\n        view\r\n        returns (bool socioAtivo)\r\n    {\r\n        socioAtivo = false;\r\n\r\n        (bool socioEncontrado, uint256 index) = GetIndexSocioByAddress(\r\n            addressSocio\r\n        );\r\n\r\n        if (socioEncontrado == true) {\r\n            if (socios[index].status == statusSocio.ativo) {\r\n                socioAtivo = true;\r\n            }\r\n        }\r\n\r\n        return socioAtivo;\r\n    }\r\n\r\n    function AddPropostaVotacaoSocio(uint256 index) private {\r\n        Socio memory socio = socios[index];\r\n\r\n        string memory titulo = string(\r\n            abi.encodePacked(\r\n                \"Inclusao do \",\r\n                socio.nome,\r\n                \" feita por \",\r\n                socios[socio.indexSocioIndicacao].nome\r\n            )\r\n        );\r\n        string memory detalhe;\r\n        string[] memory tags = new string[](2);\r\n        tags[0] = \"partner\";\r\n        tags[1] = \"addSocio\";\r\n\r\n        uint256 dataTermino = socios[index].dataRegistro + prazoVotacao;\r\n\r\n        uint256 _indexVotacao = AddPropostaVotacao(\r\n            titulo,\r\n            detalhe,\r\n            tags,\r\n            dataTermino\r\n        );\r\n        votacoesSocios[index] = _indexVotacao;\r\n    }\r\n\r\n    function GetSocios() public view returns (uint256[] memory) {\r\n        uint256[] memory sociosIndex = new uint256[](socios.length);\r\n\r\n        for (uint256 i; i < socios.length; i++) {\r\n            sociosIndex[i] = i;\r\n        }\r\n\r\n        return sociosIndex;\r\n    }\r\n\r\n    function SociosPendentes() public view returns (uint256[] memory) {\r\n        uint256 indexSocio = 0;\r\n        uint256 quantidadeSocios = 0;\r\n        uint256[] memory sociosTemp;\r\n        for (uint256 i; i < socios.length; i++) {\r\n            if (socios[i].status == statusSocio.pendenteVotacao) {\r\n                (bool finalizada, , , ) = GetResultadoVotacao(\r\n                    votacoesSocios[i]\r\n                );\r\n                if (finalizada == true) {\r\n                    quantidadeSocios++;\r\n                }\r\n            }\r\n        }\r\n        sociosTemp = new uint256[](quantidadeSocios);\r\n        for (uint256 i; i < socios.length; i++) {\r\n            if (socios[i].status == statusSocio.pendenteVotacao) {\r\n                (bool finalizada, , , ) = GetResultadoVotacao(\r\n                    votacoesSocios[i]\r\n                );\r\n                if (finalizada == true) {\r\n                    sociosTemp[indexSocio] = i;\r\n                    indexSocio++;\r\n                }\r\n            }\r\n        }\r\n        return sociosTemp;\r\n    }\r\n\r\n    function EfetivarVotacaoSocio(uint256 index) public {\r\n        //se tiver aguardando aprovacao e a votacao estiver encerrada, altera o status conforme o resultado;\r\n\r\n        (bool finalizada, bool resultado, , ) = GetResultadoVotacao(\r\n            votacoesSocios[index]\r\n        );\r\n\r\n        if (\r\n            socios[index].status == statusSocio.pendenteVotacao &&\r\n            finalizada == true\r\n        ) {\r\n            if (resultado == true) {\r\n                AlterarStatus(index, statusSocio.ativo);\r\n            } else {\r\n                AlterarStatus(index, statusSocio.recusado);\r\n            }\r\n        }\r\n    }\r\n\r\n    function AlterarStatus(uint256 index, statusSocio status) private {\r\n        socios[index].status = status;\r\n\r\n        logStatus[index].push(\r\n            LogStatus({status: status, dataRegistro: block.timestamp})\r\n        );\r\n    }\r\n\r\n    function GetSocio(uint256 index)\r\n        public\r\n        view\r\n        returns (\r\n            uint256 indexSocioIndicacao,\r\n            address addressSocio,\r\n            string memory nome,\r\n            string memory email,\r\n            string memory conta,\r\n            uint256 dataRegistro,\r\n            statusSocio status\r\n        )\r\n    {\r\n        Socio memory socio = socios[index];\r\n\r\n        if (socio.status == statusSocio.pendenteVotacao) {\r\n            (bool finalizada, , , ) = GetResultadoVotacao(\r\n                votacoesSocios[index]\r\n            );\r\n\r\n            if (finalizada == true) {\r\n                socio.status = statusSocio.pendenteEfetivacao;\r\n            }\r\n        }\r\n\r\n        return (\r\n            socio.indexSocioIndicacao,\r\n            socio.addressSocio,\r\n            socio.nome,\r\n            socio.email,\r\n            socio.conta,\r\n            socio.dataRegistro,\r\n            socio.status\r\n        );\r\n    }\r\n\r\n    function GetIndexSocioByAddress(address _addressSocio)\r\n        internal\r\n        view\r\n        returns (bool socioEncontrado, uint256 index)\r\n    {\r\n        socioEncontrado = false;\r\n\r\n        for (uint256 i; i < socios.length; i++) {\r\n            if (socios[i].addressSocio == _addressSocio) {\r\n                socioEncontrado = true;\r\n                index = i;\r\n\r\n                return (socioEncontrado, index);\r\n            }\r\n        }\r\n\r\n        return (socioEncontrado, index);\r\n    }\r\n}\r\n",
  "sourcePath": "C:\\projetos\\dao7\\contracts\\contracts\\Partner.sol",
  "compiler": {
    "name": "solc",
    "version": "0.8.7+commit.e28d00a7.Emscripten.clang"
  },
  "schemaVersion": "3.4.3",
  "updatedAt": "2021-11-02T19:30:46.415Z",
  "devdoc": {
    "kind": "dev",
    "methods": {},
    "version": 1
  },
  "userdoc": {
    "kind": "user",
    "methods": {},
    "version": 1
  }
}