{
  "contractName": "Projeto",
  "abi": [
    {
      "inputs": [
        {
          "internalType": "address",
          "name": "addressSocio",
          "type": "address"
        },
        {
          "internalType": "uint256",
          "name": "quantidadeTokens",
          "type": "uint256"
        },
        {
          "internalType": "uint256",
          "name": "dataLiquidacao",
          "type": "uint256"
        }
      ],
      "name": "AddContratoToken",
      "outputs": [
        {
          "internalType": "uint256",
          "name": "index",
          "type": "uint256"
        }
      ],
      "stateMutability": "nonpayable",
      "type": "function"
    },
    {
      "inputs": [
        {
          "internalType": "enum Financeiro.tipoMovimentacaoFinanceira",
          "name": "tipo",
          "type": "uint8"
        },
        {
          "internalType": "string",
          "name": "titulo",
          "type": "string"
        },
        {
          "internalType": "string",
          "name": "descricao",
          "type": "string"
        },
        {
          "internalType": "uint256",
          "name": "valor",
          "type": "uint256"
        },
        {
          "internalType": "string",
          "name": "conta",
          "type": "string"
        },
        {
          "internalType": "uint256",
          "name": "dataVencimento",
          "type": "uint256"
        }
      ],
      "name": "AddMovimentacaoFinanceira",
      "outputs": [
        {
          "internalType": "uint256",
          "name": "index",
          "type": "uint256"
        }
      ],
      "stateMutability": "nonpayable",
      "type": "function"
    },
    {
      "inputs": [
        {
          "internalType": "address",
          "name": "addressSocio",
          "type": "address"
        },
        {
          "internalType": "string",
          "name": "nome",
          "type": "string"
        },
        {
          "internalType": "string",
          "name": "email",
          "type": "string"
        },
        {
          "internalType": "string",
          "name": "conta",
          "type": "string"
        }
      ],
      "name": "AddSocio",
      "outputs": [],
      "stateMutability": "nonpayable",
      "type": "function"
    },
    {
      "inputs": [
        {
          "internalType": "uint256",
          "name": "index",
          "type": "uint256"
        }
      ],
      "name": "EfetivarLancamento",
      "outputs": [
        {
          "internalType": "bool",
          "name": "",
          "type": "bool"
        }
      ],
      "stateMutability": "nonpayable",
      "type": "function"
    },
    {
      "inputs": [
        {
          "internalType": "uint256",
          "name": "index",
          "type": "uint256"
        }
      ],
      "name": "EfetivarVotacaoSocio",
      "outputs": [],
      "stateMutability": "nonpayable",
      "type": "function"
    },
    {
      "inputs": [
        {
          "internalType": "uint256",
          "name": "index",
          "type": "uint256"
        }
      ],
      "name": "EfetivarVotacaoToken",
      "outputs": [],
      "stateMutability": "nonpayable",
      "type": "function"
    },
    {
      "inputs": [
        {
          "internalType": "uint256",
          "name": "index",
          "type": "uint256"
        }
      ],
      "name": "GetContratoToken",
      "outputs": [
        {
          "internalType": "uint256",
          "name": "indexSocio",
          "type": "uint256"
        },
        {
          "internalType": "uint256",
          "name": "quantidadeTokens",
          "type": "uint256"
        },
        {
          "internalType": "uint256",
          "name": "quantidadeTokensRestante",
          "type": "uint256"
        },
        {
          "internalType": "uint256",
          "name": "dataLiquidacao",
          "type": "uint256"
        },
        {
          "internalType": "uint256",
          "name": "dataRegistro",
          "type": "uint256"
        },
        {
          "internalType": "enum Token.statusContratoToken",
          "name": "status",
          "type": "uint8"
        }
      ],
      "stateMutability": "view",
      "type": "function"
    },
    {
      "inputs": [],
      "name": "GetContratosToken",
      "outputs": [
        {
          "internalType": "uint256[]",
          "name": "",
          "type": "uint256[]"
        }
      ],
      "stateMutability": "view",
      "type": "function"
    },
    {
      "inputs": [],
      "name": "GetCotacaoToken",
      "outputs": [
        {
          "internalType": "uint256",
          "name": "cotacao",
          "type": "uint256"
        }
      ],
      "stateMutability": "view",
      "type": "function"
    },
    {
      "inputs": [
        {
          "internalType": "uint256",
          "name": "index",
          "type": "uint256"
        }
      ],
      "name": "GetEnumStatusMovimentacaoFinanceira",
      "outputs": [
        {
          "internalType": "string",
          "name": "",
          "type": "string"
        }
      ],
      "stateMutability": "pure",
      "type": "function"
    },
    {
      "inputs": [
        {
          "internalType": "uint256",
          "name": "index",
          "type": "uint256"
        }
      ],
      "name": "GetEnumTipoMovimentacaoFinanceira",
      "outputs": [
        {
          "internalType": "string",
          "name": "",
          "type": "string"
        }
      ],
      "stateMutability": "pure",
      "type": "function"
    },
    {
      "inputs": [
        {
          "internalType": "uint256",
          "name": "index",
          "type": "uint256"
        }
      ],
      "name": "GetMovimentacaoFinanceira",
      "outputs": [
        {
          "internalType": "enum Financeiro.statusMovimentacaoFinanceira",
          "name": "status",
          "type": "uint8"
        },
        {
          "internalType": "enum Financeiro.tipoMovimentacaoFinanceira",
          "name": "tipo",
          "type": "uint8"
        },
        {
          "internalType": "uint256",
          "name": "indexSocioInclusao",
          "type": "uint256"
        },
        {
          "internalType": "uint256",
          "name": "indexSocioEfetivacao",
          "type": "uint256"
        },
        {
          "internalType": "string",
          "name": "titulo",
          "type": "string"
        },
        {
          "internalType": "string",
          "name": "descricao",
          "type": "string"
        },
        {
          "internalType": "uint256",
          "name": "valor",
          "type": "uint256"
        },
        {
          "internalType": "string",
          "name": "conta",
          "type": "string"
        },
        {
          "internalType": "uint256",
          "name": "dataVencimento",
          "type": "uint256"
        },
        {
          "internalType": "uint256",
          "name": "dataEfetivacao",
          "type": "uint256"
        },
        {
          "internalType": "uint256",
          "name": "dataRegistro",
          "type": "uint256"
        }
      ],
      "stateMutability": "view",
      "type": "function"
    },
    {
      "inputs": [],
      "name": "GetMovimentacoesFinanceira",
      "outputs": [
        {
          "internalType": "uint256[]",
          "name": "",
          "type": "uint256[]"
        }
      ],
      "stateMutability": "view",
      "type": "function"
    },
    {
      "inputs": [],
      "name": "GetMovimentacoesFinanceirasPendentesEfetivacao",
      "outputs": [
        {
          "internalType": "uint256[]",
          "name": "",
          "type": "uint256[]"
        }
      ],
      "stateMutability": "view",
      "type": "function"
    },
    {
      "inputs": [
        {
          "internalType": "uint256",
          "name": "index",
          "type": "uint256"
        }
      ],
      "name": "GetPropostaVotacao",
      "outputs": [
        {
          "internalType": "address",
          "name": "ownerVotacao",
          "type": "address"
        },
        {
          "internalType": "string",
          "name": "titulo",
          "type": "string"
        },
        {
          "internalType": "string",
          "name": "descricao",
          "type": "string"
        },
        {
          "internalType": "string[]",
          "name": "tags",
          "type": "string[]"
        },
        {
          "internalType": "uint256",
          "name": "dataTermino",
          "type": "uint256"
        },
        {
          "internalType": "uint256",
          "name": "dataRegistro",
          "type": "uint256"
        }
      ],
      "stateMutability": "view",
      "type": "function"
    },
    {
      "inputs": [
        {
          "internalType": "uint256",
          "name": "index",
          "type": "uint256"
        }
      ],
      "name": "GetResultadoVotacao",
      "outputs": [
        {
          "internalType": "bool",
          "name": "finalizada",
          "type": "bool"
        },
        {
          "internalType": "bool",
          "name": "resultado",
          "type": "bool"
        },
        {
          "internalType": "uint256",
          "name": "votosAprovacao",
          "type": "uint256"
        },
        {
          "internalType": "uint256",
          "name": "votosReprovacao",
          "type": "uint256"
        }
      ],
      "stateMutability": "view",
      "type": "function"
    },
    {
      "inputs": [],
      "name": "GetSaldoFundoTokens",
      "outputs": [
        {
          "internalType": "uint256",
          "name": "valor",
          "type": "uint256"
        }
      ],
      "stateMutability": "view",
      "type": "function"
    },
    {
      "inputs": [
        {
          "internalType": "uint256",
          "name": "index",
          "type": "uint256"
        }
      ],
      "name": "GetSocio",
      "outputs": [
        {
          "internalType": "uint256",
          "name": "indexSocioIndicacao",
          "type": "uint256"
        },
        {
          "internalType": "address",
          "name": "addressSocio",
          "type": "address"
        },
        {
          "internalType": "string",
          "name": "nome",
          "type": "string"
        },
        {
          "internalType": "string",
          "name": "email",
          "type": "string"
        },
        {
          "internalType": "string",
          "name": "conta",
          "type": "string"
        },
        {
          "internalType": "uint256",
          "name": "dataRegistro",
          "type": "uint256"
        },
        {
          "internalType": "enum Sociedade.statusSocio",
          "name": "status",
          "type": "uint8"
        }
      ],
      "stateMutability": "view",
      "type": "function"
    },
    {
      "inputs": [],
      "name": "GetSocios",
      "outputs": [
        {
          "internalType": "uint256[]",
          "name": "",
          "type": "uint256[]"
        }
      ],
      "stateMutability": "view",
      "type": "function"
    },
    {
      "inputs": [
        {
          "internalType": "address",
          "name": "addressSocio",
          "type": "address"
        }
      ],
      "name": "GetTokensPorSocio",
      "outputs": [
        {
          "internalType": "uint256",
          "name": "total",
          "type": "uint256"
        },
        {
          "internalType": "uint256",
          "name": "liberados",
          "type": "uint256"
        }
      ],
      "stateMutability": "view",
      "type": "function"
    },
    {
      "inputs": [
        {
          "internalType": "address",
          "name": "addressSocio",
          "type": "address"
        },
        {
          "internalType": "uint256",
          "name": "data",
          "type": "uint256"
        }
      ],
      "name": "GetTokensPorSocioPorData",
      "outputs": [
        {
          "internalType": "uint256",
          "name": "total",
          "type": "uint256"
        }
      ],
      "stateMutability": "view",
      "type": "function"
    },
    {
      "inputs": [],
      "name": "GetTotalTokens",
      "outputs": [
        {
          "internalType": "uint256",
          "name": "total",
          "type": "uint256"
        },
        {
          "internalType": "uint256",
          "name": "liberados",
          "type": "uint256"
        }
      ],
      "stateMutability": "view",
      "type": "function"
    },
    {
      "inputs": [
        {
          "internalType": "uint256",
          "name": "data",
          "type": "uint256"
        }
      ],
      "name": "GetTotalTokensPorData",
      "outputs": [
        {
          "internalType": "uint256",
          "name": "total",
          "type": "uint256"
        }
      ],
      "stateMutability": "view",
      "type": "function"
    },
    {
      "inputs": [],
      "name": "GetVotacoesAbertas",
      "outputs": [
        {
          "internalType": "uint256[]",
          "name": "_votacoes",
          "type": "uint256[]"
        }
      ],
      "stateMutability": "view",
      "type": "function"
    },
    {
      "inputs": [
        {
          "internalType": "uint256",
          "name": "index",
          "type": "uint256"
        },
        {
          "internalType": "address",
          "name": "addressSocio",
          "type": "address"
        }
      ],
      "name": "JaVotou",
      "outputs": [
        {
          "internalType": "bool",
          "name": "votado",
          "type": "bool"
        }
      ],
      "stateMutability": "view",
      "type": "function"
    },
    {
      "inputs": [
        {
          "internalType": "uint256",
          "name": "quantidadeDesejada",
          "type": "uint256"
        }
      ],
      "name": "LiquidarToken",
      "outputs": [
        {
          "internalType": "uint256",
          "name": "quantidadeLiquidada",
          "type": "uint256"
        },
        {
          "internalType": "uint256",
          "name": "valorLiquidado",
          "type": "uint256"
        }
      ],
      "stateMutability": "nonpayable",
      "type": "function"
    },
    {
      "inputs": [
        {
          "internalType": "address",
          "name": "addressSocio",
          "type": "address"
        }
      ],
      "name": "SocioAtivo",
      "outputs": [
        {
          "internalType": "bool",
          "name": "socioAtivo",
          "type": "bool"
        }
      ],
      "stateMutability": "view",
      "type": "function"
    },
    {
      "inputs": [],
      "name": "SociosPendentes",
      "outputs": [
        {
          "internalType": "uint256[]",
          "name": "",
          "type": "uint256[]"
        }
      ],
      "stateMutability": "view",
      "type": "function"
    }
  ],
  "bytecode": "0x60806040523480156200001157600080fd5b506203f48060078190555060006040518060e00160405280600081526020013373ffffffffffffffffffffffffffffffffffffffff1681526020016040518060400160405280600581526020017f6f776e6572000000000000000000000000000000000000000000000000000000815250815260200160405180602001604052806000815250815260200160405180602001604052806000815250815260200142815260200160026004811115620000ce57620000cd620003ed565b5b815250905060048190806001815401808255809150506001900390600052602060002090600702016000909190919091506000820151816000015560208201518160010160006101000a81548173ffffffffffffffffffffffffffffffffffffffff021916908373ffffffffffffffffffffffffffffffffffffffff16021790555060408201518160020190805190602001906200016e92919062000307565b5060608201518160030190805190602001906200018d92919062000307565b506080820151816004019080519060200190620001ac92919062000307565b5060a0820151816005015560c08201518160060160006101000a81548160ff02191690836004811115620001e557620001e4620003ed565b5b02179055505050506203f480600b81905550610bb8600c819055506203f4806010819055506000429050600d6040518060c0016040528060008152602001600181526020016001815260200183815260200183815260200160026003811115620002545762000253620003ed565b5b8152509080600181540180825580915050600190039060005260206000209060060201600090919091909150600082015181600001556020820151816001015560408201518160020155606082015181600301556080820151816004015560a08201518160050160006101000a81548160ff02191690836003811115620002e057620002df620003ed565b5b021790555050506000600e600080815260200190815260200160002081905550506200044b565b8280546200031590620003b7565b90600052602060002090601f01602090048101928262000339576000855562000385565b82601f106200035457805160ff191683800117855562000385565b8280016001018555821562000385579182015b828111156200038457825182559160200191906001019062000367565b5b50905062000394919062000398565b5090565b5b80821115620003b357600081600090555060010162000399565b5090565b60006002820490506001821680620003d057607f821691505b60208210811415620003e757620003e66200041c565b5b50919050565b7f4e487b7100000000000000000000000000000000000000000000000000000000600052602160045260246000fd5b7f4e487b7100000000000000000000000000000000000000000000000000000000600052602260045260246000fd5b61586b806200045b6000396000f3fe608060405234801561001057600080fd5b50600436106101c45760003560e01c806381b2664a116100f9578063d27eaa9311610097578063d6fcbe6c11610071578063d6fcbe6c14610598578063e484018a146105c8578063f2a6fc46146105f8578063fb84a1d814610616576101c4565b8063d27eaa9314610519578063d388fb7c1461054a578063d41b47d31461057a576101c4565b8063b2f5f56d116100d3578063b2f5f56d14610490578063b3c6e789146104ae578063baeee9ed146104de578063c65d10c0146104fa576101c4565b806381b2664a146103f9578063965cfb5c14610429578063b03ef5aa1461045f576101c4565b806338dc2de5116101665780635ff9ed87116101405780635ff9ed871461033c57806366e15fa61461035a57806369512a071461038a57806378555cf8146103bf576101c4565b806338dc2de5146102e45780633fc62a26146103025780634012ec961461031e576101c4565b8063315fbd89116101a2578063315fbd891461024857806335010d7814610266578063362f13671461028457806337b8ec5f146102b4576101c4565b80630b12c493146101c95780631059ead1146101f95780632ccdab8a14610215575b600080fd5b6101e360048036038101906101de9190614858565b61064b565b6040516101f09190614efe565b60405180910390f35b610213600480360381019061020e9190614858565b6106f0565b005b61022f600480360381019061022a9190614858565b610843565b60405161023f9493929190614df9565b60405180910390f35b610250610a40565b60405161025d9190614dbc565b60405180910390f35b61026e610af7565b60405161027b9190614f60565b60405180910390f35b61029e60048036038101906102999190614885565b610b3b565b6040516102ab9190614dde565b60405180910390f35b6102ce60048036038101906102c991906146e4565b610c61565b6040516102db9190614f60565b60405180910390f35b6102ec610d92565b6040516102f99190614f60565b60405180910390f35b61031c60048036038101906103179190614858565b610d9c565b005b610326610e5f565b6040516103339190614dbc565b60405180910390f35b610344610efe565b6040516103519190614dbc565b60405180910390f35b610374600480360381019061036f9190614777565b611101565b6040516103819190614f60565b60405180910390f35b6103a4600480360381019061039f9190614858565b6112d4565b6040516103b696959493929190614d46565b60405180910390f35b6103d960048036038101906103d49190614858565b6115aa565b6040516103f09b9a99989796959493929190614e3e565b60405180910390f35b610413600480360381019061040e9190614858565b611950565b6040516104209190614f60565b60405180910390f35b610443600480360381019061043e9190614858565b611a3d565b6040516104569796959493929190614f7b565b60405180910390f35b610479600480360381019061047491906145fc565b611da6565b604051610487929190614fff565b60405180910390f35b610498611f0d565b6040516104a59190614dbc565b60405180910390f35b6104c860048036038101906104c391906145fc565b61204c565b6040516104d59190614dde565b60405180910390f35b6104f860048036038101906104f39190614629565b6120d6565b005b610502612372565b604051610510929190614fff565b60405180910390f35b610533600480360381019061052e9190614858565b612499565b604051610541929190614fff565b60405180910390f35b610564600480360381019061055f9190614858565b61273b565b6040516105719190614efe565b60405180910390f35b610582612856565b60405161058f9190614dbc565b60405180910390f35b6105b260048036038101906105ad9190614858565b612a59565b6040516105bf9190614dde565b60405180910390f35b6105e260048036038101906105dd9190614724565b612cef565b6040516105ef9190614f60565b60405180910390f35b610600612e42565b60405161060d9190614dbc565b60405180910390f35b610630600480360381019061062b9190614858565b612ee1565b60405161064296959493929190615028565b60405180910390f35b6060600060405180604001604052806040518060400160405280600581526020017f706167617200000000000000000000000000000000000000000000000000000081525081526020016040518060400160405280600781526020017f726563656265720000000000000000000000000000000000000000000000000081525081525090508083600281106106e3576106e261556a565b5b6020020151915050919050565b60008061070f600f600085815260200190815260200160002054610843565b505091509150600060038111156107295761072861550c565b5b600d848154811061073d5761073c61556a565b5b906000526020600020906006020160050160009054906101000a900460ff16600381111561076e5761076d61550c565b5b14801561077f575060011515821515145b1561083e576001151581151514156107ee576002600d84815481106107a7576107a661556a565b5b906000526020600020906006020160050160006101000a81548160ff021916908360038111156107da576107d961550c565b5b02179055506107e883613060565b5061083d565b6003600d84815481106108045761080361556a565b5b906000526020600020906006020160050160006101000a81548160ff021916908360038111156108375761083661550c565b5b02179055505b5b505050565b600080600080600093506000925060009150600090506000600360008781526020019081526020016000208054806020026020016040519081016040528092919081815260200182805480156108b857602002820191906000526020600020905b8154815260200190600101908083116108a4575b5050505050905060005b81518110156109d7576001151560028383815181106108e4576108e361556a565b5b6020026020010151815481106108fd576108fc61556a565b5b906000526020600020906003020160000160149054906101000a900460ff16151514156109765760028282815181106109395761093861556a565b5b6020026020010151815481106109525761095161556a565b5b9060005260206000209060030201600101548461096f919061519e565b93506109c4565b600282828151811061098b5761098a61556a565b5b6020026020010151815481106109a4576109a361556a565b5b906000526020600020906003020160010154836109c1919061519e565b92505b80806109cf90615434565b9150506108c2565b5042600187815481106109ed576109ec61556a565b5b9060005260206000209060060201600401541080610a0c575061138883115b80610a18575061138882115b15610a2257600194505b81831115610a335760019350610a38565b600093505b509193509193565b60606000600d8054905067ffffffffffffffff811115610a6357610a62615599565b5b604051908082528060200260200182016040528015610a915781602001602082028036833780820191505090505b5090506000805b600d80549050811015610aee5780838381518110610ab957610ab861556a565b5b602002602001018181525050600e60008381526020019081526020016000205491508080610ae690615434565b915050610a98565b50819250505090565b600080610b02612372565b9150506000610b0f610d92565b90508181610b1d91906151f4565b9250600c54831015610b3557600c5492505050610b38565b50505b90565b60008060036000858152602001908152602001600020805480602002602001604051908101604052809291908181526020018280548015610b9b57602002820191906000526020600020905b815481526020019060010190808311610b87575b5050505050905060005b8151811015610c59578373ffffffffffffffffffffffffffffffffffffffff166002838381518110610bda57610bd961556a565b5b602002602001015181548110610bf357610bf261556a565b5b906000526020600020906003020160000160009054906101000a900473ffffffffffffffffffffffffffffffffffffffff1673ffffffffffffffffffffffffffffffffffffffff161415610c4657600192505b8080610c5190615434565b915050610ba5565b505092915050565b600080610c6d846131a8565b9150506000915060005b600d80549050811015610d8a5781600d8281548110610c9957610c9861556a565b5b906000526020600020906006020160000154148015610d0e575060026003811115610cc757610cc661550c565b5b600d8281548110610cdb57610cda61556a565b5b906000526020600020906006020160050160009054906101000a900460ff166003811115610d0c57610d0b61550c565b5b145b8015610d3e575083600d8281548110610d2a57610d2961556a565b5b906000526020600020906006020160040154105b15610d7757600d8181548110610d5757610d5661556a565b5b90600052602060002090600602016002015483610d74919061519e565b92505b8080610d8290615434565b915050610c77565b505092915050565b6000600a54905090565b600080610dbb6006600085815260200190815260200160002054610843565b50509150915060006004811115610dd557610dd461550c565b5b60048481548110610de957610de861556a565b5b906000526020600020906007020160060160009054906101000a900460ff166004811115610e1a57610e1961550c565b5b148015610e2b575060011515821515145b15610e5a57600115158115151415610e4d57610e4883600261325f565b610e59565b610e5883600361325f565b5b5b505050565b6060600060088054905067ffffffffffffffff811115610e8257610e81615599565b5b604051908082528060200260200182016040528015610eb05781602001602082028036833780820191505090505b50905060005b600880549050811015610ef65780828281518110610ed757610ed661556a565b5b6020026020010181815250508080610eee90615434565b915050610eb6565b508091505090565b6060600080606060005b600480549050811015610fc85760006004811115610f2957610f2861550c565b5b60048281548110610f3d57610f3c61556a565b5b906000526020600020906007020160060160009054906101000a900460ff166004811115610f6e57610f6d61550c565b5b1415610fb5576000610f926006600084815260200190815260200160002054610843565b5050509050600115158115151415610fb3578380610faf90615434565b9450505b505b8080610fc090615434565b915050610f08565b508167ffffffffffffffff811115610fe357610fe2615599565b5b6040519080825280602002602001820160405280156110115781602001602082028036833780820191505090505b50905060005b6004805490508110156110f757600060048111156110385761103761550c565b5b6004828154811061104c5761104b61556a565b5b906000526020600020906007020160060160009054906101000a900460ff16600481111561107d5761107c61550c565b5b14156110e45760006110a16006600084815260200190815260200160002054610843565b50505090506001151581151514156110e257818386815181106110c7576110c661556a565b5b60200260200101818152505084806110de90615434565b9550505b505b80806110ef90615434565b915050611017565b5080935050505090565b60008061110d336131a8565b9150506000604051806101600160405280600060038111156111325761113161550c565b5b81526020018a600181111561114a5761114961550c565b5b8152602001838152602001600081526020018981526020018881526020018781526020018681526020018581526020016000815260200142815250905060088190806001815401808255809150506001900390600052602060002090600a020160009091909190915060008201518160000160006101000a81548160ff021916908360038111156111de576111dd61550c565b5b021790555060208201518160000160016101000a81548160ff0219169083600181111561120e5761120d61550c565b5b0217905550604082015181600101556060820151816002015560808201518160030190805190602001906112439291906143e6565b5060a08201518160040190805190602001906112609291906143e6565b5060c0820151816005015560e08201518160060190805190602001906112879291906143e6565b50610100820151816007015561012082015181600801556101408201518160090155505060016008805490506112bd919061527f565b92506112c88361334f565b50509695505050505050565b600060608060606000806000600188815481106112f4576112f361556a565b5b90600052602060002090600602016040518060c00160405290816000820160009054906101000a900473ffffffffffffffffffffffffffffffffffffffff1673ffffffffffffffffffffffffffffffffffffffff1673ffffffffffffffffffffffffffffffffffffffff168152602001600182018054611373906153d1565b80601f016020809104026020016040519081016040528092919081815260200182805461139f906153d1565b80156113ec5780601f106113c1576101008083540402835291602001916113ec565b820191906000526020600020905b8154815290600101906020018083116113cf57829003601f168201915b50505050508152602001600282018054611405906153d1565b80601f0160208091040260200160405190810160405280929190818152602001828054611431906153d1565b801561147e5780601f106114535761010080835404028352916020019161147e565b820191906000526020600020905b81548152906001019060200180831161146157829003601f168201915b5050505050815260200160038201805480602002602001604051908101604052809291908181526020016000905b828210156115585783829060005260206000200180546114cb906153d1565b80601f01602080910402602001604051908101604052809291908181526020018280546114f7906153d1565b80156115445780601f1061151957610100808354040283529160200191611544565b820191906000526020600020905b81548152906001019060200180831161152757829003601f168201915b5050505050815260200190600101906114ac565b505050508152602001600482015481526020016005820154815250509050806000015181602001518260400151836060015184608001518560a001519650965096509650965096505091939550919395565b6000806000806060806000606060008060008060088d815481106115d1576115d061556a565b5b90600052602060002090600a0201604051806101600160405290816000820160009054906101000a900460ff1660038111156116105761160f61550c565b5b60038111156116225761162161550c565b5b81526020016000820160019054906101000a900460ff16600181111561164b5761164a61550c565b5b600181111561165d5761165c61550c565b5b81526020016001820154815260200160028201548152602001600382018054611685906153d1565b80601f01602080910402602001604051908101604052809291908181526020018280546116b1906153d1565b80156116fe5780601f106116d3576101008083540402835291602001916116fe565b820191906000526020600020905b8154815290600101906020018083116116e157829003601f168201915b50505050508152602001600482018054611717906153d1565b80601f0160208091040260200160405190810160405280929190818152602001828054611743906153d1565b80156117905780601f1061176557610100808354040283529160200191611790565b820191906000526020600020905b81548152906001019060200180831161177357829003601f168201915b50505050508152602001600582015481526020016006820180546117b3906153d1565b80601f01602080910402602001604051908101604052809291908181526020018280546117df906153d1565b801561182c5780601f106118015761010080835404028352916020019161182c565b820191906000526020600020905b81548152906001019060200180831161180f57829003601f168201915b50505050508152602001600782015481526020016008820154815260200160098201548152505090506000600960008f8152602001908152602001600020549050600060038111156118815761188061550c565b5b826000015160038111156118985761189761550c565b5b14156118ef5760006118a982610843565b50505090506001151581151514156118ed576001836000019060038111156118d4576118d361550c565b5b908160038111156118e8576118e761550c565b5b815250505b505b816000015182602001518360400151846060015185608001518660a001518760c001518860e001518961010001518a61012001518b61014001519c509c509c509c509c509c509c509c509c509c509c50505091939597999b90929496989a50565b6000805b600d80549050811015611a3757600260038111156119755761197461550c565b5b600d82815481106119895761198861556a565b5b906000526020600020906006020160050160009054906101000a900460ff1660038111156119ba576119b961550c565b5b1480156119eb575082600d82815481106119d7576119d661556a565b5b906000526020600020906006020160040154105b15611a2457600d8181548110611a0457611a0361556a565b5b90600052602060002090600602016002015482611a21919061519e565b91505b8080611a2f90615434565b915050611954565b50919050565b6000806060806060600080600060048981548110611a5e57611a5d61556a565b5b90600052602060002090600702016040518060e0016040529081600082015481526020016001820160009054906101000a900473ffffffffffffffffffffffffffffffffffffffff1673ffffffffffffffffffffffffffffffffffffffff1673ffffffffffffffffffffffffffffffffffffffff168152602001600282018054611ae7906153d1565b80601f0160208091040260200160405190810160405280929190818152602001828054611b13906153d1565b8015611b605780601f10611b3557610100808354040283529160200191611b60565b820191906000526020600020905b815481529060010190602001808311611b4357829003601f168201915b50505050508152602001600382018054611b79906153d1565b80601f0160208091040260200160405190810160405280929190818152602001828054611ba5906153d1565b8015611bf25780601f10611bc757610100808354040283529160200191611bf2565b820191906000526020600020905b815481529060010190602001808311611bd557829003601f168201915b50505050508152602001600482018054611c0b906153d1565b80601f0160208091040260200160405190810160405280929190818152602001828054611c37906153d1565b8015611c845780601f10611c5957610100808354040283529160200191611c84565b820191906000526020600020905b815481529060010190602001808311611c6757829003601f168201915b50505050508152602001600582015481526020016006820160009054906101000a900460ff166004811115611cbc57611cbb61550c565b5b6004811115611cce57611ccd61550c565b5b81525050905060006004811115611ce857611ce761550c565b5b8160c001516004811115611cff57611cfe61550c565b5b1415611d69576000611d23600660008c815260200190815260200160002054610843565b5050509050600115158115151415611d675760018260c001906004811115611d4e57611d4d61550c565b5b90816004811115611d6257611d6161550c565b5b815250505b505b806000015181602001518260400151836060015184608001518560a001518660c00151975097509750975097509750975050919395979092949650565b6000806000611db4846131a8565b915050600092506000915060005b600d80549050811015611f065781600d8281548110611de457611de361556a565b5b906000526020600020906006020160000154148015611e59575060026003811115611e1257611e1161550c565b5b600d8281548110611e2657611e2561556a565b5b906000526020600020906006020160050160009054906101000a900460ff166003811115611e5757611e5661550c565b5b145b15611ef357600d8181548110611e7257611e7161556a565b5b90600052602060002090600602016002015484611e8f919061519e565b935042600d8281548110611ea657611ea561556a565b5b9060005260206000209060060201600301541015611ef257600d8181548110611ed257611ed161556a565b5b90600052602060002090600602016002015483611eef919061519e565b92505b5b8080611efe90615434565b915050611dc2565b5050915091565b60606000806060600042905060005b600180549050811015611f77578160018281548110611f3e57611f3d61556a565b5b90600052602060002090600602016004015410611f64578380611f6090615434565b9450505b8080611f6f90615434565b915050611f1c565b508267ffffffffffffffff811115611f9257611f91615599565b5b604051908082528060200260200182016040528015611fc05781602001602082028036833780820191505090505b50915060005b600180549050811015612041578160018281548110611fe857611fe761556a565b5b9060005260206000209060060201600401541061202e57808386815181106120135761201261556a565b5b602002602001018181525050848061202a90615434565b9550505b808061203990615434565b915050611fc6565b508194505050505090565b60008080612059846131a8565b915091506001151582151514156120cf576002600481111561207e5761207d61550c565b5b600482815481106120925761209161556a565b5b906000526020600020906007020160060160009054906101000a900460ff1660048111156120c3576120c261550c565b5b14156120ce57600192505b5b5050919050565b600115156120e33361204c565b151514612125576040517f08c379a000000000000000000000000000000000000000000000000000000000815260040161211c90614f20565b60405180910390fd5b6000612130336131a8565b91505060006040518060e001604052808381526020018773ffffffffffffffffffffffffffffffffffffffff1681526020018681526020018581526020018481526020014281526020016000600481111561218e5761218d61550c565b5b815250905060048190806001815401808255809150506001900390600052602060002090600702016000909190919091506000820151816000015560208201518160010160006101000a81548173ffffffffffffffffffffffffffffffffffffffff021916908373ffffffffffffffffffffffffffffffffffffffff160217905550604082015181600201908051906020019061222c9291906143e6565b5060608201518160030190805190602001906122499291906143e6565b5060808201518160040190805190602001906122669291906143e6565b5060a0820151816005015560c08201518160060160006101000a81548160ff0219169083600481111561229c5761229b61550c565b5b02179055505050600060016004805490506122b7919061527f565b90506005600082815260200190815260200160002060405180604001604052808460c0015160048111156122ee576122ed61550c565b5b81526020018460a00151815250908060018154018082558091505060019003906000526020600020906002020160009091909190915060008201518160000160006101000a81548160ff0219169083600481111561234f5761234e61550c565b5b02179055506020820151816001015550506123698161377e565b50505050505050565b600080600091506000905060005b600d8054905081101561249457600260038111156123a1576123a061550c565b5b600d82815481106123b5576123b461556a565b5b906000526020600020906006020160050160009054906101000a900460ff1660038111156123e6576123e561550c565b5b141561248157600d8181548110612400576123ff61556a565b5b9060005260206000209060060201600201548361241d919061519e565b925042600d82815481106124345761243361556a565b5b906000526020600020906006020160030154101561248057600d81815481106124605761245f61556a565b5b9060005260206000209060060201600201548261247d919061519e565b91505b5b808061248c90615434565b915050612380565b509091565b60008060006124a7336131a8565b91505060008060006124b7610af7565b905060006124c3610d92565b9050600082826124d391906151f4565b90506000809850818a11156124e6578199505b8990505b6000821180156124f957508989105b801561251857506000600e600088815260200190815260200160002054115b1561270e57859450600e600087815260200190815260200160002054955086600d878154811061254b5761254a61556a565b5b90600052602060002090600602016000015414156126d55780600d87815481106125785761257761556a565b5b906000526020600020906006020160020154106125fc5780600d87815481106125a4576125a361556a565b5b9060005260206000209060060201600201546125c0919061527f565b600d87815481106125d4576125d361556a565b5b90600052602060002090600602016002018190555080896125f5919061519e565b98506126d0565b600d86815481106126105761260f61556a565b5b9060005260206000209060060201600201548961262d919061519e565b9850600d86815481106126435761264261556a565b5b90600052602060002090600602016002015482612660919061527f565b91506000600d87815481106126785761267761556a565b5b906000526020600020906006020160020181905550600e600087815260200190815260200160002054600e600087815260200190815260200160002081905550600e6000878152602001908152602001600020600090555b612709565b600d86815481106126e9576126e861556a565b5b90600052602060002090600602016002015482612706919061527f565b91505b6124ea565b838961271a9190615225565b9750600088111561272f5761272e88613bc3565b5b50505050505050915091565b6060600060405180608001604052806040518060400160405280600f81526020017f70656e64656e7465566f746163616f000000000000000000000000000000000081525081526020016040518060400160405280601281526020017f70656e64656e74654566657469766163616f000000000000000000000000000081525081526020016040518060400160405280600581526020017f617469766f00000000000000000000000000000000000000000000000000000081525081526020016040518060400160405280600881526020017f726563757361646f00000000000000000000000000000000000000000000000081525081525090508083600481106128495761284861556a565b5b6020020151915050919050565b6060600080606060005b60088054905081101561292057600060038111156128815761288061550c565b5b600882815481106128955761289461556a565b5b90600052602060002090600a020160000160009054906101000a900460ff1660038111156128c6576128c561550c565b5b141561290d5760006128ea6009600084815260200190815260200160002054610843565b505050905060011515811515141561290b57838061290790615434565b9450505b505b808061291890615434565b915050612860565b508167ffffffffffffffff81111561293b5761293a615599565b5b6040519080825280602002602001820160405280156129695781602001602082028036833780820191505090505b50905060005b600880549050811015612a4f57600060038111156129905761298f61550c565b5b600882815481106129a4576129a361556a565b5b90600052602060002090600a020160000160009054906101000a900460ff1660038111156129d5576129d461550c565b5b1415612a3c5760006129f96009600084815260200190815260200160002054610843565b5050509050600115158115151415612a3a5781838681518110612a1f57612a1e61556a565b5b6020026020010181815250508480612a3690615434565b9550505b505b8080612a4790615434565b91505061296f565b5080935050505090565b6000806000612a7a6009600086815260200190815260200160002054610843565b50509150915060006003811115612a9457612a9361550c565b5b60088581548110612aa857612aa761556a565b5b90600052602060002090600a020160000160009054906101000a900460ff166003811115612ad957612ad861550c565b5b148015612aea575060011515821515145b15612ce357600115158115151415612b4f57600260088581548110612b1257612b1161556a565b5b90600052602060002090600a020160000160006101000a81548160ff02191690836003811115612b4557612b4461550c565b5b0217905550612b9e565b600360088581548110612b6557612b6461556a565b5b90600052602060002090600a020160000160006101000a81548160ff02191690836003811115612b9857612b9761550c565b5b02179055505b6000612ba9336131a8565b9150508060088681548110612bc157612bc061556a565b5b90600052602060002090600a0201600201819055504260088681548110612beb57612bea61556a565b5b90600052602060002090600a02016008018190555060006001811115612c1457612c1361550c565b5b60088681548110612c2857612c2761556a565b5b90600052602060002090600a020160000160019054906101000a900460ff166001811115612c5957612c5861550c565b5b1415612c9d5760088581548110612c7357612c7261556a565b5b90600052602060002090600a020160050154600a54612c92919061527f565b600a81905550612cd7565b60088581548110612cb157612cb061556a565b5b90600052602060002090600a020160050154600a54612cd0919061519e565b600a819055505b60019350505050612cea565b6000925050505b919050565b600060011515612cfe8561204c565b151514612d40576040517f08c379a0000000000000000000000000000000000000000000000000000000008152600401612d3790614f40565b60405180910390fd5b6000612d4b856131a8565b915050600d6040518060c0016040528083815260200186815260200186815260200185815260200142815260200160006003811115612d8d57612d8c61550c565b5b8152509080600181540180825580915050600190039060005260206000209060060201600090919091909150600082015181600001556020820151816001015560408201518160020155606082015181600301556080820151816004015560a08201518160050160006101000a81548160ff02191690836003811115612e1657612e1561550c565b5b021790555050506001600d80549050612e2f919061527f565b9150612e3a82613c4e565b509392505050565b6060600060048054905067ffffffffffffffff811115612e6557612e64615599565b5b604051908082528060200260200182016040528015612e935781602001602082028036833780820191505090505b50905060005b600480549050811015612ed95780828281518110612eba57612eb961556a565b5b6020026020010181815250508080612ed190615434565b915050612e99565b508091505090565b6000806000806000806000600d8881548110612f0057612eff61556a565b5b90600052602060002090600602016040518060c001604052908160008201548152602001600182015481526020016002820154815260200160038201548152602001600482015481526020016005820160009054906101000a900460ff166003811115612f7057612f6f61550c565b5b6003811115612f8257612f8161550c565b5b81525050905060006003811115612f9c57612f9b61550c565b5b8160a001516003811115612fb357612fb261550c565b5b141561301d576000612fd7600f60008b815260200190815260200160002054610843565b505050905060011515811515141561301b5760018260a0019060038111156130025761300161550c565b5b908160038111156130165761301561550c565b5b815250505b505b806000015196508681602001519650868260400151965086836060015196508684608001519650868560a001519650965096509650965096505091939550919395565b600080600090506000600e6000808152602001908152602001600020549050600192505b6001156131a057828061309690615434565b93505060008114806131465750600d84815481106130b7576130b661556a565b5b906000526020600020906006020160030154600d83815481106130dd576130dc61556a565b5b9060005260206000209060060201600301541080156131455750600d848154811061310b5761310a61556a565b5b906000526020600020906006020160030154600d82815481106131315761313061556a565b5b906000526020600020906006020160030154115b5b156131825783600e60008481526020019081526020016000208190555080600e60008681526020019081526020016000208190555050506131a3565b809150600e6000838152602001908152602001600020549050613084565b50505b919050565b6000806000915060005b600480549050811015613258578373ffffffffffffffffffffffffffffffffffffffff16600482815481106131ea576131e961556a565b5b906000526020600020906007020160010160009054906101000a900473ffffffffffffffffffffffffffffffffffffffff1673ffffffffffffffffffffffffffffffffffffffff16141561324557600192508091505061325a565b808061325090615434565b9150506131b2565b505b915091565b80600483815481106132745761327361556a565b5b906000526020600020906007020160060160006101000a81548160ff021916908360048111156132a7576132a661550c565b5b02179055506005600083815260200190815260200160002060405180604001604052808360048111156132dd576132dc61550c565b5b815260200142815250908060018154018082558091505060019003906000526020600020906002020160009091909190915060008201518160000160006101000a81548160ff0219169083600481111561333a5761333961550c565b5b02179055506020820151816001015550505050565b6000600882815481106133655761336461556a565b5b90600052602060002090600a0201604051806101600160405290816000820160009054906101000a900460ff1660038111156133a4576133a361550c565b5b60038111156133b6576133b561550c565b5b81526020016000820160019054906101000a900460ff1660018111156133df576133de61550c565b5b60018111156133f1576133f061550c565b5b81526020016001820154815260200160028201548152602001600382018054613419906153d1565b80601f0160208091040260200160405190810160405280929190818152602001828054613445906153d1565b80156134925780601f1061346757610100808354040283529160200191613492565b820191906000526020600020905b81548152906001019060200180831161347557829003601f168201915b505050505081526020016004820180546134ab906153d1565b80601f01602080910402602001604051908101604052809291908181526020018280546134d7906153d1565b80156135245780601f106134f957610100808354040283529160200191613524565b820191906000526020600020905b81548152906001019060200180831161350757829003601f168201915b5050505050815260200160058201548152602001600682018054613547906153d1565b80601f0160208091040260200160405190810160405280929190818152602001828054613573906153d1565b80156135c05780601f10613595576101008083540402835291602001916135c0565b820191906000526020600020905b8154815290600101906020018083116135a357829003601f168201915b5050505050815260200160078201548152602001600882015481526020016009820154815250509050600081608001516040516020016136009190614d02565b604051602081830303815290604052905060008260a001516040516020016136289190614d24565b60405160208183030381529060405290506000600267ffffffffffffffff81111561365657613655615599565b5b60405190808252806020026020018201604052801561368957816020015b60608152602001906001900390816136745790505b5090506040518060400160405280600781526020017f62616e6b696e6700000000000000000000000000000000000000000000000000815250816000815181106136d6576136d561556a565b5b60200260200101819052506040518060400160405280601681526020017f6d6f76696d656e746163616f46696e616e6365697261000000000000000000008152508160018151811061372b5761372a61556a565b5b60200260200101819052506000600b5485610140015161374b919061519e565b9050600061375b85858585613ea1565b905080600960008981526020019081526020016000208190555050505050505050565b6000600482815481106137945761379361556a565b5b90600052602060002090600702016040518060e0016040529081600082015481526020016001820160009054906101000a900473ffffffffffffffffffffffffffffffffffffffff1673ffffffffffffffffffffffffffffffffffffffff1673ffffffffffffffffffffffffffffffffffffffff16815260200160028201805461381d906153d1565b80601f0160208091040260200160405190810160405280929190818152602001828054613849906153d1565b80156138965780601f1061386b57610100808354040283529160200191613896565b820191906000526020600020905b81548152906001019060200180831161387957829003601f168201915b505050505081526020016003820180546138af906153d1565b80601f01602080910402602001604051908101604052809291908181526020018280546138db906153d1565b80156139285780601f106138fd57610100808354040283529160200191613928565b820191906000526020600020905b81548152906001019060200180831161390b57829003601f168201915b50505050508152602001600482018054613941906153d1565b80601f016020809104026020016040519081016040528092919081815260200182805461396d906153d1565b80156139ba5780601f1061398f576101008083540402835291602001916139ba565b820191906000526020600020905b81548152906001019060200180831161399d57829003601f168201915b50505050508152602001600582015481526020016006820160009054906101000a900460ff1660048111156139f2576139f161550c565b5b6004811115613a0457613a0361550c565b5b815250509050600081604001516004836000015181548110613a2957613a2861556a565b5b9060005260206000209060070201600201604051602001613a4b929190614c76565b604051602081830303815290604052905060606000600267ffffffffffffffff811115613a7b57613a7a615599565b5b604051908082528060200260200182016040528015613aae57816020015b6060815260200190600190039081613a995790505b5090506040518060400160405280600781526020017f706172746e65720000000000000000000000000000000000000000000000000081525081600081518110613afb57613afa61556a565b5b60200260200101819052506040518060400160405280600881526020017f616464536f63696f00000000000000000000000000000000000000000000000081525081600181518110613b5057613b4f61556a565b5b6020026020010181905250600060075460048781548110613b7457613b7361556a565b5b906000526020600020906007020160050154613b90919061519e565b90506000613ba085858585613ea1565b905080600660008981526020019081526020016000208190555050505050505050565b613c4a60006040518060400160405280601381526020017f4c69717569646163616f20646520546f6b656e0000000000000000000000000081525060405180602001604052806000815250846040518060400160405280600581526020017f636f6e7461000000000000000000000000000000000000000000000000000000815250613fe0565b5050565b6000600d8281548110613c6457613c6361556a565b5b90600052602060002090600602016040518060c001604052908160008201548152602001600182015481526020016002820154815260200160038201548152602001600482015481526020016005820160009054906101000a900460ff166003811115613cd457613cd361550c565b5b6003811115613ce657613ce561550c565b5b8152505090506000613cfb8260000151611a3d565b50505050925050506000613d0e336131a8565b9150506000613d1c82611a3d565b50505050925050506000613d338560200151614285565b8483604051602001613d4793929190614cb0565b604051602081830303815290604052905060606000600267ffffffffffffffff811115613d7757613d76615599565b5b604051908082528060200260200182016040528015613daa57816020015b6060815260200190600190039081613d955790505b5090506040518060400160405280600581526020017f746f6b656e00000000000000000000000000000000000000000000000000000081525081600081518110613df757613df661556a565b5b60200260200101819052506040518060400160405280600881526020017f616464546f6b656e00000000000000000000000000000000000000000000000081525081600181518110613e4c57613e4b61556a565b5b602002602001018190525060006010548860800151613e6b919061519e565b90506000613e7b85858585613ea1565b905080600f60008c81526020019081526020016000208190555050505050505050505050565b600060016040518060c001604052803373ffffffffffffffffffffffffffffffffffffffff16815260200187815260200186815260200185815260200184815260200142815250908060018154018082558091505060019003906000526020600020906006020160009091909190915060008201518160000160006101000a81548173ffffffffffffffffffffffffffffffffffffffff021916908373ffffffffffffffffffffffffffffffffffffffff1602179055506020820151816001019080519060200190613f749291906143e6565b506040820151816002019080519060200190613f919291906143e6565b506060820151816003019080519060200190613fae92919061446c565b506080820151816004015560a08201518160050155505060018080549050613fd6919061527f565b9050949350505050565b600080613fec336131a8565b91505060004290506000604051806101600160405280600260038111156140165761401561550c565b5b81526020018a600181111561402e5761402d61550c565b5b81526020018481526020016002815260200189815260200188815260200187815260200186815260200183815260200183815260200183815250905060088190806001815401808255809150506001900390600052602060002090600a020160009091909190915060008201518160000160006101000a81548160ff021916908360038111156140c1576140c061550c565b5b021790555060208201518160000160016101000a81548160ff021916908360018111156140f1576140f061550c565b5b0217905550604082015181600101556060820151816002015560808201518160030190805190602001906141269291906143e6565b5060a08201518160040190805190602001906141439291906143e6565b5060c0820151816005015560e082015181600601908051906020019061416a9291906143e6565b50610100820151816007015561012082015181600801556101408201518160090155505060016008805490506141a0919061527f565b9350600060018111156141b6576141b561550c565b5b600885815481106141ca576141c961556a565b5b90600052602060002090600a020160000160019054906101000a900460ff1660018111156141fb576141fa61550c565b5b141561423f57600884815481106142155761421461556a565b5b90600052602060002090600a020160050154600a54614234919061527f565b600a81905550614279565b600884815481106142535761425261556a565b5b90600052602060002090600a020160050154600a54614272919061519e565b600a819055505b50505095945050505050565b606060008214156142cd576040518060400160405280600181526020017f300000000000000000000000000000000000000000000000000000000000000081525090506143e1565b600082905060005b600082146142ff5780806142e890615434565b915050600a826142f891906151f4565b91506142d5565b60008167ffffffffffffffff81111561431b5761431a615599565b5b6040519080825280601f01601f19166020018201604052801561434d5781602001600182028036833780820191505090505b5090505b600085146143da57600182614366919061527f565b9150600a85614375919061547d565b6030614381919061519e565b60f81b8183815181106143975761439661556a565b5b60200101907effffffffffffffffffffffffffffffffffffffffffffffffffffffffffffff1916908160001a905350600a856143d391906151f4565b9450614351565b8093505050505b919050565b8280546143f2906153d1565b90600052602060002090601f016020900481019282614414576000855561445b565b82601f1061442d57805160ff191683800117855561445b565b8280016001018555821561445b579182015b8281111561445a57825182559160200191906001019061443f565b5b50905061446891906144cc565b5090565b8280548282559060005260206000209081019282156144bb579160200282015b828111156144ba5782518290805190602001906144aa9291906143e6565b509160200191906001019061448c565b5b5090506144c891906144e9565b5090565b5b808211156144e55760008160009055506001016144cd565b5090565b5b808211156145095760008181614500919061450d565b506001016144ea565b5090565b508054614519906153d1565b6000825580601f1061452b575061454a565b601f01602090049060005260206000209081019061454991906144cc565b5b50565b600061456061455b846150ae565b615089565b90508281526020810184848401111561457c5761457b6155cd565b5b61458784828561538f565b509392505050565b60008135905061459e816157f7565b92915050565b6000813590506145b38161580e565b92915050565b600082601f8301126145ce576145cd6155c8565b5b81356145de84826020860161454d565b91505092915050565b6000813590506145f68161581e565b92915050565b600060208284031215614612576146116155d7565b5b60006146208482850161458f565b91505092915050565b60008060008060808587031215614643576146426155d7565b5b60006146518782880161458f565b945050602085013567ffffffffffffffff811115614672576146716155d2565b5b61467e878288016145b9565b935050604085013567ffffffffffffffff81111561469f5761469e6155d2565b5b6146ab878288016145b9565b925050606085013567ffffffffffffffff8111156146cc576146cb6155d2565b5b6146d8878288016145b9565b91505092959194509250565b600080604083850312156146fb576146fa6155d7565b5b60006147098582860161458f565b925050602061471a858286016145e7565b9150509250929050565b60008060006060848603121561473d5761473c6155d7565b5b600061474b8682870161458f565b935050602061475c868287016145e7565b925050604061476d868287016145e7565b9150509250925092565b60008060008060008060c08789031215614794576147936155d7565b5b60006147a289828a016145a4565b965050602087013567ffffffffffffffff8111156147c3576147c26155d2565b5b6147cf89828a016145b9565b955050604087013567ffffffffffffffff8111156147f0576147ef6155d2565b5b6147fc89828a016145b9565b945050606061480d89828a016145e7565b935050608087013567ffffffffffffffff81111561482e5761482d6155d2565b5b61483a89828a016145b9565b92505060a061484b89828a016145e7565b9150509295509295509295565b60006020828403121561486e5761486d6155d7565b5b600061487c848285016145e7565b91505092915050565b6000806040838503121561489c5761489b6155d7565b5b60006148aa858286016145e7565b92505060206148bb8582860161458f565b9150509250929050565b60006148d18383614a1e565b905092915050565b60006148e58383614c58565b60208301905092915050565b6148fa816152b3565b82525050565b600061490b82615114565b614915818561514f565b935083602082028501614927856150df565b8060005b85811015614963578484038952815161494485826148c5565b945061494f83615135565b925060208a0199505060018101905061492b565b50829750879550505050505092915050565b60006149808261511f565b61498a8185615160565b9350614995836150ef565b8060005b838110156149c65781516149ad88826148d9565b97506149b883615142565b925050600181019050614999565b5085935050505092915050565b6149dc816152c5565b82525050565b6149eb81615347565b82525050565b6149fa81615359565b82525050565b614a098161536b565b82525050565b614a188161537d565b82525050565b6000614a298261512a565b614a338185615171565b9350614a4381856020860161539e565b614a4c816155dc565b840191505092915050565b6000614a628261512a565b614a6c8185615182565b9350614a7c81856020860161539e565b614a85816155dc565b840191505092915050565b6000614a9b8261512a565b614aa58185615193565b9350614ab581856020860161539e565b80840191505092915050565b60008154614ace816153d1565b614ad88186615193565b94506001821660008114614af35760018114614b0457614b37565b60ff19831686528186019350614b37565b614b0d856150ff565b60005b83811015614b2f57815481890152600182019150602081019050614b10565b838801955050505b50505092915050565b6000614b4d600983615193565b9150614b58826155ed565b600982019050919050565b6000614b70600c83615193565b9150614b7b82615616565b600c82019050919050565b6000614b93603283615182565b9150614b9e8261563f565b604082019050919050565b6000614bb6600b83615193565b9150614bc18261568e565b600b82019050919050565b6000614bd9602383615182565b9150614be4826156b7565b604082019050919050565b6000614bfc602183615193565b9150614c0782615706565b602182019050919050565b6000614c1f601983615193565b9150614c2a82615755565b601982019050919050565b6000614c42600b83615193565b9150614c4d8261577e565b600b82019050919050565b614c618161533d565b82525050565b614c708161533d565b82525050565b6000614c8182614b63565b9150614c8d8285614a90565b9150614c9882614ba9565b9150614ca48284614ac1565b91508190509392505050565b6000614cbb82614bef565b9150614cc78286614a90565b9150614cd282614b40565b9150614cde8285614a90565b9150614ce982614ba9565b9150614cf58284614a90565b9150819050949350505050565b6000614d0d82614c12565b9150614d198284614a90565b915081905092915050565b6000614d2f82614c35565b9150614d3b8284614a90565b915081905092915050565b600060c082019050614d5b60008301896148f1565b8181036020830152614d6d8188614a57565b90508181036040830152614d818187614a57565b90508181036060830152614d958186614900565b9050614da46080830185614c67565b614db160a0830184614c67565b979650505050505050565b60006020820190508181036000830152614dd68184614975565b905092915050565b6000602082019050614df360008301846149d3565b92915050565b6000608082019050614e0e60008301876149d3565b614e1b60208301866149d3565b614e286040830185614c67565b614e356060830184614c67565b95945050505050565b600061016082019050614e54600083018e6149f1565b614e61602083018d614a0f565b614e6e604083018c614c67565b614e7b606083018b614c67565b8181036080830152614e8d818a614a57565b905081810360a0830152614ea18189614a57565b9050614eb060c0830188614c67565b81810360e0830152614ec28187614a57565b9050614ed2610100830186614c67565b614ee0610120830185614c67565b614eee610140830184614c67565b9c9b505050505050505050505050565b60006020820190508181036000830152614f188184614a57565b905092915050565b60006020820190508181036000830152614f3981614b86565b9050919050565b60006020820190508181036000830152614f5981614bcc565b9050919050565b6000602082019050614f756000830184614c67565b92915050565b600060e082019050614f90600083018a614c67565b614f9d60208301896148f1565b8181036040830152614faf8188614a57565b90508181036060830152614fc38187614a57565b90508181036080830152614fd78186614a57565b9050614fe660a0830185614c67565b614ff360c0830184614a00565b98975050505050505050565b60006040820190506150146000830185614c67565b6150216020830184614c67565b9392505050565b600060c08201905061503d6000830189614c67565b61504a6020830188614c67565b6150576040830187614c67565b6150646060830186614c67565b6150716080830185614c67565b61507e60a08301846149e2565b979650505050505050565b60006150936150a4565b905061509f8282615403565b919050565b6000604051905090565b600067ffffffffffffffff8211156150c9576150c8615599565b5b6150d2826155dc565b9050602081019050919050565b6000819050602082019050919050565b6000819050602082019050919050565b60008190508160005260206000209050919050565b600081519050919050565b600081519050919050565b600081519050919050565b6000602082019050919050565b6000602082019050919050565b600082825260208201905092915050565b600082825260208201905092915050565b600082825260208201905092915050565b600082825260208201905092915050565b600081905092915050565b60006151a98261533d565b91506151b48361533d565b9250827fffffffffffffffffffffffffffffffffffffffffffffffffffffffffffffffff038211156151e9576151e86154ae565b5b828201905092915050565b60006151ff8261533d565b915061520a8361533d565b92508261521a576152196154dd565b5b828204905092915050565b60006152308261533d565b915061523b8361533d565b9250817fffffffffffffffffffffffffffffffffffffffffffffffffffffffffffffffff0483118215151615615274576152736154ae565b5b828202905092915050565b600061528a8261533d565b91506152958361533d565b9250828210156152a8576152a76154ae565b5b828203905092915050565b60006152be8261531d565b9050919050565b60008115159050919050565b60008190506152df826157a7565b919050565b60008190506152f2826157bb565b919050565b6000819050615305826157cf565b919050565b6000819050615318826157e3565b919050565b600073ffffffffffffffffffffffffffffffffffffffff82169050919050565b6000819050919050565b6000615352826152d1565b9050919050565b6000615364826152e4565b9050919050565b6000615376826152f7565b9050919050565b60006153888261530a565b9050919050565b82818337600083830152505050565b60005b838110156153bc5780820151818401526020810190506153a1565b838111156153cb576000848401525b50505050565b600060028204905060018216806153e957607f821691505b602082108114156153fd576153fc61553b565b5b50919050565b61540c826155dc565b810181811067ffffffffffffffff8211171561542b5761542a615599565b5b80604052505050565b600061543f8261533d565b91507fffffffffffffffffffffffffffffffffffffffffffffffffffffffffffffffff821415615472576154716154ae565b5b600182019050919050565b60006154888261533d565b91506154938361533d565b9250826154a3576154a26154dd565b5b828206905092915050565b7f4e487b7100000000000000000000000000000000000000000000000000000000600052601160045260246000fd5b7f4e487b7100000000000000000000000000000000000000000000000000000000600052601260045260246000fd5b7f4e487b7100000000000000000000000000000000000000000000000000000000600052602160045260246000fd5b7f4e487b7100000000000000000000000000000000000000000000000000000000600052602260045260246000fd5b7f4e487b7100000000000000000000000000000000000000000000000000000000600052603260045260246000fd5b7f4e487b7100000000000000000000000000000000000000000000000000000000600052604160045260246000fd5b600080fd5b600080fd5b600080fd5b600080fd5b6000601f19601f8301169050919050565b7f3f3f3f2070617261200000000000000000000000000000000000000000000000600082015250565b7f496e636c7573616f20646f200000000000000000000000000000000000000000600082015250565b7f4170656e617320736f63696f7320617469766f7320706f64656d20616469636960008201527f6f6e6172206e6f766f7320736f63696f73210000000000000000000000000000602082015250565b7f20666569746120706f7220000000000000000000000000000000000000000000600082015250565b7f4170656e617320736f63696f7320706f64656d207265636562657220746f6b6560008201527f6e73210000000000000000000000000000000000000000000000000000000000602082015250565b7f496e636c7573616f20646520636f6e747261746f20646520546f6b656e20646560008201527f2000000000000000000000000000000000000000000000000000000000000000602082015250565b7f4d6f76696d656e746163616f2066696e616e63656972613a2000000000000000600082015250565b7f44657363726963616f3a20000000000000000000000000000000000000000000600082015250565b600481106157b8576157b761550c565b5b50565b600481106157cc576157cb61550c565b5b50565b600581106157e0576157df61550c565b5b50565b600281106157f4576157f361550c565b5b50565b615800816152b3565b811461580b57600080fd5b50565b6002811061581b57600080fd5b50565b6158278161533d565b811461583257600080fd5b5056fea2646970667358221220064a48f1b4a69ef9cc4863e2f9ff9242de50cff65b5e925d39f4333844d210fd64736f6c63430008070033",
  "immutableReferences": {},
  "source": "//SPDX-License-Identifier: MIT\r\npragma solidity >=0.8.0 <0.9.0;\r\n\r\nimport \"./Token.sol\";\r\n\r\ncontract Projeto is Token { }",
  "sourcePath": "C:\\projetos\\dao7\\contracts\\contracts\\Projeto.sol",
  "compiler": {
    "name": "solc",
    "version": "0.8.7+commit.e28d00a7.Emscripten.clang"
  },
  "schemaVersion": "3.4.5",
  "updatedAt": "2022-02-22T14:33:28.593Z",
  "devdoc": {
    "kind": "dev",
    "methods": {},
    "version": 1
  },
  "userdoc": {
    "kind": "user",
    "methods": {},
    "version": 1
  }
}