{
  "contractName": "Token",
  "abi": [
    {
      "inputs": [],
      "stateMutability": "nonpayable",
      "type": "constructor"
    },
    {
      "inputs": [
        {
          "internalType": "enum Banking.tipoMovimentacaoFinanceira",
          "name": "tipo",
          "type": "uint8"
        },
        {
          "internalType": "string",
          "name": "titulo",
          "type": "string"
        },
        {
          "internalType": "string",
          "name": "descricao",
          "type": "string"
        },
        {
          "internalType": "uint256",
          "name": "valor",
          "type": "uint256"
        },
        {
          "internalType": "string",
          "name": "conta",
          "type": "string"
        },
        {
          "internalType": "uint256",
          "name": "dataVencimento",
          "type": "uint256"
        }
      ],
      "name": "AddMovimentacaoFinanceira",
      "outputs": [
        {
          "internalType": "uint256",
          "name": "index",
          "type": "uint256"
        }
      ],
      "stateMutability": "nonpayable",
      "type": "function"
    },
    {
      "inputs": [
        {
          "internalType": "address",
          "name": "addressSocio",
          "type": "address"
        },
        {
          "internalType": "string",
          "name": "nome",
          "type": "string"
        },
        {
          "internalType": "string",
          "name": "email",
          "type": "string"
        },
        {
          "internalType": "string",
          "name": "conta",
          "type": "string"
        }
      ],
      "name": "AddSocio",
      "outputs": [],
      "stateMutability": "nonpayable",
      "type": "function"
    },
    {
      "inputs": [
        {
          "internalType": "uint256",
          "name": "index",
          "type": "uint256"
        }
      ],
      "name": "EfetivarLancamento",
      "outputs": [
        {
          "internalType": "bool",
          "name": "",
          "type": "bool"
        }
      ],
      "stateMutability": "nonpayable",
      "type": "function"
    },
    {
      "inputs": [
        {
          "internalType": "uint256",
          "name": "index",
          "type": "uint256"
        }
      ],
      "name": "EfetivarVotacaoSocio",
      "outputs": [],
      "stateMutability": "nonpayable",
      "type": "function"
    },
    {
      "inputs": [
        {
          "internalType": "uint256",
          "name": "index",
          "type": "uint256"
        }
      ],
      "name": "GetEnumStatusMovimentacaoFinanceira",
      "outputs": [
        {
          "internalType": "string",
          "name": "",
          "type": "string"
        }
      ],
      "stateMutability": "pure",
      "type": "function"
    },
    {
      "inputs": [
        {
          "internalType": "uint256",
          "name": "index",
          "type": "uint256"
        }
      ],
      "name": "GetEnumTipoMovimentacaoFinanceira",
      "outputs": [
        {
          "internalType": "string",
          "name": "",
          "type": "string"
        }
      ],
      "stateMutability": "pure",
      "type": "function"
    },
    {
      "inputs": [
        {
          "internalType": "uint256",
          "name": "index",
          "type": "uint256"
        }
      ],
      "name": "GetMovimentacaoFinanceira",
      "outputs": [
        {
          "internalType": "enum Banking.statusMovimentacaoFinanceira",
          "name": "status",
          "type": "uint8"
        },
        {
          "internalType": "enum Banking.tipoMovimentacaoFinanceira",
          "name": "tipo",
          "type": "uint8"
        },
        {
          "internalType": "uint256",
          "name": "indexSocioInclusao",
          "type": "uint256"
        },
        {
          "internalType": "uint256",
          "name": "indexSocioEfetivacao",
          "type": "uint256"
        },
        {
          "internalType": "string",
          "name": "titulo",
          "type": "string"
        },
        {
          "internalType": "string",
          "name": "descricao",
          "type": "string"
        },
        {
          "internalType": "uint256",
          "name": "valor",
          "type": "uint256"
        },
        {
          "internalType": "string",
          "name": "conta",
          "type": "string"
        },
        {
          "internalType": "uint256",
          "name": "dataVencimento",
          "type": "uint256"
        },
        {
          "internalType": "uint256",
          "name": "dataEfetivacao",
          "type": "uint256"
        },
        {
          "internalType": "uint256",
          "name": "dataRegistro",
          "type": "uint256"
        }
      ],
      "stateMutability": "view",
      "type": "function"
    },
    {
      "inputs": [],
      "name": "GetMovimentacoesFinanceira",
      "outputs": [
        {
          "internalType": "uint256[]",
          "name": "",
          "type": "uint256[]"
        }
      ],
      "stateMutability": "view",
      "type": "function"
    },
    {
      "inputs": [],
      "name": "GetMovimentacoesFinanceirasPendentesEfetivacao",
      "outputs": [
        {
          "internalType": "uint256[]",
          "name": "",
          "type": "uint256[]"
        }
      ],
      "stateMutability": "view",
      "type": "function"
    },
    {
      "inputs": [
        {
          "internalType": "uint256",
          "name": "index",
          "type": "uint256"
        }
      ],
      "name": "GetPropostaVotacao",
      "outputs": [
        {
          "internalType": "address",
          "name": "ownerVotacao",
          "type": "address"
        },
        {
          "internalType": "string",
          "name": "titulo",
          "type": "string"
        },
        {
          "internalType": "string",
          "name": "descricao",
          "type": "string"
        },
        {
          "internalType": "string[]",
          "name": "tags",
          "type": "string[]"
        },
        {
          "internalType": "uint256",
          "name": "dataTermino",
          "type": "uint256"
        },
        {
          "internalType": "uint256",
          "name": "dataRegistro",
          "type": "uint256"
        }
      ],
      "stateMutability": "view",
      "type": "function"
    },
    {
      "inputs": [
        {
          "internalType": "uint256",
          "name": "index",
          "type": "uint256"
        }
      ],
      "name": "GetResultadoVotacao",
      "outputs": [
        {
          "internalType": "bool",
          "name": "finalizada",
          "type": "bool"
        },
        {
          "internalType": "bool",
          "name": "resultado",
          "type": "bool"
        },
        {
          "internalType": "uint256",
          "name": "votosAprovacao",
          "type": "uint256"
        },
        {
          "internalType": "uint256",
          "name": "votosReprovacao",
          "type": "uint256"
        }
      ],
      "stateMutability": "view",
      "type": "function"
    },
    {
      "inputs": [],
      "name": "GetSaldoFundoTokens",
      "outputs": [
        {
          "internalType": "uint256",
          "name": "valor",
          "type": "uint256"
        }
      ],
      "stateMutability": "view",
      "type": "function"
    },
    {
      "inputs": [
        {
          "internalType": "uint256",
          "name": "index",
          "type": "uint256"
        }
      ],
      "name": "GetSocio",
      "outputs": [
        {
          "internalType": "uint256",
          "name": "indexSocioIndicacao",
          "type": "uint256"
        },
        {
          "internalType": "address",
          "name": "addressSocio",
          "type": "address"
        },
        {
          "internalType": "string",
          "name": "nome",
          "type": "string"
        },
        {
          "internalType": "string",
          "name": "email",
          "type": "string"
        },
        {
          "internalType": "string",
          "name": "conta",
          "type": "string"
        },
        {
          "internalType": "uint256",
          "name": "dataRegistro",
          "type": "uint256"
        },
        {
          "internalType": "enum Partner.statusSocio",
          "name": "status",
          "type": "uint8"
        }
      ],
      "stateMutability": "view",
      "type": "function"
    },
    {
      "inputs": [],
      "name": "GetSocios",
      "outputs": [
        {
          "internalType": "uint256[]",
          "name": "",
          "type": "uint256[]"
        }
      ],
      "stateMutability": "view",
      "type": "function"
    },
    {
      "inputs": [],
      "name": "GetVotacoesAbertas",
      "outputs": [
        {
          "internalType": "uint256[]",
          "name": "_votacoes",
          "type": "uint256[]"
        }
      ],
      "stateMutability": "view",
      "type": "function"
    },
    {
      "inputs": [
        {
          "internalType": "uint256",
          "name": "index",
          "type": "uint256"
        },
        {
          "internalType": "address",
          "name": "addressSocio",
          "type": "address"
        }
      ],
      "name": "JaVotou",
      "outputs": [
        {
          "internalType": "bool",
          "name": "votado",
          "type": "bool"
        }
      ],
      "stateMutability": "view",
      "type": "function"
    },
    {
      "inputs": [
        {
          "internalType": "address",
          "name": "addressSocio",
          "type": "address"
        }
      ],
      "name": "SocioAtivo",
      "outputs": [
        {
          "internalType": "bool",
          "name": "socioAtivo",
          "type": "bool"
        }
      ],
      "stateMutability": "view",
      "type": "function"
    },
    {
      "inputs": [],
      "name": "SociosPendentes",
      "outputs": [
        {
          "internalType": "uint256[]",
          "name": "",
          "type": "uint256[]"
        }
      ],
      "stateMutability": "view",
      "type": "function"
    },
    {
      "inputs": [],
      "name": "GetContratosToken",
      "outputs": [
        {
          "internalType": "uint256[]",
          "name": "",
          "type": "uint256[]"
        }
      ],
      "stateMutability": "view",
      "type": "function"
    },
    {
      "inputs": [
        {
          "internalType": "uint256",
          "name": "index",
          "type": "uint256"
        }
      ],
      "name": "GetContratoToken",
      "outputs": [
        {
          "internalType": "uint256",
          "name": "indexSocio",
          "type": "uint256"
        },
        {
          "internalType": "uint256",
          "name": "quantidadeTokens",
          "type": "uint256"
        },
        {
          "internalType": "uint256",
          "name": "quantidadeTokensRestante",
          "type": "uint256"
        },
        {
          "internalType": "uint256",
          "name": "dataLiquidacao",
          "type": "uint256"
        },
        {
          "internalType": "uint256",
          "name": "dataRegistro",
          "type": "uint256"
        },
        {
          "internalType": "enum Token.statusContratoToken",
          "name": "status",
          "type": "uint8"
        }
      ],
      "stateMutability": "view",
      "type": "function"
    },
    {
      "inputs": [],
      "name": "GetCotacaoToken",
      "outputs": [
        {
          "internalType": "uint256",
          "name": "cotacao",
          "type": "uint256"
        }
      ],
      "stateMutability": "view",
      "type": "function"
    },
    {
      "inputs": [
        {
          "internalType": "address",
          "name": "addressSocio",
          "type": "address"
        },
        {
          "internalType": "uint256",
          "name": "quantidadeTokens",
          "type": "uint256"
        },
        {
          "internalType": "uint256",
          "name": "dataLiquidacao",
          "type": "uint256"
        }
      ],
      "name": "AddContratoToken",
      "outputs": [
        {
          "internalType": "uint256",
          "name": "index",
          "type": "uint256"
        }
      ],
      "stateMutability": "nonpayable",
      "type": "function"
    },
    {
      "inputs": [
        {
          "internalType": "uint256",
          "name": "index",
          "type": "uint256"
        }
      ],
      "name": "EfetivarVotacaoToken",
      "outputs": [],
      "stateMutability": "nonpayable",
      "type": "function"
    },
    {
      "inputs": [
        {
          "internalType": "uint256",
          "name": "quantidadeDesejada",
          "type": "uint256"
        }
      ],
      "name": "LiquidarToken",
      "outputs": [
        {
          "internalType": "uint256",
          "name": "quantidadeLiquidada",
          "type": "uint256"
        },
        {
          "internalType": "uint256",
          "name": "valorLiquidado",
          "type": "uint256"
        }
      ],
      "stateMutability": "nonpayable",
      "type": "function"
    },
    {
      "inputs": [
        {
          "internalType": "address",
          "name": "addressSocio",
          "type": "address"
        }
      ],
      "name": "GetTokensPorSocio",
      "outputs": [
        {
          "internalType": "uint256",
          "name": "total",
          "type": "uint256"
        },
        {
          "internalType": "uint256",
          "name": "liberados",
          "type": "uint256"
        }
      ],
      "stateMutability": "view",
      "type": "function"
    },
    {
      "inputs": [
        {
          "internalType": "address",
          "name": "addressSocio",
          "type": "address"
        },
        {
          "internalType": "uint256",
          "name": "data",
          "type": "uint256"
        }
      ],
      "name": "GetTokensPorSocioPorData",
      "outputs": [
        {
          "internalType": "uint256",
          "name": "total",
          "type": "uint256"
        }
      ],
      "stateMutability": "view",
      "type": "function"
    },
    {
      "inputs": [],
      "name": "GetTotalTokens",
      "outputs": [
        {
          "internalType": "uint256",
          "name": "total",
          "type": "uint256"
        },
        {
          "internalType": "uint256",
          "name": "liberados",
          "type": "uint256"
        }
      ],
      "stateMutability": "view",
      "type": "function"
    },
    {
      "inputs": [
        {
          "internalType": "uint256",
          "name": "data",
          "type": "uint256"
        }
      ],
      "name": "GetTotalTokensPorData",
      "outputs": [
        {
          "internalType": "uint256",
          "name": "total",
          "type": "uint256"
        }
      ],
      "stateMutability": "view",
      "type": "function"
    }
  ],
  "bytecode": "0x60806040523480156200001157600080fd5b506203f48060078190555060006040518060e00160405280600081526020013373ffffffffffffffffffffffffffffffffffffffff1681526020016040518060400160405280600581526020017f6f776e6572000000000000000000000000000000000000000000000000000000815250815260200160405180602001604052806000815250815260200160405180602001604052806000815250815260200142815260200160026004811115620000ce57620000cd620003e7565b5b815250905060048190806001815401808255809150506001900390600052602060002090600702016000909190919091506000820151816000015560208201518160010160006101000a81548173ffffffffffffffffffffffffffffffffffffffff021916908373ffffffffffffffffffffffffffffffffffffffff16021790555060408201518160020190805190602001906200016e92919062000301565b5060608201518160030190805190602001906200018d92919062000301565b506080820151816004019080519060200190620001ac92919062000301565b5060a0820151816005015560c08201518160060160006101000a81548160ff02191690836004811115620001e557620001e4620003e7565b5b02179055505050506203f480600b81905550610bb8600c819055506203f480601081905550600d6040518060c00160405280600081526020016001815260200160018152602001428152602001428152602001600260038111156200024f576200024e620003e7565b5b8152509080600181540180825580915050600190039060005260206000209060060201600090919091909150600082015181600001556020820151816001015560408201518160020155606082015181600301556080820151816004015560a08201518160050160006101000a81548160ff02191690836003811115620002db57620002da620003e7565b5b021790555050506000600e60008081526020019081526020016000208190555062000445565b8280546200030f90620003b1565b90600052602060002090601f0160209004810192826200033357600085556200037f565b82601f106200034e57805160ff19168380011785556200037f565b828001600101855582156200037f579182015b828111156200037e57825182559160200191906001019062000361565b5b5090506200038e919062000392565b5090565b5b80821115620003ad57600081600090555060010162000393565b5090565b60006002820490506001821680620003ca57607f821691505b60208210811415620003e157620003e062000416565b5b50919050565b7f4e487b7100000000000000000000000000000000000000000000000000000000600052602160045260246000fd5b7f4e487b7100000000000000000000000000000000000000000000000000000000600052602260045260246000fd5b61556d80620004556000396000f3fe608060405234801561001057600080fd5b50600436106101c45760003560e01c806381b2664a116100f9578063d27eaa9311610097578063d6fcbe6c11610071578063d6fcbe6c14610598578063e484018a146105c8578063f2a6fc46146105f8578063fb84a1d814610616576101c4565b8063d27eaa9314610519578063d388fb7c1461054a578063d41b47d31461057a576101c4565b8063b2f5f56d116100d3578063b2f5f56d14610490578063b3c6e789146104ae578063baeee9ed146104de578063c65d10c0146104fa576101c4565b806381b2664a146103f9578063965cfb5c14610429578063b03ef5aa1461045f576101c4565b806338dc2de5116101665780635ff9ed87116101405780635ff9ed871461033c57806366e15fa61461035a57806369512a071461038a57806378555cf8146103bf576101c4565b806338dc2de5146102e45780633fc62a26146103025780634012ec961461031e576101c4565b8063315fbd89116101a2578063315fbd891461024857806335010d7814610266578063362f13671461028457806337b8ec5f146102b4576101c4565b80630b12c493146101c95780631059ead1146101f95780632ccdab8a14610215575b600080fd5b6101e360048036038101906101de919061455a565b61064b565b6040516101f09190614c00565b60405180910390f35b610213600480360381019061020e919061455a565b6106f0565b005b61022f600480360381019061022a919061455a565b610843565b60405161023f9493929190614afb565b60405180910390f35b610250610a40565b60405161025d9190614abe565b60405180910390f35b61026e610af7565b60405161027b9190614c62565b60405180910390f35b61029e60048036038101906102999190614587565b610b40565b6040516102ab9190614ae0565b60405180910390f35b6102ce60048036038101906102c991906143e6565b610c66565b6040516102db9190614c62565b60405180910390f35b6102ec610d97565b6040516102f99190614c62565b60405180910390f35b61031c6004803603810190610317919061455a565b610da1565b005b610326610e64565b6040516103339190614abe565b60405180910390f35b610344610f03565b6040516103519190614abe565b60405180910390f35b610374600480360381019061036f9190614479565b611106565b6040516103819190614c62565b60405180910390f35b6103a4600480360381019061039f919061455a565b611334565b6040516103b696959493929190614a48565b60405180910390f35b6103d960048036038101906103d4919061455a565b61160a565b6040516103f09b9a99989796959493929190614b40565b60405180910390f35b610413600480360381019061040e919061455a565b6119b0565b6040516104209190614c62565b60405180910390f35b610443600480360381019061043e919061455a565b611a9d565b6040516104569796959493929190614c7d565b60405180910390f35b610479600480360381019061047491906142fe565b611e06565b604051610487929190614d01565b60405180910390f35b610498611f6d565b6040516104a59190614abe565b60405180910390f35b6104c860048036038101906104c391906142fe565b6120ac565b6040516104d59190614ae0565b60405180910390f35b6104f860048036038101906104f3919061432b565b612136565b005b6105026123d2565b604051610510929190614d01565b60405180910390f35b610533600480360381019061052e919061455a565b6124f9565b604051610541929190614d01565b60405180910390f35b610564600480360381019061055f919061455a565b6127c3565b6040516105719190614c00565b60405180910390f35b6105826128de565b60405161058f9190614abe565b60405180910390f35b6105b260048036038101906105ad919061455a565b612ae1565b6040516105bf9190614ae0565b60405180910390f35b6105e260048036038101906105dd9190614426565b612c95565b6040516105ef9190614c62565b60405180910390f35b610600612de8565b60405161060d9190614abe565b60405180910390f35b610630600480360381019061062b919061455a565b612e87565b60405161064296959493929190614d2a565b60405180910390f35b6060600060405180604001604052806040518060400160405280600581526020017f706167617200000000000000000000000000000000000000000000000000000081525081526020016040518060400160405280600781526020017f726563656265720000000000000000000000000000000000000000000000000081525081525090508083600281106106e3576106e261526c565b5b6020020151915050919050565b60008061070f600f600085815260200190815260200160002054610843565b505091509150600060038111156107295761072861520e565b5b600d848154811061073d5761073c61526c565b5b906000526020600020906006020160050160009054906101000a900460ff16600381111561076e5761076d61520e565b5b14801561077f575060011515821515145b1561083e576001151581151514156107ee576002600d84815481106107a7576107a661526c565b5b906000526020600020906006020160050160006101000a81548160ff021916908360038111156107da576107d961520e565b5b02179055506107e883613006565b5061083d565b6003600d84815481106108045761080361526c565b5b906000526020600020906006020160050160006101000a81548160ff021916908360038111156108375761083661520e565b5b02179055505b5b505050565b600080600080600093506000925060009150600090506000600360008781526020019081526020016000208054806020026020016040519081016040528092919081815260200182805480156108b857602002820191906000526020600020905b8154815260200190600101908083116108a4575b5050505050905060005b81518110156109d7576001151560028383815181106108e4576108e361526c565b5b6020026020010151815481106108fd576108fc61526c565b5b906000526020600020906003020160000160149054906101000a900460ff16151514156109765760028282815181106109395761093861526c565b5b6020026020010151815481106109525761095161526c565b5b9060005260206000209060030201600101548461096f9190614ea0565b93506109c4565b600282828151811061098b5761098a61526c565b5b6020026020010151815481106109a4576109a361526c565b5b906000526020600020906003020160010154836109c19190614ea0565b92505b80806109cf90615136565b9150506108c2565b5042600187815481106109ed576109ec61526c565b5b9060005260206000209060060201600401541080610a0c575061138883115b80610a18575061138882115b15610a2257600194505b81831115610a335760019350610a38565b600093505b509193509193565b60606000600d8054905067ffffffffffffffff811115610a6357610a6261529b565b5b604051908082528060200260200182016040528015610a915781602001602082028036833780820191505090505b5090506000805b600d80549050811015610aee5780838381518110610ab957610ab861526c565b5b602002602001018181525050600e60008381526020019081526020016000205491508080610ae690615136565b915050610a98565b50819250505090565b600080610b026123d2565b9150506000610b0f610d97565b905081816064610b1f9190614f27565b610b299190614ef6565b9250600c54831015610b3b57600c5492505b505090565b60008060036000858152602001908152602001600020805480602002602001604051908101604052809291908181526020018280548015610ba057602002820191906000526020600020905b815481526020019060010190808311610b8c575b5050505050905060005b8151811015610c5e578373ffffffffffffffffffffffffffffffffffffffff166002838381518110610bdf57610bde61526c565b5b602002602001015181548110610bf857610bf761526c565b5b906000526020600020906003020160000160009054906101000a900473ffffffffffffffffffffffffffffffffffffffff1673ffffffffffffffffffffffffffffffffffffffff161415610c4b57600192505b8080610c5690615136565b915050610baa565b505092915050565b600080610c728461314e565b9150506000915060005b600d80549050811015610d8f5781600d8281548110610c9e57610c9d61526c565b5b906000526020600020906006020160000154148015610d13575060026003811115610ccc57610ccb61520e565b5b600d8281548110610ce057610cdf61526c565b5b906000526020600020906006020160050160009054906101000a900460ff166003811115610d1157610d1061520e565b5b145b8015610d43575083600d8281548110610d2f57610d2e61526c565b5b906000526020600020906006020160040154105b15610d7c57600d8181548110610d5c57610d5b61526c565b5b90600052602060002090600602016002015483610d799190614ea0565b92505b8080610d8790615136565b915050610c7c565b505092915050565b6000600a54905090565b600080610dc06006600085815260200190815260200160002054610843565b50509150915060006004811115610dda57610dd961520e565b5b60048481548110610dee57610ded61526c565b5b906000526020600020906007020160060160009054906101000a900460ff166004811115610e1f57610e1e61520e565b5b148015610e30575060011515821515145b15610e5f57600115158115151415610e5257610e4d836002613205565b610e5e565b610e5d836003613205565b5b5b505050565b6060600060088054905067ffffffffffffffff811115610e8757610e8661529b565b5b604051908082528060200260200182016040528015610eb55781602001602082028036833780820191505090505b50905060005b600880549050811015610efb5780828281518110610edc57610edb61526c565b5b6020026020010181815250508080610ef390615136565b915050610ebb565b508091505090565b6060600080606060005b600480549050811015610fcd5760006004811115610f2e57610f2d61520e565b5b60048281548110610f4257610f4161526c565b5b906000526020600020906007020160060160009054906101000a900460ff166004811115610f7357610f7261520e565b5b1415610fba576000610f976006600084815260200190815260200160002054610843565b5050509050600115158115151415610fb8578380610fb490615136565b9450505b505b8080610fc590615136565b915050610f0d565b508167ffffffffffffffff811115610fe857610fe761529b565b5b6040519080825280602002602001820160405280156110165781602001602082028036833780820191505090505b50905060005b6004805490508110156110fc576000600481111561103d5761103c61520e565b5b600482815481106110515761105061526c565b5b906000526020600020906007020160060160009054906101000a900460ff1660048111156110825761108161520e565b5b14156110e95760006110a66006600084815260200190815260200160002054610843565b50505090506001151581151514156110e757818386815181106110cc576110cb61526c565b5b60200260200101818152505084806110e390615136565b9550505b505b80806110f490615136565b91505061101c565b5080935050505090565b6000806111123361314e565b9150506000604051806101600160405280600060038111156111375761113661520e565b5b81526020018a600181111561114f5761114e61520e565b5b8152602001838152602001600081526020018981526020018881526020018781526020018681526020018581526020016000815260200142815250905060088190806001815401808255809150506001900390600052602060002090600a020160009091909190915060008201518160000160006101000a81548160ff021916908360038111156111e3576111e261520e565b5b021790555060208201518160000160016101000a81548160ff021916908360018111156112135761121261520e565b5b0217905550604082015181600101556060820151816002015560808201518160030190805190602001906112489291906140e8565b5060a08201518160040190805190602001906112659291906140e8565b5060c0820151816005015560e082015181600601908051906020019061128c9291906140e8565b50610100820151816007015561012082015181600801556101408201518160090155505060016008805490506112c29190614f81565b92506112cd836132f5565b600060018111156112e1576112e061520e565b5b8960018111156112f4576112f361520e565b5b14156113135785600a546113089190614f81565b600a81905550611328565b85600a546113219190614ea0565b600a819055505b50509695505050505050565b600060608060606000806000600188815481106113545761135361526c565b5b90600052602060002090600602016040518060c00160405290816000820160009054906101000a900473ffffffffffffffffffffffffffffffffffffffff1673ffffffffffffffffffffffffffffffffffffffff1673ffffffffffffffffffffffffffffffffffffffff1681526020016001820180546113d3906150d3565b80601f01602080910402602001604051908101604052809291908181526020018280546113ff906150d3565b801561144c5780601f106114215761010080835404028352916020019161144c565b820191906000526020600020905b81548152906001019060200180831161142f57829003601f168201915b50505050508152602001600282018054611465906150d3565b80601f0160208091040260200160405190810160405280929190818152602001828054611491906150d3565b80156114de5780601f106114b3576101008083540402835291602001916114de565b820191906000526020600020905b8154815290600101906020018083116114c157829003601f168201915b5050505050815260200160038201805480602002602001604051908101604052809291908181526020016000905b828210156115b857838290600052602060002001805461152b906150d3565b80601f0160208091040260200160405190810160405280929190818152602001828054611557906150d3565b80156115a45780601f10611579576101008083540402835291602001916115a4565b820191906000526020600020905b81548152906001019060200180831161158757829003601f168201915b50505050508152602001906001019061150c565b505050508152602001600482015481526020016005820154815250509050806000015181602001518260400151836060015184608001518560a001519650965096509650965096505091939550919395565b6000806000806060806000606060008060008060088d815481106116315761163061526c565b5b90600052602060002090600a0201604051806101600160405290816000820160009054906101000a900460ff1660038111156116705761166f61520e565b5b60038111156116825761168161520e565b5b81526020016000820160019054906101000a900460ff1660018111156116ab576116aa61520e565b5b60018111156116bd576116bc61520e565b5b815260200160018201548152602001600282015481526020016003820180546116e5906150d3565b80601f0160208091040260200160405190810160405280929190818152602001828054611711906150d3565b801561175e5780601f106117335761010080835404028352916020019161175e565b820191906000526020600020905b81548152906001019060200180831161174157829003601f168201915b50505050508152602001600482018054611777906150d3565b80601f01602080910402602001604051908101604052809291908181526020018280546117a3906150d3565b80156117f05780601f106117c5576101008083540402835291602001916117f0565b820191906000526020600020905b8154815290600101906020018083116117d357829003601f168201915b5050505050815260200160058201548152602001600682018054611813906150d3565b80601f016020809104026020016040519081016040528092919081815260200182805461183f906150d3565b801561188c5780601f106118615761010080835404028352916020019161188c565b820191906000526020600020905b81548152906001019060200180831161186f57829003601f168201915b50505050508152602001600782015481526020016008820154815260200160098201548152505090506000600960008f8152602001908152602001600020549050600060038111156118e1576118e061520e565b5b826000015160038111156118f8576118f761520e565b5b141561194f57600061190982610843565b505050905060011515811515141561194d576001836000019060038111156119345761193361520e565b5b908160038111156119485761194761520e565b5b815250505b505b816000015182602001518360400151846060015185608001518660a001518760c001518860e001518961010001518a61012001518b61014001519c509c509c509c509c509c509c509c509c509c509c50505091939597999b90929496989a50565b6000805b600d80549050811015611a9757600260038111156119d5576119d461520e565b5b600d82815481106119e9576119e861526c565b5b906000526020600020906006020160050160009054906101000a900460ff166003811115611a1a57611a1961520e565b5b148015611a4b575082600d8281548110611a3757611a3661526c565b5b906000526020600020906006020160040154105b15611a8457600d8181548110611a6457611a6361526c565b5b90600052602060002090600602016002015482611a819190614ea0565b91505b8080611a8f90615136565b9150506119b4565b50919050565b6000806060806060600080600060048981548110611abe57611abd61526c565b5b90600052602060002090600702016040518060e0016040529081600082015481526020016001820160009054906101000a900473ffffffffffffffffffffffffffffffffffffffff1673ffffffffffffffffffffffffffffffffffffffff1673ffffffffffffffffffffffffffffffffffffffff168152602001600282018054611b47906150d3565b80601f0160208091040260200160405190810160405280929190818152602001828054611b73906150d3565b8015611bc05780601f10611b9557610100808354040283529160200191611bc0565b820191906000526020600020905b815481529060010190602001808311611ba357829003601f168201915b50505050508152602001600382018054611bd9906150d3565b80601f0160208091040260200160405190810160405280929190818152602001828054611c05906150d3565b8015611c525780601f10611c2757610100808354040283529160200191611c52565b820191906000526020600020905b815481529060010190602001808311611c3557829003601f168201915b50505050508152602001600482018054611c6b906150d3565b80601f0160208091040260200160405190810160405280929190818152602001828054611c97906150d3565b8015611ce45780601f10611cb957610100808354040283529160200191611ce4565b820191906000526020600020905b815481529060010190602001808311611cc757829003601f168201915b50505050508152602001600582015481526020016006820160009054906101000a900460ff166004811115611d1c57611d1b61520e565b5b6004811115611d2e57611d2d61520e565b5b81525050905060006004811115611d4857611d4761520e565b5b8160c001516004811115611d5f57611d5e61520e565b5b1415611dc9576000611d83600660008c815260200190815260200160002054610843565b5050509050600115158115151415611dc75760018260c001906004811115611dae57611dad61520e565b5b90816004811115611dc257611dc161520e565b5b815250505b505b806000015181602001518260400151836060015184608001518560a001518660c00151975097509750975097509750975050919395979092949650565b6000806000611e148461314e565b915050600092506000915060005b600d80549050811015611f665781600d8281548110611e4457611e4361526c565b5b906000526020600020906006020160000154148015611eb9575060026003811115611e7257611e7161520e565b5b600d8281548110611e8657611e8561526c565b5b906000526020600020906006020160050160009054906101000a900460ff166003811115611eb757611eb661520e565b5b145b15611f5357600d8181548110611ed257611ed161526c565b5b90600052602060002090600602016002015484611eef9190614ea0565b935042600d8281548110611f0657611f0561526c565b5b9060005260206000209060060201600301541015611f5257600d8181548110611f3257611f3161526c565b5b90600052602060002090600602016002015483611f4f9190614ea0565b92505b5b8080611f5e90615136565b915050611e22565b5050915091565b60606000806060600042905060005b600180549050811015611fd7578160018281548110611f9e57611f9d61526c565b5b90600052602060002090600602016004015410611fc4578380611fc090615136565b9450505b8080611fcf90615136565b915050611f7c565b508267ffffffffffffffff811115611ff257611ff161529b565b5b6040519080825280602002602001820160405280156120205781602001602082028036833780820191505090505b50915060005b6001805490508110156120a15781600182815481106120485761204761526c565b5b9060005260206000209060060201600401541061208e57808386815181106120735761207261526c565b5b602002602001018181525050848061208a90615136565b9550505b808061209990615136565b915050612026565b508194505050505090565b600080806120b98461314e565b9150915060011515821515141561212f57600260048111156120de576120dd61520e565b5b600482815481106120f2576120f161526c565b5b906000526020600020906007020160060160009054906101000a900460ff1660048111156121235761212261520e565b5b141561212e57600192505b5b5050919050565b60011515612143336120ac565b151514612185576040517f08c379a000000000000000000000000000000000000000000000000000000000815260040161217c90614c22565b60405180910390fd5b60006121903361314e565b91505060006040518060e001604052808381526020018773ffffffffffffffffffffffffffffffffffffffff168152602001868152602001858152602001848152602001428152602001600060048111156121ee576121ed61520e565b5b815250905060048190806001815401808255809150506001900390600052602060002090600702016000909190919091506000820151816000015560208201518160010160006101000a81548173ffffffffffffffffffffffffffffffffffffffff021916908373ffffffffffffffffffffffffffffffffffffffff160217905550604082015181600201908051906020019061228c9291906140e8565b5060608201518160030190805190602001906122a99291906140e8565b5060808201518160040190805190602001906122c69291906140e8565b5060a0820151816005015560c08201518160060160006101000a81548160ff021916908360048111156122fc576122fb61520e565b5b02179055505050600060016004805490506123179190614f81565b90506005600082815260200190815260200160002060405180604001604052808460c00151600481111561234e5761234d61520e565b5b81526020018460a00151815250908060018154018082558091505060019003906000526020600020906002020160009091909190915060008201518160000160006101000a81548160ff021916908360048111156123af576123ae61520e565b5b02179055506020820151816001015550506123c981613724565b50505050505050565b600080600091506000905060005b600d805490508110156124f457600260038111156124015761240061520e565b5b600d82815481106124155761241461526c565b5b906000526020600020906006020160050160009054906101000a900460ff1660038111156124465761244561520e565b5b14156124e157600d81815481106124605761245f61526c565b5b9060005260206000209060060201600201548361247d9190614ea0565b925042600d82815481106124945761249361526c565b5b90600052602060002090600602016003015410156124e057600d81815481106124c0576124bf61526c565b5b906000526020600020906006020160020154826124dd9190614ea0565b91505b5b80806124ec90615136565b9150506123e0565b509091565b60008060006125073361314e565b9150506000806000612517610af7565b90506000612523610d97565b90506000828260646125359190614f27565b61253f9190614ef6565b905060008098505b60008211801561255657508989105b801561257557506000600e600088815260200190815260200160002054115b1561279457859450600e600087815260200190815260200160002054955086600d87815481106125a8576125a761526c565b5b906000526020600020906006020160000154141561275b57888a6125cc9190614f81565b9050808210156125da578190505b80600d87815481106125ef576125ee61526c565b5b90600052602060002090600602016002015411156126825780600d878154811061261c5761261b61526c565b5b9060005260206000209060060201600201546126389190614f81565b600d878154811061264c5761264b61526c565b5b906000526020600020906006020160020181905550808961266d9190614ea0565b9850808261267b9190614f81565b9150612756565b600d86815481106126965761269561526c565b5b906000526020600020906006020160020154896126b39190614ea0565b9850600d86815481106126c9576126c861526c565b5b906000526020600020906006020160020154826126e69190614f81565b91506000600d87815481106126fe576126fd61526c565b5b906000526020600020906006020160020181905550600e600087815260200190815260200160002054600e600087815260200190815260200160002081905550600e6000878152602001908152602001600020600090555b61278f565b600d868154811061276f5761276e61526c565b5b9060005260206000209060060201600201548261278c9190614f81565b91505b612547565b6064848a6127a29190614f27565b6127ac9190614ef6565b97506127b788613b69565b50505050505050915091565b6060600060405180608001604052806040518060400160405280600f81526020017f70656e64656e7465566f746163616f000000000000000000000000000000000081525081526020016040518060400160405280601281526020017f70656e64656e74654566657469766163616f000000000000000000000000000081525081526020016040518060400160405280600581526020017f617469766f00000000000000000000000000000000000000000000000000000081525081526020016040518060400160405280600881526020017f726563757361646f00000000000000000000000000000000000000000000000081525081525090508083600481106128d1576128d061526c565b5b6020020151915050919050565b6060600080606060005b6008805490508110156129a857600060038111156129095761290861520e565b5b6008828154811061291d5761291c61526c565b5b90600052602060002090600a020160000160009054906101000a900460ff16600381111561294e5761294d61520e565b5b14156129955760006129726009600084815260200190815260200160002054610843565b505050905060011515811515141561299357838061298f90615136565b9450505b505b80806129a090615136565b9150506128e8565b508167ffffffffffffffff8111156129c3576129c261529b565b5b6040519080825280602002602001820160405280156129f15781602001602082028036833780820191505090505b50905060005b600880549050811015612ad75760006003811115612a1857612a1761520e565b5b60088281548110612a2c57612a2b61526c565b5b90600052602060002090600a020160000160009054906101000a900460ff166003811115612a5d57612a5c61520e565b5b1415612ac4576000612a816009600084815260200190815260200160002054610843565b5050509050600115158115151415612ac25781838681518110612aa757612aa661526c565b5b6020026020010181815250508480612abe90615136565b9550505b505b8080612acf90615136565b9150506129f7565b5080935050505090565b6000806000612b026009600086815260200190815260200160002054610843565b50509150915060006003811115612b1c57612b1b61520e565b5b60088581548110612b3057612b2f61526c565b5b90600052602060002090600a020160000160009054906101000a900460ff166003811115612b6157612b6061520e565b5b148015612b72575060011515821515145b15612c2757600115158115151415612bd757600260088581548110612b9a57612b9961526c565b5b90600052602060002090600a020160000160006101000a81548160ff02191690836003811115612bcd57612bcc61520e565b5b0217905550612c26565b600360088581548110612bed57612bec61526c565b5b90600052602060002090600a020160000160006101000a81548160ff02191690836003811115612c2057612c1f61520e565b5b02179055505b5b6000612c323361314e565b9150508060088681548110612c4a57612c4961526c565b5b90600052602060002090600a0201600201819055504260088681548110612c7457612c7361526c565b5b90600052602060002090600a02016008018190555060019350505050919050565b600060011515612ca4856120ac565b151514612ce6576040517f08c379a0000000000000000000000000000000000000000000000000000000008152600401612cdd90614c42565b60405180910390fd5b6000612cf18561314e565b915050600d6040518060c0016040528083815260200186815260200186815260200185815260200142815260200160006003811115612d3357612d3261520e565b5b8152509080600181540180825580915050600190039060005260206000209060060201600090919091909150600082015181600001556020820151816001015560408201518160020155606082015181600301556080820151816004015560a08201518160050160006101000a81548160ff02191690836003811115612dbc57612dbb61520e565b5b021790555050506001600d80549050612dd59190614f81565b9150612de082613bf5565b509392505050565b6060600060048054905067ffffffffffffffff811115612e0b57612e0a61529b565b5b604051908082528060200260200182016040528015612e395781602001602082028036833780820191505090505b50905060005b600480549050811015612e7f5780828281518110612e6057612e5f61526c565b5b6020026020010181815250508080612e7790615136565b915050612e3f565b508091505090565b6000806000806000806000600d8881548110612ea657612ea561526c565b5b90600052602060002090600602016040518060c001604052908160008201548152602001600182015481526020016002820154815260200160038201548152602001600482015481526020016005820160009054906101000a900460ff166003811115612f1657612f1561520e565b5b6003811115612f2857612f2761520e565b5b81525050905060006003811115612f4257612f4161520e565b5b8160a001516003811115612f5957612f5861520e565b5b1415612fc3576000612f7d600f60008b815260200190815260200160002054610843565b5050509050600115158115151415612fc15760018260a001906003811115612fa857612fa761520e565b5b90816003811115612fbc57612fbb61520e565b5b815250505b505b806000015196508681602001519650868260400151965086836060015196508684608001519650868560a001519650965096509650965096505091939550919395565b600080600090506000600e6000838152602001908152602001600020549050600192505b60011561314657828061303c90615136565b935050600d84815481106130535761305261526c565b5b906000526020600020906006020160030154600d83815481106130795761307861526c565b5b9060005260206000209060060201600301541080156130e15750600d84815481106130a7576130a661526c565b5b906000526020600020906006020160030154600d82815481106130cd576130cc61526c565b5b906000526020600020906006020160030154115b806130ec5750600081145b156131285783600e60008481526020019081526020016000208190555080600e6000868152602001908152602001600020819055505050613149565b809150600e600083815260200190815260200160002054905061302a565b50505b919050565b6000806000915060005b6004805490508110156131fe578373ffffffffffffffffffffffffffffffffffffffff16600482815481106131905761318f61526c565b5b906000526020600020906007020160010160009054906101000a900473ffffffffffffffffffffffffffffffffffffffff1673ffffffffffffffffffffffffffffffffffffffff1614156131eb576001925080915050613200565b80806131f690615136565b915050613158565b505b915091565b806004838154811061321a5761321961526c565b5b906000526020600020906007020160060160006101000a81548160ff0219169083600481111561324d5761324c61520e565b5b02179055506005600083815260200190815260200160002060405180604001604052808360048111156132835761328261520e565b5b815260200142815250908060018154018082558091505060019003906000526020600020906002020160009091909190915060008201518160000160006101000a81548160ff021916908360048111156132e0576132df61520e565b5b02179055506020820151816001015550505050565b60006008828154811061330b5761330a61526c565b5b90600052602060002090600a0201604051806101600160405290816000820160009054906101000a900460ff16600381111561334a5761334961520e565b5b600381111561335c5761335b61520e565b5b81526020016000820160019054906101000a900460ff1660018111156133855761338461520e565b5b60018111156133975761339661520e565b5b815260200160018201548152602001600282015481526020016003820180546133bf906150d3565b80601f01602080910402602001604051908101604052809291908181526020018280546133eb906150d3565b80156134385780601f1061340d57610100808354040283529160200191613438565b820191906000526020600020905b81548152906001019060200180831161341b57829003601f168201915b50505050508152602001600482018054613451906150d3565b80601f016020809104026020016040519081016040528092919081815260200182805461347d906150d3565b80156134ca5780601f1061349f576101008083540402835291602001916134ca565b820191906000526020600020905b8154815290600101906020018083116134ad57829003601f168201915b50505050508152602001600582015481526020016006820180546134ed906150d3565b80601f0160208091040260200160405190810160405280929190818152602001828054613519906150d3565b80156135665780601f1061353b57610100808354040283529160200191613566565b820191906000526020600020905b81548152906001019060200180831161354957829003601f168201915b5050505050815260200160078201548152602001600882015481526020016009820154815250509050600081608001516040516020016135a69190614a04565b604051602081830303815290604052905060008260a001516040516020016135ce9190614a26565b60405160208183030381529060405290506000600267ffffffffffffffff8111156135fc576135fb61529b565b5b60405190808252806020026020018201604052801561362f57816020015b606081526020019060019003908161361a5790505b5090506040518060400160405280600781526020017f62616e6b696e67000000000000000000000000000000000000000000000000008152508160008151811061367c5761367b61526c565b5b60200260200101819052506040518060400160405280601681526020017f6d6f76696d656e746163616f46696e616e636569726100000000000000000000815250816001815181106136d1576136d061526c565b5b60200260200101819052506000600b548561014001516136f19190614ea0565b9050600061370185858585613e48565b905080600960008981526020019081526020016000208190555050505050505050565b60006004828154811061373a5761373961526c565b5b90600052602060002090600702016040518060e0016040529081600082015481526020016001820160009054906101000a900473ffffffffffffffffffffffffffffffffffffffff1673ffffffffffffffffffffffffffffffffffffffff1673ffffffffffffffffffffffffffffffffffffffff1681526020016002820180546137c3906150d3565b80601f01602080910402602001604051908101604052809291908181526020018280546137ef906150d3565b801561383c5780601f106138115761010080835404028352916020019161383c565b820191906000526020600020905b81548152906001019060200180831161381f57829003601f168201915b50505050508152602001600382018054613855906150d3565b80601f0160208091040260200160405190810160405280929190818152602001828054613881906150d3565b80156138ce5780601f106138a3576101008083540402835291602001916138ce565b820191906000526020600020905b8154815290600101906020018083116138b157829003601f168201915b505050505081526020016004820180546138e7906150d3565b80601f0160208091040260200160405190810160405280929190818152602001828054613913906150d3565b80156139605780601f1061393557610100808354040283529160200191613960565b820191906000526020600020905b81548152906001019060200180831161394357829003601f168201915b50505050508152602001600582015481526020016006820160009054906101000a900460ff1660048111156139985761399761520e565b5b60048111156139aa576139a961520e565b5b8152505090506000816040015160048360000151815481106139cf576139ce61526c565b5b90600052602060002090600702016002016040516020016139f1929190614978565b604051602081830303815290604052905060606000600267ffffffffffffffff811115613a2157613a2061529b565b5b604051908082528060200260200182016040528015613a5457816020015b6060815260200190600190039081613a3f5790505b5090506040518060400160405280600781526020017f706172746e65720000000000000000000000000000000000000000000000000081525081600081518110613aa157613aa061526c565b5b60200260200101819052506040518060400160405280600881526020017f616464536f63696f00000000000000000000000000000000000000000000000081525081600181518110613af657613af561526c565b5b6020026020010181905250600060075460048781548110613b1a57613b1961526c565b5b906000526020600020906007020160050154613b369190614ea0565b90506000613b4685858585613e48565b905080600660008981526020019081526020016000208190555050505050505050565b613bf160006040518060400160405280601381526020017f4c69717569646163616f20646520546f6b656e0000000000000000000000000081525060405180602001604052806000815250846040518060400160405280600581526020017f636f6e746100000000000000000000000000000000000000000000000000000081525042611106565b5050565b6000600d8281548110613c0b57613c0a61526c565b5b90600052602060002090600602016040518060c001604052908160008201548152602001600182015481526020016002820154815260200160038201548152602001600482015481526020016005820160009054906101000a900460ff166003811115613c7b57613c7a61520e565b5b6003811115613c8d57613c8c61520e565b5b8152505090506000613ca28260000151611a9d565b50505050925050506000613cb53361314e565b9150506000613cc382611a9d565b50505050925050506000613cda8560200151613f87565b8483604051602001613cee939291906149b2565b604051602081830303815290604052905060606000600267ffffffffffffffff811115613d1e57613d1d61529b565b5b604051908082528060200260200182016040528015613d5157816020015b6060815260200190600190039081613d3c5790505b5090506040518060400160405280600581526020017f746f6b656e00000000000000000000000000000000000000000000000000000081525081600081518110613d9e57613d9d61526c565b5b60200260200101819052506040518060400160405280600881526020017f616464546f6b656e00000000000000000000000000000000000000000000000081525081600181518110613df357613df261526c565b5b602002602001018190525060006010548860800151613e129190614ea0565b90506000613e2285858585613e48565b905080600f60008c81526020019081526020016000208190555050505050505050505050565b600060016040518060c001604052803373ffffffffffffffffffffffffffffffffffffffff16815260200187815260200186815260200185815260200184815260200142815250908060018154018082558091505060019003906000526020600020906006020160009091909190915060008201518160000160006101000a81548173ffffffffffffffffffffffffffffffffffffffff021916908373ffffffffffffffffffffffffffffffffffffffff1602179055506020820151816001019080519060200190613f1b9291906140e8565b506040820151816002019080519060200190613f389291906140e8565b506060820151816003019080519060200190613f5592919061416e565b506080820151816004015560a08201518160050155505060018080549050613f7d9190614f81565b9050949350505050565b60606000821415613fcf576040518060400160405280600181526020017f300000000000000000000000000000000000000000000000000000000000000081525090506140e3565b600082905060005b60008214614001578080613fea90615136565b915050600a82613ffa9190614ef6565b9150613fd7565b60008167ffffffffffffffff81111561401d5761401c61529b565b5b6040519080825280601f01601f19166020018201604052801561404f5781602001600182028036833780820191505090505b5090505b600085146140dc576001826140689190614f81565b9150600a85614077919061517f565b60306140839190614ea0565b60f81b8183815181106140995761409861526c565b5b60200101907effffffffffffffffffffffffffffffffffffffffffffffffffffffffffffff1916908160001a905350600a856140d59190614ef6565b9450614053565b8093505050505b919050565b8280546140f4906150d3565b90600052602060002090601f016020900481019282614116576000855561415d565b82601f1061412f57805160ff191683800117855561415d565b8280016001018555821561415d579182015b8281111561415c578251825591602001919060010190614141565b5b50905061416a91906141ce565b5090565b8280548282559060005260206000209081019282156141bd579160200282015b828111156141bc5782518290805190602001906141ac9291906140e8565b509160200191906001019061418e565b5b5090506141ca91906141eb565b5090565b5b808211156141e75760008160009055506001016141cf565b5090565b5b8082111561420b5760008181614202919061420f565b506001016141ec565b5090565b50805461421b906150d3565b6000825580601f1061422d575061424c565b601f01602090049060005260206000209081019061424b91906141ce565b5b50565b600061426261425d84614db0565b614d8b565b90508281526020810184848401111561427e5761427d6152cf565b5b614289848285615091565b509392505050565b6000813590506142a0816154f9565b92915050565b6000813590506142b581615510565b92915050565b600082601f8301126142d0576142cf6152ca565b5b81356142e084826020860161424f565b91505092915050565b6000813590506142f881615520565b92915050565b600060208284031215614314576143136152d9565b5b600061432284828501614291565b91505092915050565b60008060008060808587031215614345576143446152d9565b5b600061435387828801614291565b945050602085013567ffffffffffffffff811115614374576143736152d4565b5b614380878288016142bb565b935050604085013567ffffffffffffffff8111156143a1576143a06152d4565b5b6143ad878288016142bb565b925050606085013567ffffffffffffffff8111156143ce576143cd6152d4565b5b6143da878288016142bb565b91505092959194509250565b600080604083850312156143fd576143fc6152d9565b5b600061440b85828601614291565b925050602061441c858286016142e9565b9150509250929050565b60008060006060848603121561443f5761443e6152d9565b5b600061444d86828701614291565b935050602061445e868287016142e9565b925050604061446f868287016142e9565b9150509250925092565b60008060008060008060c08789031215614496576144956152d9565b5b60006144a489828a016142a6565b965050602087013567ffffffffffffffff8111156144c5576144c46152d4565b5b6144d189828a016142bb565b955050604087013567ffffffffffffffff8111156144f2576144f16152d4565b5b6144fe89828a016142bb565b945050606061450f89828a016142e9565b935050608087013567ffffffffffffffff8111156145305761452f6152d4565b5b61453c89828a016142bb565b92505060a061454d89828a016142e9565b9150509295509295509295565b6000602082840312156145705761456f6152d9565b5b600061457e848285016142e9565b91505092915050565b6000806040838503121561459e5761459d6152d9565b5b60006145ac858286016142e9565b92505060206145bd85828601614291565b9150509250929050565b60006145d38383614720565b905092915050565b60006145e7838361495a565b60208301905092915050565b6145fc81614fb5565b82525050565b600061460d82614e16565b6146178185614e51565b93508360208202850161462985614de1565b8060005b85811015614665578484038952815161464685826145c7565b945061465183614e37565b925060208a0199505060018101905061462d565b50829750879550505050505092915050565b600061468282614e21565b61468c8185614e62565b935061469783614df1565b8060005b838110156146c85781516146af88826145db565b97506146ba83614e44565b92505060018101905061469b565b5085935050505092915050565b6146de81614fc7565b82525050565b6146ed81615049565b82525050565b6146fc8161505b565b82525050565b61470b8161506d565b82525050565b61471a8161507f565b82525050565b600061472b82614e2c565b6147358185614e73565b93506147458185602086016150a0565b61474e816152de565b840191505092915050565b600061476482614e2c565b61476e8185614e84565b935061477e8185602086016150a0565b614787816152de565b840191505092915050565b600061479d82614e2c565b6147a78185614e95565b93506147b78185602086016150a0565b80840191505092915050565b600081546147d0816150d3565b6147da8186614e95565b945060018216600081146147f5576001811461480657614839565b60ff19831686528186019350614839565b61480f85614e01565b60005b8381101561483157815481890152600182019150602081019050614812565b838801955050505b50505092915050565b600061484f600983614e95565b915061485a826152ef565b600982019050919050565b6000614872600c83614e95565b915061487d82615318565b600c82019050919050565b6000614895603283614e84565b91506148a082615341565b604082019050919050565b60006148b8600b83614e95565b91506148c382615390565b600b82019050919050565b60006148db602383614e84565b91506148e6826153b9565b604082019050919050565b60006148fe602183614e95565b915061490982615408565b602182019050919050565b6000614921601983614e95565b915061492c82615457565b601982019050919050565b6000614944600b83614e95565b915061494f82615480565b600b82019050919050565b6149638161503f565b82525050565b6149728161503f565b82525050565b600061498382614865565b915061498f8285614792565b915061499a826148ab565b91506149a682846147c3565b91508190509392505050565b60006149bd826148f1565b91506149c98286614792565b91506149d482614842565b91506149e08285614792565b91506149eb826148ab565b91506149f78284614792565b9150819050949350505050565b6000614a0f82614914565b9150614a1b8284614792565b915081905092915050565b6000614a3182614937565b9150614a3d8284614792565b915081905092915050565b600060c082019050614a5d60008301896145f3565b8181036020830152614a6f8188614759565b90508181036040830152614a838187614759565b90508181036060830152614a978186614602565b9050614aa66080830185614969565b614ab360a0830184614969565b979650505050505050565b60006020820190508181036000830152614ad88184614677565b905092915050565b6000602082019050614af560008301846146d5565b92915050565b6000608082019050614b1060008301876146d5565b614b1d60208301866146d5565b614b2a6040830185614969565b614b376060830184614969565b95945050505050565b600061016082019050614b56600083018e6146f3565b614b63602083018d614711565b614b70604083018c614969565b614b7d606083018b614969565b8181036080830152614b8f818a614759565b905081810360a0830152614ba38189614759565b9050614bb260c0830188614969565b81810360e0830152614bc48187614759565b9050614bd4610100830186614969565b614be2610120830185614969565b614bf0610140830184614969565b9c9b505050505050505050505050565b60006020820190508181036000830152614c1a8184614759565b905092915050565b60006020820190508181036000830152614c3b81614888565b9050919050565b60006020820190508181036000830152614c5b816148ce565b9050919050565b6000602082019050614c776000830184614969565b92915050565b600060e082019050614c92600083018a614969565b614c9f60208301896145f3565b8181036040830152614cb18188614759565b90508181036060830152614cc58187614759565b90508181036080830152614cd98186614759565b9050614ce860a0830185614969565b614cf560c0830184614702565b98975050505050505050565b6000604082019050614d166000830185614969565b614d236020830184614969565b9392505050565b600060c082019050614d3f6000830189614969565b614d4c6020830188614969565b614d596040830187614969565b614d666060830186614969565b614d736080830185614969565b614d8060a08301846146e4565b979650505050505050565b6000614d95614da6565b9050614da18282615105565b919050565b6000604051905090565b600067ffffffffffffffff821115614dcb57614dca61529b565b5b614dd4826152de565b9050602081019050919050565b6000819050602082019050919050565b6000819050602082019050919050565b60008190508160005260206000209050919050565b600081519050919050565b600081519050919050565b600081519050919050565b6000602082019050919050565b6000602082019050919050565b600082825260208201905092915050565b600082825260208201905092915050565b600082825260208201905092915050565b600082825260208201905092915050565b600081905092915050565b6000614eab8261503f565b9150614eb68361503f565b9250827fffffffffffffffffffffffffffffffffffffffffffffffffffffffffffffffff03821115614eeb57614eea6151b0565b5b828201905092915050565b6000614f018261503f565b9150614f0c8361503f565b925082614f1c57614f1b6151df565b5b828204905092915050565b6000614f328261503f565b9150614f3d8361503f565b9250817fffffffffffffffffffffffffffffffffffffffffffffffffffffffffffffffff0483118215151615614f7657614f756151b0565b5b828202905092915050565b6000614f8c8261503f565b9150614f978361503f565b925082821015614faa57614fa96151b0565b5b828203905092915050565b6000614fc08261501f565b9050919050565b60008115159050919050565b6000819050614fe1826154a9565b919050565b6000819050614ff4826154bd565b919050565b6000819050615007826154d1565b919050565b600081905061501a826154e5565b919050565b600073ffffffffffffffffffffffffffffffffffffffff82169050919050565b6000819050919050565b600061505482614fd3565b9050919050565b600061506682614fe6565b9050919050565b600061507882614ff9565b9050919050565b600061508a8261500c565b9050919050565b82818337600083830152505050565b60005b838110156150be5780820151818401526020810190506150a3565b838111156150cd576000848401525b50505050565b600060028204905060018216806150eb57607f821691505b602082108114156150ff576150fe61523d565b5b50919050565b61510e826152de565b810181811067ffffffffffffffff8211171561512d5761512c61529b565b5b80604052505050565b60006151418261503f565b91507fffffffffffffffffffffffffffffffffffffffffffffffffffffffffffffffff821415615174576151736151b0565b5b600182019050919050565b600061518a8261503f565b91506151958361503f565b9250826151a5576151a46151df565b5b828206905092915050565b7f4e487b7100000000000000000000000000000000000000000000000000000000600052601160045260246000fd5b7f4e487b7100000000000000000000000000000000000000000000000000000000600052601260045260246000fd5b7f4e487b7100000000000000000000000000000000000000000000000000000000600052602160045260246000fd5b7f4e487b7100000000000000000000000000000000000000000000000000000000600052602260045260246000fd5b7f4e487b7100000000000000000000000000000000000000000000000000000000600052603260045260246000fd5b7f4e487b7100000000000000000000000000000000000000000000000000000000600052604160045260246000fd5b600080fd5b600080fd5b600080fd5b600080fd5b6000601f19601f8301169050919050565b7f3f3f3f2070617261200000000000000000000000000000000000000000000000600082015250565b7f496e636c7573616f20646f200000000000000000000000000000000000000000600082015250565b7f4170656e617320736f63696f7320617469766f7320706f64656d20616469636960008201527f6f6e6172206e6f766f7320736f63696f73210000000000000000000000000000602082015250565b7f20666569746120706f7220000000000000000000000000000000000000000000600082015250565b7f4170656e617320736f63696f7320706f64656d207265636562657220746f6b6560008201527f6e73210000000000000000000000000000000000000000000000000000000000602082015250565b7f496e636c7573616f20646520636f6e747261746f20646520546f6b656e20646560008201527f2000000000000000000000000000000000000000000000000000000000000000602082015250565b7f4d6f76696d656e746163616f2066696e616e63656972613a2000000000000000600082015250565b7f44657363726963616f3a20000000000000000000000000000000000000000000600082015250565b600481106154ba576154b961520e565b5b50565b600481106154ce576154cd61520e565b5b50565b600581106154e2576154e161520e565b5b50565b600281106154f6576154f561520e565b5b50565b61550281614fb5565b811461550d57600080fd5b50565b6002811061551d57600080fd5b50565b6155298161503f565b811461553457600080fd5b5056fea2646970667358221220665edab64b406921d5d5ff81cab4d84cf4628e70fcf01fd0925d7f74960678c264736f6c63430008070033",
  "immutableReferences": {},
  "source": "//SPDX-License-Identifier: MIT\r\npragma solidity >=0.8.0 <0.9.0;\r\n\r\nimport \"./Banking.sol\";\r\nimport \"@openzeppelin/contracts/utils/Strings.sol\";\r\n\r\ncontract Token is Banking {\r\n    // Os tokens sao sempre vinculados com contratos e esses com data de liquidacao;\r\n    // Os tokens tem um valor mnimo;\r\n    // Caso no tenha saldo suficiente para liquidar todos os contratos j liberados, segue a \"fila\" conforme a data de liquidao\r\n    // A participacao dos scios  dinamica, considerando a quantidade total de tokens pela quantidade de tokens ue o socio tem\r\n    // Para as votaes, no sero considerados os tokens recebidos nos ltimos 30 dias\r\n    // Todos os valores financeiros nos contratos so armazenados sem virgula, ou seja, o valor * 100.\r\n\r\n    enum statusContratoToken {\r\n        pendenteVotacao,\r\n        pendenteEfetivacao,\r\n        ativo,\r\n        recusado\r\n    }\r\n\r\n    struct ContratoToken {\r\n        uint256 indexSocio;\r\n        uint256 quantidadeTokens;\r\n        uint256 quantidadeTokensRestante;\r\n        uint256 dataLiquidacao;\r\n        uint256 dataRegistro;\r\n        statusContratoToken status;\r\n    }\r\n\r\n    uint256 cotacaoMinima;\r\n\r\n    ContratoToken[] private contratosToken;\r\n    mapping(uint256 => uint256) private proximoContrato;\r\n    mapping(uint256 => uint256) votacoesContratos; //index Socio / index Votacao\r\n\r\n    uint256 private prazoVotacao;\r\n\r\n    constructor() {\r\n        cotacaoMinima = 3000;\r\n        prazoVotacao = 3 days;\r\n\r\n        contratosToken.push(\r\n            ContratoToken({\r\n                indexSocio: 0,\r\n                quantidadeTokens: 1,\r\n                quantidadeTokensRestante: 1,\r\n                dataLiquidacao: block.timestamp,\r\n                dataRegistro: block.timestamp,\r\n                status: statusContratoToken.ativo\r\n            })\r\n        );\r\n        proximoContrato[0] = 0;\r\n    }\r\n\r\n    function AddPropostaVotacaoToken(uint256 index) private {\r\n        ContratoToken memory contrato = contratosToken[index];\r\n        (, , string memory nomeSocio, , , , ) = Partner.GetSocio(\r\n            contrato.indexSocio\r\n        );\r\n        (, uint256 indexSocioInclusao) = Partner.GetIndexSocioByAddress(\r\n            msg.sender\r\n        );\r\n        (, , string memory nomeSocioInclusao, , , , ) = Partner.GetSocio(\r\n            indexSocioInclusao\r\n        );\r\n\r\n        string memory titulo = string(\r\n            abi.encodePacked(\r\n                \"Inclusao de contrato de Token de \",\r\n                Strings.toString(contrato.quantidadeTokens),\r\n                \"??? para \",\r\n                nomeSocio,\r\n                \" feita por \",\r\n                nomeSocioInclusao\r\n            )\r\n        );\r\n        string memory detalhe;\r\n        string[] memory tags = new string[](2);\r\n        tags[0] = \"token\";\r\n        tags[1] = \"addToken\";\r\n\r\n        uint256 dataTermino = contrato.dataRegistro + prazoVotacao;\r\n\r\n        uint256 _indexVotacao = AddPropostaVotacao(\r\n            titulo,\r\n            detalhe,\r\n            tags,\r\n            dataTermino\r\n        );\r\n        votacoesContratos[index] = _indexVotacao;\r\n    }\r\n\r\n    function GetContratosToken() public view returns (uint256[] memory) {\r\n        uint256[] memory arrayIndex = new uint256[](contratosToken.length);\r\n        uint256 index = 0;\r\n\r\n        for (uint256 i; i < contratosToken.length; i++) {\r\n            arrayIndex[index] = i;\r\n            index = proximoContrato[index];\r\n        }\r\n\r\n        return arrayIndex;\r\n    }\r\n\r\n    function GetContratoToken(uint256 index)\r\n        public\r\n        view\r\n        returns (\r\n            uint256 indexSocio,\r\n            uint256 quantidadeTokens,\r\n            uint256 quantidadeTokensRestante,\r\n            uint256 dataLiquidacao,\r\n            uint256 dataRegistro,\r\n            statusContratoToken status\r\n        )\r\n    {\r\n        ContratoToken memory contratoToken = contratosToken[index];\r\n\r\n        if (contratoToken.status == statusContratoToken.pendenteVotacao) {\r\n            (bool finalizada, , , ) = GetResultadoVotacao(\r\n                votacoesContratos[index]\r\n            );\r\n\r\n            if (finalizada == true) {\r\n                contratoToken.status = statusContratoToken.pendenteEfetivacao;\r\n            }\r\n        }\r\n\r\n        return (\r\n            indexSocio = contratoToken.indexSocio,\r\n            quantidadeTokens = contratoToken.quantidadeTokens,\r\n            quantidadeTokensRestante = contratoToken.quantidadeTokensRestante,\r\n            dataLiquidacao = contratoToken.dataLiquidacao,\r\n            dataRegistro = contratoToken.dataRegistro,\r\n            status = contratoToken.status\r\n        );\r\n    }\r\n\r\n    function GetCotacaoToken() public view returns (uint256 cotacao) {\r\n        (, uint256 liberados) = GetTotalTokens();\r\n        uint256 saldo = GetSaldoFundoTokens();\r\n\r\n        cotacao = (100 * saldo) / liberados;\r\n        if (cotacao < cotacaoMinima) {\r\n            cotacao = cotacaoMinima;\r\n        }\r\n\r\n        return cotacao;\r\n    }\r\n\r\n    function AddContratoToken(\r\n        address addressSocio,\r\n        uint256 quantidadeTokens,\r\n        uint256 dataLiquidacao\r\n    ) public returns (uint256 index) {\r\n        require(\r\n            Partner.SocioAtivo(addressSocio) == true,\r\n            \"Apenas socios podem receber tokens!\"\r\n        );\r\n\r\n        (, uint256 indexSocio) = GetIndexSocioByAddress(addressSocio);\r\n\r\n        contratosToken.push(\r\n            ContratoToken({\r\n                indexSocio: indexSocio,\r\n                quantidadeTokens: quantidadeTokens,\r\n                quantidadeTokensRestante: quantidadeTokens,\r\n                dataLiquidacao: dataLiquidacao,\r\n                dataRegistro: block.timestamp,\r\n                status: statusContratoToken.pendenteVotacao\r\n            })\r\n        );\r\n\r\n        index = contratosToken.length - 1;\r\n        AddPropostaVotacaoToken(index);\r\n    }\r\n\r\n    function EfetivarVotacaoToken(uint256 index) public {\r\n        //se tiver aguardando aprovacao e a votacao estiver encerrada, altera o status conforme o resultado;\r\n\r\n        (bool finalizada, bool resultado, , ) = GetResultadoVotacao(\r\n            votacoesContratos[index]\r\n        );\r\n\r\n        if (\r\n            contratosToken[index].status ==\r\n            statusContratoToken.pendenteVotacao &&\r\n            finalizada == true\r\n        ) {\r\n            if (resultado == true) {\r\n                contratosToken[index].status = statusContratoToken.ativo;\r\n                definirProximo(index);\r\n            } else {\r\n                contratosToken[index].status = statusContratoToken.recusado;\r\n            }\r\n        }\r\n    }\r\n\r\n    function definirProximo(uint256 index) private returns (uint256 posicao) {\r\n        uint256 indexAnterior = 0;\r\n        uint256 indexProximo = proximoContrato[indexAnterior];\r\n        posicao = 1;\r\n\r\n        while (true) {\r\n            posicao++;\r\n\r\n            if (\r\n                (contratosToken[indexAnterior].dataLiquidacao <\r\n                    contratosToken[index].dataLiquidacao &&\r\n                    contratosToken[indexProximo].dataLiquidacao >\r\n                    contratosToken[index].dataLiquidacao) || indexProximo == 0\r\n            ) {\r\n                proximoContrato[indexAnterior] = index;\r\n                proximoContrato[index] = indexProximo;\r\n\r\n                return posicao;\r\n            } else {\r\n                indexAnterior = indexProximo;\r\n                indexProximo = proximoContrato[indexAnterior];\r\n            }\r\n        }\r\n\r\n        return posicao;\r\n    }\r\n\r\n    function LiquidarToken(uint256 quantidadeDesejada)\r\n        public\r\n        returns (uint256 quantidadeLiquidada, uint256 valorLiquidado)\r\n    {\r\n        (, uint256 indexSocio) = GetIndexSocioByAddress(msg.sender);\r\n        uint256 index = 0;\r\n        uint256 indexAnterior = 0;\r\n\r\n        uint256 cotacaoToken = GetCotacaoToken();\r\n        uint256 saldoFinanceiro = GetSaldoFundoTokens();\r\n        uint256 quantidadeDisponiveis = (100 * saldoFinanceiro) / cotacaoToken;\r\n        uint256 quantidadePendente = 0;\r\n        quantidadeLiquidada = 0;\r\n\r\n        while (\r\n            quantidadeDisponiveis > 0 &&\r\n            quantidadeLiquidada < quantidadeDesejada &&\r\n            proximoContrato[index] > 0\r\n        ) {\r\n            indexAnterior = index;\r\n            index = proximoContrato[index];\r\n\r\n            if (contratosToken[index].indexSocio == indexSocio) {\r\n                quantidadePendente = quantidadeDesejada - quantidadeLiquidada;\r\n\r\n                if (quantidadeDisponiveis < quantidadePendente) {\r\n                    quantidadePendente = quantidadeDisponiveis;\r\n                }\r\n\r\n                if (\r\n                    contratosToken[index].quantidadeTokensRestante >\r\n                    quantidadePendente\r\n                ) {\r\n                    contratosToken[index].quantidadeTokensRestante =\r\n                        contratosToken[index].quantidadeTokensRestante -\r\n                        quantidadePendente;\r\n\r\n                    quantidadeLiquidada =\r\n                        quantidadeLiquidada +\r\n                        quantidadePendente;\r\n                    quantidadeDisponiveis =\r\n                        quantidadeDisponiveis -\r\n                        quantidadePendente;\r\n                } else {\r\n                    quantidadeLiquidada =\r\n                        quantidadeLiquidada +\r\n                        contratosToken[index].quantidadeTokensRestante;\r\n                    quantidadeDisponiveis =\r\n                        quantidadeDisponiveis -\r\n                        contratosToken[index].quantidadeTokensRestante;\r\n\r\n                    contratosToken[index].quantidadeTokensRestante = 0;\r\n                    proximoContrato[indexAnterior] = proximoContrato[index];\r\n                    delete proximoContrato[index];\r\n                }\r\n            } else {\r\n                quantidadeDisponiveis =\r\n                    quantidadeDisponiveis -\r\n                    contratosToken[index].quantidadeTokensRestante;\r\n            }\r\n        }\r\n\r\n        valorLiquidado = (quantidadeLiquidada * cotacaoToken) / 100;\r\n        PagamentoTokensLiquidados(valorLiquidado);\r\n\r\n        return (quantidadeLiquidada, valorLiquidado);\r\n    }\r\n\r\n    function PagamentoTokensLiquidados(uint256 valorLiquidado) private {\r\n        AddMovimentacaoFinanceira(\r\n            tipoMovimentacaoFinanceira.pagar,\r\n            \"Liquidacao de Token\",\r\n            \"\",\r\n            valorLiquidado,\r\n            \"conta\",\r\n            block.timestamp\r\n        );\r\n    }\r\n\r\n    function GetTokensPorSocio(address addressSocio)\r\n        public\r\n        view\r\n        returns (uint256 total, uint256 liberados)\r\n    {\r\n        (, uint256 indexSocio) = GetIndexSocioByAddress(addressSocio);\r\n        total = 0;\r\n        liberados = 0;\r\n\r\n        for (uint256 i = 0; i < contratosToken.length; i++) {\r\n            if (\r\n                contratosToken[i].indexSocio == indexSocio &&\r\n                contratosToken[i].status == statusContratoToken.ativo\r\n            ) {\r\n                total = total + contratosToken[i].quantidadeTokensRestante;\r\n                if (contratosToken[i].dataLiquidacao < block.timestamp) {\r\n                    liberados =\r\n                        liberados +\r\n                        contratosToken[i].quantidadeTokensRestante;\r\n                }\r\n            }\r\n        }\r\n\r\n        return (total, liberados);\r\n    }\r\n\r\n    function GetTokensPorSocioPorData(address addressSocio, uint256 data)\r\n        public\r\n        view\r\n        returns (uint256 total)\r\n    {\r\n        (, uint256 indexSocio) = GetIndexSocioByAddress(addressSocio);\r\n        total = 0;\r\n\r\n        for (uint256 i = 0; i < contratosToken.length; i++) {\r\n            if (\r\n                contratosToken[i].indexSocio == indexSocio &&\r\n                contratosToken[i].status == statusContratoToken.ativo &&\r\n                contratosToken[i].dataRegistro < data\r\n            ) {\r\n                total = total + contratosToken[i].quantidadeTokensRestante;\r\n            }\r\n        }\r\n\r\n        return (total);\r\n    }\r\n\r\n    function GetTotalTokens()\r\n        public\r\n        view\r\n        returns (uint256 total, uint256 liberados)\r\n    {\r\n        total = 0;\r\n        liberados = 0;\r\n\r\n        for (uint256 i = 0; i < contratosToken.length; i++) {\r\n            if (contratosToken[i].status == statusContratoToken.ativo) {\r\n                total = total + contratosToken[i].quantidadeTokensRestante;\r\n                if (contratosToken[i].dataLiquidacao < block.timestamp) {\r\n                    liberados =\r\n                        liberados +\r\n                        contratosToken[i].quantidadeTokensRestante;\r\n                }\r\n            }\r\n        }\r\n\r\n        return (total, liberados);\r\n    }\r\n\r\n    function GetTotalTokensPorData(uint256 data)\r\n        public\r\n        view\r\n        returns (uint256 total)\r\n    {\r\n        total = 0;\r\n\r\n        for (uint256 i = 0; i < contratosToken.length; i++) {\r\n            if (\r\n                contratosToken[i].status == statusContratoToken.ativo &&\r\n                contratosToken[i].dataRegistro < data\r\n            ) {\r\n                total = total + contratosToken[i].quantidadeTokensRestante;\r\n            }\r\n        }\r\n\r\n        return (total);\r\n    }\r\n}\r\n",
  "sourcePath": "C:\\projetos\\dao7\\contracts\\contracts\\Token.sol",
  "compiler": {
    "name": "solc",
    "version": "0.8.7+commit.e28d00a7.Emscripten.clang"
  },
  "schemaVersion": "3.4.3",
  "updatedAt": "2021-11-02T19:30:46.540Z",
  "devdoc": {
    "kind": "dev",
    "methods": {},
    "version": 1
  },
  "userdoc": {
    "kind": "user",
    "methods": {},
    "version": 1
  }
}