{
  "contractName": "Utils",
  "abi": [
    {
      "inputs": [
        {
          "internalType": "uint256",
          "name": "_i",
          "type": "uint256"
        }
      ],
      "name": "uintToString",
      "outputs": [
        {
          "internalType": "string",
          "name": "_uintAsString",
          "type": "string"
        }
      ],
      "stateMutability": "pure",
      "type": "function"
    }
  ],
  "bytecode": "0x608060405234801561001057600080fd5b50610544806100206000396000f3fe608060405234801561001057600080fd5b506004361061002b5760003560e01c8063e939567914610030575b600080fd5b61004a600480360381019061004591906101e5565b610060565b604051610057919061024b565b60405180910390f35b606060008214156100a8576040518060400160405280600181526020017f300000000000000000000000000000000000000000000000000000000000000081525090506101cb565b600082905060005b600082146100da5780806100c3906103ab565b915050600a826100d391906102df565b91506100b0565b60008167ffffffffffffffff8111156100f6576100f56104b2565b5b6040519080825280601f01601f1916602001820160405280156101285781602001600182028036833780820191505090505b509050600060018361013a9190610310565b90505b600086146101c357600a8661015291906103f4565b603061015e9190610289565b60f81b82828061016d90610381565b9350815181106101805761017f610483565b5b60200101907effffffffffffffffffffffffffffffffffffffffffffffffffffffffffffff1916908160001a905350600a866101bc91906102df565b955061013d565b819450505050505b919050565b6000813590506101df816104f7565b92915050565b6000602082840312156101fb576101fa6104e1565b5b6000610209848285016101d0565b91505092915050565b600061021d8261026d565b6102278185610278565b935061023781856020860161034e565b610240816104e6565b840191505092915050565b600060208201905081810360008301526102658184610212565b905092915050565b600081519050919050565b600082825260208201905092915050565b600061029482610344565b915061029f83610344565b9250827fffffffffffffffffffffffffffffffffffffffffffffffffffffffffffffffff038211156102d4576102d3610425565b5b828201905092915050565b60006102ea82610344565b91506102f583610344565b92508261030557610304610454565b5b828204905092915050565b600061031b82610344565b915061032683610344565b92508282101561033957610338610425565b5b828203905092915050565b6000819050919050565b60005b8381101561036c578082015181840152602081019050610351565b8381111561037b576000848401525b50505050565b600061038c82610344565b915060008214156103a05761039f610425565b5b600182039050919050565b60006103b682610344565b91507fffffffffffffffffffffffffffffffffffffffffffffffffffffffffffffffff8214156103e9576103e8610425565b5b600182019050919050565b60006103ff82610344565b915061040a83610344565b92508261041a57610419610454565b5b828206905092915050565b7f4e487b7100000000000000000000000000000000000000000000000000000000600052601160045260246000fd5b7f4e487b7100000000000000000000000000000000000000000000000000000000600052601260045260246000fd5b7f4e487b7100000000000000000000000000000000000000000000000000000000600052603260045260246000fd5b7f4e487b7100000000000000000000000000000000000000000000000000000000600052604160045260246000fd5b600080fd5b6000601f19601f8301169050919050565b61050081610344565b811461050b57600080fd5b5056fea26469706673582212205d23fccfb4bbf946d90c021dea548671fab9d4d5c804458dc88d10b88c8abc6a64736f6c63430008070033",
  "immutableReferences": {},
  "source": "//SPDX-License-Identifier: MIT\r\npragma solidity >=0.8.0 <0.9.0;\r\n\r\ncontract Utils {\r\n    function uintToString(uint256 _i)\r\n        public\r\n        pure\r\n        returns (string memory _uintAsString)\r\n    {\r\n        if (_i == 0) {\r\n            return \"0\";\r\n        }\r\n        uint256 j = _i;\r\n        uint256 len;\r\n        while (j != 0) {\r\n            len++;\r\n            j /= 10;\r\n        }\r\n        bytes memory bstr = new bytes(len);\r\n        uint256 k = len - 1;\r\n        while (_i != 0) {\r\n            bstr[k--] = bytes1(uint8(48 + (_i % 10)));\r\n            _i /= 10;\r\n        }\r\n        return string(bstr);\r\n    }\r\n}\r\n",
  "sourcePath": "C:\\projetos\\dao7\\contracts\\contracts\\Utils.sol",
  "compiler": {
    "name": "solc",
    "version": "0.8.7+commit.e28d00a7.Emscripten.clang"
  },
  "schemaVersion": "3.4.3",
  "updatedAt": "2021-10-29T14:23:13.336Z",
  "devdoc": {
    "kind": "dev",
    "methods": {},
    "version": 1
  },
  "userdoc": {
    "kind": "user",
    "methods": {},
    "version": 1
  }
}